{
  "contracts/IDOWithCollateralAndWhitelist.sol": {
    "IDOWithCollateralAndWhitelist": {
      "abi": [
        {
          "inputs": [
            {
              "components": [
                {
                  "internalType": "contract IERC20",
                  "name": "token",
                  "type": "address"
                },
                {
                  "internalType": "uint256",
                  "name": "forSale",
                  "type": "uint256"
                },
                {
                  "internalType": "uint256",
                  "name": "asking",
                  "type": "uint256"
                },
                {
                  "internalType": "uint256",
                  "name": "buyingStartsAt",
                  "type": "uint256"
                },
                {
                  "internalType": "uint256",
                  "name": "buyingEndsAt",
                  "type": "uint256"
                },
                {
                  "internalType": "uint256",
                  "name": "vestingStartsAt",
                  "type": "uint256"
                },
                {
                  "internalType": "uint256",
                  "name": "vestingEndsAt",
                  "type": "uint256"
                }
              ],
              "internalType": "struct Parameters",
              "name": "parameters",
              "type": "tuple"
            },
            {
              "components": [
                {
                  "internalType": "contract IERC20",
                  "name": "token",
                  "type": "address"
                },
                {
                  "internalType": "uint256",
                  "name": "amount",
                  "type": "uint256"
                }
              ],
              "internalType": "struct CollateralInfo",
              "name": "collateralInfo",
              "type": "tuple"
            }
          ],
          "stateMutability": "nonpayable",
          "type": "constructor"
        },
        {
          "anonymous": false,
          "inputs": [
            {
              "indexed": false,
              "internalType": "address",
              "name": "addr",
              "type": "address"
            },
            {
              "indexed": false,
              "internalType": "uint256",
              "name": "amount",
              "type": "uint256"
            }
          ],
          "name": "Claimed",
          "type": "event"
        },
        {
          "anonymous": false,
          "inputs": [
            {
              "indexed": false,
              "internalType": "address",
              "name": "addr",
              "type": "address"
            }
          ],
          "name": "CollateralRefunded",
          "type": "event"
        },
        {
          "anonymous": false,
          "inputs": [
            {
              "indexed": false,
              "internalType": "address",
              "name": "addr",
              "type": "address"
            }
          ],
          "name": "Collateralised",
          "type": "event"
        },
        {
          "anonymous": false,
          "inputs": [
            {
              "indexed": false,
              "internalType": "address",
              "name": "addr",
              "type": "address"
            },
            {
              "indexed": false,
              "internalType": "uint256",
              "name": "amount",
              "type": "uint256"
            }
          ],
          "name": "Contributed",
          "type": "event"
        },
        {
          "anonymous": false,
          "inputs": [
            {
              "indexed": true,
              "internalType": "address",
              "name": "previousOwner",
              "type": "address"
            },
            {
              "indexed": true,
              "internalType": "address",
              "name": "newOwner",
              "type": "address"
            }
          ],
          "name": "OwnershipTransferred",
          "type": "event"
        },
        {
          "anonymous": false,
          "inputs": [
            {
              "indexed": false,
              "internalType": "address",
              "name": "account",
              "type": "address"
            }
          ],
          "name": "Paused",
          "type": "event"
        },
        {
          "anonymous": false,
          "inputs": [
            {
              "indexed": false,
              "internalType": "address",
              "name": "addr",
              "type": "address"
            },
            {
              "indexed": false,
              "internalType": "uint256",
              "name": "amount",
              "type": "uint256"
            }
          ],
          "name": "Refunded",
          "type": "event"
        },
        {
          "anonymous": false,
          "inputs": [
            {
              "indexed": false,
              "internalType": "address",
              "name": "addr",
              "type": "address"
            },
            {
              "indexed": false,
              "internalType": "uint256",
              "name": "amount",
              "type": "uint256"
            }
          ],
          "name": "Returned",
          "type": "event"
        },
        {
          "anonymous": false,
          "inputs": [
            {
              "indexed": true,
              "internalType": "bytes32",
              "name": "role",
              "type": "bytes32"
            },
            {
              "indexed": true,
              "internalType": "bytes32",
              "name": "previousAdminRole",
              "type": "bytes32"
            },
            {
              "indexed": true,
              "internalType": "bytes32",
              "name": "newAdminRole",
              "type": "bytes32"
            }
          ],
          "name": "RoleAdminChanged",
          "type": "event"
        },
        {
          "anonymous": false,
          "inputs": [
            {
              "indexed": true,
              "internalType": "bytes32",
              "name": "role",
              "type": "bytes32"
            },
            {
              "indexed": true,
              "internalType": "address",
              "name": "account",
              "type": "address"
            },
            {
              "indexed": true,
              "internalType": "address",
              "name": "sender",
              "type": "address"
            }
          ],
          "name": "RoleGranted",
          "type": "event"
        },
        {
          "anonymous": false,
          "inputs": [
            {
              "indexed": true,
              "internalType": "bytes32",
              "name": "role",
              "type": "bytes32"
            },
            {
              "indexed": true,
              "internalType": "address",
              "name": "account",
              "type": "address"
            },
            {
              "indexed": true,
              "internalType": "address",
              "name": "sender",
              "type": "address"
            }
          ],
          "name": "RoleRevoked",
          "type": "event"
        },
        {
          "anonymous": false,
          "inputs": [
            {
              "indexed": false,
              "internalType": "address",
              "name": "account",
              "type": "address"
            }
          ],
          "name": "Unpaused",
          "type": "event"
        },
        {
          "anonymous": false,
          "inputs": [
            {
              "indexed": false,
              "internalType": "address",
              "name": "addr",
              "type": "address"
            },
            {
              "indexed": false,
              "internalType": "uint256",
              "name": "amount",
              "type": "uint256"
            }
          ],
          "name": "Withdrawn",
          "type": "event"
        },
        {
          "inputs": [],
          "name": "COLLATERALISED_ROLE",
          "outputs": [
            {
              "internalType": "bytes32",
              "name": "",
              "type": "bytes32"
            }
          ],
          "stateMutability": "view",
          "type": "function"
        },
        {
          "inputs": [],
          "name": "DEFAULT_ADMIN_ROLE",
          "outputs": [
            {
              "internalType": "bytes32",
              "name": "",
              "type": "bytes32"
            }
          ],
          "stateMutability": "view",
          "type": "function"
        },
        {
          "inputs": [],
          "name": "WHITELISTED_ROLE",
          "outputs": [
            {
              "internalType": "bytes32",
              "name": "",
              "type": "bytes32"
            }
          ],
          "stateMutability": "view",
          "type": "function"
        },
        {
          "inputs": [],
          "name": "WHITELISTER_ROLE",
          "outputs": [
            {
              "internalType": "bytes32",
              "name": "",
              "type": "bytes32"
            }
          ],
          "stateMutability": "view",
          "type": "function"
        },
        {
          "inputs": [],
          "name": "claim",
          "outputs": [],
          "stateMutability": "nonpayable",
          "type": "function"
        },
        {
          "inputs": [
            {
              "internalType": "address",
              "name": "addr",
              "type": "address"
            }
          ],
          "name": "claimableOf",
          "outputs": [
            {
              "internalType": "uint256",
              "name": "claimable",
              "type": "uint256"
            }
          ],
          "stateMutability": "view",
          "type": "function"
        },
        {
          "inputs": [],
          "name": "collateralise",
          "outputs": [],
          "stateMutability": "nonpayable",
          "type": "function"
        },
        {
          "inputs": [],
          "name": "contribute",
          "outputs": [],
          "stateMutability": "payable",
          "type": "function"
        },
        {
          "inputs": [
            {
              "internalType": "uint256",
              "name": "amount",
              "type": "uint256"
            }
          ],
          "name": "forceReturn",
          "outputs": [],
          "stateMutability": "nonpayable",
          "type": "function"
        },
        {
          "inputs": [
            {
              "internalType": "uint256",
              "name": "amount",
              "type": "uint256"
            }
          ],
          "name": "forceWithdraw",
          "outputs": [],
          "stateMutability": "nonpayable",
          "type": "function"
        },
        {
          "inputs": [],
          "name": "getCollateralInfo",
          "outputs": [
            {
              "components": [
                {
                  "internalType": "contract IERC20",
                  "name": "token",
                  "type": "address"
                },
                {
                  "internalType": "uint256",
                  "name": "amount",
                  "type": "uint256"
                }
              ],
              "internalType": "struct CollateralInfo",
              "name": "",
              "type": "tuple"
            }
          ],
          "stateMutability": "view",
          "type": "function"
        },
        {
          "inputs": [],
          "name": "getGlobalStats",
          "outputs": [
            {
              "components": [
                {
                  "internalType": "uint256",
                  "name": "contributed",
                  "type": "uint256"
                },
                {
                  "internalType": "uint256",
                  "name": "claimed",
                  "type": "uint256"
                },
                {
                  "internalType": "uint256",
                  "name": "withdrawn",
                  "type": "uint256"
                },
                {
                  "internalType": "uint256",
                  "name": "returned",
                  "type": "uint256"
                }
              ],
              "internalType": "struct GlobalStats",
              "name": "",
              "type": "tuple"
            }
          ],
          "stateMutability": "view",
          "type": "function"
        },
        {
          "inputs": [],
          "name": "getParameters",
          "outputs": [
            {
              "components": [
                {
                  "internalType": "contract IERC20",
                  "name": "token",
                  "type": "address"
                },
                {
                  "internalType": "uint256",
                  "name": "forSale",
                  "type": "uint256"
                },
                {
                  "internalType": "uint256",
                  "name": "asking",
                  "type": "uint256"
                },
                {
                  "internalType": "uint256",
                  "name": "buyingStartsAt",
                  "type": "uint256"
                },
                {
                  "internalType": "uint256",
                  "name": "buyingEndsAt",
                  "type": "uint256"
                },
                {
                  "internalType": "uint256",
                  "name": "vestingStartsAt",
                  "type": "uint256"
                },
                {
                  "internalType": "uint256",
                  "name": "vestingEndsAt",
                  "type": "uint256"
                }
              ],
              "internalType": "struct Parameters",
              "name": "",
              "type": "tuple"
            }
          ],
          "stateMutability": "view",
          "type": "function"
        },
        {
          "inputs": [
            {
              "internalType": "bytes32",
              "name": "role",
              "type": "bytes32"
            }
          ],
          "name": "getRoleAdmin",
          "outputs": [
            {
              "internalType": "bytes32",
              "name": "",
              "type": "bytes32"
            }
          ],
          "stateMutability": "view",
          "type": "function"
        },
        {
          "inputs": [
            {
              "internalType": "bytes32",
              "name": "role",
              "type": "bytes32"
            },
            {
              "internalType": "uint256",
              "name": "index",
              "type": "uint256"
            }
          ],
          "name": "getRoleMember",
          "outputs": [
            {
              "internalType": "address",
              "name": "",
              "type": "address"
            }
          ],
          "stateMutability": "view",
          "type": "function"
        },
        {
          "inputs": [
            {
              "internalType": "bytes32",
              "name": "role",
              "type": "bytes32"
            }
          ],
          "name": "getRoleMemberCount",
          "outputs": [
            {
              "internalType": "uint256",
              "name": "",
              "type": "uint256"
            }
          ],
          "stateMutability": "view",
          "type": "function"
        },
        {
          "inputs": [
            {
              "internalType": "address",
              "name": "addr",
              "type": "address"
            }
          ],
          "name": "getUserStatsOf",
          "outputs": [
            {
              "components": [
                {
                  "internalType": "uint256",
                  "name": "contributed",
                  "type": "uint256"
                },
                {
                  "internalType": "uint256",
                  "name": "claimed",
                  "type": "uint256"
                },
                {
                  "internalType": "uint256",
                  "name": "refunded",
                  "type": "uint256"
                }
              ],
              "internalType": "struct UserStats",
              "name": "",
              "type": "tuple"
            }
          ],
          "stateMutability": "view",
          "type": "function"
        },
        {
          "inputs": [
            {
              "internalType": "bytes32",
              "name": "role",
              "type": "bytes32"
            },
            {
              "internalType": "address",
              "name": "account",
              "type": "address"
            }
          ],
          "name": "grantRole",
          "outputs": [],
          "stateMutability": "nonpayable",
          "type": "function"
        },
        {
          "inputs": [
            {
              "internalType": "bytes32",
              "name": "role",
              "type": "bytes32"
            },
            {
              "internalType": "address",
              "name": "account",
              "type": "address"
            }
          ],
          "name": "hasRole",
          "outputs": [
            {
              "internalType": "bool",
              "name": "",
              "type": "bool"
            }
          ],
          "stateMutability": "view",
          "type": "function"
        },
        {
          "inputs": [],
          "name": "owner",
          "outputs": [
            {
              "internalType": "address",
              "name": "",
              "type": "address"
            }
          ],
          "stateMutability": "view",
          "type": "function"
        },
        {
          "inputs": [],
          "name": "pause",
          "outputs": [],
          "stateMutability": "nonpayable",
          "type": "function"
        },
        {
          "inputs": [],
          "name": "paused",
          "outputs": [
            {
              "internalType": "bool",
              "name": "",
              "type": "bool"
            }
          ],
          "stateMutability": "view",
          "type": "function"
        },
        {
          "inputs": [],
          "name": "refund",
          "outputs": [],
          "stateMutability": "nonpayable",
          "type": "function"
        },
        {
          "inputs": [],
          "name": "refundCollateral",
          "outputs": [],
          "stateMutability": "nonpayable",
          "type": "function"
        },
        {
          "inputs": [
            {
              "internalType": "address",
              "name": "addr",
              "type": "address"
            }
          ],
          "name": "refundableOf",
          "outputs": [
            {
              "internalType": "uint256",
              "name": "refundable",
              "type": "uint256"
            }
          ],
          "stateMutability": "view",
          "type": "function"
        },
        {
          "inputs": [],
          "name": "renounceOwnership",
          "outputs": [],
          "stateMutability": "nonpayable",
          "type": "function"
        },
        {
          "inputs": [
            {
              "internalType": "bytes32",
              "name": "role",
              "type": "bytes32"
            },
            {
              "internalType": "address",
              "name": "account",
              "type": "address"
            }
          ],
          "name": "renounceRole",
          "outputs": [],
          "stateMutability": "nonpayable",
          "type": "function"
        },
        {
          "inputs": [],
          "name": "returnUnsold",
          "outputs": [],
          "stateMutability": "nonpayable",
          "type": "function"
        },
        {
          "inputs": [],
          "name": "returnable",
          "outputs": [
            {
              "internalType": "uint256",
              "name": "",
              "type": "uint256"
            }
          ],
          "stateMutability": "view",
          "type": "function"
        },
        {
          "inputs": [
            {
              "internalType": "bytes32",
              "name": "role",
              "type": "bytes32"
            },
            {
              "internalType": "address",
              "name": "account",
              "type": "address"
            }
          ],
          "name": "revokeRole",
          "outputs": [],
          "stateMutability": "nonpayable",
          "type": "function"
        },
        {
          "inputs": [
            {
              "internalType": "bytes4",
              "name": "interfaceId",
              "type": "bytes4"
            }
          ],
          "name": "supportsInterface",
          "outputs": [
            {
              "internalType": "bool",
              "name": "",
              "type": "bool"
            }
          ],
          "stateMutability": "view",
          "type": "function"
        },
        {
          "inputs": [
            {
              "internalType": "address",
              "name": "newOwner",
              "type": "address"
            }
          ],
          "name": "transferOwnership",
          "outputs": [],
          "stateMutability": "nonpayable",
          "type": "function"
        },
        {
          "inputs": [],
          "name": "unpause",
          "outputs": [],
          "stateMutability": "nonpayable",
          "type": "function"
        },
        {
          "inputs": [],
          "name": "withdraw",
          "outputs": [],
          "stateMutability": "nonpayable",
          "type": "function"
        },
        {
          "inputs": [],
          "name": "withdrawable",
          "outputs": [
            {
              "internalType": "uint256",
              "name": "",
              "type": "uint256"
            }
          ],
          "stateMutability": "view",
          "type": "function"
        }
      ],
      "evm": {
        "bytecode": {
          "linkReferences": {},
          "object": "60806040527f54b0854ed6979a3aeff7348aa2e79dc669787b689f50f6d4142c6ab13f8adff2600f557f8619cecd8b9e095ab43867f5b69d492180450fe862e6b50bfbfb24b75dd84c8a6012557f8429d542926e6695b59ac6fbdcd9b37e8b1aeb757afab06ab60b1bb5878c3b496013553480156200007d57600080fd5b50604051620046e0380380620046e08339818101604052810190620000a39190620008c9565b8082620000c5620000b96200028260201b60201c565b6200028a60201b60201c565b60008060146101000a81548160ff021916908315150217905550806000015173ffffffffffffffffffffffffffffffffffffffff166323b872dd333084602001516040518463ffffffff1660e01b8152600401620001269392919062000933565b6020604051808303816000875af115801562000146573d6000803e3d6000fd5b505050506040513d601f19601f820116820180604052508101906200016c9190620009ad565b5080600160008201518160000160006101000a81548173ffffffffffffffffffffffffffffffffffffffff021916908373ffffffffffffffffffffffffffffffffffffffff1602179055506020820151816001015560408201518160020155606082015181600301556080820151816004015560a0820151816005015560c082015181600601559050505080601060008201518160000160006101000a81548173ffffffffffffffffffffffffffffffffffffffff021916908373ffffffffffffffffffffffffffffffffffffffff1602179055506020820151816001015590505050620002656013546012546200034e60201b60201c565b6200027a6000801b33620003b260201b60201c565b5050620009df565b600033905090565b60008060009054906101000a900473ffffffffffffffffffffffffffffffffffffffff169050816000806101000a81548173ffffffffffffffffffffffffffffffffffffffff021916908373ffffffffffffffffffffffffffffffffffffffff1602179055508173ffffffffffffffffffffffffffffffffffffffff168173ffffffffffffffffffffffffffffffffffffffff167f8be0079c531659141344cd1fd0a4f28419497f9722a3daafe3b4186f6b6457e060405160405180910390a35050565b60006200036183620003fa60201b60201c565b905081600d6000858152602001908152602001600020600101819055508181847fbd79b86ffe0ab8e8776151514217cd7cacd52c909f66475c3af44e129f0b00ff60405160405180910390a4505050565b620003c982826200041a60201b62001e061760201c565b620003f581600e60008581526020019081526020016000206200050c60201b62001ee71790919060201c565b505050565b6000600d6000838152602001908152602001600020600101549050919050565b6200042c82826200054460201b60201c565b62000508576001600d600084815260200190815260200160002060000160008373ffffffffffffffffffffffffffffffffffffffff1673ffffffffffffffffffffffffffffffffffffffff16815260200190815260200160002060006101000a81548160ff021916908315150217905550620004ad6200028260201b60201c565b73ffffffffffffffffffffffffffffffffffffffff168173ffffffffffffffffffffffffffffffffffffffff16837f2f8788117e7eff1d82e926ec794901d17c78024a50270940304540a733656f0d60405160405180910390a45b5050565b60006200053c836000018373ffffffffffffffffffffffffffffffffffffffff1660001b620005af60201b60201c565b905092915050565b6000600d600084815260200190815260200160002060000160008373ffffffffffffffffffffffffffffffffffffffff1673ffffffffffffffffffffffffffffffffffffffff16815260200190815260200160002060009054906101000a900460ff16905092915050565b6000620005c383836200062960201b60201c565b6200061e57826000018290806001815401808255809150506001900390600052602060002001600090919091909150558260000180549050836001016000848152602001908152602001600020819055506001905062000623565b600090505b92915050565b600080836001016000848152602001908152602001600020541415905092915050565b6000604051905090565b600080fd5b600080fd5b6000601f19601f8301169050919050565b7f4e487b7100000000000000000000000000000000000000000000000000000000600052604160045260246000fd5b620006ab8262000660565b810181811067ffffffffffffffff82111715620006cd57620006cc62000671565b5b80604052505050565b6000620006e26200064c565b9050620006f08282620006a0565b919050565b600073ffffffffffffffffffffffffffffffffffffffff82169050919050565b60006200072282620006f5565b9050919050565b6000620007368262000715565b9050919050565b620007488162000729565b81146200075457600080fd5b50565b60008151905062000768816200073d565b92915050565b6000819050919050565b62000783816200076e565b81146200078f57600080fd5b50565b600081519050620007a38162000778565b92915050565b600060e08284031215620007c257620007c16200065b565b5b620007ce60e0620006d6565b90506000620007e08482850162000757565b6000830152506020620007f68482850162000792565b60208301525060406200080c8482850162000792565b6040830152506060620008228482850162000792565b6060830152506080620008388482850162000792565b60808301525060a06200084e8482850162000792565b60a08301525060c0620008648482850162000792565b60c08301525092915050565b6000604082840312156200088957620008886200065b565b5b620008956040620006d6565b90506000620008a78482850162000757565b6000830152506020620008bd8482850162000792565b60208301525092915050565b6000806101208385031215620008e457620008e362000656565b5b6000620008f485828601620007a9565b92505060e0620009078582860162000870565b9150509250929050565b6200091c8162000715565b82525050565b6200092d816200076e565b82525050565b60006060820190506200094a600083018662000911565b62000959602083018562000911565b62000968604083018462000922565b949350505050565b60008115159050919050565b620009878162000970565b81146200099357600080fd5b50565b600081519050620009a7816200097c565b92915050565b600060208284031215620009c657620009c562000656565b5b6000620009d68482850162000996565b91505092915050565b613cf180620009ef6000396000f3fe6080604052600436106102045760003560e01c80635feb61911161011857806391d14854116100a0578063b2ea088d1161006f578063b2ea088d146106e9578063ca15c87314610700578063d547741f1461073d578063d7bb99ba14610766578063f2fde38b1461077057610204565b806391d1485414610619578063a217fddf14610656578063a5ea11da14610681578063b22163e3146106ac57610204565b80638456cb59116100e75780638456cb59146105465780638903ab9d1461055d5780638da5cb5b1461059a5780638f705903146105c55780639010d07c146105dc57610204565b80635feb6191146104ae5780636b4169c3146104d9578063715018a6146105045780637a3226ec1461051b57610204565b806336568abe1161019b5780634e71d92d1161016a5780634e71d92d146103ff5780635018830114610416578063570618e114610441578063590e1ae31461046c5780635c975abb1461048357610204565b806336568abe1461037d5780633ccfd60b146103a65780633f4ba83a146103bd5780634da56a6f146103d457610204565b8063248a9ca3116101d7578063248a9ca3146102c35780632bf9935d146103005780632e0bcb43146103295780632f2ff15d1461035457610204565b806301ffc9a7146102095780630fcc56f7146102465780631ae755ee1461026f5780632098b7ff146102ac575b600080fd5b34801561021557600080fd5b50610230600480360381019061022b9190612bdd565b610799565b60405161023d9190612c25565b60405180910390f35b34801561025257600080fd5b5061026d60048036038101906102689190612c76565b610813565b005b34801561027b57600080fd5b5061029660048036038101906102919190612d01565b610909565b6040516102a39190612d7f565b60405180910390f35b3480156102b857600080fd5b506102c1610980565b005b3480156102cf57600080fd5b506102ea60048036038101906102e59190612dd0565b610b01565b6040516102f79190612e0c565b60405180910390f35b34801561030c57600080fd5b5061032760048036038101906103229190612c76565b610b21565b005b34801561033557600080fd5b5061033e610c44565b60405161034b9190612eb5565b60405180910390f35b34801561036057600080fd5b5061037b60048036038101906103769190612ed0565b610cbe565b005b34801561038957600080fd5b506103a4600480360381019061039f9190612ed0565b610ce7565b005b3480156103b257600080fd5b506103bb610d6a565b005b3480156103c957600080fd5b506103d2610f09565b005b3480156103e057600080fd5b506103e9610f8f565b6040516103f69190612f1f565b60405180910390f35b34801561040b57600080fd5b50610414611007565b005b34801561042257600080fd5b5061042b6111ff565b6040516104389190612f1f565b60405180910390f35b34801561044d57600080fd5b5061045661125d565b6040516104639190612e0c565b60405180910390f35b34801561047857600080fd5b50610481611263565b005b34801561048f57600080fd5b50610498611459565b6040516104a59190612c25565b60405180910390f35b3480156104ba57600080fd5b506104c361146f565b6040516104d09190612e0c565b60405180910390f35b3480156104e557600080fd5b506104ee611475565b6040516104fb9190612f8f565b60405180910390f35b34801561051057600080fd5b506105196114b7565b005b34801561052757600080fd5b5061053061153f565b60405161053d9190612e0c565b60405180910390f35b34801561055257600080fd5b5061055b611545565b005b34801561056957600080fd5b50610584600480360381019061057f9190612d01565b6115cb565b6040516105919190612f1f565b60405180910390f35b3480156105a657600080fd5b506105af61161b565b6040516105bc9190612fb9565b60405180910390f35b3480156105d157600080fd5b506105da611644565b005b3480156105e857600080fd5b5061060360048036038101906105fe9190612fd4565b6117c7565b6040516106109190612fb9565b60405180910390f35b34801561062557600080fd5b50610640600480360381019061063b9190612ed0565b6117f6565b60405161064d9190612c25565b60405180910390f35b34801561066257600080fd5b5061066b611861565b6040516106789190612e0c565b60405180910390f35b34801561068d57600080fd5b50610696611868565b6040516106a391906130a2565b60405180910390f35b3480156106b857600080fd5b506106d360048036038101906106ce9190612d01565b611914565b6040516106e09190612f1f565b60405180910390f35b3480156106f557600080fd5b506106fe611964565b005b34801561070c57600080fd5b5061072760048036038101906107229190612dd0565b611b30565b6040516107349190612f1f565b60405180910390f35b34801561074957600080fd5b50610764600480360381019061075f9190612ed0565b611b54565b005b61076e611b7d565b005b34801561077c57600080fd5b5061079760048036038101906107929190612d01565b611d0e565b005b60007f5a05180f000000000000000000000000000000000000000000000000000000007bffffffffffffffffffffffffffffffffffffffffffffffffffffffff1916827bffffffffffffffffffffffffffffffffffffffffffffffffffffffff1916148061080c575061080b82611f17565b5b9050919050565b61081b611f91565b73ffffffffffffffffffffffffffffffffffffffff1661083961161b565b73ffffffffffffffffffffffffffffffffffffffff161461088f576040517f08c379a00000000000000000000000000000000000000000000000000000000081526004016108869061311a565b60405180910390fd5b60003373ffffffffffffffffffffffffffffffffffffffff16826040516108b59061316b565b60006040518083038185875af1925050503d80600081146108f2576040519150601f19603f3d011682016040523d82523d6000602084013e6108f7565b606091505b505090508061090557600080fd5b5050565b610911612ab4565b600c60008373ffffffffffffffffffffffffffffffffffffffff1673ffffffffffffffffffffffffffffffffffffffff16815260200190815260200160002060405180606001604052908160008201548152602001600182015481526020016002820154815250509050919050565b6001600401544210156109c8576040517f08c379a00000000000000000000000000000000000000000000000000000000081526004016109bf906131cc565b60405180910390fd5b6109d4600f54336117f6565b610a13576040517f08c379a0000000000000000000000000000000000000000000000000000000008152600401610a0a90613238565b60405180910390fd5b601060000160009054906101000a900473ffffffffffffffffffffffffffffffffffffffff1673ffffffffffffffffffffffffffffffffffffffff1663a9059cbb336010600101546040518363ffffffff1660e01b8152600401610a78929190613258565b6020604051808303816000875af1158015610a97573d6000803e3d6000fd5b505050506040513d601f19601f82011682018060405250810190610abb91906132ad565b50610ac8600f5433611f99565b7fac1020c5e021e2c2aefe4cf6c0f77fab9c73174ad863b68f51e1abe8b7de0fa233604051610af79190612fb9565b60405180910390a1565b6000600d6000838152602001908152602001600020600101549050919050565b610b29611f91565b73ffffffffffffffffffffffffffffffffffffffff16610b4761161b565b73ffffffffffffffffffffffffffffffffffffffff1614610b9d576040517f08c379a0000000000000000000000000000000000000000000000000000000008152600401610b949061311a565b60405180910390fd5b600160000160009054906101000a900473ffffffffffffffffffffffffffffffffffffffff1673ffffffffffffffffffffffffffffffffffffffff1663a9059cbb33836040518363ffffffff1660e01b8152600401610bfd929190613258565b6020604051808303816000875af1158015610c1c573d6000803e3d6000fd5b505050506040513d601f19601f82011682018060405250810190610c4091906132ad565b5050565b610c4c612ad5565b60106040518060400160405290816000820160009054906101000a900473ffffffffffffffffffffffffffffffffffffffff1673ffffffffffffffffffffffffffffffffffffffff1673ffffffffffffffffffffffffffffffffffffffff168152602001600182015481525050905090565b610cc782610b01565b610cd881610cd3611f91565b611fcd565b610ce2838361206a565b505050565b610cef611f91565b73ffffffffffffffffffffffffffffffffffffffff168173ffffffffffffffffffffffffffffffffffffffff1614610d5c576040517f08c379a0000000000000000000000000000000000000000000000000000000008152600401610d539061334c565b60405180910390fd5b610d668282611f99565b5050565b610d72611f91565b73ffffffffffffffffffffffffffffffffffffffff16610d9061161b565b73ffffffffffffffffffffffffffffffffffffffff1614610de6576040517f08c379a0000000000000000000000000000000000000000000000000000000008152600401610ddd9061311a565b60405180910390fd5b600160040154421015610e2e576040517f08c379a0000000000000000000000000000000000000000000000000000000008152600401610e25906131cc565b60405180910390fd5b6000610e386111ff565b90508060086002016000828254610e4f919061339b565b9250508190555060003373ffffffffffffffffffffffffffffffffffffffff1682604051610e7c9061316b565b60006040518083038185875af1925050503d8060008114610eb9576040519150601f19603f3d011682016040523d82523d6000602084013e610ebe565b606091505b5050905080610ecc57600080fd5b7f7084f5476618d8e60b11ef0d7d3f06914655adb8793e28ff7f018d4c76d505d53383604051610efd929190613258565b60405180910390a15050565b610f11611f91565b73ffffffffffffffffffffffffffffffffffffffff16610f2f61161b565b73ffffffffffffffffffffffffffffffffffffffff1614610f85576040517f08c379a0000000000000000000000000000000000000000000000000000000008152600401610f7c9061311a565b60405180910390fd5b610f8d61209e565b565b6000600160040154421015610fa75760009050611004565b610faf61213f565b15610fbd5760009050611004565b6008600301546001600201546008600001546001800154610fde91906133f1565b610fe8919061347a565b6001800154610ff791906134ab565b61100191906134ab565b90505b90565b61100f611459565b1561104f576040517f08c379a00000000000000000000000000000000000000000000000000000000081526004016110469061352b565b60405180910390fd5b600160050154421015611097576040517f08c379a000000000000000000000000000000000000000000000000000000000815260040161108e90613597565b60405180910390fd5b6000600c60003373ffffffffffffffffffffffffffffffffffffffff1673ffffffffffffffffffffffffffffffffffffffff168152602001908152602001600020905060006110e582612153565b9050808260010160008282546110fb919061339b565b925050819055508060086001016000828254611117919061339b565b92505081905550600160000160009054906101000a900473ffffffffffffffffffffffffffffffffffffffff1673ffffffffffffffffffffffffffffffffffffffff1663a9059cbb33836040518363ffffffff1660e01b815260040161117e929190613258565b6020604051808303816000875af115801561119d573d6000803e3d6000fd5b505050506040513d601f19601f820116820180604052508101906111c191906132ad565b507fd8138f8a3f377c5259ca548e70e4c2de94f129f5a11036a15b69513cba2b426a33826040516111f3929190613258565b60405180910390a15050565b6000600160040154421015611217576000905061125a565b61121f61213f565b156112415760086002015460016002015461123a91906134ab565b905061125a565b60086002015460086000015461125791906134ab565b90505b90565b60125481565b61126b611459565b156112ab576040517f08c379a00000000000000000000000000000000000000000000000000000000081526004016112a29061352b565b60405180910390fd5b6001600401544210156112f3576040517f08c379a00000000000000000000000000000000000000000000000000000000081526004016112ea906131cc565b60405180910390fd5b6112fb61213f565b61133a576040517f08c379a000000000000000000000000000000000000000000000000000000000815260040161133190613603565b60405180910390fd5b6000600c60003373ffffffffffffffffffffffffffffffffffffffff1673ffffffffffffffffffffffffffffffffffffffff1681526020019081526020016000209050600061138882612247565b90508082600201600082825461139e919061339b565b9250508190555060003373ffffffffffffffffffffffffffffffffffffffff16826040516113cb9061316b565b60006040518083038185875af1925050503d8060008114611408576040519150601f19603f3d011682016040523d82523d6000602084013e61140d565b606091505b505090508061141b57600080fd5b7fd7dee2702d63ad89917b6a4da9981c90c4d24f8c2bdfd64c604ecae57d8d0651338360405161144c929190613258565b60405180910390a1505050565b60008060149054906101000a900460ff16905090565b600f5481565b61147d612b05565b6008604051806080016040529081600082015481526020016001820154815260200160028201548152602001600382015481525050905090565b6114bf611f91565b73ffffffffffffffffffffffffffffffffffffffff166114dd61161b565b73ffffffffffffffffffffffffffffffffffffffff1614611533576040517f08c379a000000000000000000000000000000000000000000000000000000000815260040161152a9061311a565b60405180910390fd5b61153d60006122bf565b565b60135481565b61154d611f91565b73ffffffffffffffffffffffffffffffffffffffff1661156b61161b565b73ffffffffffffffffffffffffffffffffffffffff16146115c1576040517f08c379a00000000000000000000000000000000000000000000000000000000081526004016115b89061311a565b60405180910390fd5b6115c9612383565b565b6000611614600c60008473ffffffffffffffffffffffffffffffffffffffff1673ffffffffffffffffffffffffffffffffffffffff168152602001908152602001600020612153565b9050919050565b60008060009054906101000a900473ffffffffffffffffffffffffffffffffffffffff16905090565b600160030154421061168b576040517f08c379a00000000000000000000000000000000000000000000000000000000081526004016116829061366f565b60405180910390fd5b611697600f54336117f6565b156116d7576040517f08c379a00000000000000000000000000000000000000000000000000000000081526004016116ce906136db565b60405180910390fd5b601060000160009054906101000a900473ffffffffffffffffffffffffffffffffffffffff1673ffffffffffffffffffffffffffffffffffffffff166323b872dd33306010600101546040518463ffffffff1660e01b815260040161173e939291906136fb565b6020604051808303816000875af115801561175d573d6000803e3d6000fd5b505050506040513d601f19601f8201168201806040525081019061178191906132ad565b5061178e600f543361206a565b7fc0f50b8a17dd6fe159e4afcbffdf63a4ad6722c59a1aaa0697b9850953bd1a1b336040516117bd9190612fb9565b60405180910390a1565b60006117ee82600e600086815260200190815260200160002061242690919063ffffffff16565b905092915050565b6000600d600084815260200190815260200160002060000160008373ffffffffffffffffffffffffffffffffffffffff1673ffffffffffffffffffffffffffffffffffffffff16815260200190815260200160002060009054906101000a900460ff16905092915050565b6000801b81565b611870612b2d565b60016040518060e00160405290816000820160009054906101000a900473ffffffffffffffffffffffffffffffffffffffff1673ffffffffffffffffffffffffffffffffffffffff1673ffffffffffffffffffffffffffffffffffffffff1681526020016001820154815260200160028201548152602001600382015481526020016004820154815260200160058201548152602001600682015481525050905090565b600061195d600c60008473ffffffffffffffffffffffffffffffffffffffff1673ffffffffffffffffffffffffffffffffffffffff168152602001908152602001600020612247565b9050919050565b61196c611f91565b73ffffffffffffffffffffffffffffffffffffffff1661198a61161b565b73ffffffffffffffffffffffffffffffffffffffff16146119e0576040517f08c379a00000000000000000000000000000000000000000000000000000000081526004016119d79061311a565b60405180910390fd5b600160040154421015611a28576040517f08c379a0000000000000000000000000000000000000000000000000000000008152600401611a1f906131cc565b60405180910390fd5b6000611a32610f8f565b90508060086003016000828254611a49919061339b565b92505081905550600160000160009054906101000a900473ffffffffffffffffffffffffffffffffffffffff1673ffffffffffffffffffffffffffffffffffffffff1663a9059cbb33836040518363ffffffff1660e01b8152600401611ab0929190613258565b6020604051808303816000875af1158015611acf573d6000803e3d6000fd5b505050506040513d601f19601f82011682018060405250810190611af391906132ad565b507fdd81098bbc043431d4a440ca8823673fd1129893ab79f9838df4cf3d5e3812593382604051611b25929190613258565b60405180910390a150565b6000611b4d600e6000848152602001908152602001600020612440565b9050919050565b611b5d82610b01565b611b6e81611b69611f91565b611fcd565b611b788383611f99565b505050565b611b85611459565b15611bc5576040517f08c379a0000000000000000000000000000000000000000000000000000000008152600401611bbc9061352b565b60405180910390fd5b600160030154421015611c0d576040517f08c379a0000000000000000000000000000000000000000000000000000000008152600401611c049061377e565b60405180910390fd5b6001600401544210611c54576040517f08c379a0000000000000000000000000000000000000000000000000000000008152600401611c4b906137ea565b60405180910390fd5b611c5e3334612455565b34600c60003373ffffffffffffffffffffffffffffffffffffffff1673ffffffffffffffffffffffffffffffffffffffff1681526020019081526020016000206000016000828254611cb0919061339b565b925050819055503460086000016000828254611ccc919061339b565b925050819055507f62722348256371b5147820d6cad90c40fd2da1ccee18c3ed52c0bca5a61dbbab3334604051611d04929190613258565b60405180910390a1565b611d16611f91565b73ffffffffffffffffffffffffffffffffffffffff16611d3461161b565b73ffffffffffffffffffffffffffffffffffffffff1614611d8a576040517f08c379a0000000000000000000000000000000000000000000000000000000008152600401611d819061311a565b60405180910390fd5b600073ffffffffffffffffffffffffffffffffffffffff168173ffffffffffffffffffffffffffffffffffffffff161415611dfa576040517f08c379a0000000000000000000000000000000000000000000000000000000008152600401611df19061387c565b60405180910390fd5b611e03816122bf565b50565b611e1082826117f6565b611ee3576001600d600084815260200190815260200160002060000160008373ffffffffffffffffffffffffffffffffffffffff1673ffffffffffffffffffffffffffffffffffffffff16815260200190815260200160002060006101000a81548160ff021916908315150217905550611e88611f91565b73ffffffffffffffffffffffffffffffffffffffff168173ffffffffffffffffffffffffffffffffffffffff16837f2f8788117e7eff1d82e926ec794901d17c78024a50270940304540a733656f0d60405160405180910390a45b5050565b6000611f0f836000018373ffffffffffffffffffffffffffffffffffffffff1660001b612463565b905092915050565b60007f7965db0b000000000000000000000000000000000000000000000000000000007bffffffffffffffffffffffffffffffffffffffffffffffffffffffff1916827bffffffffffffffffffffffffffffffffffffffffffffffffffffffff19161480611f8a5750611f89826124d3565b5b9050919050565b600033905090565b611fa3828261253d565b611fc881600e600085815260200190815260200160002061261f90919063ffffffff16565b505050565b611fd782826117f6565b61206657611ffc8173ffffffffffffffffffffffffffffffffffffffff16601461264f565b61200a8360001c602061264f565b60405160200161201b9291906139ae565b6040516020818303038152906040526040517f08c379a000000000000000000000000000000000000000000000000000000000815260040161205d9190613a32565b60405180910390fd5b5050565b6120748282611e06565b61209981600e6000858152602001908152602001600020611ee790919063ffffffff16565b505050565b6120a6611459565b6120e5576040517f08c379a00000000000000000000000000000000000000000000000000000000081526004016120dc90613aa0565b60405180910390fd5b60008060146101000a81548160ff0219169083151502179055507f5db9ee0a495bf2e6ff9c91a7834c1ba4fdd244a5e8aa4e537bd38aeae4b073aa612128611f91565b6040516121359190612fb9565b60405180910390a1565b600060016002015460086000015411905090565b600060016005015442101561216b5760009050612242565b60006001600501544261217e91906134ab565b9050600060016005015460016006015461219891906134ab565b90506000818311156121aa57816121ac565b825b905060006121b861213f565b156121e857600860000154600180015487600001546121d791906133f1565b6121e1919061347a565b905061220f565b6001800154600160020154876000015461220291906133f1565b61220c919061347a565b90505b600083838361221e91906133f1565b612228919061347a565b905086600101548161223a91906134ab565b955050505050505b919050565b600060016004015442101561225f57600090506122ba565b61226761213f565b61227457600090506122ba565b8160020154600860000154600160020154846000015461229491906133f1565b61229e919061347a565b83600001546122ad91906134ab565b6122b791906134ab565b90505b919050565b60008060009054906101000a900473ffffffffffffffffffffffffffffffffffffffff169050816000806101000a81548173ffffffffffffffffffffffffffffffffffffffff021916908373ffffffffffffffffffffffffffffffffffffffff1602179055508173ffffffffffffffffffffffffffffffffffffffff168173ffffffffffffffffffffffffffffffffffffffff167f8be0079c531659141344cd1fd0a4f28419497f9722a3daafe3b4186f6b6457e060405160405180910390a35050565b61238b611459565b156123cb576040517f08c379a00000000000000000000000000000000000000000000000000000000081526004016123c29061352b565b60405180910390fd5b6001600060146101000a81548160ff0219169083151502179055507f62e78cea01bee320cd4e420270b5ea74000d11b0c9f74754ebdbfc544b05a25861240f611f91565b60405161241c9190612fb9565b60405180910390a1565b6000612435836000018361288b565b60001c905092915050565b600061244e826000016128b6565b9050919050565b61245f82826128c7565b5050565b600061246f8383612920565b6124c85782600001829080600181540180825580915050600190039060005260206000200160009091909190915055826000018054905083600101600084815260200190815260200160002081905550600190506124cd565b600090505b92915050565b60007f01ffc9a7000000000000000000000000000000000000000000000000000000007bffffffffffffffffffffffffffffffffffffffffffffffffffffffff1916827bffffffffffffffffffffffffffffffffffffffffffffffffffffffff1916149050919050565b61254782826117f6565b1561261b576000600d600084815260200190815260200160002060000160008373ffffffffffffffffffffffffffffffffffffffff1673ffffffffffffffffffffffffffffffffffffffff16815260200190815260200160002060006101000a81548160ff0219169083151502179055506125c0611f91565b73ffffffffffffffffffffffffffffffffffffffff168173ffffffffffffffffffffffffffffffffffffffff16837ff6391f5c32d9c69d2a47ea670b442974b53935d1edc7fd64eb21e047a839171b60405160405180910390a45b5050565b6000612647836000018373ffffffffffffffffffffffffffffffffffffffff1660001b612943565b905092915050565b60606000600283600261266291906133f1565b61266c919061339b565b67ffffffffffffffff81111561268557612684613ac0565b5b6040519080825280601f01601f1916602001820160405280156126b75781602001600182028036833780820191505090505b5090507f3000000000000000000000000000000000000000000000000000000000000000816000815181106126ef576126ee613aef565b5b60200101907effffffffffffffffffffffffffffffffffffffffffffffffffffffffffffff1916908160001a9053507f78000000000000000000000000000000000000000000000000000000000000008160018151811061275357612752613aef565b5b60200101907effffffffffffffffffffffffffffffffffffffffffffffffffffffffffffff1916908160001a9053506000600184600261279391906133f1565b61279d919061339b565b90505b600181111561283d577f3031323334353637383961626364656600000000000000000000000000000000600f8616601081106127df576127de613aef565b5b1a60f81b8282815181106127f6576127f5613aef565b5b60200101907effffffffffffffffffffffffffffffffffffffffffffffffffffffffffffff1916908160001a905350600485901c94508061283690613b1e565b90506127a0565b5060008414612881576040517f08c379a000000000000000000000000000000000000000000000000000000000815260040161287890613b94565b60405180910390fd5b8091505092915050565b60008260000182815481106128a3576128a2613aef565b5b9060005260206000200154905092915050565b600081600001805490509050919050565b6128d3601354836117f6565b612912576040517f08c379a000000000000000000000000000000000000000000000000000000000815260040161290990613c00565b60405180910390fd5b61291c8282612a57565b5050565b600080836001016000848152602001908152602001600020541415905092915050565b60008083600101600084815260200190815260200160002054905060008114612a4b57600060018261297591906134ab565b905060006001866000018054905061298d91906134ab565b90508181146129fc5760008660000182815481106129ae576129ad613aef565b5b90600052602060002001549050808760000184815481106129d2576129d1613aef565b5b90600052602060002001819055508387600101600083815260200190815260200160002081905550505b85600001805480612a1057612a0f613c20565b5b600190038181906000526020600020016000905590558560010160008681526020019081526020016000206000905560019350505050612a51565b60009150505b92915050565b612a63600f54836117f6565b612aa2576040517f08c379a0000000000000000000000000000000000000000000000000000000008152600401612a9990613c9b565b60405180910390fd5b612aac8282612ab0565b5050565b5050565b60405180606001604052806000815260200160008152602001600081525090565b6040518060400160405280600073ffffffffffffffffffffffffffffffffffffffff168152602001600081525090565b6040518060800160405280600081526020016000815260200160008152602001600081525090565b6040518060e00160405280600073ffffffffffffffffffffffffffffffffffffffff1681526020016000815260200160008152602001600081526020016000815260200160008152602001600081525090565b600080fd5b60007fffffffff0000000000000000000000000000000000000000000000000000000082169050919050565b612bba81612b85565b8114612bc557600080fd5b50565b600081359050612bd781612bb1565b92915050565b600060208284031215612bf357612bf2612b80565b5b6000612c0184828501612bc8565b91505092915050565b60008115159050919050565b612c1f81612c0a565b82525050565b6000602082019050612c3a6000830184612c16565b92915050565b6000819050919050565b612c5381612c40565b8114612c5e57600080fd5b50565b600081359050612c7081612c4a565b92915050565b600060208284031215612c8c57612c8b612b80565b5b6000612c9a84828501612c61565b91505092915050565b600073ffffffffffffffffffffffffffffffffffffffff82169050919050565b6000612cce82612ca3565b9050919050565b612cde81612cc3565b8114612ce957600080fd5b50565b600081359050612cfb81612cd5565b92915050565b600060208284031215612d1757612d16612b80565b5b6000612d2584828501612cec565b91505092915050565b612d3781612c40565b82525050565b606082016000820151612d536000850182612d2e565b506020820151612d666020850182612d2e565b506040820151612d796040850182612d2e565b50505050565b6000606082019050612d946000830184612d3d565b92915050565b6000819050919050565b612dad81612d9a565b8114612db857600080fd5b50565b600081359050612dca81612da4565b92915050565b600060208284031215612de657612de5612b80565b5b6000612df484828501612dbb565b91505092915050565b612e0681612d9a565b82525050565b6000602082019050612e216000830184612dfd565b92915050565b6000819050919050565b6000612e4c612e47612e4284612ca3565b612e27565b612ca3565b9050919050565b6000612e5e82612e31565b9050919050565b6000612e7082612e53565b9050919050565b612e8081612e65565b82525050565b604082016000820151612e9c6000850182612e77565b506020820151612eaf6020850182612d2e565b50505050565b6000604082019050612eca6000830184612e86565b92915050565b60008060408385031215612ee757612ee6612b80565b5b6000612ef585828601612dbb565b9250506020612f0685828601612cec565b9150509250929050565b612f1981612c40565b82525050565b6000602082019050612f346000830184612f10565b92915050565b608082016000820151612f506000850182612d2e565b506020820151612f636020850182612d2e565b506040820151612f766040850182612d2e565b506060820151612f896060850182612d2e565b50505050565b6000608082019050612fa46000830184612f3a565b92915050565b612fb381612cc3565b82525050565b6000602082019050612fce6000830184612faa565b92915050565b60008060408385031215612feb57612fea612b80565b5b6000612ff985828601612dbb565b925050602061300a85828601612c61565b9150509250929050565b60e08201600082015161302a6000850182612e77565b50602082015161303d6020850182612d2e565b5060408201516130506040850182612d2e565b5060608201516130636060850182612d2e565b5060808201516130766080850182612d2e565b5060a082015161308960a0850182612d2e565b5060c082015161309c60c0850182612d2e565b50505050565b600060e0820190506130b76000830184613014565b92915050565b600082825260208201905092915050565b7f4f776e61626c653a2063616c6c6572206973206e6f7420746865206f776e6572600082015250565b60006131046020836130bd565b915061310f826130ce565b602082019050919050565b60006020820190508181036000830152613133816130f7565b9050919050565b600081905092915050565b50565b600061315560008361313a565b915061316082613145565b600082019050919050565b600061317682613148565b9150819050919050565b7f427579696e6720686173206e6f7420656e646564207965742e00000000000000600082015250565b60006131b66019836130bd565b91506131c182613180565b602082019050919050565b600060208201905081810360008301526131e5816131a9565b9050919050565b7f4e6f7420636f6c6c61746572616c697365642e00000000000000000000000000600082015250565b60006132226013836130bd565b915061322d826131ec565b602082019050919050565b6000602082019050818103600083015261325181613215565b9050919050565b600060408201905061326d6000830185612faa565b61327a6020830184612f10565b9392505050565b61328a81612c0a565b811461329557600080fd5b50565b6000815190506132a781613281565b92915050565b6000602082840312156132c3576132c2612b80565b5b60006132d184828501613298565b91505092915050565b7f416363657373436f6e74726f6c3a2063616e206f6e6c792072656e6f756e636560008201527f20726f6c657320666f722073656c660000000000000000000000000000000000602082015250565b6000613336602f836130bd565b9150613341826132da565b604082019050919050565b6000602082019050818103600083015261336581613329565b9050919050565b7f4e487b7100000000000000000000000000000000000000000000000000000000600052601160045260246000fd5b60006133a682612c40565b91506133b183612c40565b9250827fffffffffffffffffffffffffffffffffffffffffffffffffffffffffffffffff038211156133e6576133e561336c565b5b828201905092915050565b60006133fc82612c40565b915061340783612c40565b9250817fffffffffffffffffffffffffffffffffffffffffffffffffffffffffffffffff04831182151516156134405761343f61336c565b5b828202905092915050565b7f4e487b7100000000000000000000000000000000000000000000000000000000600052601260045260246000fd5b600061348582612c40565b915061349083612c40565b9250826134a05761349f61344b565b5b828204905092915050565b60006134b682612c40565b91506134c183612c40565b9250828210156134d4576134d361336c565b5b828203905092915050565b7f5061757361626c653a2070617573656400000000000000000000000000000000600082015250565b60006135156010836130bd565b9150613520826134df565b602082019050919050565b6000602082019050818103600083015261354481613508565b9050919050565b7f56657374696e6720686173206e6f7420626567756e207965742e000000000000600082015250565b6000613581601a836130bd565b915061358c8261354b565b602082019050919050565b600060208201905081810360008301526135b081613574565b9050919050565b7f546865726520776173206e6f206f766572666c6f772e00000000000000000000600082015250565b60006135ed6016836130bd565b91506135f8826135b7565b602082019050919050565b6000602082019050818103600083015261361c816135e0565b9050919050565b7f427579696e6720686173206e6f7420616c726561647920737461727465642e00600082015250565b6000613659601f836130bd565b915061366482613623565b602082019050919050565b600060208201905081810360008301526136888161364c565b9050919050565b7f416c726561647920636f6c6c61746572616c697365642e000000000000000000600082015250565b60006136c56017836130bd565b91506136d08261368f565b602082019050919050565b600060208201905081810360008301526136f4816136b8565b9050919050565b60006060820190506137106000830186612faa565b61371d6020830185612faa565b61372a6040830184612f10565b949350505050565b7f427579696e6720686173206e6f7420626567756e207965742e00000000000000600082015250565b60006137686019836130bd565b915061377382613732565b602082019050919050565b600060208201905081810360008301526137978161375b565b9050919050565b7f427579696e672068617320656e6465642e000000000000000000000000000000600082015250565b60006137d46011836130bd565b91506137df8261379e565b602082019050919050565b60006020820190508181036000830152613803816137c7565b9050919050565b7f4f776e61626c653a206e6577206f776e657220697320746865207a65726f206160008201527f6464726573730000000000000000000000000000000000000000000000000000602082015250565b60006138666026836130bd565b91506138718261380a565b604082019050919050565b6000602082019050818103600083015261389581613859565b9050919050565b600081905092915050565b7f416363657373436f6e74726f6c3a206163636f756e7420000000000000000000600082015250565b60006138dd60178361389c565b91506138e8826138a7565b601782019050919050565b600081519050919050565b60005b8381101561391c578082015181840152602081019050613901565b8381111561392b576000848401525b50505050565b600061393c826138f3565b613946818561389c565b93506139568185602086016138fe565b80840191505092915050565b7f206973206d697373696e6720726f6c6520000000000000000000000000000000600082015250565b600061399860118361389c565b91506139a382613962565b601182019050919050565b60006139b9826138d0565b91506139c58285613931565b91506139d08261398b565b91506139dc8284613931565b91508190509392505050565b6000601f19601f8301169050919050565b6000613a04826138f3565b613a0e81856130bd565b9350613a1e8185602086016138fe565b613a27816139e8565b840191505092915050565b60006020820190508181036000830152613a4c81846139f9565b905092915050565b7f5061757361626c653a206e6f7420706175736564000000000000000000000000600082015250565b6000613a8a6014836130bd565b9150613a9582613a54565b602082019050919050565b60006020820190508181036000830152613ab981613a7d565b9050919050565b7f4e487b7100000000000000000000000000000000000000000000000000000000600052604160045260246000fd5b7f4e487b7100000000000000000000000000000000000000000000000000000000600052603260045260246000fd5b6000613b2982612c40565b91506000821415613b3d57613b3c61336c565b5b600182039050919050565b7f537472696e67733a20686578206c656e67746820696e73756666696369656e74600082015250565b6000613b7e6020836130bd565b9150613b8982613b48565b602082019050919050565b60006020820190508181036000830152613bad81613b71565b9050919050565b7f5573657220686173206e6f74206265656e2077686974656c69737465642e0000600082015250565b6000613bea601e836130bd565b9150613bf582613bb4565b602082019050919050565b60006020820190508181036000830152613c1981613bdd565b9050919050565b7f4e487b7100000000000000000000000000000000000000000000000000000000600052603160045260246000fd5b7f5573657220686173206e6f7420636f6c6c61746572616c697365642e00000000600082015250565b6000613c85601c836130bd565b9150613c9082613c4f565b602082019050919050565b60006020820190508181036000830152613cb481613c78565b905091905056fea264697066735822122068528a58a7a354a71c4a24768979fcbaf8508d93e38521c34b112dc9583cf0e864736f6c634300080c0033",
          "opcodes": "PUSH1 0x80 PUSH1 0x40 MSTORE PUSH32 0x54B0854ED6979A3AEFF7348AA2E79DC669787B689F50F6D4142C6AB13F8ADFF2 PUSH1 0xF SSTORE PUSH32 0x8619CECD8B9E095AB43867F5B69D492180450FE862E6B50BFBFB24B75DD84C8A PUSH1 0x12 SSTORE PUSH32 0x8429D542926E6695B59AC6FBDCD9B37E8B1AEB757AFAB06AB60B1BB5878C3B49 PUSH1 0x13 SSTORE CALLVALUE DUP1 ISZERO PUSH3 0x7D JUMPI PUSH1 0x0 DUP1 REVERT JUMPDEST POP PUSH1 0x40 MLOAD PUSH3 0x46E0 CODESIZE SUB DUP1 PUSH3 0x46E0 DUP4 CODECOPY DUP2 DUP2 ADD PUSH1 0x40 MSTORE DUP2 ADD SWAP1 PUSH3 0xA3 SWAP2 SWAP1 PUSH3 0x8C9 JUMP JUMPDEST DUP1 DUP3 PUSH3 0xC5 PUSH3 0xB9 PUSH3 0x282 PUSH1 0x20 SHL PUSH1 0x20 SHR JUMP JUMPDEST PUSH3 0x28A PUSH1 0x20 SHL PUSH1 0x20 SHR JUMP JUMPDEST PUSH1 0x0 DUP1 PUSH1 0x14 PUSH2 0x100 EXP DUP2 SLOAD DUP2 PUSH1 0xFF MUL NOT AND SWAP1 DUP4 ISZERO ISZERO MUL OR SWAP1 SSTORE POP DUP1 PUSH1 0x0 ADD MLOAD PUSH20 0xFFFFFFFFFFFFFFFFFFFFFFFFFFFFFFFFFFFFFFFF AND PUSH4 0x23B872DD CALLER ADDRESS DUP5 PUSH1 0x20 ADD MLOAD PUSH1 0x40 MLOAD DUP5 PUSH4 0xFFFFFFFF AND PUSH1 0xE0 SHL DUP2 MSTORE PUSH1 0x4 ADD PUSH3 0x126 SWAP4 SWAP3 SWAP2 SWAP1 PUSH3 0x933 JUMP JUMPDEST PUSH1 0x20 PUSH1 0x40 MLOAD DUP1 DUP4 SUB DUP2 PUSH1 0x0 DUP8 GAS CALL ISZERO DUP1 ISZERO PUSH3 0x146 JUMPI RETURNDATASIZE PUSH1 0x0 DUP1 RETURNDATACOPY RETURNDATASIZE PUSH1 0x0 REVERT JUMPDEST POP POP POP POP PUSH1 0x40 MLOAD RETURNDATASIZE PUSH1 0x1F NOT PUSH1 0x1F DUP3 ADD AND DUP3 ADD DUP1 PUSH1 0x40 MSTORE POP DUP2 ADD SWAP1 PUSH3 0x16C SWAP2 SWAP1 PUSH3 0x9AD JUMP JUMPDEST POP DUP1 PUSH1 0x1 PUSH1 0x0 DUP3 ADD MLOAD DUP2 PUSH1 0x0 ADD PUSH1 0x0 PUSH2 0x100 EXP DUP2 SLOAD DUP2 PUSH20 0xFFFFFFFFFFFFFFFFFFFFFFFFFFFFFFFFFFFFFFFF MUL NOT AND SWAP1 DUP4 PUSH20 0xFFFFFFFFFFFFFFFFFFFFFFFFFFFFFFFFFFFFFFFF AND MUL OR SWAP1 SSTORE POP PUSH1 0x20 DUP3 ADD MLOAD DUP2 PUSH1 0x1 ADD SSTORE PUSH1 0x40 DUP3 ADD MLOAD DUP2 PUSH1 0x2 ADD SSTORE PUSH1 0x60 DUP3 ADD MLOAD DUP2 PUSH1 0x3 ADD SSTORE PUSH1 0x80 DUP3 ADD MLOAD DUP2 PUSH1 0x4 ADD SSTORE PUSH1 0xA0 DUP3 ADD MLOAD DUP2 PUSH1 0x5 ADD SSTORE PUSH1 0xC0 DUP3 ADD MLOAD DUP2 PUSH1 0x6 ADD SSTORE SWAP1 POP POP POP DUP1 PUSH1 0x10 PUSH1 0x0 DUP3 ADD MLOAD DUP2 PUSH1 0x0 ADD PUSH1 0x0 PUSH2 0x100 EXP DUP2 SLOAD DUP2 PUSH20 0xFFFFFFFFFFFFFFFFFFFFFFFFFFFFFFFFFFFFFFFF MUL NOT AND SWAP1 DUP4 PUSH20 0xFFFFFFFFFFFFFFFFFFFFFFFFFFFFFFFFFFFFFFFF AND MUL OR SWAP1 SSTORE POP PUSH1 0x20 DUP3 ADD MLOAD DUP2 PUSH1 0x1 ADD SSTORE SWAP1 POP POP POP PUSH3 0x265 PUSH1 0x13 SLOAD PUSH1 0x12 SLOAD PUSH3 0x34E PUSH1 0x20 SHL PUSH1 0x20 SHR JUMP JUMPDEST PUSH3 0x27A PUSH1 0x0 DUP1 SHL CALLER PUSH3 0x3B2 PUSH1 0x20 SHL PUSH1 0x20 SHR JUMP JUMPDEST POP POP PUSH3 0x9DF JUMP JUMPDEST PUSH1 0x0 CALLER SWAP1 POP SWAP1 JUMP JUMPDEST PUSH1 0x0 DUP1 PUSH1 0x0 SWAP1 SLOAD SWAP1 PUSH2 0x100 EXP SWAP1 DIV PUSH20 0xFFFFFFFFFFFFFFFFFFFFFFFFFFFFFFFFFFFFFFFF AND SWAP1 POP DUP2 PUSH1 0x0 DUP1 PUSH2 0x100 EXP DUP2 SLOAD DUP2 PUSH20 0xFFFFFFFFFFFFFFFFFFFFFFFFFFFFFFFFFFFFFFFF MUL NOT AND SWAP1 DUP4 PUSH20 0xFFFFFFFFFFFFFFFFFFFFFFFFFFFFFFFFFFFFFFFF AND MUL OR SWAP1 SSTORE POP DUP2 PUSH20 0xFFFFFFFFFFFFFFFFFFFFFFFFFFFFFFFFFFFFFFFF AND DUP2 PUSH20 0xFFFFFFFFFFFFFFFFFFFFFFFFFFFFFFFFFFFFFFFF AND PUSH32 0x8BE0079C531659141344CD1FD0A4F28419497F9722A3DAAFE3B4186F6B6457E0 PUSH1 0x40 MLOAD PUSH1 0x40 MLOAD DUP1 SWAP2 SUB SWAP1 LOG3 POP POP JUMP JUMPDEST PUSH1 0x0 PUSH3 0x361 DUP4 PUSH3 0x3FA PUSH1 0x20 SHL PUSH1 0x20 SHR JUMP JUMPDEST SWAP1 POP DUP2 PUSH1 0xD PUSH1 0x0 DUP6 DUP2 MSTORE PUSH1 0x20 ADD SWAP1 DUP2 MSTORE PUSH1 0x20 ADD PUSH1 0x0 KECCAK256 PUSH1 0x1 ADD DUP2 SWAP1 SSTORE POP DUP2 DUP2 DUP5 PUSH32 0xBD79B86FFE0AB8E8776151514217CD7CACD52C909F66475C3AF44E129F0B00FF PUSH1 0x40 MLOAD PUSH1 0x40 MLOAD DUP1 SWAP2 SUB SWAP1 LOG4 POP POP POP JUMP JUMPDEST PUSH3 0x3C9 DUP3 DUP3 PUSH3 0x41A PUSH1 0x20 SHL PUSH3 0x1E06 OR PUSH1 0x20 SHR JUMP JUMPDEST PUSH3 0x3F5 DUP2 PUSH1 0xE PUSH1 0x0 DUP6 DUP2 MSTORE PUSH1 0x20 ADD SWAP1 DUP2 MSTORE PUSH1 0x20 ADD PUSH1 0x0 KECCAK256 PUSH3 0x50C PUSH1 0x20 SHL PUSH3 0x1EE7 OR SWAP1 SWAP2 SWAP1 PUSH1 0x20 SHR JUMP JUMPDEST POP POP POP JUMP JUMPDEST PUSH1 0x0 PUSH1 0xD PUSH1 0x0 DUP4 DUP2 MSTORE PUSH1 0x20 ADD SWAP1 DUP2 MSTORE PUSH1 0x20 ADD PUSH1 0x0 KECCAK256 PUSH1 0x1 ADD SLOAD SWAP1 POP SWAP2 SWAP1 POP JUMP JUMPDEST PUSH3 0x42C DUP3 DUP3 PUSH3 0x544 PUSH1 0x20 SHL PUSH1 0x20 SHR JUMP JUMPDEST PUSH3 0x508 JUMPI PUSH1 0x1 PUSH1 0xD PUSH1 0x0 DUP5 DUP2 MSTORE PUSH1 0x20 ADD SWAP1 DUP2 MSTORE PUSH1 0x20 ADD PUSH1 0x0 KECCAK256 PUSH1 0x0 ADD PUSH1 0x0 DUP4 PUSH20 0xFFFFFFFFFFFFFFFFFFFFFFFFFFFFFFFFFFFFFFFF AND PUSH20 0xFFFFFFFFFFFFFFFFFFFFFFFFFFFFFFFFFFFFFFFF AND DUP2 MSTORE PUSH1 0x20 ADD SWAP1 DUP2 MSTORE PUSH1 0x20 ADD PUSH1 0x0 KECCAK256 PUSH1 0x0 PUSH2 0x100 EXP DUP2 SLOAD DUP2 PUSH1 0xFF MUL NOT AND SWAP1 DUP4 ISZERO ISZERO MUL OR SWAP1 SSTORE POP PUSH3 0x4AD PUSH3 0x282 PUSH1 0x20 SHL PUSH1 0x20 SHR JUMP JUMPDEST PUSH20 0xFFFFFFFFFFFFFFFFFFFFFFFFFFFFFFFFFFFFFFFF AND DUP2 PUSH20 0xFFFFFFFFFFFFFFFFFFFFFFFFFFFFFFFFFFFFFFFF AND DUP4 PUSH32 0x2F8788117E7EFF1D82E926EC794901D17C78024A50270940304540A733656F0D PUSH1 0x40 MLOAD PUSH1 0x40 MLOAD DUP1 SWAP2 SUB SWAP1 LOG4 JUMPDEST POP POP JUMP JUMPDEST PUSH1 0x0 PUSH3 0x53C DUP4 PUSH1 0x0 ADD DUP4 PUSH20 0xFFFFFFFFFFFFFFFFFFFFFFFFFFFFFFFFFFFFFFFF AND PUSH1 0x0 SHL PUSH3 0x5AF PUSH1 0x20 SHL PUSH1 0x20 SHR JUMP JUMPDEST SWAP1 POP SWAP3 SWAP2 POP POP JUMP JUMPDEST PUSH1 0x0 PUSH1 0xD PUSH1 0x0 DUP5 DUP2 MSTORE PUSH1 0x20 ADD SWAP1 DUP2 MSTORE PUSH1 0x20 ADD PUSH1 0x0 KECCAK256 PUSH1 0x0 ADD PUSH1 0x0 DUP4 PUSH20 0xFFFFFFFFFFFFFFFFFFFFFFFFFFFFFFFFFFFFFFFF AND PUSH20 0xFFFFFFFFFFFFFFFFFFFFFFFFFFFFFFFFFFFFFFFF AND DUP2 MSTORE PUSH1 0x20 ADD SWAP1 DUP2 MSTORE PUSH1 0x20 ADD PUSH1 0x0 KECCAK256 PUSH1 0x0 SWAP1 SLOAD SWAP1 PUSH2 0x100 EXP SWAP1 DIV PUSH1 0xFF AND SWAP1 POP SWAP3 SWAP2 POP POP JUMP JUMPDEST PUSH1 0x0 PUSH3 0x5C3 DUP4 DUP4 PUSH3 0x629 PUSH1 0x20 SHL PUSH1 0x20 SHR JUMP JUMPDEST PUSH3 0x61E JUMPI DUP3 PUSH1 0x0 ADD DUP3 SWAP1 DUP1 PUSH1 0x1 DUP2 SLOAD ADD DUP1 DUP3 SSTORE DUP1 SWAP2 POP POP PUSH1 0x1 SWAP1 SUB SWAP1 PUSH1 0x0 MSTORE PUSH1 0x20 PUSH1 0x0 KECCAK256 ADD PUSH1 0x0 SWAP1 SWAP2 SWAP1 SWAP2 SWAP1 SWAP2 POP SSTORE DUP3 PUSH1 0x0 ADD DUP1 SLOAD SWAP1 POP DUP4 PUSH1 0x1 ADD PUSH1 0x0 DUP5 DUP2 MSTORE PUSH1 0x20 ADD SWAP1 DUP2 MSTORE PUSH1 0x20 ADD PUSH1 0x0 KECCAK256 DUP2 SWAP1 SSTORE POP PUSH1 0x1 SWAP1 POP PUSH3 0x623 JUMP JUMPDEST PUSH1 0x0 SWAP1 POP JUMPDEST SWAP3 SWAP2 POP POP JUMP JUMPDEST PUSH1 0x0 DUP1 DUP4 PUSH1 0x1 ADD PUSH1 0x0 DUP5 DUP2 MSTORE PUSH1 0x20 ADD SWAP1 DUP2 MSTORE PUSH1 0x20 ADD PUSH1 0x0 KECCAK256 SLOAD EQ ISZERO SWAP1 POP SWAP3 SWAP2 POP POP JUMP JUMPDEST PUSH1 0x0 PUSH1 0x40 MLOAD SWAP1 POP SWAP1 JUMP JUMPDEST PUSH1 0x0 DUP1 REVERT JUMPDEST PUSH1 0x0 DUP1 REVERT JUMPDEST PUSH1 0x0 PUSH1 0x1F NOT PUSH1 0x1F DUP4 ADD AND SWAP1 POP SWAP2 SWAP1 POP JUMP JUMPDEST PUSH32 0x4E487B7100000000000000000000000000000000000000000000000000000000 PUSH1 0x0 MSTORE PUSH1 0x41 PUSH1 0x4 MSTORE PUSH1 0x24 PUSH1 0x0 REVERT JUMPDEST PUSH3 0x6AB DUP3 PUSH3 0x660 JUMP JUMPDEST DUP2 ADD DUP2 DUP2 LT PUSH8 0xFFFFFFFFFFFFFFFF DUP3 GT OR ISZERO PUSH3 0x6CD JUMPI PUSH3 0x6CC PUSH3 0x671 JUMP JUMPDEST JUMPDEST DUP1 PUSH1 0x40 MSTORE POP POP POP JUMP JUMPDEST PUSH1 0x0 PUSH3 0x6E2 PUSH3 0x64C JUMP JUMPDEST SWAP1 POP PUSH3 0x6F0 DUP3 DUP3 PUSH3 0x6A0 JUMP JUMPDEST SWAP2 SWAP1 POP JUMP JUMPDEST PUSH1 0x0 PUSH20 0xFFFFFFFFFFFFFFFFFFFFFFFFFFFFFFFFFFFFFFFF DUP3 AND SWAP1 POP SWAP2 SWAP1 POP JUMP JUMPDEST PUSH1 0x0 PUSH3 0x722 DUP3 PUSH3 0x6F5 JUMP JUMPDEST SWAP1 POP SWAP2 SWAP1 POP JUMP JUMPDEST PUSH1 0x0 PUSH3 0x736 DUP3 PUSH3 0x715 JUMP JUMPDEST SWAP1 POP SWAP2 SWAP1 POP JUMP JUMPDEST PUSH3 0x748 DUP2 PUSH3 0x729 JUMP JUMPDEST DUP2 EQ PUSH3 0x754 JUMPI PUSH1 0x0 DUP1 REVERT JUMPDEST POP JUMP JUMPDEST PUSH1 0x0 DUP2 MLOAD SWAP1 POP PUSH3 0x768 DUP2 PUSH3 0x73D JUMP JUMPDEST SWAP3 SWAP2 POP POP JUMP JUMPDEST PUSH1 0x0 DUP2 SWAP1 POP SWAP2 SWAP1 POP JUMP JUMPDEST PUSH3 0x783 DUP2 PUSH3 0x76E JUMP JUMPDEST DUP2 EQ PUSH3 0x78F JUMPI PUSH1 0x0 DUP1 REVERT JUMPDEST POP JUMP JUMPDEST PUSH1 0x0 DUP2 MLOAD SWAP1 POP PUSH3 0x7A3 DUP2 PUSH3 0x778 JUMP JUMPDEST SWAP3 SWAP2 POP POP JUMP JUMPDEST PUSH1 0x0 PUSH1 0xE0 DUP3 DUP5 SUB SLT ISZERO PUSH3 0x7C2 JUMPI PUSH3 0x7C1 PUSH3 0x65B JUMP JUMPDEST JUMPDEST PUSH3 0x7CE PUSH1 0xE0 PUSH3 0x6D6 JUMP JUMPDEST SWAP1 POP PUSH1 0x0 PUSH3 0x7E0 DUP5 DUP3 DUP6 ADD PUSH3 0x757 JUMP JUMPDEST PUSH1 0x0 DUP4 ADD MSTORE POP PUSH1 0x20 PUSH3 0x7F6 DUP5 DUP3 DUP6 ADD PUSH3 0x792 JUMP JUMPDEST PUSH1 0x20 DUP4 ADD MSTORE POP PUSH1 0x40 PUSH3 0x80C DUP5 DUP3 DUP6 ADD PUSH3 0x792 JUMP JUMPDEST PUSH1 0x40 DUP4 ADD MSTORE POP PUSH1 0x60 PUSH3 0x822 DUP5 DUP3 DUP6 ADD PUSH3 0x792 JUMP JUMPDEST PUSH1 0x60 DUP4 ADD MSTORE POP PUSH1 0x80 PUSH3 0x838 DUP5 DUP3 DUP6 ADD PUSH3 0x792 JUMP JUMPDEST PUSH1 0x80 DUP4 ADD MSTORE POP PUSH1 0xA0 PUSH3 0x84E DUP5 DUP3 DUP6 ADD PUSH3 0x792 JUMP JUMPDEST PUSH1 0xA0 DUP4 ADD MSTORE POP PUSH1 0xC0 PUSH3 0x864 DUP5 DUP3 DUP6 ADD PUSH3 0x792 JUMP JUMPDEST PUSH1 0xC0 DUP4 ADD MSTORE POP SWAP3 SWAP2 POP POP JUMP JUMPDEST PUSH1 0x0 PUSH1 0x40 DUP3 DUP5 SUB SLT ISZERO PUSH3 0x889 JUMPI PUSH3 0x888 PUSH3 0x65B JUMP JUMPDEST JUMPDEST PUSH3 0x895 PUSH1 0x40 PUSH3 0x6D6 JUMP JUMPDEST SWAP1 POP PUSH1 0x0 PUSH3 0x8A7 DUP5 DUP3 DUP6 ADD PUSH3 0x757 JUMP JUMPDEST PUSH1 0x0 DUP4 ADD MSTORE POP PUSH1 0x20 PUSH3 0x8BD DUP5 DUP3 DUP6 ADD PUSH3 0x792 JUMP JUMPDEST PUSH1 0x20 DUP4 ADD MSTORE POP SWAP3 SWAP2 POP POP JUMP JUMPDEST PUSH1 0x0 DUP1 PUSH2 0x120 DUP4 DUP6 SUB SLT ISZERO PUSH3 0x8E4 JUMPI PUSH3 0x8E3 PUSH3 0x656 JUMP JUMPDEST JUMPDEST PUSH1 0x0 PUSH3 0x8F4 DUP6 DUP3 DUP7 ADD PUSH3 0x7A9 JUMP JUMPDEST SWAP3 POP POP PUSH1 0xE0 PUSH3 0x907 DUP6 DUP3 DUP7 ADD PUSH3 0x870 JUMP JUMPDEST SWAP2 POP POP SWAP3 POP SWAP3 SWAP1 POP JUMP JUMPDEST PUSH3 0x91C DUP2 PUSH3 0x715 JUMP JUMPDEST DUP3 MSTORE POP POP JUMP JUMPDEST PUSH3 0x92D DUP2 PUSH3 0x76E JUMP JUMPDEST DUP3 MSTORE POP POP JUMP JUMPDEST PUSH1 0x0 PUSH1 0x60 DUP3 ADD SWAP1 POP PUSH3 0x94A PUSH1 0x0 DUP4 ADD DUP7 PUSH3 0x911 JUMP JUMPDEST PUSH3 0x959 PUSH1 0x20 DUP4 ADD DUP6 PUSH3 0x911 JUMP JUMPDEST PUSH3 0x968 PUSH1 0x40 DUP4 ADD DUP5 PUSH3 0x922 JUMP JUMPDEST SWAP5 SWAP4 POP POP POP POP JUMP JUMPDEST PUSH1 0x0 DUP2 ISZERO ISZERO SWAP1 POP SWAP2 SWAP1 POP JUMP JUMPDEST PUSH3 0x987 DUP2 PUSH3 0x970 JUMP JUMPDEST DUP2 EQ PUSH3 0x993 JUMPI PUSH1 0x0 DUP1 REVERT JUMPDEST POP JUMP JUMPDEST PUSH1 0x0 DUP2 MLOAD SWAP1 POP PUSH3 0x9A7 DUP2 PUSH3 0x97C JUMP JUMPDEST SWAP3 SWAP2 POP POP JUMP JUMPDEST PUSH1 0x0 PUSH1 0x20 DUP3 DUP5 SUB SLT ISZERO PUSH3 0x9C6 JUMPI PUSH3 0x9C5 PUSH3 0x656 JUMP JUMPDEST JUMPDEST PUSH1 0x0 PUSH3 0x9D6 DUP5 DUP3 DUP6 ADD PUSH3 0x996 JUMP JUMPDEST SWAP2 POP POP SWAP3 SWAP2 POP POP JUMP JUMPDEST PUSH2 0x3CF1 DUP1 PUSH3 0x9EF PUSH1 0x0 CODECOPY PUSH1 0x0 RETURN INVALID PUSH1 0x80 PUSH1 0x40 MSTORE PUSH1 0x4 CALLDATASIZE LT PUSH2 0x204 JUMPI PUSH1 0x0 CALLDATALOAD PUSH1 0xE0 SHR DUP1 PUSH4 0x5FEB6191 GT PUSH2 0x118 JUMPI DUP1 PUSH4 0x91D14854 GT PUSH2 0xA0 JUMPI DUP1 PUSH4 0xB2EA088D GT PUSH2 0x6F JUMPI DUP1 PUSH4 0xB2EA088D EQ PUSH2 0x6E9 JUMPI DUP1 PUSH4 0xCA15C873 EQ PUSH2 0x700 JUMPI DUP1 PUSH4 0xD547741F EQ PUSH2 0x73D JUMPI DUP1 PUSH4 0xD7BB99BA EQ PUSH2 0x766 JUMPI DUP1 PUSH4 0xF2FDE38B EQ PUSH2 0x770 JUMPI PUSH2 0x204 JUMP JUMPDEST DUP1 PUSH4 0x91D14854 EQ PUSH2 0x619 JUMPI DUP1 PUSH4 0xA217FDDF EQ PUSH2 0x656 JUMPI DUP1 PUSH4 0xA5EA11DA EQ PUSH2 0x681 JUMPI DUP1 PUSH4 0xB22163E3 EQ PUSH2 0x6AC JUMPI PUSH2 0x204 JUMP JUMPDEST DUP1 PUSH4 0x8456CB59 GT PUSH2 0xE7 JUMPI DUP1 PUSH4 0x8456CB59 EQ PUSH2 0x546 JUMPI DUP1 PUSH4 0x8903AB9D EQ PUSH2 0x55D JUMPI DUP1 PUSH4 0x8DA5CB5B EQ PUSH2 0x59A JUMPI DUP1 PUSH4 0x8F705903 EQ PUSH2 0x5C5 JUMPI DUP1 PUSH4 0x9010D07C EQ PUSH2 0x5DC JUMPI PUSH2 0x204 JUMP JUMPDEST DUP1 PUSH4 0x5FEB6191 EQ PUSH2 0x4AE JUMPI DUP1 PUSH4 0x6B4169C3 EQ PUSH2 0x4D9 JUMPI DUP1 PUSH4 0x715018A6 EQ PUSH2 0x504 JUMPI DUP1 PUSH4 0x7A3226EC EQ PUSH2 0x51B JUMPI PUSH2 0x204 JUMP JUMPDEST DUP1 PUSH4 0x36568ABE GT PUSH2 0x19B JUMPI DUP1 PUSH4 0x4E71D92D GT PUSH2 0x16A JUMPI DUP1 PUSH4 0x4E71D92D EQ PUSH2 0x3FF JUMPI DUP1 PUSH4 0x50188301 EQ PUSH2 0x416 JUMPI DUP1 PUSH4 0x570618E1 EQ PUSH2 0x441 JUMPI DUP1 PUSH4 0x590E1AE3 EQ PUSH2 0x46C JUMPI DUP1 PUSH4 0x5C975ABB EQ PUSH2 0x483 JUMPI PUSH2 0x204 JUMP JUMPDEST DUP1 PUSH4 0x36568ABE EQ PUSH2 0x37D JUMPI DUP1 PUSH4 0x3CCFD60B EQ PUSH2 0x3A6 JUMPI DUP1 PUSH4 0x3F4BA83A EQ PUSH2 0x3BD JUMPI DUP1 PUSH4 0x4DA56A6F EQ PUSH2 0x3D4 JUMPI PUSH2 0x204 JUMP JUMPDEST DUP1 PUSH4 0x248A9CA3 GT PUSH2 0x1D7 JUMPI DUP1 PUSH4 0x248A9CA3 EQ PUSH2 0x2C3 JUMPI DUP1 PUSH4 0x2BF9935D EQ PUSH2 0x300 JUMPI DUP1 PUSH4 0x2E0BCB43 EQ PUSH2 0x329 JUMPI DUP1 PUSH4 0x2F2FF15D EQ PUSH2 0x354 JUMPI PUSH2 0x204 JUMP JUMPDEST DUP1 PUSH4 0x1FFC9A7 EQ PUSH2 0x209 JUMPI DUP1 PUSH4 0xFCC56F7 EQ PUSH2 0x246 JUMPI DUP1 PUSH4 0x1AE755EE EQ PUSH2 0x26F JUMPI DUP1 PUSH4 0x2098B7FF EQ PUSH2 0x2AC JUMPI JUMPDEST PUSH1 0x0 DUP1 REVERT JUMPDEST CALLVALUE DUP1 ISZERO PUSH2 0x215 JUMPI PUSH1 0x0 DUP1 REVERT JUMPDEST POP PUSH2 0x230 PUSH1 0x4 DUP1 CALLDATASIZE SUB DUP2 ADD SWAP1 PUSH2 0x22B SWAP2 SWAP1 PUSH2 0x2BDD JUMP JUMPDEST PUSH2 0x799 JUMP JUMPDEST PUSH1 0x40 MLOAD PUSH2 0x23D SWAP2 SWAP1 PUSH2 0x2C25 JUMP JUMPDEST PUSH1 0x40 MLOAD DUP1 SWAP2 SUB SWAP1 RETURN JUMPDEST CALLVALUE DUP1 ISZERO PUSH2 0x252 JUMPI PUSH1 0x0 DUP1 REVERT JUMPDEST POP PUSH2 0x26D PUSH1 0x4 DUP1 CALLDATASIZE SUB DUP2 ADD SWAP1 PUSH2 0x268 SWAP2 SWAP1 PUSH2 0x2C76 JUMP JUMPDEST PUSH2 0x813 JUMP JUMPDEST STOP JUMPDEST CALLVALUE DUP1 ISZERO PUSH2 0x27B JUMPI PUSH1 0x0 DUP1 REVERT JUMPDEST POP PUSH2 0x296 PUSH1 0x4 DUP1 CALLDATASIZE SUB DUP2 ADD SWAP1 PUSH2 0x291 SWAP2 SWAP1 PUSH2 0x2D01 JUMP JUMPDEST PUSH2 0x909 JUMP JUMPDEST PUSH1 0x40 MLOAD PUSH2 0x2A3 SWAP2 SWAP1 PUSH2 0x2D7F JUMP JUMPDEST PUSH1 0x40 MLOAD DUP1 SWAP2 SUB SWAP1 RETURN JUMPDEST CALLVALUE DUP1 ISZERO PUSH2 0x2B8 JUMPI PUSH1 0x0 DUP1 REVERT JUMPDEST POP PUSH2 0x2C1 PUSH2 0x980 JUMP JUMPDEST STOP JUMPDEST CALLVALUE DUP1 ISZERO PUSH2 0x2CF JUMPI PUSH1 0x0 DUP1 REVERT JUMPDEST POP PUSH2 0x2EA PUSH1 0x4 DUP1 CALLDATASIZE SUB DUP2 ADD SWAP1 PUSH2 0x2E5 SWAP2 SWAP1 PUSH2 0x2DD0 JUMP JUMPDEST PUSH2 0xB01 JUMP JUMPDEST PUSH1 0x40 MLOAD PUSH2 0x2F7 SWAP2 SWAP1 PUSH2 0x2E0C JUMP JUMPDEST PUSH1 0x40 MLOAD DUP1 SWAP2 SUB SWAP1 RETURN JUMPDEST CALLVALUE DUP1 ISZERO PUSH2 0x30C JUMPI PUSH1 0x0 DUP1 REVERT JUMPDEST POP PUSH2 0x327 PUSH1 0x4 DUP1 CALLDATASIZE SUB DUP2 ADD SWAP1 PUSH2 0x322 SWAP2 SWAP1 PUSH2 0x2C76 JUMP JUMPDEST PUSH2 0xB21 JUMP JUMPDEST STOP JUMPDEST CALLVALUE DUP1 ISZERO PUSH2 0x335 JUMPI PUSH1 0x0 DUP1 REVERT JUMPDEST POP PUSH2 0x33E PUSH2 0xC44 JUMP JUMPDEST PUSH1 0x40 MLOAD PUSH2 0x34B SWAP2 SWAP1 PUSH2 0x2EB5 JUMP JUMPDEST PUSH1 0x40 MLOAD DUP1 SWAP2 SUB SWAP1 RETURN JUMPDEST CALLVALUE DUP1 ISZERO PUSH2 0x360 JUMPI PUSH1 0x0 DUP1 REVERT JUMPDEST POP PUSH2 0x37B PUSH1 0x4 DUP1 CALLDATASIZE SUB DUP2 ADD SWAP1 PUSH2 0x376 SWAP2 SWAP1 PUSH2 0x2ED0 JUMP JUMPDEST PUSH2 0xCBE JUMP JUMPDEST STOP JUMPDEST CALLVALUE DUP1 ISZERO PUSH2 0x389 JUMPI PUSH1 0x0 DUP1 REVERT JUMPDEST POP PUSH2 0x3A4 PUSH1 0x4 DUP1 CALLDATASIZE SUB DUP2 ADD SWAP1 PUSH2 0x39F SWAP2 SWAP1 PUSH2 0x2ED0 JUMP JUMPDEST PUSH2 0xCE7 JUMP JUMPDEST STOP JUMPDEST CALLVALUE DUP1 ISZERO PUSH2 0x3B2 JUMPI PUSH1 0x0 DUP1 REVERT JUMPDEST POP PUSH2 0x3BB PUSH2 0xD6A JUMP JUMPDEST STOP JUMPDEST CALLVALUE DUP1 ISZERO PUSH2 0x3C9 JUMPI PUSH1 0x0 DUP1 REVERT JUMPDEST POP PUSH2 0x3D2 PUSH2 0xF09 JUMP JUMPDEST STOP JUMPDEST CALLVALUE DUP1 ISZERO PUSH2 0x3E0 JUMPI PUSH1 0x0 DUP1 REVERT JUMPDEST POP PUSH2 0x3E9 PUSH2 0xF8F JUMP JUMPDEST PUSH1 0x40 MLOAD PUSH2 0x3F6 SWAP2 SWAP1 PUSH2 0x2F1F JUMP JUMPDEST PUSH1 0x40 MLOAD DUP1 SWAP2 SUB SWAP1 RETURN JUMPDEST CALLVALUE DUP1 ISZERO PUSH2 0x40B JUMPI PUSH1 0x0 DUP1 REVERT JUMPDEST POP PUSH2 0x414 PUSH2 0x1007 JUMP JUMPDEST STOP JUMPDEST CALLVALUE DUP1 ISZERO PUSH2 0x422 JUMPI PUSH1 0x0 DUP1 REVERT JUMPDEST POP PUSH2 0x42B PUSH2 0x11FF JUMP JUMPDEST PUSH1 0x40 MLOAD PUSH2 0x438 SWAP2 SWAP1 PUSH2 0x2F1F JUMP JUMPDEST PUSH1 0x40 MLOAD DUP1 SWAP2 SUB SWAP1 RETURN JUMPDEST CALLVALUE DUP1 ISZERO PUSH2 0x44D JUMPI PUSH1 0x0 DUP1 REVERT JUMPDEST POP PUSH2 0x456 PUSH2 0x125D JUMP JUMPDEST PUSH1 0x40 MLOAD PUSH2 0x463 SWAP2 SWAP1 PUSH2 0x2E0C JUMP JUMPDEST PUSH1 0x40 MLOAD DUP1 SWAP2 SUB SWAP1 RETURN JUMPDEST CALLVALUE DUP1 ISZERO PUSH2 0x478 JUMPI PUSH1 0x0 DUP1 REVERT JUMPDEST POP PUSH2 0x481 PUSH2 0x1263 JUMP JUMPDEST STOP JUMPDEST CALLVALUE DUP1 ISZERO PUSH2 0x48F JUMPI PUSH1 0x0 DUP1 REVERT JUMPDEST POP PUSH2 0x498 PUSH2 0x1459 JUMP JUMPDEST PUSH1 0x40 MLOAD PUSH2 0x4A5 SWAP2 SWAP1 PUSH2 0x2C25 JUMP JUMPDEST PUSH1 0x40 MLOAD DUP1 SWAP2 SUB SWAP1 RETURN JUMPDEST CALLVALUE DUP1 ISZERO PUSH2 0x4BA JUMPI PUSH1 0x0 DUP1 REVERT JUMPDEST POP PUSH2 0x4C3 PUSH2 0x146F JUMP JUMPDEST PUSH1 0x40 MLOAD PUSH2 0x4D0 SWAP2 SWAP1 PUSH2 0x2E0C JUMP JUMPDEST PUSH1 0x40 MLOAD DUP1 SWAP2 SUB SWAP1 RETURN JUMPDEST CALLVALUE DUP1 ISZERO PUSH2 0x4E5 JUMPI PUSH1 0x0 DUP1 REVERT JUMPDEST POP PUSH2 0x4EE PUSH2 0x1475 JUMP JUMPDEST PUSH1 0x40 MLOAD PUSH2 0x4FB SWAP2 SWAP1 PUSH2 0x2F8F JUMP JUMPDEST PUSH1 0x40 MLOAD DUP1 SWAP2 SUB SWAP1 RETURN JUMPDEST CALLVALUE DUP1 ISZERO PUSH2 0x510 JUMPI PUSH1 0x0 DUP1 REVERT JUMPDEST POP PUSH2 0x519 PUSH2 0x14B7 JUMP JUMPDEST STOP JUMPDEST CALLVALUE DUP1 ISZERO PUSH2 0x527 JUMPI PUSH1 0x0 DUP1 REVERT JUMPDEST POP PUSH2 0x530 PUSH2 0x153F JUMP JUMPDEST PUSH1 0x40 MLOAD PUSH2 0x53D SWAP2 SWAP1 PUSH2 0x2E0C JUMP JUMPDEST PUSH1 0x40 MLOAD DUP1 SWAP2 SUB SWAP1 RETURN JUMPDEST CALLVALUE DUP1 ISZERO PUSH2 0x552 JUMPI PUSH1 0x0 DUP1 REVERT JUMPDEST POP PUSH2 0x55B PUSH2 0x1545 JUMP JUMPDEST STOP JUMPDEST CALLVALUE DUP1 ISZERO PUSH2 0x569 JUMPI PUSH1 0x0 DUP1 REVERT JUMPDEST POP PUSH2 0x584 PUSH1 0x4 DUP1 CALLDATASIZE SUB DUP2 ADD SWAP1 PUSH2 0x57F SWAP2 SWAP1 PUSH2 0x2D01 JUMP JUMPDEST PUSH2 0x15CB JUMP JUMPDEST PUSH1 0x40 MLOAD PUSH2 0x591 SWAP2 SWAP1 PUSH2 0x2F1F JUMP JUMPDEST PUSH1 0x40 MLOAD DUP1 SWAP2 SUB SWAP1 RETURN JUMPDEST CALLVALUE DUP1 ISZERO PUSH2 0x5A6 JUMPI PUSH1 0x0 DUP1 REVERT JUMPDEST POP PUSH2 0x5AF PUSH2 0x161B JUMP JUMPDEST PUSH1 0x40 MLOAD PUSH2 0x5BC SWAP2 SWAP1 PUSH2 0x2FB9 JUMP JUMPDEST PUSH1 0x40 MLOAD DUP1 SWAP2 SUB SWAP1 RETURN JUMPDEST CALLVALUE DUP1 ISZERO PUSH2 0x5D1 JUMPI PUSH1 0x0 DUP1 REVERT JUMPDEST POP PUSH2 0x5DA PUSH2 0x1644 JUMP JUMPDEST STOP JUMPDEST CALLVALUE DUP1 ISZERO PUSH2 0x5E8 JUMPI PUSH1 0x0 DUP1 REVERT JUMPDEST POP PUSH2 0x603 PUSH1 0x4 DUP1 CALLDATASIZE SUB DUP2 ADD SWAP1 PUSH2 0x5FE SWAP2 SWAP1 PUSH2 0x2FD4 JUMP JUMPDEST PUSH2 0x17C7 JUMP JUMPDEST PUSH1 0x40 MLOAD PUSH2 0x610 SWAP2 SWAP1 PUSH2 0x2FB9 JUMP JUMPDEST PUSH1 0x40 MLOAD DUP1 SWAP2 SUB SWAP1 RETURN JUMPDEST CALLVALUE DUP1 ISZERO PUSH2 0x625 JUMPI PUSH1 0x0 DUP1 REVERT JUMPDEST POP PUSH2 0x640 PUSH1 0x4 DUP1 CALLDATASIZE SUB DUP2 ADD SWAP1 PUSH2 0x63B SWAP2 SWAP1 PUSH2 0x2ED0 JUMP JUMPDEST PUSH2 0x17F6 JUMP JUMPDEST PUSH1 0x40 MLOAD PUSH2 0x64D SWAP2 SWAP1 PUSH2 0x2C25 JUMP JUMPDEST PUSH1 0x40 MLOAD DUP1 SWAP2 SUB SWAP1 RETURN JUMPDEST CALLVALUE DUP1 ISZERO PUSH2 0x662 JUMPI PUSH1 0x0 DUP1 REVERT JUMPDEST POP PUSH2 0x66B PUSH2 0x1861 JUMP JUMPDEST PUSH1 0x40 MLOAD PUSH2 0x678 SWAP2 SWAP1 PUSH2 0x2E0C JUMP JUMPDEST PUSH1 0x40 MLOAD DUP1 SWAP2 SUB SWAP1 RETURN JUMPDEST CALLVALUE DUP1 ISZERO PUSH2 0x68D JUMPI PUSH1 0x0 DUP1 REVERT JUMPDEST POP PUSH2 0x696 PUSH2 0x1868 JUMP JUMPDEST PUSH1 0x40 MLOAD PUSH2 0x6A3 SWAP2 SWAP1 PUSH2 0x30A2 JUMP JUMPDEST PUSH1 0x40 MLOAD DUP1 SWAP2 SUB SWAP1 RETURN JUMPDEST CALLVALUE DUP1 ISZERO PUSH2 0x6B8 JUMPI PUSH1 0x0 DUP1 REVERT JUMPDEST POP PUSH2 0x6D3 PUSH1 0x4 DUP1 CALLDATASIZE SUB DUP2 ADD SWAP1 PUSH2 0x6CE SWAP2 SWAP1 PUSH2 0x2D01 JUMP JUMPDEST PUSH2 0x1914 JUMP JUMPDEST PUSH1 0x40 MLOAD PUSH2 0x6E0 SWAP2 SWAP1 PUSH2 0x2F1F JUMP JUMPDEST PUSH1 0x40 MLOAD DUP1 SWAP2 SUB SWAP1 RETURN JUMPDEST CALLVALUE DUP1 ISZERO PUSH2 0x6F5 JUMPI PUSH1 0x0 DUP1 REVERT JUMPDEST POP PUSH2 0x6FE PUSH2 0x1964 JUMP JUMPDEST STOP JUMPDEST CALLVALUE DUP1 ISZERO PUSH2 0x70C JUMPI PUSH1 0x0 DUP1 REVERT JUMPDEST POP PUSH2 0x727 PUSH1 0x4 DUP1 CALLDATASIZE SUB DUP2 ADD SWAP1 PUSH2 0x722 SWAP2 SWAP1 PUSH2 0x2DD0 JUMP JUMPDEST PUSH2 0x1B30 JUMP JUMPDEST PUSH1 0x40 MLOAD PUSH2 0x734 SWAP2 SWAP1 PUSH2 0x2F1F JUMP JUMPDEST PUSH1 0x40 MLOAD DUP1 SWAP2 SUB SWAP1 RETURN JUMPDEST CALLVALUE DUP1 ISZERO PUSH2 0x749 JUMPI PUSH1 0x0 DUP1 REVERT JUMPDEST POP PUSH2 0x764 PUSH1 0x4 DUP1 CALLDATASIZE SUB DUP2 ADD SWAP1 PUSH2 0x75F SWAP2 SWAP1 PUSH2 0x2ED0 JUMP JUMPDEST PUSH2 0x1B54 JUMP JUMPDEST STOP JUMPDEST PUSH2 0x76E PUSH2 0x1B7D JUMP JUMPDEST STOP JUMPDEST CALLVALUE DUP1 ISZERO PUSH2 0x77C JUMPI PUSH1 0x0 DUP1 REVERT JUMPDEST POP PUSH2 0x797 PUSH1 0x4 DUP1 CALLDATASIZE SUB DUP2 ADD SWAP1 PUSH2 0x792 SWAP2 SWAP1 PUSH2 0x2D01 JUMP JUMPDEST PUSH2 0x1D0E JUMP JUMPDEST STOP JUMPDEST PUSH1 0x0 PUSH32 0x5A05180F00000000000000000000000000000000000000000000000000000000 PUSH28 0xFFFFFFFFFFFFFFFFFFFFFFFFFFFFFFFFFFFFFFFFFFFFFFFFFFFFFFFF NOT AND DUP3 PUSH28 0xFFFFFFFFFFFFFFFFFFFFFFFFFFFFFFFFFFFFFFFFFFFFFFFFFFFFFFFF NOT AND EQ DUP1 PUSH2 0x80C JUMPI POP PUSH2 0x80B DUP3 PUSH2 0x1F17 JUMP JUMPDEST JUMPDEST SWAP1 POP SWAP2 SWAP1 POP JUMP JUMPDEST PUSH2 0x81B PUSH2 0x1F91 JUMP JUMPDEST PUSH20 0xFFFFFFFFFFFFFFFFFFFFFFFFFFFFFFFFFFFFFFFF AND PUSH2 0x839 PUSH2 0x161B JUMP JUMPDEST PUSH20 0xFFFFFFFFFFFFFFFFFFFFFFFFFFFFFFFFFFFFFFFF AND EQ PUSH2 0x88F JUMPI PUSH1 0x40 MLOAD PUSH32 0x8C379A000000000000000000000000000000000000000000000000000000000 DUP2 MSTORE PUSH1 0x4 ADD PUSH2 0x886 SWAP1 PUSH2 0x311A JUMP JUMPDEST PUSH1 0x40 MLOAD DUP1 SWAP2 SUB SWAP1 REVERT JUMPDEST PUSH1 0x0 CALLER PUSH20 0xFFFFFFFFFFFFFFFFFFFFFFFFFFFFFFFFFFFFFFFF AND DUP3 PUSH1 0x40 MLOAD PUSH2 0x8B5 SWAP1 PUSH2 0x316B JUMP JUMPDEST PUSH1 0x0 PUSH1 0x40 MLOAD DUP1 DUP4 SUB DUP2 DUP6 DUP8 GAS CALL SWAP3 POP POP POP RETURNDATASIZE DUP1 PUSH1 0x0 DUP2 EQ PUSH2 0x8F2 JUMPI PUSH1 0x40 MLOAD SWAP2 POP PUSH1 0x1F NOT PUSH1 0x3F RETURNDATASIZE ADD AND DUP3 ADD PUSH1 0x40 MSTORE RETURNDATASIZE DUP3 MSTORE RETURNDATASIZE PUSH1 0x0 PUSH1 0x20 DUP5 ADD RETURNDATACOPY PUSH2 0x8F7 JUMP JUMPDEST PUSH1 0x60 SWAP2 POP JUMPDEST POP POP SWAP1 POP DUP1 PUSH2 0x905 JUMPI PUSH1 0x0 DUP1 REVERT JUMPDEST POP POP JUMP JUMPDEST PUSH2 0x911 PUSH2 0x2AB4 JUMP JUMPDEST PUSH1 0xC PUSH1 0x0 DUP4 PUSH20 0xFFFFFFFFFFFFFFFFFFFFFFFFFFFFFFFFFFFFFFFF AND PUSH20 0xFFFFFFFFFFFFFFFFFFFFFFFFFFFFFFFFFFFFFFFF AND DUP2 MSTORE PUSH1 0x20 ADD SWAP1 DUP2 MSTORE PUSH1 0x20 ADD PUSH1 0x0 KECCAK256 PUSH1 0x40 MLOAD DUP1 PUSH1 0x60 ADD PUSH1 0x40 MSTORE SWAP1 DUP2 PUSH1 0x0 DUP3 ADD SLOAD DUP2 MSTORE PUSH1 0x20 ADD PUSH1 0x1 DUP3 ADD SLOAD DUP2 MSTORE PUSH1 0x20 ADD PUSH1 0x2 DUP3 ADD SLOAD DUP2 MSTORE POP POP SWAP1 POP SWAP2 SWAP1 POP JUMP JUMPDEST PUSH1 0x1 PUSH1 0x4 ADD SLOAD TIMESTAMP LT ISZERO PUSH2 0x9C8 JUMPI PUSH1 0x40 MLOAD PUSH32 0x8C379A000000000000000000000000000000000000000000000000000000000 DUP2 MSTORE PUSH1 0x4 ADD PUSH2 0x9BF SWAP1 PUSH2 0x31CC JUMP JUMPDEST PUSH1 0x40 MLOAD DUP1 SWAP2 SUB SWAP1 REVERT JUMPDEST PUSH2 0x9D4 PUSH1 0xF SLOAD CALLER PUSH2 0x17F6 JUMP JUMPDEST PUSH2 0xA13 JUMPI PUSH1 0x40 MLOAD PUSH32 0x8C379A000000000000000000000000000000000000000000000000000000000 DUP2 MSTORE PUSH1 0x4 ADD PUSH2 0xA0A SWAP1 PUSH2 0x3238 JUMP JUMPDEST PUSH1 0x40 MLOAD DUP1 SWAP2 SUB SWAP1 REVERT JUMPDEST PUSH1 0x10 PUSH1 0x0 ADD PUSH1 0x0 SWAP1 SLOAD SWAP1 PUSH2 0x100 EXP SWAP1 DIV PUSH20 0xFFFFFFFFFFFFFFFFFFFFFFFFFFFFFFFFFFFFFFFF AND PUSH20 0xFFFFFFFFFFFFFFFFFFFFFFFFFFFFFFFFFFFFFFFF AND PUSH4 0xA9059CBB CALLER PUSH1 0x10 PUSH1 0x1 ADD SLOAD PUSH1 0x40 MLOAD DUP4 PUSH4 0xFFFFFFFF AND PUSH1 0xE0 SHL DUP2 MSTORE PUSH1 0x4 ADD PUSH2 0xA78 SWAP3 SWAP2 SWAP1 PUSH2 0x3258 JUMP JUMPDEST PUSH1 0x20 PUSH1 0x40 MLOAD DUP1 DUP4 SUB DUP2 PUSH1 0x0 DUP8 GAS CALL ISZERO DUP1 ISZERO PUSH2 0xA97 JUMPI RETURNDATASIZE PUSH1 0x0 DUP1 RETURNDATACOPY RETURNDATASIZE PUSH1 0x0 REVERT JUMPDEST POP POP POP POP PUSH1 0x40 MLOAD RETURNDATASIZE PUSH1 0x1F NOT PUSH1 0x1F DUP3 ADD AND DUP3 ADD DUP1 PUSH1 0x40 MSTORE POP DUP2 ADD SWAP1 PUSH2 0xABB SWAP2 SWAP1 PUSH2 0x32AD JUMP JUMPDEST POP PUSH2 0xAC8 PUSH1 0xF SLOAD CALLER PUSH2 0x1F99 JUMP JUMPDEST PUSH32 0xAC1020C5E021E2C2AEFE4CF6C0F77FAB9C73174AD863B68F51E1ABE8B7DE0FA2 CALLER PUSH1 0x40 MLOAD PUSH2 0xAF7 SWAP2 SWAP1 PUSH2 0x2FB9 JUMP JUMPDEST PUSH1 0x40 MLOAD DUP1 SWAP2 SUB SWAP1 LOG1 JUMP JUMPDEST PUSH1 0x0 PUSH1 0xD PUSH1 0x0 DUP4 DUP2 MSTORE PUSH1 0x20 ADD SWAP1 DUP2 MSTORE PUSH1 0x20 ADD PUSH1 0x0 KECCAK256 PUSH1 0x1 ADD SLOAD SWAP1 POP SWAP2 SWAP1 POP JUMP JUMPDEST PUSH2 0xB29 PUSH2 0x1F91 JUMP JUMPDEST PUSH20 0xFFFFFFFFFFFFFFFFFFFFFFFFFFFFFFFFFFFFFFFF AND PUSH2 0xB47 PUSH2 0x161B JUMP JUMPDEST PUSH20 0xFFFFFFFFFFFFFFFFFFFFFFFFFFFFFFFFFFFFFFFF AND EQ PUSH2 0xB9D JUMPI PUSH1 0x40 MLOAD PUSH32 0x8C379A000000000000000000000000000000000000000000000000000000000 DUP2 MSTORE PUSH1 0x4 ADD PUSH2 0xB94 SWAP1 PUSH2 0x311A JUMP JUMPDEST PUSH1 0x40 MLOAD DUP1 SWAP2 SUB SWAP1 REVERT JUMPDEST PUSH1 0x1 PUSH1 0x0 ADD PUSH1 0x0 SWAP1 SLOAD SWAP1 PUSH2 0x100 EXP SWAP1 DIV PUSH20 0xFFFFFFFFFFFFFFFFFFFFFFFFFFFFFFFFFFFFFFFF AND PUSH20 0xFFFFFFFFFFFFFFFFFFFFFFFFFFFFFFFFFFFFFFFF AND PUSH4 0xA9059CBB CALLER DUP4 PUSH1 0x40 MLOAD DUP4 PUSH4 0xFFFFFFFF AND PUSH1 0xE0 SHL DUP2 MSTORE PUSH1 0x4 ADD PUSH2 0xBFD SWAP3 SWAP2 SWAP1 PUSH2 0x3258 JUMP JUMPDEST PUSH1 0x20 PUSH1 0x40 MLOAD DUP1 DUP4 SUB DUP2 PUSH1 0x0 DUP8 GAS CALL ISZERO DUP1 ISZERO PUSH2 0xC1C JUMPI RETURNDATASIZE PUSH1 0x0 DUP1 RETURNDATACOPY RETURNDATASIZE PUSH1 0x0 REVERT JUMPDEST POP POP POP POP PUSH1 0x40 MLOAD RETURNDATASIZE PUSH1 0x1F NOT PUSH1 0x1F DUP3 ADD AND DUP3 ADD DUP1 PUSH1 0x40 MSTORE POP DUP2 ADD SWAP1 PUSH2 0xC40 SWAP2 SWAP1 PUSH2 0x32AD JUMP JUMPDEST POP POP JUMP JUMPDEST PUSH2 0xC4C PUSH2 0x2AD5 JUMP JUMPDEST PUSH1 0x10 PUSH1 0x40 MLOAD DUP1 PUSH1 0x40 ADD PUSH1 0x40 MSTORE SWAP1 DUP2 PUSH1 0x0 DUP3 ADD PUSH1 0x0 SWAP1 SLOAD SWAP1 PUSH2 0x100 EXP SWAP1 DIV PUSH20 0xFFFFFFFFFFFFFFFFFFFFFFFFFFFFFFFFFFFFFFFF AND PUSH20 0xFFFFFFFFFFFFFFFFFFFFFFFFFFFFFFFFFFFFFFFF AND PUSH20 0xFFFFFFFFFFFFFFFFFFFFFFFFFFFFFFFFFFFFFFFF AND DUP2 MSTORE PUSH1 0x20 ADD PUSH1 0x1 DUP3 ADD SLOAD DUP2 MSTORE POP POP SWAP1 POP SWAP1 JUMP JUMPDEST PUSH2 0xCC7 DUP3 PUSH2 0xB01 JUMP JUMPDEST PUSH2 0xCD8 DUP2 PUSH2 0xCD3 PUSH2 0x1F91 JUMP JUMPDEST PUSH2 0x1FCD JUMP JUMPDEST PUSH2 0xCE2 DUP4 DUP4 PUSH2 0x206A JUMP JUMPDEST POP POP POP JUMP JUMPDEST PUSH2 0xCEF PUSH2 0x1F91 JUMP JUMPDEST PUSH20 0xFFFFFFFFFFFFFFFFFFFFFFFFFFFFFFFFFFFFFFFF AND DUP2 PUSH20 0xFFFFFFFFFFFFFFFFFFFFFFFFFFFFFFFFFFFFFFFF AND EQ PUSH2 0xD5C JUMPI PUSH1 0x40 MLOAD PUSH32 0x8C379A000000000000000000000000000000000000000000000000000000000 DUP2 MSTORE PUSH1 0x4 ADD PUSH2 0xD53 SWAP1 PUSH2 0x334C JUMP JUMPDEST PUSH1 0x40 MLOAD DUP1 SWAP2 SUB SWAP1 REVERT JUMPDEST PUSH2 0xD66 DUP3 DUP3 PUSH2 0x1F99 JUMP JUMPDEST POP POP JUMP JUMPDEST PUSH2 0xD72 PUSH2 0x1F91 JUMP JUMPDEST PUSH20 0xFFFFFFFFFFFFFFFFFFFFFFFFFFFFFFFFFFFFFFFF AND PUSH2 0xD90 PUSH2 0x161B JUMP JUMPDEST PUSH20 0xFFFFFFFFFFFFFFFFFFFFFFFFFFFFFFFFFFFFFFFF AND EQ PUSH2 0xDE6 JUMPI PUSH1 0x40 MLOAD PUSH32 0x8C379A000000000000000000000000000000000000000000000000000000000 DUP2 MSTORE PUSH1 0x4 ADD PUSH2 0xDDD SWAP1 PUSH2 0x311A JUMP JUMPDEST PUSH1 0x40 MLOAD DUP1 SWAP2 SUB SWAP1 REVERT JUMPDEST PUSH1 0x1 PUSH1 0x4 ADD SLOAD TIMESTAMP LT ISZERO PUSH2 0xE2E JUMPI PUSH1 0x40 MLOAD PUSH32 0x8C379A000000000000000000000000000000000000000000000000000000000 DUP2 MSTORE PUSH1 0x4 ADD PUSH2 0xE25 SWAP1 PUSH2 0x31CC JUMP JUMPDEST PUSH1 0x40 MLOAD DUP1 SWAP2 SUB SWAP1 REVERT JUMPDEST PUSH1 0x0 PUSH2 0xE38 PUSH2 0x11FF JUMP JUMPDEST SWAP1 POP DUP1 PUSH1 0x8 PUSH1 0x2 ADD PUSH1 0x0 DUP3 DUP3 SLOAD PUSH2 0xE4F SWAP2 SWAP1 PUSH2 0x339B JUMP JUMPDEST SWAP3 POP POP DUP2 SWAP1 SSTORE POP PUSH1 0x0 CALLER PUSH20 0xFFFFFFFFFFFFFFFFFFFFFFFFFFFFFFFFFFFFFFFF AND DUP3 PUSH1 0x40 MLOAD PUSH2 0xE7C SWAP1 PUSH2 0x316B JUMP JUMPDEST PUSH1 0x0 PUSH1 0x40 MLOAD DUP1 DUP4 SUB DUP2 DUP6 DUP8 GAS CALL SWAP3 POP POP POP RETURNDATASIZE DUP1 PUSH1 0x0 DUP2 EQ PUSH2 0xEB9 JUMPI PUSH1 0x40 MLOAD SWAP2 POP PUSH1 0x1F NOT PUSH1 0x3F RETURNDATASIZE ADD AND DUP3 ADD PUSH1 0x40 MSTORE RETURNDATASIZE DUP3 MSTORE RETURNDATASIZE PUSH1 0x0 PUSH1 0x20 DUP5 ADD RETURNDATACOPY PUSH2 0xEBE JUMP JUMPDEST PUSH1 0x60 SWAP2 POP JUMPDEST POP POP SWAP1 POP DUP1 PUSH2 0xECC JUMPI PUSH1 0x0 DUP1 REVERT JUMPDEST PUSH32 0x7084F5476618D8E60B11EF0D7D3F06914655ADB8793E28FF7F018D4C76D505D5 CALLER DUP4 PUSH1 0x40 MLOAD PUSH2 0xEFD SWAP3 SWAP2 SWAP1 PUSH2 0x3258 JUMP JUMPDEST PUSH1 0x40 MLOAD DUP1 SWAP2 SUB SWAP1 LOG1 POP POP JUMP JUMPDEST PUSH2 0xF11 PUSH2 0x1F91 JUMP JUMPDEST PUSH20 0xFFFFFFFFFFFFFFFFFFFFFFFFFFFFFFFFFFFFFFFF AND PUSH2 0xF2F PUSH2 0x161B JUMP JUMPDEST PUSH20 0xFFFFFFFFFFFFFFFFFFFFFFFFFFFFFFFFFFFFFFFF AND EQ PUSH2 0xF85 JUMPI PUSH1 0x40 MLOAD PUSH32 0x8C379A000000000000000000000000000000000000000000000000000000000 DUP2 MSTORE PUSH1 0x4 ADD PUSH2 0xF7C SWAP1 PUSH2 0x311A JUMP JUMPDEST PUSH1 0x40 MLOAD DUP1 SWAP2 SUB SWAP1 REVERT JUMPDEST PUSH2 0xF8D PUSH2 0x209E JUMP JUMPDEST JUMP JUMPDEST PUSH1 0x0 PUSH1 0x1 PUSH1 0x4 ADD SLOAD TIMESTAMP LT ISZERO PUSH2 0xFA7 JUMPI PUSH1 0x0 SWAP1 POP PUSH2 0x1004 JUMP JUMPDEST PUSH2 0xFAF PUSH2 0x213F JUMP JUMPDEST ISZERO PUSH2 0xFBD JUMPI PUSH1 0x0 SWAP1 POP PUSH2 0x1004 JUMP JUMPDEST PUSH1 0x8 PUSH1 0x3 ADD SLOAD PUSH1 0x1 PUSH1 0x2 ADD SLOAD PUSH1 0x8 PUSH1 0x0 ADD SLOAD PUSH1 0x1 DUP1 ADD SLOAD PUSH2 0xFDE SWAP2 SWAP1 PUSH2 0x33F1 JUMP JUMPDEST PUSH2 0xFE8 SWAP2 SWAP1 PUSH2 0x347A JUMP JUMPDEST PUSH1 0x1 DUP1 ADD SLOAD PUSH2 0xFF7 SWAP2 SWAP1 PUSH2 0x34AB JUMP JUMPDEST PUSH2 0x1001 SWAP2 SWAP1 PUSH2 0x34AB JUMP JUMPDEST SWAP1 POP JUMPDEST SWAP1 JUMP JUMPDEST PUSH2 0x100F PUSH2 0x1459 JUMP JUMPDEST ISZERO PUSH2 0x104F JUMPI PUSH1 0x40 MLOAD PUSH32 0x8C379A000000000000000000000000000000000000000000000000000000000 DUP2 MSTORE PUSH1 0x4 ADD PUSH2 0x1046 SWAP1 PUSH2 0x352B JUMP JUMPDEST PUSH1 0x40 MLOAD DUP1 SWAP2 SUB SWAP1 REVERT JUMPDEST PUSH1 0x1 PUSH1 0x5 ADD SLOAD TIMESTAMP LT ISZERO PUSH2 0x1097 JUMPI PUSH1 0x40 MLOAD PUSH32 0x8C379A000000000000000000000000000000000000000000000000000000000 DUP2 MSTORE PUSH1 0x4 ADD PUSH2 0x108E SWAP1 PUSH2 0x3597 JUMP JUMPDEST PUSH1 0x40 MLOAD DUP1 SWAP2 SUB SWAP1 REVERT JUMPDEST PUSH1 0x0 PUSH1 0xC PUSH1 0x0 CALLER PUSH20 0xFFFFFFFFFFFFFFFFFFFFFFFFFFFFFFFFFFFFFFFF AND PUSH20 0xFFFFFFFFFFFFFFFFFFFFFFFFFFFFFFFFFFFFFFFF AND DUP2 MSTORE PUSH1 0x20 ADD SWAP1 DUP2 MSTORE PUSH1 0x20 ADD PUSH1 0x0 KECCAK256 SWAP1 POP PUSH1 0x0 PUSH2 0x10E5 DUP3 PUSH2 0x2153 JUMP JUMPDEST SWAP1 POP DUP1 DUP3 PUSH1 0x1 ADD PUSH1 0x0 DUP3 DUP3 SLOAD PUSH2 0x10FB SWAP2 SWAP1 PUSH2 0x339B JUMP JUMPDEST SWAP3 POP POP DUP2 SWAP1 SSTORE POP DUP1 PUSH1 0x8 PUSH1 0x1 ADD PUSH1 0x0 DUP3 DUP3 SLOAD PUSH2 0x1117 SWAP2 SWAP1 PUSH2 0x339B JUMP JUMPDEST SWAP3 POP POP DUP2 SWAP1 SSTORE POP PUSH1 0x1 PUSH1 0x0 ADD PUSH1 0x0 SWAP1 SLOAD SWAP1 PUSH2 0x100 EXP SWAP1 DIV PUSH20 0xFFFFFFFFFFFFFFFFFFFFFFFFFFFFFFFFFFFFFFFF AND PUSH20 0xFFFFFFFFFFFFFFFFFFFFFFFFFFFFFFFFFFFFFFFF AND PUSH4 0xA9059CBB CALLER DUP4 PUSH1 0x40 MLOAD DUP4 PUSH4 0xFFFFFFFF AND PUSH1 0xE0 SHL DUP2 MSTORE PUSH1 0x4 ADD PUSH2 0x117E SWAP3 SWAP2 SWAP1 PUSH2 0x3258 JUMP JUMPDEST PUSH1 0x20 PUSH1 0x40 MLOAD DUP1 DUP4 SUB DUP2 PUSH1 0x0 DUP8 GAS CALL ISZERO DUP1 ISZERO PUSH2 0x119D JUMPI RETURNDATASIZE PUSH1 0x0 DUP1 RETURNDATACOPY RETURNDATASIZE PUSH1 0x0 REVERT JUMPDEST POP POP POP POP PUSH1 0x40 MLOAD RETURNDATASIZE PUSH1 0x1F NOT PUSH1 0x1F DUP3 ADD AND DUP3 ADD DUP1 PUSH1 0x40 MSTORE POP DUP2 ADD SWAP1 PUSH2 0x11C1 SWAP2 SWAP1 PUSH2 0x32AD JUMP JUMPDEST POP PUSH32 0xD8138F8A3F377C5259CA548E70E4C2DE94F129F5A11036A15B69513CBA2B426A CALLER DUP3 PUSH1 0x40 MLOAD PUSH2 0x11F3 SWAP3 SWAP2 SWAP1 PUSH2 0x3258 JUMP JUMPDEST PUSH1 0x40 MLOAD DUP1 SWAP2 SUB SWAP1 LOG1 POP POP JUMP JUMPDEST PUSH1 0x0 PUSH1 0x1 PUSH1 0x4 ADD SLOAD TIMESTAMP LT ISZERO PUSH2 0x1217 JUMPI PUSH1 0x0 SWAP1 POP PUSH2 0x125A JUMP JUMPDEST PUSH2 0x121F PUSH2 0x213F JUMP JUMPDEST ISZERO PUSH2 0x1241 JUMPI PUSH1 0x8 PUSH1 0x2 ADD SLOAD PUSH1 0x1 PUSH1 0x2 ADD SLOAD PUSH2 0x123A SWAP2 SWAP1 PUSH2 0x34AB JUMP JUMPDEST SWAP1 POP PUSH2 0x125A JUMP JUMPDEST PUSH1 0x8 PUSH1 0x2 ADD SLOAD PUSH1 0x8 PUSH1 0x0 ADD SLOAD PUSH2 0x1257 SWAP2 SWAP1 PUSH2 0x34AB JUMP JUMPDEST SWAP1 POP JUMPDEST SWAP1 JUMP JUMPDEST PUSH1 0x12 SLOAD DUP2 JUMP JUMPDEST PUSH2 0x126B PUSH2 0x1459 JUMP JUMPDEST ISZERO PUSH2 0x12AB JUMPI PUSH1 0x40 MLOAD PUSH32 0x8C379A000000000000000000000000000000000000000000000000000000000 DUP2 MSTORE PUSH1 0x4 ADD PUSH2 0x12A2 SWAP1 PUSH2 0x352B JUMP JUMPDEST PUSH1 0x40 MLOAD DUP1 SWAP2 SUB SWAP1 REVERT JUMPDEST PUSH1 0x1 PUSH1 0x4 ADD SLOAD TIMESTAMP LT ISZERO PUSH2 0x12F3 JUMPI PUSH1 0x40 MLOAD PUSH32 0x8C379A000000000000000000000000000000000000000000000000000000000 DUP2 MSTORE PUSH1 0x4 ADD PUSH2 0x12EA SWAP1 PUSH2 0x31CC JUMP JUMPDEST PUSH1 0x40 MLOAD DUP1 SWAP2 SUB SWAP1 REVERT JUMPDEST PUSH2 0x12FB PUSH2 0x213F JUMP JUMPDEST PUSH2 0x133A JUMPI PUSH1 0x40 MLOAD PUSH32 0x8C379A000000000000000000000000000000000000000000000000000000000 DUP2 MSTORE PUSH1 0x4 ADD PUSH2 0x1331 SWAP1 PUSH2 0x3603 JUMP JUMPDEST PUSH1 0x40 MLOAD DUP1 SWAP2 SUB SWAP1 REVERT JUMPDEST PUSH1 0x0 PUSH1 0xC PUSH1 0x0 CALLER PUSH20 0xFFFFFFFFFFFFFFFFFFFFFFFFFFFFFFFFFFFFFFFF AND PUSH20 0xFFFFFFFFFFFFFFFFFFFFFFFFFFFFFFFFFFFFFFFF AND DUP2 MSTORE PUSH1 0x20 ADD SWAP1 DUP2 MSTORE PUSH1 0x20 ADD PUSH1 0x0 KECCAK256 SWAP1 POP PUSH1 0x0 PUSH2 0x1388 DUP3 PUSH2 0x2247 JUMP JUMPDEST SWAP1 POP DUP1 DUP3 PUSH1 0x2 ADD PUSH1 0x0 DUP3 DUP3 SLOAD PUSH2 0x139E SWAP2 SWAP1 PUSH2 0x339B JUMP JUMPDEST SWAP3 POP POP DUP2 SWAP1 SSTORE POP PUSH1 0x0 CALLER PUSH20 0xFFFFFFFFFFFFFFFFFFFFFFFFFFFFFFFFFFFFFFFF AND DUP3 PUSH1 0x40 MLOAD PUSH2 0x13CB SWAP1 PUSH2 0x316B JUMP JUMPDEST PUSH1 0x0 PUSH1 0x40 MLOAD DUP1 DUP4 SUB DUP2 DUP6 DUP8 GAS CALL SWAP3 POP POP POP RETURNDATASIZE DUP1 PUSH1 0x0 DUP2 EQ PUSH2 0x1408 JUMPI PUSH1 0x40 MLOAD SWAP2 POP PUSH1 0x1F NOT PUSH1 0x3F RETURNDATASIZE ADD AND DUP3 ADD PUSH1 0x40 MSTORE RETURNDATASIZE DUP3 MSTORE RETURNDATASIZE PUSH1 0x0 PUSH1 0x20 DUP5 ADD RETURNDATACOPY PUSH2 0x140D JUMP JUMPDEST PUSH1 0x60 SWAP2 POP JUMPDEST POP POP SWAP1 POP DUP1 PUSH2 0x141B JUMPI PUSH1 0x0 DUP1 REVERT JUMPDEST PUSH32 0xD7DEE2702D63AD89917B6A4DA9981C90C4D24F8C2BDFD64C604ECAE57D8D0651 CALLER DUP4 PUSH1 0x40 MLOAD PUSH2 0x144C SWAP3 SWAP2 SWAP1 PUSH2 0x3258 JUMP JUMPDEST PUSH1 0x40 MLOAD DUP1 SWAP2 SUB SWAP1 LOG1 POP POP POP JUMP JUMPDEST PUSH1 0x0 DUP1 PUSH1 0x14 SWAP1 SLOAD SWAP1 PUSH2 0x100 EXP SWAP1 DIV PUSH1 0xFF AND SWAP1 POP SWAP1 JUMP JUMPDEST PUSH1 0xF SLOAD DUP2 JUMP JUMPDEST PUSH2 0x147D PUSH2 0x2B05 JUMP JUMPDEST PUSH1 0x8 PUSH1 0x40 MLOAD DUP1 PUSH1 0x80 ADD PUSH1 0x40 MSTORE SWAP1 DUP2 PUSH1 0x0 DUP3 ADD SLOAD DUP2 MSTORE PUSH1 0x20 ADD PUSH1 0x1 DUP3 ADD SLOAD DUP2 MSTORE PUSH1 0x20 ADD PUSH1 0x2 DUP3 ADD SLOAD DUP2 MSTORE PUSH1 0x20 ADD PUSH1 0x3 DUP3 ADD SLOAD DUP2 MSTORE POP POP SWAP1 POP SWAP1 JUMP JUMPDEST PUSH2 0x14BF PUSH2 0x1F91 JUMP JUMPDEST PUSH20 0xFFFFFFFFFFFFFFFFFFFFFFFFFFFFFFFFFFFFFFFF AND PUSH2 0x14DD PUSH2 0x161B JUMP JUMPDEST PUSH20 0xFFFFFFFFFFFFFFFFFFFFFFFFFFFFFFFFFFFFFFFF AND EQ PUSH2 0x1533 JUMPI PUSH1 0x40 MLOAD PUSH32 0x8C379A000000000000000000000000000000000000000000000000000000000 DUP2 MSTORE PUSH1 0x4 ADD PUSH2 0x152A SWAP1 PUSH2 0x311A JUMP JUMPDEST PUSH1 0x40 MLOAD DUP1 SWAP2 SUB SWAP1 REVERT JUMPDEST PUSH2 0x153D PUSH1 0x0 PUSH2 0x22BF JUMP JUMPDEST JUMP JUMPDEST PUSH1 0x13 SLOAD DUP2 JUMP JUMPDEST PUSH2 0x154D PUSH2 0x1F91 JUMP JUMPDEST PUSH20 0xFFFFFFFFFFFFFFFFFFFFFFFFFFFFFFFFFFFFFFFF AND PUSH2 0x156B PUSH2 0x161B JUMP JUMPDEST PUSH20 0xFFFFFFFFFFFFFFFFFFFFFFFFFFFFFFFFFFFFFFFF AND EQ PUSH2 0x15C1 JUMPI PUSH1 0x40 MLOAD PUSH32 0x8C379A000000000000000000000000000000000000000000000000000000000 DUP2 MSTORE PUSH1 0x4 ADD PUSH2 0x15B8 SWAP1 PUSH2 0x311A JUMP JUMPDEST PUSH1 0x40 MLOAD DUP1 SWAP2 SUB SWAP1 REVERT JUMPDEST PUSH2 0x15C9 PUSH2 0x2383 JUMP JUMPDEST JUMP JUMPDEST PUSH1 0x0 PUSH2 0x1614 PUSH1 0xC PUSH1 0x0 DUP5 PUSH20 0xFFFFFFFFFFFFFFFFFFFFFFFFFFFFFFFFFFFFFFFF AND PUSH20 0xFFFFFFFFFFFFFFFFFFFFFFFFFFFFFFFFFFFFFFFF AND DUP2 MSTORE PUSH1 0x20 ADD SWAP1 DUP2 MSTORE PUSH1 0x20 ADD PUSH1 0x0 KECCAK256 PUSH2 0x2153 JUMP JUMPDEST SWAP1 POP SWAP2 SWAP1 POP JUMP JUMPDEST PUSH1 0x0 DUP1 PUSH1 0x0 SWAP1 SLOAD SWAP1 PUSH2 0x100 EXP SWAP1 DIV PUSH20 0xFFFFFFFFFFFFFFFFFFFFFFFFFFFFFFFFFFFFFFFF AND SWAP1 POP SWAP1 JUMP JUMPDEST PUSH1 0x1 PUSH1 0x3 ADD SLOAD TIMESTAMP LT PUSH2 0x168B JUMPI PUSH1 0x40 MLOAD PUSH32 0x8C379A000000000000000000000000000000000000000000000000000000000 DUP2 MSTORE PUSH1 0x4 ADD PUSH2 0x1682 SWAP1 PUSH2 0x366F JUMP JUMPDEST PUSH1 0x40 MLOAD DUP1 SWAP2 SUB SWAP1 REVERT JUMPDEST PUSH2 0x1697 PUSH1 0xF SLOAD CALLER PUSH2 0x17F6 JUMP JUMPDEST ISZERO PUSH2 0x16D7 JUMPI PUSH1 0x40 MLOAD PUSH32 0x8C379A000000000000000000000000000000000000000000000000000000000 DUP2 MSTORE PUSH1 0x4 ADD PUSH2 0x16CE SWAP1 PUSH2 0x36DB JUMP JUMPDEST PUSH1 0x40 MLOAD DUP1 SWAP2 SUB SWAP1 REVERT JUMPDEST PUSH1 0x10 PUSH1 0x0 ADD PUSH1 0x0 SWAP1 SLOAD SWAP1 PUSH2 0x100 EXP SWAP1 DIV PUSH20 0xFFFFFFFFFFFFFFFFFFFFFFFFFFFFFFFFFFFFFFFF AND PUSH20 0xFFFFFFFFFFFFFFFFFFFFFFFFFFFFFFFFFFFFFFFF AND PUSH4 0x23B872DD CALLER ADDRESS PUSH1 0x10 PUSH1 0x1 ADD SLOAD PUSH1 0x40 MLOAD DUP5 PUSH4 0xFFFFFFFF AND PUSH1 0xE0 SHL DUP2 MSTORE PUSH1 0x4 ADD PUSH2 0x173E SWAP4 SWAP3 SWAP2 SWAP1 PUSH2 0x36FB JUMP JUMPDEST PUSH1 0x20 PUSH1 0x40 MLOAD DUP1 DUP4 SUB DUP2 PUSH1 0x0 DUP8 GAS CALL ISZERO DUP1 ISZERO PUSH2 0x175D JUMPI RETURNDATASIZE PUSH1 0x0 DUP1 RETURNDATACOPY RETURNDATASIZE PUSH1 0x0 REVERT JUMPDEST POP POP POP POP PUSH1 0x40 MLOAD RETURNDATASIZE PUSH1 0x1F NOT PUSH1 0x1F DUP3 ADD AND DUP3 ADD DUP1 PUSH1 0x40 MSTORE POP DUP2 ADD SWAP1 PUSH2 0x1781 SWAP2 SWAP1 PUSH2 0x32AD JUMP JUMPDEST POP PUSH2 0x178E PUSH1 0xF SLOAD CALLER PUSH2 0x206A JUMP JUMPDEST PUSH32 0xC0F50B8A17DD6FE159E4AFCBFFDF63A4AD6722C59A1AAA0697B9850953BD1A1B CALLER PUSH1 0x40 MLOAD PUSH2 0x17BD SWAP2 SWAP1 PUSH2 0x2FB9 JUMP JUMPDEST PUSH1 0x40 MLOAD DUP1 SWAP2 SUB SWAP1 LOG1 JUMP JUMPDEST PUSH1 0x0 PUSH2 0x17EE DUP3 PUSH1 0xE PUSH1 0x0 DUP7 DUP2 MSTORE PUSH1 0x20 ADD SWAP1 DUP2 MSTORE PUSH1 0x20 ADD PUSH1 0x0 KECCAK256 PUSH2 0x2426 SWAP1 SWAP2 SWAP1 PUSH4 0xFFFFFFFF AND JUMP JUMPDEST SWAP1 POP SWAP3 SWAP2 POP POP JUMP JUMPDEST PUSH1 0x0 PUSH1 0xD PUSH1 0x0 DUP5 DUP2 MSTORE PUSH1 0x20 ADD SWAP1 DUP2 MSTORE PUSH1 0x20 ADD PUSH1 0x0 KECCAK256 PUSH1 0x0 ADD PUSH1 0x0 DUP4 PUSH20 0xFFFFFFFFFFFFFFFFFFFFFFFFFFFFFFFFFFFFFFFF AND PUSH20 0xFFFFFFFFFFFFFFFFFFFFFFFFFFFFFFFFFFFFFFFF AND DUP2 MSTORE PUSH1 0x20 ADD SWAP1 DUP2 MSTORE PUSH1 0x20 ADD PUSH1 0x0 KECCAK256 PUSH1 0x0 SWAP1 SLOAD SWAP1 PUSH2 0x100 EXP SWAP1 DIV PUSH1 0xFF AND SWAP1 POP SWAP3 SWAP2 POP POP JUMP JUMPDEST PUSH1 0x0 DUP1 SHL DUP2 JUMP JUMPDEST PUSH2 0x1870 PUSH2 0x2B2D JUMP JUMPDEST PUSH1 0x1 PUSH1 0x40 MLOAD DUP1 PUSH1 0xE0 ADD PUSH1 0x40 MSTORE SWAP1 DUP2 PUSH1 0x0 DUP3 ADD PUSH1 0x0 SWAP1 SLOAD SWAP1 PUSH2 0x100 EXP SWAP1 DIV PUSH20 0xFFFFFFFFFFFFFFFFFFFFFFFFFFFFFFFFFFFFFFFF AND PUSH20 0xFFFFFFFFFFFFFFFFFFFFFFFFFFFFFFFFFFFFFFFF AND PUSH20 0xFFFFFFFFFFFFFFFFFFFFFFFFFFFFFFFFFFFFFFFF AND DUP2 MSTORE PUSH1 0x20 ADD PUSH1 0x1 DUP3 ADD SLOAD DUP2 MSTORE PUSH1 0x20 ADD PUSH1 0x2 DUP3 ADD SLOAD DUP2 MSTORE PUSH1 0x20 ADD PUSH1 0x3 DUP3 ADD SLOAD DUP2 MSTORE PUSH1 0x20 ADD PUSH1 0x4 DUP3 ADD SLOAD DUP2 MSTORE PUSH1 0x20 ADD PUSH1 0x5 DUP3 ADD SLOAD DUP2 MSTORE PUSH1 0x20 ADD PUSH1 0x6 DUP3 ADD SLOAD DUP2 MSTORE POP POP SWAP1 POP SWAP1 JUMP JUMPDEST PUSH1 0x0 PUSH2 0x195D PUSH1 0xC PUSH1 0x0 DUP5 PUSH20 0xFFFFFFFFFFFFFFFFFFFFFFFFFFFFFFFFFFFFFFFF AND PUSH20 0xFFFFFFFFFFFFFFFFFFFFFFFFFFFFFFFFFFFFFFFF AND DUP2 MSTORE PUSH1 0x20 ADD SWAP1 DUP2 MSTORE PUSH1 0x20 ADD PUSH1 0x0 KECCAK256 PUSH2 0x2247 JUMP JUMPDEST SWAP1 POP SWAP2 SWAP1 POP JUMP JUMPDEST PUSH2 0x196C PUSH2 0x1F91 JUMP JUMPDEST PUSH20 0xFFFFFFFFFFFFFFFFFFFFFFFFFFFFFFFFFFFFFFFF AND PUSH2 0x198A PUSH2 0x161B JUMP JUMPDEST PUSH20 0xFFFFFFFFFFFFFFFFFFFFFFFFFFFFFFFFFFFFFFFF AND EQ PUSH2 0x19E0 JUMPI PUSH1 0x40 MLOAD PUSH32 0x8C379A000000000000000000000000000000000000000000000000000000000 DUP2 MSTORE PUSH1 0x4 ADD PUSH2 0x19D7 SWAP1 PUSH2 0x311A JUMP JUMPDEST PUSH1 0x40 MLOAD DUP1 SWAP2 SUB SWAP1 REVERT JUMPDEST PUSH1 0x1 PUSH1 0x4 ADD SLOAD TIMESTAMP LT ISZERO PUSH2 0x1A28 JUMPI PUSH1 0x40 MLOAD PUSH32 0x8C379A000000000000000000000000000000000000000000000000000000000 DUP2 MSTORE PUSH1 0x4 ADD PUSH2 0x1A1F SWAP1 PUSH2 0x31CC JUMP JUMPDEST PUSH1 0x40 MLOAD DUP1 SWAP2 SUB SWAP1 REVERT JUMPDEST PUSH1 0x0 PUSH2 0x1A32 PUSH2 0xF8F JUMP JUMPDEST SWAP1 POP DUP1 PUSH1 0x8 PUSH1 0x3 ADD PUSH1 0x0 DUP3 DUP3 SLOAD PUSH2 0x1A49 SWAP2 SWAP1 PUSH2 0x339B JUMP JUMPDEST SWAP3 POP POP DUP2 SWAP1 SSTORE POP PUSH1 0x1 PUSH1 0x0 ADD PUSH1 0x0 SWAP1 SLOAD SWAP1 PUSH2 0x100 EXP SWAP1 DIV PUSH20 0xFFFFFFFFFFFFFFFFFFFFFFFFFFFFFFFFFFFFFFFF AND PUSH20 0xFFFFFFFFFFFFFFFFFFFFFFFFFFFFFFFFFFFFFFFF AND PUSH4 0xA9059CBB CALLER DUP4 PUSH1 0x40 MLOAD DUP4 PUSH4 0xFFFFFFFF AND PUSH1 0xE0 SHL DUP2 MSTORE PUSH1 0x4 ADD PUSH2 0x1AB0 SWAP3 SWAP2 SWAP1 PUSH2 0x3258 JUMP JUMPDEST PUSH1 0x20 PUSH1 0x40 MLOAD DUP1 DUP4 SUB DUP2 PUSH1 0x0 DUP8 GAS CALL ISZERO DUP1 ISZERO PUSH2 0x1ACF JUMPI RETURNDATASIZE PUSH1 0x0 DUP1 RETURNDATACOPY RETURNDATASIZE PUSH1 0x0 REVERT JUMPDEST POP POP POP POP PUSH1 0x40 MLOAD RETURNDATASIZE PUSH1 0x1F NOT PUSH1 0x1F DUP3 ADD AND DUP3 ADD DUP1 PUSH1 0x40 MSTORE POP DUP2 ADD SWAP1 PUSH2 0x1AF3 SWAP2 SWAP1 PUSH2 0x32AD JUMP JUMPDEST POP PUSH32 0xDD81098BBC043431D4A440CA8823673FD1129893AB79F9838DF4CF3D5E381259 CALLER DUP3 PUSH1 0x40 MLOAD PUSH2 0x1B25 SWAP3 SWAP2 SWAP1 PUSH2 0x3258 JUMP JUMPDEST PUSH1 0x40 MLOAD DUP1 SWAP2 SUB SWAP1 LOG1 POP JUMP JUMPDEST PUSH1 0x0 PUSH2 0x1B4D PUSH1 0xE PUSH1 0x0 DUP5 DUP2 MSTORE PUSH1 0x20 ADD SWAP1 DUP2 MSTORE PUSH1 0x20 ADD PUSH1 0x0 KECCAK256 PUSH2 0x2440 JUMP JUMPDEST SWAP1 POP SWAP2 SWAP1 POP JUMP JUMPDEST PUSH2 0x1B5D DUP3 PUSH2 0xB01 JUMP JUMPDEST PUSH2 0x1B6E DUP2 PUSH2 0x1B69 PUSH2 0x1F91 JUMP JUMPDEST PUSH2 0x1FCD JUMP JUMPDEST PUSH2 0x1B78 DUP4 DUP4 PUSH2 0x1F99 JUMP JUMPDEST POP POP POP JUMP JUMPDEST PUSH2 0x1B85 PUSH2 0x1459 JUMP JUMPDEST ISZERO PUSH2 0x1BC5 JUMPI PUSH1 0x40 MLOAD PUSH32 0x8C379A000000000000000000000000000000000000000000000000000000000 DUP2 MSTORE PUSH1 0x4 ADD PUSH2 0x1BBC SWAP1 PUSH2 0x352B JUMP JUMPDEST PUSH1 0x40 MLOAD DUP1 SWAP2 SUB SWAP1 REVERT JUMPDEST PUSH1 0x1 PUSH1 0x3 ADD SLOAD TIMESTAMP LT ISZERO PUSH2 0x1C0D JUMPI PUSH1 0x40 MLOAD PUSH32 0x8C379A000000000000000000000000000000000000000000000000000000000 DUP2 MSTORE PUSH1 0x4 ADD PUSH2 0x1C04 SWAP1 PUSH2 0x377E JUMP JUMPDEST PUSH1 0x40 MLOAD DUP1 SWAP2 SUB SWAP1 REVERT JUMPDEST PUSH1 0x1 PUSH1 0x4 ADD SLOAD TIMESTAMP LT PUSH2 0x1C54 JUMPI PUSH1 0x40 MLOAD PUSH32 0x8C379A000000000000000000000000000000000000000000000000000000000 DUP2 MSTORE PUSH1 0x4 ADD PUSH2 0x1C4B SWAP1 PUSH2 0x37EA JUMP JUMPDEST PUSH1 0x40 MLOAD DUP1 SWAP2 SUB SWAP1 REVERT JUMPDEST PUSH2 0x1C5E CALLER CALLVALUE PUSH2 0x2455 JUMP JUMPDEST CALLVALUE PUSH1 0xC PUSH1 0x0 CALLER PUSH20 0xFFFFFFFFFFFFFFFFFFFFFFFFFFFFFFFFFFFFFFFF AND PUSH20 0xFFFFFFFFFFFFFFFFFFFFFFFFFFFFFFFFFFFFFFFF AND DUP2 MSTORE PUSH1 0x20 ADD SWAP1 DUP2 MSTORE PUSH1 0x20 ADD PUSH1 0x0 KECCAK256 PUSH1 0x0 ADD PUSH1 0x0 DUP3 DUP3 SLOAD PUSH2 0x1CB0 SWAP2 SWAP1 PUSH2 0x339B JUMP JUMPDEST SWAP3 POP POP DUP2 SWAP1 SSTORE POP CALLVALUE PUSH1 0x8 PUSH1 0x0 ADD PUSH1 0x0 DUP3 DUP3 SLOAD PUSH2 0x1CCC SWAP2 SWAP1 PUSH2 0x339B JUMP JUMPDEST SWAP3 POP POP DUP2 SWAP1 SSTORE POP PUSH32 0x62722348256371B5147820D6CAD90C40FD2DA1CCEE18C3ED52C0BCA5A61DBBAB CALLER CALLVALUE PUSH1 0x40 MLOAD PUSH2 0x1D04 SWAP3 SWAP2 SWAP1 PUSH2 0x3258 JUMP JUMPDEST PUSH1 0x40 MLOAD DUP1 SWAP2 SUB SWAP1 LOG1 JUMP JUMPDEST PUSH2 0x1D16 PUSH2 0x1F91 JUMP JUMPDEST PUSH20 0xFFFFFFFFFFFFFFFFFFFFFFFFFFFFFFFFFFFFFFFF AND PUSH2 0x1D34 PUSH2 0x161B JUMP JUMPDEST PUSH20 0xFFFFFFFFFFFFFFFFFFFFFFFFFFFFFFFFFFFFFFFF AND EQ PUSH2 0x1D8A JUMPI PUSH1 0x40 MLOAD PUSH32 0x8C379A000000000000000000000000000000000000000000000000000000000 DUP2 MSTORE PUSH1 0x4 ADD PUSH2 0x1D81 SWAP1 PUSH2 0x311A JUMP JUMPDEST PUSH1 0x40 MLOAD DUP1 SWAP2 SUB SWAP1 REVERT JUMPDEST PUSH1 0x0 PUSH20 0xFFFFFFFFFFFFFFFFFFFFFFFFFFFFFFFFFFFFFFFF AND DUP2 PUSH20 0xFFFFFFFFFFFFFFFFFFFFFFFFFFFFFFFFFFFFFFFF AND EQ ISZERO PUSH2 0x1DFA JUMPI PUSH1 0x40 MLOAD PUSH32 0x8C379A000000000000000000000000000000000000000000000000000000000 DUP2 MSTORE PUSH1 0x4 ADD PUSH2 0x1DF1 SWAP1 PUSH2 0x387C JUMP JUMPDEST PUSH1 0x40 MLOAD DUP1 SWAP2 SUB SWAP1 REVERT JUMPDEST PUSH2 0x1E03 DUP2 PUSH2 0x22BF JUMP JUMPDEST POP JUMP JUMPDEST PUSH2 0x1E10 DUP3 DUP3 PUSH2 0x17F6 JUMP JUMPDEST PUSH2 0x1EE3 JUMPI PUSH1 0x1 PUSH1 0xD PUSH1 0x0 DUP5 DUP2 MSTORE PUSH1 0x20 ADD SWAP1 DUP2 MSTORE PUSH1 0x20 ADD PUSH1 0x0 KECCAK256 PUSH1 0x0 ADD PUSH1 0x0 DUP4 PUSH20 0xFFFFFFFFFFFFFFFFFFFFFFFFFFFFFFFFFFFFFFFF AND PUSH20 0xFFFFFFFFFFFFFFFFFFFFFFFFFFFFFFFFFFFFFFFF AND DUP2 MSTORE PUSH1 0x20 ADD SWAP1 DUP2 MSTORE PUSH1 0x20 ADD PUSH1 0x0 KECCAK256 PUSH1 0x0 PUSH2 0x100 EXP DUP2 SLOAD DUP2 PUSH1 0xFF MUL NOT AND SWAP1 DUP4 ISZERO ISZERO MUL OR SWAP1 SSTORE POP PUSH2 0x1E88 PUSH2 0x1F91 JUMP JUMPDEST PUSH20 0xFFFFFFFFFFFFFFFFFFFFFFFFFFFFFFFFFFFFFFFF AND DUP2 PUSH20 0xFFFFFFFFFFFFFFFFFFFFFFFFFFFFFFFFFFFFFFFF AND DUP4 PUSH32 0x2F8788117E7EFF1D82E926EC794901D17C78024A50270940304540A733656F0D PUSH1 0x40 MLOAD PUSH1 0x40 MLOAD DUP1 SWAP2 SUB SWAP1 LOG4 JUMPDEST POP POP JUMP JUMPDEST PUSH1 0x0 PUSH2 0x1F0F DUP4 PUSH1 0x0 ADD DUP4 PUSH20 0xFFFFFFFFFFFFFFFFFFFFFFFFFFFFFFFFFFFFFFFF AND PUSH1 0x0 SHL PUSH2 0x2463 JUMP JUMPDEST SWAP1 POP SWAP3 SWAP2 POP POP JUMP JUMPDEST PUSH1 0x0 PUSH32 0x7965DB0B00000000000000000000000000000000000000000000000000000000 PUSH28 0xFFFFFFFFFFFFFFFFFFFFFFFFFFFFFFFFFFFFFFFFFFFFFFFFFFFFFFFF NOT AND DUP3 PUSH28 0xFFFFFFFFFFFFFFFFFFFFFFFFFFFFFFFFFFFFFFFFFFFFFFFFFFFFFFFF NOT AND EQ DUP1 PUSH2 0x1F8A JUMPI POP PUSH2 0x1F89 DUP3 PUSH2 0x24D3 JUMP JUMPDEST JUMPDEST SWAP1 POP SWAP2 SWAP1 POP JUMP JUMPDEST PUSH1 0x0 CALLER SWAP1 POP SWAP1 JUMP JUMPDEST PUSH2 0x1FA3 DUP3 DUP3 PUSH2 0x253D JUMP JUMPDEST PUSH2 0x1FC8 DUP2 PUSH1 0xE PUSH1 0x0 DUP6 DUP2 MSTORE PUSH1 0x20 ADD SWAP1 DUP2 MSTORE PUSH1 0x20 ADD PUSH1 0x0 KECCAK256 PUSH2 0x261F SWAP1 SWAP2 SWAP1 PUSH4 0xFFFFFFFF AND JUMP JUMPDEST POP POP POP JUMP JUMPDEST PUSH2 0x1FD7 DUP3 DUP3 PUSH2 0x17F6 JUMP JUMPDEST PUSH2 0x2066 JUMPI PUSH2 0x1FFC DUP2 PUSH20 0xFFFFFFFFFFFFFFFFFFFFFFFFFFFFFFFFFFFFFFFF AND PUSH1 0x14 PUSH2 0x264F JUMP JUMPDEST PUSH2 0x200A DUP4 PUSH1 0x0 SHR PUSH1 0x20 PUSH2 0x264F JUMP JUMPDEST PUSH1 0x40 MLOAD PUSH1 0x20 ADD PUSH2 0x201B SWAP3 SWAP2 SWAP1 PUSH2 0x39AE JUMP JUMPDEST PUSH1 0x40 MLOAD PUSH1 0x20 DUP2 DUP4 SUB SUB DUP2 MSTORE SWAP1 PUSH1 0x40 MSTORE PUSH1 0x40 MLOAD PUSH32 0x8C379A000000000000000000000000000000000000000000000000000000000 DUP2 MSTORE PUSH1 0x4 ADD PUSH2 0x205D SWAP2 SWAP1 PUSH2 0x3A32 JUMP JUMPDEST PUSH1 0x40 MLOAD DUP1 SWAP2 SUB SWAP1 REVERT JUMPDEST POP POP JUMP JUMPDEST PUSH2 0x2074 DUP3 DUP3 PUSH2 0x1E06 JUMP JUMPDEST PUSH2 0x2099 DUP2 PUSH1 0xE PUSH1 0x0 DUP6 DUP2 MSTORE PUSH1 0x20 ADD SWAP1 DUP2 MSTORE PUSH1 0x20 ADD PUSH1 0x0 KECCAK256 PUSH2 0x1EE7 SWAP1 SWAP2 SWAP1 PUSH4 0xFFFFFFFF AND JUMP JUMPDEST POP POP POP JUMP JUMPDEST PUSH2 0x20A6 PUSH2 0x1459 JUMP JUMPDEST PUSH2 0x20E5 JUMPI PUSH1 0x40 MLOAD PUSH32 0x8C379A000000000000000000000000000000000000000000000000000000000 DUP2 MSTORE PUSH1 0x4 ADD PUSH2 0x20DC SWAP1 PUSH2 0x3AA0 JUMP JUMPDEST PUSH1 0x40 MLOAD DUP1 SWAP2 SUB SWAP1 REVERT JUMPDEST PUSH1 0x0 DUP1 PUSH1 0x14 PUSH2 0x100 EXP DUP2 SLOAD DUP2 PUSH1 0xFF MUL NOT AND SWAP1 DUP4 ISZERO ISZERO MUL OR SWAP1 SSTORE POP PUSH32 0x5DB9EE0A495BF2E6FF9C91A7834C1BA4FDD244A5E8AA4E537BD38AEAE4B073AA PUSH2 0x2128 PUSH2 0x1F91 JUMP JUMPDEST PUSH1 0x40 MLOAD PUSH2 0x2135 SWAP2 SWAP1 PUSH2 0x2FB9 JUMP JUMPDEST PUSH1 0x40 MLOAD DUP1 SWAP2 SUB SWAP1 LOG1 JUMP JUMPDEST PUSH1 0x0 PUSH1 0x1 PUSH1 0x2 ADD SLOAD PUSH1 0x8 PUSH1 0x0 ADD SLOAD GT SWAP1 POP SWAP1 JUMP JUMPDEST PUSH1 0x0 PUSH1 0x1 PUSH1 0x5 ADD SLOAD TIMESTAMP LT ISZERO PUSH2 0x216B JUMPI PUSH1 0x0 SWAP1 POP PUSH2 0x2242 JUMP JUMPDEST PUSH1 0x0 PUSH1 0x1 PUSH1 0x5 ADD SLOAD TIMESTAMP PUSH2 0x217E SWAP2 SWAP1 PUSH2 0x34AB JUMP JUMPDEST SWAP1 POP PUSH1 0x0 PUSH1 0x1 PUSH1 0x5 ADD SLOAD PUSH1 0x1 PUSH1 0x6 ADD SLOAD PUSH2 0x2198 SWAP2 SWAP1 PUSH2 0x34AB JUMP JUMPDEST SWAP1 POP PUSH1 0x0 DUP2 DUP4 GT ISZERO PUSH2 0x21AA JUMPI DUP2 PUSH2 0x21AC JUMP JUMPDEST DUP3 JUMPDEST SWAP1 POP PUSH1 0x0 PUSH2 0x21B8 PUSH2 0x213F JUMP JUMPDEST ISZERO PUSH2 0x21E8 JUMPI PUSH1 0x8 PUSH1 0x0 ADD SLOAD PUSH1 0x1 DUP1 ADD SLOAD DUP8 PUSH1 0x0 ADD SLOAD PUSH2 0x21D7 SWAP2 SWAP1 PUSH2 0x33F1 JUMP JUMPDEST PUSH2 0x21E1 SWAP2 SWAP1 PUSH2 0x347A JUMP JUMPDEST SWAP1 POP PUSH2 0x220F JUMP JUMPDEST PUSH1 0x1 DUP1 ADD SLOAD PUSH1 0x1 PUSH1 0x2 ADD SLOAD DUP8 PUSH1 0x0 ADD SLOAD PUSH2 0x2202 SWAP2 SWAP1 PUSH2 0x33F1 JUMP JUMPDEST PUSH2 0x220C SWAP2 SWAP1 PUSH2 0x347A JUMP JUMPDEST SWAP1 POP JUMPDEST PUSH1 0x0 DUP4 DUP4 DUP4 PUSH2 0x221E SWAP2 SWAP1 PUSH2 0x33F1 JUMP JUMPDEST PUSH2 0x2228 SWAP2 SWAP1 PUSH2 0x347A JUMP JUMPDEST SWAP1 POP DUP7 PUSH1 0x1 ADD SLOAD DUP2 PUSH2 0x223A SWAP2 SWAP1 PUSH2 0x34AB JUMP JUMPDEST SWAP6 POP POP POP POP POP POP JUMPDEST SWAP2 SWAP1 POP JUMP JUMPDEST PUSH1 0x0 PUSH1 0x1 PUSH1 0x4 ADD SLOAD TIMESTAMP LT ISZERO PUSH2 0x225F JUMPI PUSH1 0x0 SWAP1 POP PUSH2 0x22BA JUMP JUMPDEST PUSH2 0x2267 PUSH2 0x213F JUMP JUMPDEST PUSH2 0x2274 JUMPI PUSH1 0x0 SWAP1 POP PUSH2 0x22BA JUMP JUMPDEST DUP2 PUSH1 0x2 ADD SLOAD PUSH1 0x8 PUSH1 0x0 ADD SLOAD PUSH1 0x1 PUSH1 0x2 ADD SLOAD DUP5 PUSH1 0x0 ADD SLOAD PUSH2 0x2294 SWAP2 SWAP1 PUSH2 0x33F1 JUMP JUMPDEST PUSH2 0x229E SWAP2 SWAP1 PUSH2 0x347A JUMP JUMPDEST DUP4 PUSH1 0x0 ADD SLOAD PUSH2 0x22AD SWAP2 SWAP1 PUSH2 0x34AB JUMP JUMPDEST PUSH2 0x22B7 SWAP2 SWAP1 PUSH2 0x34AB JUMP JUMPDEST SWAP1 POP JUMPDEST SWAP2 SWAP1 POP JUMP JUMPDEST PUSH1 0x0 DUP1 PUSH1 0x0 SWAP1 SLOAD SWAP1 PUSH2 0x100 EXP SWAP1 DIV PUSH20 0xFFFFFFFFFFFFFFFFFFFFFFFFFFFFFFFFFFFFFFFF AND SWAP1 POP DUP2 PUSH1 0x0 DUP1 PUSH2 0x100 EXP DUP2 SLOAD DUP2 PUSH20 0xFFFFFFFFFFFFFFFFFFFFFFFFFFFFFFFFFFFFFFFF MUL NOT AND SWAP1 DUP4 PUSH20 0xFFFFFFFFFFFFFFFFFFFFFFFFFFFFFFFFFFFFFFFF AND MUL OR SWAP1 SSTORE POP DUP2 PUSH20 0xFFFFFFFFFFFFFFFFFFFFFFFFFFFFFFFFFFFFFFFF AND DUP2 PUSH20 0xFFFFFFFFFFFFFFFFFFFFFFFFFFFFFFFFFFFFFFFF AND PUSH32 0x8BE0079C531659141344CD1FD0A4F28419497F9722A3DAAFE3B4186F6B6457E0 PUSH1 0x40 MLOAD PUSH1 0x40 MLOAD DUP1 SWAP2 SUB SWAP1 LOG3 POP POP JUMP JUMPDEST PUSH2 0x238B PUSH2 0x1459 JUMP JUMPDEST ISZERO PUSH2 0x23CB JUMPI PUSH1 0x40 MLOAD PUSH32 0x8C379A000000000000000000000000000000000000000000000000000000000 DUP2 MSTORE PUSH1 0x4 ADD PUSH2 0x23C2 SWAP1 PUSH2 0x352B JUMP JUMPDEST PUSH1 0x40 MLOAD DUP1 SWAP2 SUB SWAP1 REVERT JUMPDEST PUSH1 0x1 PUSH1 0x0 PUSH1 0x14 PUSH2 0x100 EXP DUP2 SLOAD DUP2 PUSH1 0xFF MUL NOT AND SWAP1 DUP4 ISZERO ISZERO MUL OR SWAP1 SSTORE POP PUSH32 0x62E78CEA01BEE320CD4E420270B5EA74000D11B0C9F74754EBDBFC544B05A258 PUSH2 0x240F PUSH2 0x1F91 JUMP JUMPDEST PUSH1 0x40 MLOAD PUSH2 0x241C SWAP2 SWAP1 PUSH2 0x2FB9 JUMP JUMPDEST PUSH1 0x40 MLOAD DUP1 SWAP2 SUB SWAP1 LOG1 JUMP JUMPDEST PUSH1 0x0 PUSH2 0x2435 DUP4 PUSH1 0x0 ADD DUP4 PUSH2 0x288B JUMP JUMPDEST PUSH1 0x0 SHR SWAP1 POP SWAP3 SWAP2 POP POP JUMP JUMPDEST PUSH1 0x0 PUSH2 0x244E DUP3 PUSH1 0x0 ADD PUSH2 0x28B6 JUMP JUMPDEST SWAP1 POP SWAP2 SWAP1 POP JUMP JUMPDEST PUSH2 0x245F DUP3 DUP3 PUSH2 0x28C7 JUMP JUMPDEST POP POP JUMP JUMPDEST PUSH1 0x0 PUSH2 0x246F DUP4 DUP4 PUSH2 0x2920 JUMP JUMPDEST PUSH2 0x24C8 JUMPI DUP3 PUSH1 0x0 ADD DUP3 SWAP1 DUP1 PUSH1 0x1 DUP2 SLOAD ADD DUP1 DUP3 SSTORE DUP1 SWAP2 POP POP PUSH1 0x1 SWAP1 SUB SWAP1 PUSH1 0x0 MSTORE PUSH1 0x20 PUSH1 0x0 KECCAK256 ADD PUSH1 0x0 SWAP1 SWAP2 SWAP1 SWAP2 SWAP1 SWAP2 POP SSTORE DUP3 PUSH1 0x0 ADD DUP1 SLOAD SWAP1 POP DUP4 PUSH1 0x1 ADD PUSH1 0x0 DUP5 DUP2 MSTORE PUSH1 0x20 ADD SWAP1 DUP2 MSTORE PUSH1 0x20 ADD PUSH1 0x0 KECCAK256 DUP2 SWAP1 SSTORE POP PUSH1 0x1 SWAP1 POP PUSH2 0x24CD JUMP JUMPDEST PUSH1 0x0 SWAP1 POP JUMPDEST SWAP3 SWAP2 POP POP JUMP JUMPDEST PUSH1 0x0 PUSH32 0x1FFC9A700000000000000000000000000000000000000000000000000000000 PUSH28 0xFFFFFFFFFFFFFFFFFFFFFFFFFFFFFFFFFFFFFFFFFFFFFFFFFFFFFFFF NOT AND DUP3 PUSH28 0xFFFFFFFFFFFFFFFFFFFFFFFFFFFFFFFFFFFFFFFFFFFFFFFFFFFFFFFF NOT AND EQ SWAP1 POP SWAP2 SWAP1 POP JUMP JUMPDEST PUSH2 0x2547 DUP3 DUP3 PUSH2 0x17F6 JUMP JUMPDEST ISZERO PUSH2 0x261B JUMPI PUSH1 0x0 PUSH1 0xD PUSH1 0x0 DUP5 DUP2 MSTORE PUSH1 0x20 ADD SWAP1 DUP2 MSTORE PUSH1 0x20 ADD PUSH1 0x0 KECCAK256 PUSH1 0x0 ADD PUSH1 0x0 DUP4 PUSH20 0xFFFFFFFFFFFFFFFFFFFFFFFFFFFFFFFFFFFFFFFF AND PUSH20 0xFFFFFFFFFFFFFFFFFFFFFFFFFFFFFFFFFFFFFFFF AND DUP2 MSTORE PUSH1 0x20 ADD SWAP1 DUP2 MSTORE PUSH1 0x20 ADD PUSH1 0x0 KECCAK256 PUSH1 0x0 PUSH2 0x100 EXP DUP2 SLOAD DUP2 PUSH1 0xFF MUL NOT AND SWAP1 DUP4 ISZERO ISZERO MUL OR SWAP1 SSTORE POP PUSH2 0x25C0 PUSH2 0x1F91 JUMP JUMPDEST PUSH20 0xFFFFFFFFFFFFFFFFFFFFFFFFFFFFFFFFFFFFFFFF AND DUP2 PUSH20 0xFFFFFFFFFFFFFFFFFFFFFFFFFFFFFFFFFFFFFFFF AND DUP4 PUSH32 0xF6391F5C32D9C69D2A47EA670B442974B53935D1EDC7FD64EB21E047A839171B PUSH1 0x40 MLOAD PUSH1 0x40 MLOAD DUP1 SWAP2 SUB SWAP1 LOG4 JUMPDEST POP POP JUMP JUMPDEST PUSH1 0x0 PUSH2 0x2647 DUP4 PUSH1 0x0 ADD DUP4 PUSH20 0xFFFFFFFFFFFFFFFFFFFFFFFFFFFFFFFFFFFFFFFF AND PUSH1 0x0 SHL PUSH2 0x2943 JUMP JUMPDEST SWAP1 POP SWAP3 SWAP2 POP POP JUMP JUMPDEST PUSH1 0x60 PUSH1 0x0 PUSH1 0x2 DUP4 PUSH1 0x2 PUSH2 0x2662 SWAP2 SWAP1 PUSH2 0x33F1 JUMP JUMPDEST PUSH2 0x266C SWAP2 SWAP1 PUSH2 0x339B JUMP JUMPDEST PUSH8 0xFFFFFFFFFFFFFFFF DUP2 GT ISZERO PUSH2 0x2685 JUMPI PUSH2 0x2684 PUSH2 0x3AC0 JUMP JUMPDEST JUMPDEST PUSH1 0x40 MLOAD SWAP1 DUP1 DUP3 MSTORE DUP1 PUSH1 0x1F ADD PUSH1 0x1F NOT AND PUSH1 0x20 ADD DUP3 ADD PUSH1 0x40 MSTORE DUP1 ISZERO PUSH2 0x26B7 JUMPI DUP2 PUSH1 0x20 ADD PUSH1 0x1 DUP3 MUL DUP1 CALLDATASIZE DUP4 CALLDATACOPY DUP1 DUP3 ADD SWAP2 POP POP SWAP1 POP JUMPDEST POP SWAP1 POP PUSH32 0x3000000000000000000000000000000000000000000000000000000000000000 DUP2 PUSH1 0x0 DUP2 MLOAD DUP2 LT PUSH2 0x26EF JUMPI PUSH2 0x26EE PUSH2 0x3AEF JUMP JUMPDEST JUMPDEST PUSH1 0x20 ADD ADD SWAP1 PUSH31 0xFFFFFFFFFFFFFFFFFFFFFFFFFFFFFFFFFFFFFFFFFFFFFFFFFFFFFFFFFFFFFF NOT AND SWAP1 DUP2 PUSH1 0x0 BYTE SWAP1 MSTORE8 POP PUSH32 0x7800000000000000000000000000000000000000000000000000000000000000 DUP2 PUSH1 0x1 DUP2 MLOAD DUP2 LT PUSH2 0x2753 JUMPI PUSH2 0x2752 PUSH2 0x3AEF JUMP JUMPDEST JUMPDEST PUSH1 0x20 ADD ADD SWAP1 PUSH31 0xFFFFFFFFFFFFFFFFFFFFFFFFFFFFFFFFFFFFFFFFFFFFFFFFFFFFFFFFFFFFFF NOT AND SWAP1 DUP2 PUSH1 0x0 BYTE SWAP1 MSTORE8 POP PUSH1 0x0 PUSH1 0x1 DUP5 PUSH1 0x2 PUSH2 0x2793 SWAP2 SWAP1 PUSH2 0x33F1 JUMP JUMPDEST PUSH2 0x279D SWAP2 SWAP1 PUSH2 0x339B JUMP JUMPDEST SWAP1 POP JUMPDEST PUSH1 0x1 DUP2 GT ISZERO PUSH2 0x283D JUMPI PUSH32 0x3031323334353637383961626364656600000000000000000000000000000000 PUSH1 0xF DUP7 AND PUSH1 0x10 DUP2 LT PUSH2 0x27DF JUMPI PUSH2 0x27DE PUSH2 0x3AEF JUMP JUMPDEST JUMPDEST BYTE PUSH1 0xF8 SHL DUP3 DUP3 DUP2 MLOAD DUP2 LT PUSH2 0x27F6 JUMPI PUSH2 0x27F5 PUSH2 0x3AEF JUMP JUMPDEST JUMPDEST PUSH1 0x20 ADD ADD SWAP1 PUSH31 0xFFFFFFFFFFFFFFFFFFFFFFFFFFFFFFFFFFFFFFFFFFFFFFFFFFFFFFFFFFFFFF NOT AND SWAP1 DUP2 PUSH1 0x0 BYTE SWAP1 MSTORE8 POP PUSH1 0x4 DUP6 SWAP1 SHR SWAP5 POP DUP1 PUSH2 0x2836 SWAP1 PUSH2 0x3B1E JUMP JUMPDEST SWAP1 POP PUSH2 0x27A0 JUMP JUMPDEST POP PUSH1 0x0 DUP5 EQ PUSH2 0x2881 JUMPI PUSH1 0x40 MLOAD PUSH32 0x8C379A000000000000000000000000000000000000000000000000000000000 DUP2 MSTORE PUSH1 0x4 ADD PUSH2 0x2878 SWAP1 PUSH2 0x3B94 JUMP JUMPDEST PUSH1 0x40 MLOAD DUP1 SWAP2 SUB SWAP1 REVERT JUMPDEST DUP1 SWAP2 POP POP SWAP3 SWAP2 POP POP JUMP JUMPDEST PUSH1 0x0 DUP3 PUSH1 0x0 ADD DUP3 DUP2 SLOAD DUP2 LT PUSH2 0x28A3 JUMPI PUSH2 0x28A2 PUSH2 0x3AEF JUMP JUMPDEST JUMPDEST SWAP1 PUSH1 0x0 MSTORE PUSH1 0x20 PUSH1 0x0 KECCAK256 ADD SLOAD SWAP1 POP SWAP3 SWAP2 POP POP JUMP JUMPDEST PUSH1 0x0 DUP2 PUSH1 0x0 ADD DUP1 SLOAD SWAP1 POP SWAP1 POP SWAP2 SWAP1 POP JUMP JUMPDEST PUSH2 0x28D3 PUSH1 0x13 SLOAD DUP4 PUSH2 0x17F6 JUMP JUMPDEST PUSH2 0x2912 JUMPI PUSH1 0x40 MLOAD PUSH32 0x8C379A000000000000000000000000000000000000000000000000000000000 DUP2 MSTORE PUSH1 0x4 ADD PUSH2 0x2909 SWAP1 PUSH2 0x3C00 JUMP JUMPDEST PUSH1 0x40 MLOAD DUP1 SWAP2 SUB SWAP1 REVERT JUMPDEST PUSH2 0x291C DUP3 DUP3 PUSH2 0x2A57 JUMP JUMPDEST POP POP JUMP JUMPDEST PUSH1 0x0 DUP1 DUP4 PUSH1 0x1 ADD PUSH1 0x0 DUP5 DUP2 MSTORE PUSH1 0x20 ADD SWAP1 DUP2 MSTORE PUSH1 0x20 ADD PUSH1 0x0 KECCAK256 SLOAD EQ ISZERO SWAP1 POP SWAP3 SWAP2 POP POP JUMP JUMPDEST PUSH1 0x0 DUP1 DUP4 PUSH1 0x1 ADD PUSH1 0x0 DUP5 DUP2 MSTORE PUSH1 0x20 ADD SWAP1 DUP2 MSTORE PUSH1 0x20 ADD PUSH1 0x0 KECCAK256 SLOAD SWAP1 POP PUSH1 0x0 DUP2 EQ PUSH2 0x2A4B JUMPI PUSH1 0x0 PUSH1 0x1 DUP3 PUSH2 0x2975 SWAP2 SWAP1 PUSH2 0x34AB JUMP JUMPDEST SWAP1 POP PUSH1 0x0 PUSH1 0x1 DUP7 PUSH1 0x0 ADD DUP1 SLOAD SWAP1 POP PUSH2 0x298D SWAP2 SWAP1 PUSH2 0x34AB JUMP JUMPDEST SWAP1 POP DUP2 DUP2 EQ PUSH2 0x29FC JUMPI PUSH1 0x0 DUP7 PUSH1 0x0 ADD DUP3 DUP2 SLOAD DUP2 LT PUSH2 0x29AE JUMPI PUSH2 0x29AD PUSH2 0x3AEF JUMP JUMPDEST JUMPDEST SWAP1 PUSH1 0x0 MSTORE PUSH1 0x20 PUSH1 0x0 KECCAK256 ADD SLOAD SWAP1 POP DUP1 DUP8 PUSH1 0x0 ADD DUP5 DUP2 SLOAD DUP2 LT PUSH2 0x29D2 JUMPI PUSH2 0x29D1 PUSH2 0x3AEF JUMP JUMPDEST JUMPDEST SWAP1 PUSH1 0x0 MSTORE PUSH1 0x20 PUSH1 0x0 KECCAK256 ADD DUP2 SWAP1 SSTORE POP DUP4 DUP8 PUSH1 0x1 ADD PUSH1 0x0 DUP4 DUP2 MSTORE PUSH1 0x20 ADD SWAP1 DUP2 MSTORE PUSH1 0x20 ADD PUSH1 0x0 KECCAK256 DUP2 SWAP1 SSTORE POP POP JUMPDEST DUP6 PUSH1 0x0 ADD DUP1 SLOAD DUP1 PUSH2 0x2A10 JUMPI PUSH2 0x2A0F PUSH2 0x3C20 JUMP JUMPDEST JUMPDEST PUSH1 0x1 SWAP1 SUB DUP2 DUP2 SWAP1 PUSH1 0x0 MSTORE PUSH1 0x20 PUSH1 0x0 KECCAK256 ADD PUSH1 0x0 SWAP1 SSTORE SWAP1 SSTORE DUP6 PUSH1 0x1 ADD PUSH1 0x0 DUP7 DUP2 MSTORE PUSH1 0x20 ADD SWAP1 DUP2 MSTORE PUSH1 0x20 ADD PUSH1 0x0 KECCAK256 PUSH1 0x0 SWAP1 SSTORE PUSH1 0x1 SWAP4 POP POP POP POP PUSH2 0x2A51 JUMP JUMPDEST PUSH1 0x0 SWAP2 POP POP JUMPDEST SWAP3 SWAP2 POP POP JUMP JUMPDEST PUSH2 0x2A63 PUSH1 0xF SLOAD DUP4 PUSH2 0x17F6 JUMP JUMPDEST PUSH2 0x2AA2 JUMPI PUSH1 0x40 MLOAD PUSH32 0x8C379A000000000000000000000000000000000000000000000000000000000 DUP2 MSTORE PUSH1 0x4 ADD PUSH2 0x2A99 SWAP1 PUSH2 0x3C9B JUMP JUMPDEST PUSH1 0x40 MLOAD DUP1 SWAP2 SUB SWAP1 REVERT JUMPDEST PUSH2 0x2AAC DUP3 DUP3 PUSH2 0x2AB0 JUMP JUMPDEST POP POP JUMP JUMPDEST POP POP JUMP JUMPDEST PUSH1 0x40 MLOAD DUP1 PUSH1 0x60 ADD PUSH1 0x40 MSTORE DUP1 PUSH1 0x0 DUP2 MSTORE PUSH1 0x20 ADD PUSH1 0x0 DUP2 MSTORE PUSH1 0x20 ADD PUSH1 0x0 DUP2 MSTORE POP SWAP1 JUMP JUMPDEST PUSH1 0x40 MLOAD DUP1 PUSH1 0x40 ADD PUSH1 0x40 MSTORE DUP1 PUSH1 0x0 PUSH20 0xFFFFFFFFFFFFFFFFFFFFFFFFFFFFFFFFFFFFFFFF AND DUP2 MSTORE PUSH1 0x20 ADD PUSH1 0x0 DUP2 MSTORE POP SWAP1 JUMP JUMPDEST PUSH1 0x40 MLOAD DUP1 PUSH1 0x80 ADD PUSH1 0x40 MSTORE DUP1 PUSH1 0x0 DUP2 MSTORE PUSH1 0x20 ADD PUSH1 0x0 DUP2 MSTORE PUSH1 0x20 ADD PUSH1 0x0 DUP2 MSTORE PUSH1 0x20 ADD PUSH1 0x0 DUP2 MSTORE POP SWAP1 JUMP JUMPDEST PUSH1 0x40 MLOAD DUP1 PUSH1 0xE0 ADD PUSH1 0x40 MSTORE DUP1 PUSH1 0x0 PUSH20 0xFFFFFFFFFFFFFFFFFFFFFFFFFFFFFFFFFFFFFFFF AND DUP2 MSTORE PUSH1 0x20 ADD PUSH1 0x0 DUP2 MSTORE PUSH1 0x20 ADD PUSH1 0x0 DUP2 MSTORE PUSH1 0x20 ADD PUSH1 0x0 DUP2 MSTORE PUSH1 0x20 ADD PUSH1 0x0 DUP2 MSTORE PUSH1 0x20 ADD PUSH1 0x0 DUP2 MSTORE PUSH1 0x20 ADD PUSH1 0x0 DUP2 MSTORE POP SWAP1 JUMP JUMPDEST PUSH1 0x0 DUP1 REVERT JUMPDEST PUSH1 0x0 PUSH32 0xFFFFFFFF00000000000000000000000000000000000000000000000000000000 DUP3 AND SWAP1 POP SWAP2 SWAP1 POP JUMP JUMPDEST PUSH2 0x2BBA DUP2 PUSH2 0x2B85 JUMP JUMPDEST DUP2 EQ PUSH2 0x2BC5 JUMPI PUSH1 0x0 DUP1 REVERT JUMPDEST POP JUMP JUMPDEST PUSH1 0x0 DUP2 CALLDATALOAD SWAP1 POP PUSH2 0x2BD7 DUP2 PUSH2 0x2BB1 JUMP JUMPDEST SWAP3 SWAP2 POP POP JUMP JUMPDEST PUSH1 0x0 PUSH1 0x20 DUP3 DUP5 SUB SLT ISZERO PUSH2 0x2BF3 JUMPI PUSH2 0x2BF2 PUSH2 0x2B80 JUMP JUMPDEST JUMPDEST PUSH1 0x0 PUSH2 0x2C01 DUP5 DUP3 DUP6 ADD PUSH2 0x2BC8 JUMP JUMPDEST SWAP2 POP POP SWAP3 SWAP2 POP POP JUMP JUMPDEST PUSH1 0x0 DUP2 ISZERO ISZERO SWAP1 POP SWAP2 SWAP1 POP JUMP JUMPDEST PUSH2 0x2C1F DUP2 PUSH2 0x2C0A JUMP JUMPDEST DUP3 MSTORE POP POP JUMP JUMPDEST PUSH1 0x0 PUSH1 0x20 DUP3 ADD SWAP1 POP PUSH2 0x2C3A PUSH1 0x0 DUP4 ADD DUP5 PUSH2 0x2C16 JUMP JUMPDEST SWAP3 SWAP2 POP POP JUMP JUMPDEST PUSH1 0x0 DUP2 SWAP1 POP SWAP2 SWAP1 POP JUMP JUMPDEST PUSH2 0x2C53 DUP2 PUSH2 0x2C40 JUMP JUMPDEST DUP2 EQ PUSH2 0x2C5E JUMPI PUSH1 0x0 DUP1 REVERT JUMPDEST POP JUMP JUMPDEST PUSH1 0x0 DUP2 CALLDATALOAD SWAP1 POP PUSH2 0x2C70 DUP2 PUSH2 0x2C4A JUMP JUMPDEST SWAP3 SWAP2 POP POP JUMP JUMPDEST PUSH1 0x0 PUSH1 0x20 DUP3 DUP5 SUB SLT ISZERO PUSH2 0x2C8C JUMPI PUSH2 0x2C8B PUSH2 0x2B80 JUMP JUMPDEST JUMPDEST PUSH1 0x0 PUSH2 0x2C9A DUP5 DUP3 DUP6 ADD PUSH2 0x2C61 JUMP JUMPDEST SWAP2 POP POP SWAP3 SWAP2 POP POP JUMP JUMPDEST PUSH1 0x0 PUSH20 0xFFFFFFFFFFFFFFFFFFFFFFFFFFFFFFFFFFFFFFFF DUP3 AND SWAP1 POP SWAP2 SWAP1 POP JUMP JUMPDEST PUSH1 0x0 PUSH2 0x2CCE DUP3 PUSH2 0x2CA3 JUMP JUMPDEST SWAP1 POP SWAP2 SWAP1 POP JUMP JUMPDEST PUSH2 0x2CDE DUP2 PUSH2 0x2CC3 JUMP JUMPDEST DUP2 EQ PUSH2 0x2CE9 JUMPI PUSH1 0x0 DUP1 REVERT JUMPDEST POP JUMP JUMPDEST PUSH1 0x0 DUP2 CALLDATALOAD SWAP1 POP PUSH2 0x2CFB DUP2 PUSH2 0x2CD5 JUMP JUMPDEST SWAP3 SWAP2 POP POP JUMP JUMPDEST PUSH1 0x0 PUSH1 0x20 DUP3 DUP5 SUB SLT ISZERO PUSH2 0x2D17 JUMPI PUSH2 0x2D16 PUSH2 0x2B80 JUMP JUMPDEST JUMPDEST PUSH1 0x0 PUSH2 0x2D25 DUP5 DUP3 DUP6 ADD PUSH2 0x2CEC JUMP JUMPDEST SWAP2 POP POP SWAP3 SWAP2 POP POP JUMP JUMPDEST PUSH2 0x2D37 DUP2 PUSH2 0x2C40 JUMP JUMPDEST DUP3 MSTORE POP POP JUMP JUMPDEST PUSH1 0x60 DUP3 ADD PUSH1 0x0 DUP3 ADD MLOAD PUSH2 0x2D53 PUSH1 0x0 DUP6 ADD DUP3 PUSH2 0x2D2E JUMP JUMPDEST POP PUSH1 0x20 DUP3 ADD MLOAD PUSH2 0x2D66 PUSH1 0x20 DUP6 ADD DUP3 PUSH2 0x2D2E JUMP JUMPDEST POP PUSH1 0x40 DUP3 ADD MLOAD PUSH2 0x2D79 PUSH1 0x40 DUP6 ADD DUP3 PUSH2 0x2D2E JUMP JUMPDEST POP POP POP POP JUMP JUMPDEST PUSH1 0x0 PUSH1 0x60 DUP3 ADD SWAP1 POP PUSH2 0x2D94 PUSH1 0x0 DUP4 ADD DUP5 PUSH2 0x2D3D JUMP JUMPDEST SWAP3 SWAP2 POP POP JUMP JUMPDEST PUSH1 0x0 DUP2 SWAP1 POP SWAP2 SWAP1 POP JUMP JUMPDEST PUSH2 0x2DAD DUP2 PUSH2 0x2D9A JUMP JUMPDEST DUP2 EQ PUSH2 0x2DB8 JUMPI PUSH1 0x0 DUP1 REVERT JUMPDEST POP JUMP JUMPDEST PUSH1 0x0 DUP2 CALLDATALOAD SWAP1 POP PUSH2 0x2DCA DUP2 PUSH2 0x2DA4 JUMP JUMPDEST SWAP3 SWAP2 POP POP JUMP JUMPDEST PUSH1 0x0 PUSH1 0x20 DUP3 DUP5 SUB SLT ISZERO PUSH2 0x2DE6 JUMPI PUSH2 0x2DE5 PUSH2 0x2B80 JUMP JUMPDEST JUMPDEST PUSH1 0x0 PUSH2 0x2DF4 DUP5 DUP3 DUP6 ADD PUSH2 0x2DBB JUMP JUMPDEST SWAP2 POP POP SWAP3 SWAP2 POP POP JUMP JUMPDEST PUSH2 0x2E06 DUP2 PUSH2 0x2D9A JUMP JUMPDEST DUP3 MSTORE POP POP JUMP JUMPDEST PUSH1 0x0 PUSH1 0x20 DUP3 ADD SWAP1 POP PUSH2 0x2E21 PUSH1 0x0 DUP4 ADD DUP5 PUSH2 0x2DFD JUMP JUMPDEST SWAP3 SWAP2 POP POP JUMP JUMPDEST PUSH1 0x0 DUP2 SWAP1 POP SWAP2 SWAP1 POP JUMP JUMPDEST PUSH1 0x0 PUSH2 0x2E4C PUSH2 0x2E47 PUSH2 0x2E42 DUP5 PUSH2 0x2CA3 JUMP JUMPDEST PUSH2 0x2E27 JUMP JUMPDEST PUSH2 0x2CA3 JUMP JUMPDEST SWAP1 POP SWAP2 SWAP1 POP JUMP JUMPDEST PUSH1 0x0 PUSH2 0x2E5E DUP3 PUSH2 0x2E31 JUMP JUMPDEST SWAP1 POP SWAP2 SWAP1 POP JUMP JUMPDEST PUSH1 0x0 PUSH2 0x2E70 DUP3 PUSH2 0x2E53 JUMP JUMPDEST SWAP1 POP SWAP2 SWAP1 POP JUMP JUMPDEST PUSH2 0x2E80 DUP2 PUSH2 0x2E65 JUMP JUMPDEST DUP3 MSTORE POP POP JUMP JUMPDEST PUSH1 0x40 DUP3 ADD PUSH1 0x0 DUP3 ADD MLOAD PUSH2 0x2E9C PUSH1 0x0 DUP6 ADD DUP3 PUSH2 0x2E77 JUMP JUMPDEST POP PUSH1 0x20 DUP3 ADD MLOAD PUSH2 0x2EAF PUSH1 0x20 DUP6 ADD DUP3 PUSH2 0x2D2E JUMP JUMPDEST POP POP POP POP JUMP JUMPDEST PUSH1 0x0 PUSH1 0x40 DUP3 ADD SWAP1 POP PUSH2 0x2ECA PUSH1 0x0 DUP4 ADD DUP5 PUSH2 0x2E86 JUMP JUMPDEST SWAP3 SWAP2 POP POP JUMP JUMPDEST PUSH1 0x0 DUP1 PUSH1 0x40 DUP4 DUP6 SUB SLT ISZERO PUSH2 0x2EE7 JUMPI PUSH2 0x2EE6 PUSH2 0x2B80 JUMP JUMPDEST JUMPDEST PUSH1 0x0 PUSH2 0x2EF5 DUP6 DUP3 DUP7 ADD PUSH2 0x2DBB JUMP JUMPDEST SWAP3 POP POP PUSH1 0x20 PUSH2 0x2F06 DUP6 DUP3 DUP7 ADD PUSH2 0x2CEC JUMP JUMPDEST SWAP2 POP POP SWAP3 POP SWAP3 SWAP1 POP JUMP JUMPDEST PUSH2 0x2F19 DUP2 PUSH2 0x2C40 JUMP JUMPDEST DUP3 MSTORE POP POP JUMP JUMPDEST PUSH1 0x0 PUSH1 0x20 DUP3 ADD SWAP1 POP PUSH2 0x2F34 PUSH1 0x0 DUP4 ADD DUP5 PUSH2 0x2F10 JUMP JUMPDEST SWAP3 SWAP2 POP POP JUMP JUMPDEST PUSH1 0x80 DUP3 ADD PUSH1 0x0 DUP3 ADD MLOAD PUSH2 0x2F50 PUSH1 0x0 DUP6 ADD DUP3 PUSH2 0x2D2E JUMP JUMPDEST POP PUSH1 0x20 DUP3 ADD MLOAD PUSH2 0x2F63 PUSH1 0x20 DUP6 ADD DUP3 PUSH2 0x2D2E JUMP JUMPDEST POP PUSH1 0x40 DUP3 ADD MLOAD PUSH2 0x2F76 PUSH1 0x40 DUP6 ADD DUP3 PUSH2 0x2D2E JUMP JUMPDEST POP PUSH1 0x60 DUP3 ADD MLOAD PUSH2 0x2F89 PUSH1 0x60 DUP6 ADD DUP3 PUSH2 0x2D2E JUMP JUMPDEST POP POP POP POP JUMP JUMPDEST PUSH1 0x0 PUSH1 0x80 DUP3 ADD SWAP1 POP PUSH2 0x2FA4 PUSH1 0x0 DUP4 ADD DUP5 PUSH2 0x2F3A JUMP JUMPDEST SWAP3 SWAP2 POP POP JUMP JUMPDEST PUSH2 0x2FB3 DUP2 PUSH2 0x2CC3 JUMP JUMPDEST DUP3 MSTORE POP POP JUMP JUMPDEST PUSH1 0x0 PUSH1 0x20 DUP3 ADD SWAP1 POP PUSH2 0x2FCE PUSH1 0x0 DUP4 ADD DUP5 PUSH2 0x2FAA JUMP JUMPDEST SWAP3 SWAP2 POP POP JUMP JUMPDEST PUSH1 0x0 DUP1 PUSH1 0x40 DUP4 DUP6 SUB SLT ISZERO PUSH2 0x2FEB JUMPI PUSH2 0x2FEA PUSH2 0x2B80 JUMP JUMPDEST JUMPDEST PUSH1 0x0 PUSH2 0x2FF9 DUP6 DUP3 DUP7 ADD PUSH2 0x2DBB JUMP JUMPDEST SWAP3 POP POP PUSH1 0x20 PUSH2 0x300A DUP6 DUP3 DUP7 ADD PUSH2 0x2C61 JUMP JUMPDEST SWAP2 POP POP SWAP3 POP SWAP3 SWAP1 POP JUMP JUMPDEST PUSH1 0xE0 DUP3 ADD PUSH1 0x0 DUP3 ADD MLOAD PUSH2 0x302A PUSH1 0x0 DUP6 ADD DUP3 PUSH2 0x2E77 JUMP JUMPDEST POP PUSH1 0x20 DUP3 ADD MLOAD PUSH2 0x303D PUSH1 0x20 DUP6 ADD DUP3 PUSH2 0x2D2E JUMP JUMPDEST POP PUSH1 0x40 DUP3 ADD MLOAD PUSH2 0x3050 PUSH1 0x40 DUP6 ADD DUP3 PUSH2 0x2D2E JUMP JUMPDEST POP PUSH1 0x60 DUP3 ADD MLOAD PUSH2 0x3063 PUSH1 0x60 DUP6 ADD DUP3 PUSH2 0x2D2E JUMP JUMPDEST POP PUSH1 0x80 DUP3 ADD MLOAD PUSH2 0x3076 PUSH1 0x80 DUP6 ADD DUP3 PUSH2 0x2D2E JUMP JUMPDEST POP PUSH1 0xA0 DUP3 ADD MLOAD PUSH2 0x3089 PUSH1 0xA0 DUP6 ADD DUP3 PUSH2 0x2D2E JUMP JUMPDEST POP PUSH1 0xC0 DUP3 ADD MLOAD PUSH2 0x309C PUSH1 0xC0 DUP6 ADD DUP3 PUSH2 0x2D2E JUMP JUMPDEST POP POP POP POP JUMP JUMPDEST PUSH1 0x0 PUSH1 0xE0 DUP3 ADD SWAP1 POP PUSH2 0x30B7 PUSH1 0x0 DUP4 ADD DUP5 PUSH2 0x3014 JUMP JUMPDEST SWAP3 SWAP2 POP POP JUMP JUMPDEST PUSH1 0x0 DUP3 DUP3 MSTORE PUSH1 0x20 DUP3 ADD SWAP1 POP SWAP3 SWAP2 POP POP JUMP JUMPDEST PUSH32 0x4F776E61626C653A2063616C6C6572206973206E6F7420746865206F776E6572 PUSH1 0x0 DUP3 ADD MSTORE POP JUMP JUMPDEST PUSH1 0x0 PUSH2 0x3104 PUSH1 0x20 DUP4 PUSH2 0x30BD JUMP JUMPDEST SWAP2 POP PUSH2 0x310F DUP3 PUSH2 0x30CE JUMP JUMPDEST PUSH1 0x20 DUP3 ADD SWAP1 POP SWAP2 SWAP1 POP JUMP JUMPDEST PUSH1 0x0 PUSH1 0x20 DUP3 ADD SWAP1 POP DUP2 DUP2 SUB PUSH1 0x0 DUP4 ADD MSTORE PUSH2 0x3133 DUP2 PUSH2 0x30F7 JUMP JUMPDEST SWAP1 POP SWAP2 SWAP1 POP JUMP JUMPDEST PUSH1 0x0 DUP2 SWAP1 POP SWAP3 SWAP2 POP POP JUMP JUMPDEST POP JUMP JUMPDEST PUSH1 0x0 PUSH2 0x3155 PUSH1 0x0 DUP4 PUSH2 0x313A JUMP JUMPDEST SWAP2 POP PUSH2 0x3160 DUP3 PUSH2 0x3145 JUMP JUMPDEST PUSH1 0x0 DUP3 ADD SWAP1 POP SWAP2 SWAP1 POP JUMP JUMPDEST PUSH1 0x0 PUSH2 0x3176 DUP3 PUSH2 0x3148 JUMP JUMPDEST SWAP2 POP DUP2 SWAP1 POP SWAP2 SWAP1 POP JUMP JUMPDEST PUSH32 0x427579696E6720686173206E6F7420656E646564207965742E00000000000000 PUSH1 0x0 DUP3 ADD MSTORE POP JUMP JUMPDEST PUSH1 0x0 PUSH2 0x31B6 PUSH1 0x19 DUP4 PUSH2 0x30BD JUMP JUMPDEST SWAP2 POP PUSH2 0x31C1 DUP3 PUSH2 0x3180 JUMP JUMPDEST PUSH1 0x20 DUP3 ADD SWAP1 POP SWAP2 SWAP1 POP JUMP JUMPDEST PUSH1 0x0 PUSH1 0x20 DUP3 ADD SWAP1 POP DUP2 DUP2 SUB PUSH1 0x0 DUP4 ADD MSTORE PUSH2 0x31E5 DUP2 PUSH2 0x31A9 JUMP JUMPDEST SWAP1 POP SWAP2 SWAP1 POP JUMP JUMPDEST PUSH32 0x4E6F7420636F6C6C61746572616C697365642E00000000000000000000000000 PUSH1 0x0 DUP3 ADD MSTORE POP JUMP JUMPDEST PUSH1 0x0 PUSH2 0x3222 PUSH1 0x13 DUP4 PUSH2 0x30BD JUMP JUMPDEST SWAP2 POP PUSH2 0x322D DUP3 PUSH2 0x31EC JUMP JUMPDEST PUSH1 0x20 DUP3 ADD SWAP1 POP SWAP2 SWAP1 POP JUMP JUMPDEST PUSH1 0x0 PUSH1 0x20 DUP3 ADD SWAP1 POP DUP2 DUP2 SUB PUSH1 0x0 DUP4 ADD MSTORE PUSH2 0x3251 DUP2 PUSH2 0x3215 JUMP JUMPDEST SWAP1 POP SWAP2 SWAP1 POP JUMP JUMPDEST PUSH1 0x0 PUSH1 0x40 DUP3 ADD SWAP1 POP PUSH2 0x326D PUSH1 0x0 DUP4 ADD DUP6 PUSH2 0x2FAA JUMP JUMPDEST PUSH2 0x327A PUSH1 0x20 DUP4 ADD DUP5 PUSH2 0x2F10 JUMP JUMPDEST SWAP4 SWAP3 POP POP POP JUMP JUMPDEST PUSH2 0x328A DUP2 PUSH2 0x2C0A JUMP JUMPDEST DUP2 EQ PUSH2 0x3295 JUMPI PUSH1 0x0 DUP1 REVERT JUMPDEST POP JUMP JUMPDEST PUSH1 0x0 DUP2 MLOAD SWAP1 POP PUSH2 0x32A7 DUP2 PUSH2 0x3281 JUMP JUMPDEST SWAP3 SWAP2 POP POP JUMP JUMPDEST PUSH1 0x0 PUSH1 0x20 DUP3 DUP5 SUB SLT ISZERO PUSH2 0x32C3 JUMPI PUSH2 0x32C2 PUSH2 0x2B80 JUMP JUMPDEST JUMPDEST PUSH1 0x0 PUSH2 0x32D1 DUP5 DUP3 DUP6 ADD PUSH2 0x3298 JUMP JUMPDEST SWAP2 POP POP SWAP3 SWAP2 POP POP JUMP JUMPDEST PUSH32 0x416363657373436F6E74726F6C3A2063616E206F6E6C792072656E6F756E6365 PUSH1 0x0 DUP3 ADD MSTORE PUSH32 0x20726F6C657320666F722073656C660000000000000000000000000000000000 PUSH1 0x20 DUP3 ADD MSTORE POP JUMP JUMPDEST PUSH1 0x0 PUSH2 0x3336 PUSH1 0x2F DUP4 PUSH2 0x30BD JUMP JUMPDEST SWAP2 POP PUSH2 0x3341 DUP3 PUSH2 0x32DA JUMP JUMPDEST PUSH1 0x40 DUP3 ADD SWAP1 POP SWAP2 SWAP1 POP JUMP JUMPDEST PUSH1 0x0 PUSH1 0x20 DUP3 ADD SWAP1 POP DUP2 DUP2 SUB PUSH1 0x0 DUP4 ADD MSTORE PUSH2 0x3365 DUP2 PUSH2 0x3329 JUMP JUMPDEST SWAP1 POP SWAP2 SWAP1 POP JUMP JUMPDEST PUSH32 0x4E487B7100000000000000000000000000000000000000000000000000000000 PUSH1 0x0 MSTORE PUSH1 0x11 PUSH1 0x4 MSTORE PUSH1 0x24 PUSH1 0x0 REVERT JUMPDEST PUSH1 0x0 PUSH2 0x33A6 DUP3 PUSH2 0x2C40 JUMP JUMPDEST SWAP2 POP PUSH2 0x33B1 DUP4 PUSH2 0x2C40 JUMP JUMPDEST SWAP3 POP DUP3 PUSH32 0xFFFFFFFFFFFFFFFFFFFFFFFFFFFFFFFFFFFFFFFFFFFFFFFFFFFFFFFFFFFFFFFF SUB DUP3 GT ISZERO PUSH2 0x33E6 JUMPI PUSH2 0x33E5 PUSH2 0x336C JUMP JUMPDEST JUMPDEST DUP3 DUP3 ADD SWAP1 POP SWAP3 SWAP2 POP POP JUMP JUMPDEST PUSH1 0x0 PUSH2 0x33FC DUP3 PUSH2 0x2C40 JUMP JUMPDEST SWAP2 POP PUSH2 0x3407 DUP4 PUSH2 0x2C40 JUMP JUMPDEST SWAP3 POP DUP2 PUSH32 0xFFFFFFFFFFFFFFFFFFFFFFFFFFFFFFFFFFFFFFFFFFFFFFFFFFFFFFFFFFFFFFFF DIV DUP4 GT DUP3 ISZERO ISZERO AND ISZERO PUSH2 0x3440 JUMPI PUSH2 0x343F PUSH2 0x336C JUMP JUMPDEST JUMPDEST DUP3 DUP3 MUL SWAP1 POP SWAP3 SWAP2 POP POP JUMP JUMPDEST PUSH32 0x4E487B7100000000000000000000000000000000000000000000000000000000 PUSH1 0x0 MSTORE PUSH1 0x12 PUSH1 0x4 MSTORE PUSH1 0x24 PUSH1 0x0 REVERT JUMPDEST PUSH1 0x0 PUSH2 0x3485 DUP3 PUSH2 0x2C40 JUMP JUMPDEST SWAP2 POP PUSH2 0x3490 DUP4 PUSH2 0x2C40 JUMP JUMPDEST SWAP3 POP DUP3 PUSH2 0x34A0 JUMPI PUSH2 0x349F PUSH2 0x344B JUMP JUMPDEST JUMPDEST DUP3 DUP3 DIV SWAP1 POP SWAP3 SWAP2 POP POP JUMP JUMPDEST PUSH1 0x0 PUSH2 0x34B6 DUP3 PUSH2 0x2C40 JUMP JUMPDEST SWAP2 POP PUSH2 0x34C1 DUP4 PUSH2 0x2C40 JUMP JUMPDEST SWAP3 POP DUP3 DUP3 LT ISZERO PUSH2 0x34D4 JUMPI PUSH2 0x34D3 PUSH2 0x336C JUMP JUMPDEST JUMPDEST DUP3 DUP3 SUB SWAP1 POP SWAP3 SWAP2 POP POP JUMP JUMPDEST PUSH32 0x5061757361626C653A2070617573656400000000000000000000000000000000 PUSH1 0x0 DUP3 ADD MSTORE POP JUMP JUMPDEST PUSH1 0x0 PUSH2 0x3515 PUSH1 0x10 DUP4 PUSH2 0x30BD JUMP JUMPDEST SWAP2 POP PUSH2 0x3520 DUP3 PUSH2 0x34DF JUMP JUMPDEST PUSH1 0x20 DUP3 ADD SWAP1 POP SWAP2 SWAP1 POP JUMP JUMPDEST PUSH1 0x0 PUSH1 0x20 DUP3 ADD SWAP1 POP DUP2 DUP2 SUB PUSH1 0x0 DUP4 ADD MSTORE PUSH2 0x3544 DUP2 PUSH2 0x3508 JUMP JUMPDEST SWAP1 POP SWAP2 SWAP1 POP JUMP JUMPDEST PUSH32 0x56657374696E6720686173206E6F7420626567756E207965742E000000000000 PUSH1 0x0 DUP3 ADD MSTORE POP JUMP JUMPDEST PUSH1 0x0 PUSH2 0x3581 PUSH1 0x1A DUP4 PUSH2 0x30BD JUMP JUMPDEST SWAP2 POP PUSH2 0x358C DUP3 PUSH2 0x354B JUMP JUMPDEST PUSH1 0x20 DUP3 ADD SWAP1 POP SWAP2 SWAP1 POP JUMP JUMPDEST PUSH1 0x0 PUSH1 0x20 DUP3 ADD SWAP1 POP DUP2 DUP2 SUB PUSH1 0x0 DUP4 ADD MSTORE PUSH2 0x35B0 DUP2 PUSH2 0x3574 JUMP JUMPDEST SWAP1 POP SWAP2 SWAP1 POP JUMP JUMPDEST PUSH32 0x546865726520776173206E6F206F766572666C6F772E00000000000000000000 PUSH1 0x0 DUP3 ADD MSTORE POP JUMP JUMPDEST PUSH1 0x0 PUSH2 0x35ED PUSH1 0x16 DUP4 PUSH2 0x30BD JUMP JUMPDEST SWAP2 POP PUSH2 0x35F8 DUP3 PUSH2 0x35B7 JUMP JUMPDEST PUSH1 0x20 DUP3 ADD SWAP1 POP SWAP2 SWAP1 POP JUMP JUMPDEST PUSH1 0x0 PUSH1 0x20 DUP3 ADD SWAP1 POP DUP2 DUP2 SUB PUSH1 0x0 DUP4 ADD MSTORE PUSH2 0x361C DUP2 PUSH2 0x35E0 JUMP JUMPDEST SWAP1 POP SWAP2 SWAP1 POP JUMP JUMPDEST PUSH32 0x427579696E6720686173206E6F7420616C726561647920737461727465642E00 PUSH1 0x0 DUP3 ADD MSTORE POP JUMP JUMPDEST PUSH1 0x0 PUSH2 0x3659 PUSH1 0x1F DUP4 PUSH2 0x30BD JUMP JUMPDEST SWAP2 POP PUSH2 0x3664 DUP3 PUSH2 0x3623 JUMP JUMPDEST PUSH1 0x20 DUP3 ADD SWAP1 POP SWAP2 SWAP1 POP JUMP JUMPDEST PUSH1 0x0 PUSH1 0x20 DUP3 ADD SWAP1 POP DUP2 DUP2 SUB PUSH1 0x0 DUP4 ADD MSTORE PUSH2 0x3688 DUP2 PUSH2 0x364C JUMP JUMPDEST SWAP1 POP SWAP2 SWAP1 POP JUMP JUMPDEST PUSH32 0x416C726561647920636F6C6C61746572616C697365642E000000000000000000 PUSH1 0x0 DUP3 ADD MSTORE POP JUMP JUMPDEST PUSH1 0x0 PUSH2 0x36C5 PUSH1 0x17 DUP4 PUSH2 0x30BD JUMP JUMPDEST SWAP2 POP PUSH2 0x36D0 DUP3 PUSH2 0x368F JUMP JUMPDEST PUSH1 0x20 DUP3 ADD SWAP1 POP SWAP2 SWAP1 POP JUMP JUMPDEST PUSH1 0x0 PUSH1 0x20 DUP3 ADD SWAP1 POP DUP2 DUP2 SUB PUSH1 0x0 DUP4 ADD MSTORE PUSH2 0x36F4 DUP2 PUSH2 0x36B8 JUMP JUMPDEST SWAP1 POP SWAP2 SWAP1 POP JUMP JUMPDEST PUSH1 0x0 PUSH1 0x60 DUP3 ADD SWAP1 POP PUSH2 0x3710 PUSH1 0x0 DUP4 ADD DUP7 PUSH2 0x2FAA JUMP JUMPDEST PUSH2 0x371D PUSH1 0x20 DUP4 ADD DUP6 PUSH2 0x2FAA JUMP JUMPDEST PUSH2 0x372A PUSH1 0x40 DUP4 ADD DUP5 PUSH2 0x2F10 JUMP JUMPDEST SWAP5 SWAP4 POP POP POP POP JUMP JUMPDEST PUSH32 0x427579696E6720686173206E6F7420626567756E207965742E00000000000000 PUSH1 0x0 DUP3 ADD MSTORE POP JUMP JUMPDEST PUSH1 0x0 PUSH2 0x3768 PUSH1 0x19 DUP4 PUSH2 0x30BD JUMP JUMPDEST SWAP2 POP PUSH2 0x3773 DUP3 PUSH2 0x3732 JUMP JUMPDEST PUSH1 0x20 DUP3 ADD SWAP1 POP SWAP2 SWAP1 POP JUMP JUMPDEST PUSH1 0x0 PUSH1 0x20 DUP3 ADD SWAP1 POP DUP2 DUP2 SUB PUSH1 0x0 DUP4 ADD MSTORE PUSH2 0x3797 DUP2 PUSH2 0x375B JUMP JUMPDEST SWAP1 POP SWAP2 SWAP1 POP JUMP JUMPDEST PUSH32 0x427579696E672068617320656E6465642E000000000000000000000000000000 PUSH1 0x0 DUP3 ADD MSTORE POP JUMP JUMPDEST PUSH1 0x0 PUSH2 0x37D4 PUSH1 0x11 DUP4 PUSH2 0x30BD JUMP JUMPDEST SWAP2 POP PUSH2 0x37DF DUP3 PUSH2 0x379E JUMP JUMPDEST PUSH1 0x20 DUP3 ADD SWAP1 POP SWAP2 SWAP1 POP JUMP JUMPDEST PUSH1 0x0 PUSH1 0x20 DUP3 ADD SWAP1 POP DUP2 DUP2 SUB PUSH1 0x0 DUP4 ADD MSTORE PUSH2 0x3803 DUP2 PUSH2 0x37C7 JUMP JUMPDEST SWAP1 POP SWAP2 SWAP1 POP JUMP JUMPDEST PUSH32 0x4F776E61626C653A206E6577206F776E657220697320746865207A65726F2061 PUSH1 0x0 DUP3 ADD MSTORE PUSH32 0x6464726573730000000000000000000000000000000000000000000000000000 PUSH1 0x20 DUP3 ADD MSTORE POP JUMP JUMPDEST PUSH1 0x0 PUSH2 0x3866 PUSH1 0x26 DUP4 PUSH2 0x30BD JUMP JUMPDEST SWAP2 POP PUSH2 0x3871 DUP3 PUSH2 0x380A JUMP JUMPDEST PUSH1 0x40 DUP3 ADD SWAP1 POP SWAP2 SWAP1 POP JUMP JUMPDEST PUSH1 0x0 PUSH1 0x20 DUP3 ADD SWAP1 POP DUP2 DUP2 SUB PUSH1 0x0 DUP4 ADD MSTORE PUSH2 0x3895 DUP2 PUSH2 0x3859 JUMP JUMPDEST SWAP1 POP SWAP2 SWAP1 POP JUMP JUMPDEST PUSH1 0x0 DUP2 SWAP1 POP SWAP3 SWAP2 POP POP JUMP JUMPDEST PUSH32 0x416363657373436F6E74726F6C3A206163636F756E7420000000000000000000 PUSH1 0x0 DUP3 ADD MSTORE POP JUMP JUMPDEST PUSH1 0x0 PUSH2 0x38DD PUSH1 0x17 DUP4 PUSH2 0x389C JUMP JUMPDEST SWAP2 POP PUSH2 0x38E8 DUP3 PUSH2 0x38A7 JUMP JUMPDEST PUSH1 0x17 DUP3 ADD SWAP1 POP SWAP2 SWAP1 POP JUMP JUMPDEST PUSH1 0x0 DUP2 MLOAD SWAP1 POP SWAP2 SWAP1 POP JUMP JUMPDEST PUSH1 0x0 JUMPDEST DUP4 DUP2 LT ISZERO PUSH2 0x391C JUMPI DUP1 DUP3 ADD MLOAD DUP2 DUP5 ADD MSTORE PUSH1 0x20 DUP2 ADD SWAP1 POP PUSH2 0x3901 JUMP JUMPDEST DUP4 DUP2 GT ISZERO PUSH2 0x392B JUMPI PUSH1 0x0 DUP5 DUP5 ADD MSTORE JUMPDEST POP POP POP POP JUMP JUMPDEST PUSH1 0x0 PUSH2 0x393C DUP3 PUSH2 0x38F3 JUMP JUMPDEST PUSH2 0x3946 DUP2 DUP6 PUSH2 0x389C JUMP JUMPDEST SWAP4 POP PUSH2 0x3956 DUP2 DUP6 PUSH1 0x20 DUP7 ADD PUSH2 0x38FE JUMP JUMPDEST DUP1 DUP5 ADD SWAP2 POP POP SWAP3 SWAP2 POP POP JUMP JUMPDEST PUSH32 0x206973206D697373696E6720726F6C6520000000000000000000000000000000 PUSH1 0x0 DUP3 ADD MSTORE POP JUMP JUMPDEST PUSH1 0x0 PUSH2 0x3998 PUSH1 0x11 DUP4 PUSH2 0x389C JUMP JUMPDEST SWAP2 POP PUSH2 0x39A3 DUP3 PUSH2 0x3962 JUMP JUMPDEST PUSH1 0x11 DUP3 ADD SWAP1 POP SWAP2 SWAP1 POP JUMP JUMPDEST PUSH1 0x0 PUSH2 0x39B9 DUP3 PUSH2 0x38D0 JUMP JUMPDEST SWAP2 POP PUSH2 0x39C5 DUP3 DUP6 PUSH2 0x3931 JUMP JUMPDEST SWAP2 POP PUSH2 0x39D0 DUP3 PUSH2 0x398B JUMP JUMPDEST SWAP2 POP PUSH2 0x39DC DUP3 DUP5 PUSH2 0x3931 JUMP JUMPDEST SWAP2 POP DUP2 SWAP1 POP SWAP4 SWAP3 POP POP POP JUMP JUMPDEST PUSH1 0x0 PUSH1 0x1F NOT PUSH1 0x1F DUP4 ADD AND SWAP1 POP SWAP2 SWAP1 POP JUMP JUMPDEST PUSH1 0x0 PUSH2 0x3A04 DUP3 PUSH2 0x38F3 JUMP JUMPDEST PUSH2 0x3A0E DUP2 DUP6 PUSH2 0x30BD JUMP JUMPDEST SWAP4 POP PUSH2 0x3A1E DUP2 DUP6 PUSH1 0x20 DUP7 ADD PUSH2 0x38FE JUMP JUMPDEST PUSH2 0x3A27 DUP2 PUSH2 0x39E8 JUMP JUMPDEST DUP5 ADD SWAP2 POP POP SWAP3 SWAP2 POP POP JUMP JUMPDEST PUSH1 0x0 PUSH1 0x20 DUP3 ADD SWAP1 POP DUP2 DUP2 SUB PUSH1 0x0 DUP4 ADD MSTORE PUSH2 0x3A4C DUP2 DUP5 PUSH2 0x39F9 JUMP JUMPDEST SWAP1 POP SWAP3 SWAP2 POP POP JUMP JUMPDEST PUSH32 0x5061757361626C653A206E6F7420706175736564000000000000000000000000 PUSH1 0x0 DUP3 ADD MSTORE POP JUMP JUMPDEST PUSH1 0x0 PUSH2 0x3A8A PUSH1 0x14 DUP4 PUSH2 0x30BD JUMP JUMPDEST SWAP2 POP PUSH2 0x3A95 DUP3 PUSH2 0x3A54 JUMP JUMPDEST PUSH1 0x20 DUP3 ADD SWAP1 POP SWAP2 SWAP1 POP JUMP JUMPDEST PUSH1 0x0 PUSH1 0x20 DUP3 ADD SWAP1 POP DUP2 DUP2 SUB PUSH1 0x0 DUP4 ADD MSTORE PUSH2 0x3AB9 DUP2 PUSH2 0x3A7D JUMP JUMPDEST SWAP1 POP SWAP2 SWAP1 POP JUMP JUMPDEST PUSH32 0x4E487B7100000000000000000000000000000000000000000000000000000000 PUSH1 0x0 MSTORE PUSH1 0x41 PUSH1 0x4 MSTORE PUSH1 0x24 PUSH1 0x0 REVERT JUMPDEST PUSH32 0x4E487B7100000000000000000000000000000000000000000000000000000000 PUSH1 0x0 MSTORE PUSH1 0x32 PUSH1 0x4 MSTORE PUSH1 0x24 PUSH1 0x0 REVERT JUMPDEST PUSH1 0x0 PUSH2 0x3B29 DUP3 PUSH2 0x2C40 JUMP JUMPDEST SWAP2 POP PUSH1 0x0 DUP3 EQ ISZERO PUSH2 0x3B3D JUMPI PUSH2 0x3B3C PUSH2 0x336C JUMP JUMPDEST JUMPDEST PUSH1 0x1 DUP3 SUB SWAP1 POP SWAP2 SWAP1 POP JUMP JUMPDEST PUSH32 0x537472696E67733A20686578206C656E67746820696E73756666696369656E74 PUSH1 0x0 DUP3 ADD MSTORE POP JUMP JUMPDEST PUSH1 0x0 PUSH2 0x3B7E PUSH1 0x20 DUP4 PUSH2 0x30BD JUMP JUMPDEST SWAP2 POP PUSH2 0x3B89 DUP3 PUSH2 0x3B48 JUMP JUMPDEST PUSH1 0x20 DUP3 ADD SWAP1 POP SWAP2 SWAP1 POP JUMP JUMPDEST PUSH1 0x0 PUSH1 0x20 DUP3 ADD SWAP1 POP DUP2 DUP2 SUB PUSH1 0x0 DUP4 ADD MSTORE PUSH2 0x3BAD DUP2 PUSH2 0x3B71 JUMP JUMPDEST SWAP1 POP SWAP2 SWAP1 POP JUMP JUMPDEST PUSH32 0x5573657220686173206E6F74206265656E2077686974656C69737465642E0000 PUSH1 0x0 DUP3 ADD MSTORE POP JUMP JUMPDEST PUSH1 0x0 PUSH2 0x3BEA PUSH1 0x1E DUP4 PUSH2 0x30BD JUMP JUMPDEST SWAP2 POP PUSH2 0x3BF5 DUP3 PUSH2 0x3BB4 JUMP JUMPDEST PUSH1 0x20 DUP3 ADD SWAP1 POP SWAP2 SWAP1 POP JUMP JUMPDEST PUSH1 0x0 PUSH1 0x20 DUP3 ADD SWAP1 POP DUP2 DUP2 SUB PUSH1 0x0 DUP4 ADD MSTORE PUSH2 0x3C19 DUP2 PUSH2 0x3BDD JUMP JUMPDEST SWAP1 POP SWAP2 SWAP1 POP JUMP JUMPDEST PUSH32 0x4E487B7100000000000000000000000000000000000000000000000000000000 PUSH1 0x0 MSTORE PUSH1 0x31 PUSH1 0x4 MSTORE PUSH1 0x24 PUSH1 0x0 REVERT JUMPDEST PUSH32 0x5573657220686173206E6F7420636F6C6C61746572616C697365642E00000000 PUSH1 0x0 DUP3 ADD MSTORE POP JUMP JUMPDEST PUSH1 0x0 PUSH2 0x3C85 PUSH1 0x1C DUP4 PUSH2 0x30BD JUMP JUMPDEST SWAP2 POP PUSH2 0x3C90 DUP3 PUSH2 0x3C4F JUMP JUMPDEST PUSH1 0x20 DUP3 ADD SWAP1 POP SWAP2 SWAP1 POP JUMP JUMPDEST PUSH1 0x0 PUSH1 0x20 DUP3 ADD SWAP1 POP DUP2 DUP2 SUB PUSH1 0x0 DUP4 ADD MSTORE PUSH2 0x3CB4 DUP2 PUSH2 0x3C78 JUMP JUMPDEST SWAP1 POP SWAP2 SWAP1 POP JUMP INVALID LOG2 PUSH5 0x6970667358 0x22 SLT KECCAK256 PUSH9 0x528A58A7A354A71C4A 0x24 PUSH23 0x8979FCBAF8508D93E38521C34B112DC9583CF0E864736F PUSH13 0x634300080C0033000000000000 "
        },
        "methodIdentifiers": {
          "COLLATERALISED_ROLE()": "5feb6191",
          "DEFAULT_ADMIN_ROLE()": "a217fddf",
          "WHITELISTED_ROLE()": "7a3226ec",
          "WHITELISTER_ROLE()": "570618e1",
          "claim()": "4e71d92d",
          "claimableOf(address)": "8903ab9d",
          "collateralise()": "8f705903",
          "contribute()": "d7bb99ba",
          "forceReturn(uint256)": "2bf9935d",
          "forceWithdraw(uint256)": "0fcc56f7",
          "getCollateralInfo()": "2e0bcb43",
          "getGlobalStats()": "6b4169c3",
          "getParameters()": "a5ea11da",
          "getRoleAdmin(bytes32)": "248a9ca3",
          "getRoleMember(bytes32,uint256)": "9010d07c",
          "getRoleMemberCount(bytes32)": "ca15c873",
          "getUserStatsOf(address)": "1ae755ee",
          "grantRole(bytes32,address)": "2f2ff15d",
          "hasRole(bytes32,address)": "91d14854",
          "owner()": "8da5cb5b",
          "pause()": "8456cb59",
          "paused()": "5c975abb",
          "refund()": "590e1ae3",
          "refundCollateral()": "2098b7ff",
          "refundableOf(address)": "b22163e3",
          "renounceOwnership()": "715018a6",
          "renounceRole(bytes32,address)": "36568abe",
          "returnUnsold()": "b2ea088d",
          "returnable()": "4da56a6f",
          "revokeRole(bytes32,address)": "d547741f",
          "supportsInterface(bytes4)": "01ffc9a7",
          "transferOwnership(address)": "f2fde38b",
          "unpause()": "3f4ba83a",
          "withdraw()": "3ccfd60b",
          "withdrawable()": "50188301"
        }
      }
    }
  }
}