{
  "_format": "hh-sol-artifact-1",
  "contractName": "IDOWithJustCollateral",
  "sourceName": "contracts/IDOWithJustCollateral.sol",
  "abi": [
    {
      "inputs": [
        {
          "components": [
            {
              "internalType": "contract IERC20",
              "name": "token",
              "type": "address"
            },
            {
              "internalType": "uint256",
              "name": "forSale",
              "type": "uint256"
            },
            {
              "internalType": "uint256",
              "name": "asking",
              "type": "uint256"
            },
            {
              "internalType": "uint256",
              "name": "buyingStartsAt",
              "type": "uint256"
            },
            {
              "internalType": "uint256",
              "name": "buyingEndsAt",
              "type": "uint256"
            },
            {
              "internalType": "uint256",
              "name": "vestingStartsAt",
              "type": "uint256"
            },
            {
              "internalType": "uint256",
              "name": "vestingEndsAt",
              "type": "uint256"
            }
          ],
          "internalType": "struct Parameters",
          "name": "parameters",
          "type": "tuple"
        },
        {
          "components": [
            {
              "internalType": "contract IERC20",
              "name": "token",
              "type": "address"
            },
            {
              "internalType": "uint256",
              "name": "amount",
              "type": "uint256"
            }
          ],
          "internalType": "struct CollateralInfo",
          "name": "collateralInfo",
          "type": "tuple"
        }
      ],
      "stateMutability": "nonpayable",
      "type": "constructor"
    },
    {
      "anonymous": false,
      "inputs": [
        {
          "indexed": false,
          "internalType": "address",
          "name": "addr",
          "type": "address"
        },
        {
          "indexed": false,
          "internalType": "uint256",
          "name": "amount",
          "type": "uint256"
        }
      ],
      "name": "Claimed",
      "type": "event"
    },
    {
      "anonymous": false,
      "inputs": [
        {
          "indexed": false,
          "internalType": "address",
          "name": "addr",
          "type": "address"
        }
      ],
      "name": "CollateralRefunded",
      "type": "event"
    },
    {
      "anonymous": false,
      "inputs": [
        {
          "indexed": false,
          "internalType": "address",
          "name": "addr",
          "type": "address"
        }
      ],
      "name": "Collateralised",
      "type": "event"
    },
    {
      "anonymous": false,
      "inputs": [
        {
          "indexed": false,
          "internalType": "address",
          "name": "addr",
          "type": "address"
        },
        {
          "indexed": false,
          "internalType": "uint256",
          "name": "amount",
          "type": "uint256"
        }
      ],
      "name": "Contributed",
      "type": "event"
    },
    {
      "anonymous": false,
      "inputs": [
        {
          "indexed": true,
          "internalType": "address",
          "name": "previousOwner",
          "type": "address"
        },
        {
          "indexed": true,
          "internalType": "address",
          "name": "newOwner",
          "type": "address"
        }
      ],
      "name": "OwnershipTransferred",
      "type": "event"
    },
    {
      "anonymous": false,
      "inputs": [
        {
          "indexed": false,
          "internalType": "address",
          "name": "account",
          "type": "address"
        }
      ],
      "name": "Paused",
      "type": "event"
    },
    {
      "anonymous": false,
      "inputs": [
        {
          "indexed": false,
          "internalType": "address",
          "name": "addr",
          "type": "address"
        },
        {
          "indexed": false,
          "internalType": "uint256",
          "name": "amount",
          "type": "uint256"
        }
      ],
      "name": "Refunded",
      "type": "event"
    },
    {
      "anonymous": false,
      "inputs": [
        {
          "indexed": false,
          "internalType": "address",
          "name": "addr",
          "type": "address"
        },
        {
          "indexed": false,
          "internalType": "uint256",
          "name": "amount",
          "type": "uint256"
        }
      ],
      "name": "Returned",
      "type": "event"
    },
    {
      "anonymous": false,
      "inputs": [
        {
          "indexed": true,
          "internalType": "bytes32",
          "name": "role",
          "type": "bytes32"
        },
        {
          "indexed": true,
          "internalType": "bytes32",
          "name": "previousAdminRole",
          "type": "bytes32"
        },
        {
          "indexed": true,
          "internalType": "bytes32",
          "name": "newAdminRole",
          "type": "bytes32"
        }
      ],
      "name": "RoleAdminChanged",
      "type": "event"
    },
    {
      "anonymous": false,
      "inputs": [
        {
          "indexed": true,
          "internalType": "bytes32",
          "name": "role",
          "type": "bytes32"
        },
        {
          "indexed": true,
          "internalType": "address",
          "name": "account",
          "type": "address"
        },
        {
          "indexed": true,
          "internalType": "address",
          "name": "sender",
          "type": "address"
        }
      ],
      "name": "RoleGranted",
      "type": "event"
    },
    {
      "anonymous": false,
      "inputs": [
        {
          "indexed": true,
          "internalType": "bytes32",
          "name": "role",
          "type": "bytes32"
        },
        {
          "indexed": true,
          "internalType": "address",
          "name": "account",
          "type": "address"
        },
        {
          "indexed": true,
          "internalType": "address",
          "name": "sender",
          "type": "address"
        }
      ],
      "name": "RoleRevoked",
      "type": "event"
    },
    {
      "anonymous": false,
      "inputs": [
        {
          "indexed": false,
          "internalType": "address",
          "name": "account",
          "type": "address"
        }
      ],
      "name": "Unpaused",
      "type": "event"
    },
    {
      "anonymous": false,
      "inputs": [
        {
          "indexed": false,
          "internalType": "address",
          "name": "addr",
          "type": "address"
        },
        {
          "indexed": false,
          "internalType": "uint256",
          "name": "amount",
          "type": "uint256"
        }
      ],
      "name": "Withdrawn",
      "type": "event"
    },
    {
      "inputs": [],
      "name": "COLLATERALISED_ROLE",
      "outputs": [
        {
          "internalType": "bytes32",
          "name": "",
          "type": "bytes32"
        }
      ],
      "stateMutability": "view",
      "type": "function"
    },
    {
      "inputs": [],
      "name": "DEFAULT_ADMIN_ROLE",
      "outputs": [
        {
          "internalType": "bytes32",
          "name": "",
          "type": "bytes32"
        }
      ],
      "stateMutability": "view",
      "type": "function"
    },
    {
      "inputs": [],
      "name": "claim",
      "outputs": [],
      "stateMutability": "nonpayable",
      "type": "function"
    },
    {
      "inputs": [
        {
          "internalType": "address",
          "name": "addr",
          "type": "address"
        }
      ],
      "name": "claimableOf",
      "outputs": [
        {
          "internalType": "uint256",
          "name": "claimable",
          "type": "uint256"
        }
      ],
      "stateMutability": "view",
      "type": "function"
    },
    {
      "inputs": [],
      "name": "collateralise",
      "outputs": [],
      "stateMutability": "nonpayable",
      "type": "function"
    },
    {
      "inputs": [],
      "name": "contribute",
      "outputs": [],
      "stateMutability": "payable",
      "type": "function"
    },
    {
      "inputs": [
        {
          "internalType": "uint256",
          "name": "amount",
          "type": "uint256"
        }
      ],
      "name": "forceReturn",
      "outputs": [],
      "stateMutability": "nonpayable",
      "type": "function"
    },
    {
      "inputs": [
        {
          "internalType": "uint256",
          "name": "amount",
          "type": "uint256"
        }
      ],
      "name": "forceWithdraw",
      "outputs": [],
      "stateMutability": "nonpayable",
      "type": "function"
    },
    {
      "inputs": [],
      "name": "getCollateralInfo",
      "outputs": [
        {
          "components": [
            {
              "internalType": "contract IERC20",
              "name": "token",
              "type": "address"
            },
            {
              "internalType": "uint256",
              "name": "amount",
              "type": "uint256"
            }
          ],
          "internalType": "struct CollateralInfo",
          "name": "",
          "type": "tuple"
        }
      ],
      "stateMutability": "view",
      "type": "function"
    },
    {
      "inputs": [],
      "name": "getGlobalStats",
      "outputs": [
        {
          "components": [
            {
              "internalType": "uint256",
              "name": "contributed",
              "type": "uint256"
            },
            {
              "internalType": "uint256",
              "name": "claimed",
              "type": "uint256"
            },
            {
              "internalType": "uint256",
              "name": "withdrawn",
              "type": "uint256"
            },
            {
              "internalType": "uint256",
              "name": "returned",
              "type": "uint256"
            }
          ],
          "internalType": "struct GlobalStats",
          "name": "",
          "type": "tuple"
        }
      ],
      "stateMutability": "view",
      "type": "function"
    },
    {
      "inputs": [],
      "name": "getParameters",
      "outputs": [
        {
          "components": [
            {
              "internalType": "contract IERC20",
              "name": "token",
              "type": "address"
            },
            {
              "internalType": "uint256",
              "name": "forSale",
              "type": "uint256"
            },
            {
              "internalType": "uint256",
              "name": "asking",
              "type": "uint256"
            },
            {
              "internalType": "uint256",
              "name": "buyingStartsAt",
              "type": "uint256"
            },
            {
              "internalType": "uint256",
              "name": "buyingEndsAt",
              "type": "uint256"
            },
            {
              "internalType": "uint256",
              "name": "vestingStartsAt",
              "type": "uint256"
            },
            {
              "internalType": "uint256",
              "name": "vestingEndsAt",
              "type": "uint256"
            }
          ],
          "internalType": "struct Parameters",
          "name": "",
          "type": "tuple"
        }
      ],
      "stateMutability": "view",
      "type": "function"
    },
    {
      "inputs": [
        {
          "internalType": "bytes32",
          "name": "role",
          "type": "bytes32"
        }
      ],
      "name": "getRoleAdmin",
      "outputs": [
        {
          "internalType": "bytes32",
          "name": "",
          "type": "bytes32"
        }
      ],
      "stateMutability": "view",
      "type": "function"
    },
    {
      "inputs": [
        {
          "internalType": "bytes32",
          "name": "role",
          "type": "bytes32"
        },
        {
          "internalType": "uint256",
          "name": "index",
          "type": "uint256"
        }
      ],
      "name": "getRoleMember",
      "outputs": [
        {
          "internalType": "address",
          "name": "",
          "type": "address"
        }
      ],
      "stateMutability": "view",
      "type": "function"
    },
    {
      "inputs": [
        {
          "internalType": "bytes32",
          "name": "role",
          "type": "bytes32"
        }
      ],
      "name": "getRoleMemberCount",
      "outputs": [
        {
          "internalType": "uint256",
          "name": "",
          "type": "uint256"
        }
      ],
      "stateMutability": "view",
      "type": "function"
    },
    {
      "inputs": [
        {
          "internalType": "address",
          "name": "addr",
          "type": "address"
        }
      ],
      "name": "getUserStatsOf",
      "outputs": [
        {
          "components": [
            {
              "internalType": "uint256",
              "name": "contributed",
              "type": "uint256"
            },
            {
              "internalType": "uint256",
              "name": "claimed",
              "type": "uint256"
            },
            {
              "internalType": "uint256",
              "name": "refunded",
              "type": "uint256"
            }
          ],
          "internalType": "struct UserStats",
          "name": "",
          "type": "tuple"
        }
      ],
      "stateMutability": "view",
      "type": "function"
    },
    {
      "inputs": [
        {
          "internalType": "bytes32",
          "name": "role",
          "type": "bytes32"
        },
        {
          "internalType": "address",
          "name": "account",
          "type": "address"
        }
      ],
      "name": "grantRole",
      "outputs": [],
      "stateMutability": "nonpayable",
      "type": "function"
    },
    {
      "inputs": [
        {
          "internalType": "bytes32",
          "name": "role",
          "type": "bytes32"
        },
        {
          "internalType": "address",
          "name": "account",
          "type": "address"
        }
      ],
      "name": "hasRole",
      "outputs": [
        {
          "internalType": "bool",
          "name": "",
          "type": "bool"
        }
      ],
      "stateMutability": "view",
      "type": "function"
    },
    {
      "inputs": [],
      "name": "owner",
      "outputs": [
        {
          "internalType": "address",
          "name": "",
          "type": "address"
        }
      ],
      "stateMutability": "view",
      "type": "function"
    },
    {
      "inputs": [],
      "name": "pause",
      "outputs": [],
      "stateMutability": "nonpayable",
      "type": "function"
    },
    {
      "inputs": [],
      "name": "paused",
      "outputs": [
        {
          "internalType": "bool",
          "name": "",
          "type": "bool"
        }
      ],
      "stateMutability": "view",
      "type": "function"
    },
    {
      "inputs": [],
      "name": "refund",
      "outputs": [],
      "stateMutability": "nonpayable",
      "type": "function"
    },
    {
      "inputs": [],
      "name": "refundCollateral",
      "outputs": [],
      "stateMutability": "nonpayable",
      "type": "function"
    },
    {
      "inputs": [
        {
          "internalType": "address",
          "name": "addr",
          "type": "address"
        }
      ],
      "name": "refundableOf",
      "outputs": [
        {
          "internalType": "uint256",
          "name": "refundable",
          "type": "uint256"
        }
      ],
      "stateMutability": "view",
      "type": "function"
    },
    {
      "inputs": [],
      "name": "renounceOwnership",
      "outputs": [],
      "stateMutability": "nonpayable",
      "type": "function"
    },
    {
      "inputs": [
        {
          "internalType": "bytes32",
          "name": "role",
          "type": "bytes32"
        },
        {
          "internalType": "address",
          "name": "account",
          "type": "address"
        }
      ],
      "name": "renounceRole",
      "outputs": [],
      "stateMutability": "nonpayable",
      "type": "function"
    },
    {
      "inputs": [],
      "name": "returnUnsold",
      "outputs": [],
      "stateMutability": "nonpayable",
      "type": "function"
    },
    {
      "inputs": [],
      "name": "returnable",
      "outputs": [
        {
          "internalType": "uint256",
          "name": "",
          "type": "uint256"
        }
      ],
      "stateMutability": "view",
      "type": "function"
    },
    {
      "inputs": [
        {
          "internalType": "bytes32",
          "name": "role",
          "type": "bytes32"
        },
        {
          "internalType": "address",
          "name": "account",
          "type": "address"
        }
      ],
      "name": "revokeRole",
      "outputs": [],
      "stateMutability": "nonpayable",
      "type": "function"
    },
    {
      "inputs": [
        {
          "internalType": "bytes4",
          "name": "interfaceId",
          "type": "bytes4"
        }
      ],
      "name": "supportsInterface",
      "outputs": [
        {
          "internalType": "bool",
          "name": "",
          "type": "bool"
        }
      ],
      "stateMutability": "view",
      "type": "function"
    },
    {
      "inputs": [
        {
          "internalType": "address",
          "name": "newOwner",
          "type": "address"
        }
      ],
      "name": "transferOwnership",
      "outputs": [],
      "stateMutability": "nonpayable",
      "type": "function"
    },
    {
      "inputs": [],
      "name": "unpause",
      "outputs": [],
      "stateMutability": "nonpayable",
      "type": "function"
    },
    {
      "inputs": [],
      "name": "withdraw",
      "outputs": [],
      "stateMutability": "nonpayable",
      "type": "function"
    },
    {
      "inputs": [],
      "name": "withdrawable",
      "outputs": [
        {
          "internalType": "uint256",
          "name": "",
          "type": "uint256"
        }
      ],
      "stateMutability": "view",
      "type": "function"
    }
  ],
  "bytecode": "0x60806040527f54b0854ed6979a3aeff7348aa2e79dc669787b689f50f6d4142c6ab13f8adff26010553480156200003557600080fd5b50604051620048873803806200488783398181016040528101906200005b919062000761565b80826200007d620000716200019e60201b60201c565b620001a660201b60201c565b60008060146101000a81548160ff02191690831515021790555080600160008201518160000160006101000a81548173ffffffffffffffffffffffffffffffffffffffff021916908373ffffffffffffffffffffffffffffffffffffffff1602179055506020820151816001015560408201518160020155606082015181600301556080820151816004015560a0820151816005015560c08201518160060155905050506001600f8190555080601160008201518160000160006101000a81548173ffffffffffffffffffffffffffffffffffffffff021916908373ffffffffffffffffffffffffffffffffffffffff1602179055506020820151816001015590505050620001966000801b336200026a60201b60201c565b5050620007a9565b600033905090565b60008060009054906101000a900473ffffffffffffffffffffffffffffffffffffffff169050816000806101000a81548173ffffffffffffffffffffffffffffffffffffffff021916908373ffffffffffffffffffffffffffffffffffffffff1602179055508173ffffffffffffffffffffffffffffffffffffffff168173ffffffffffffffffffffffffffffffffffffffff167f8be0079c531659141344cd1fd0a4f28419497f9722a3daafe3b4186f6b6457e060405160405180910390a35050565b620002818282620002b260201b62001d3e1760201c565b620002ad81600e6000858152602001908152602001600020620003a460201b62001e1f1790919060201c565b505050565b620002c48282620003dc60201b60201c565b620003a0576001600d600084815260200190815260200160002060000160008373ffffffffffffffffffffffffffffffffffffffff1673ffffffffffffffffffffffffffffffffffffffff16815260200190815260200160002060006101000a81548160ff021916908315150217905550620003456200019e60201b60201c565b73ffffffffffffffffffffffffffffffffffffffff168173ffffffffffffffffffffffffffffffffffffffff16837f2f8788117e7eff1d82e926ec794901d17c78024a50270940304540a733656f0d60405160405180910390a45b5050565b6000620003d4836000018373ffffffffffffffffffffffffffffffffffffffff1660001b6200044760201b60201c565b905092915050565b6000600d600084815260200190815260200160002060000160008373ffffffffffffffffffffffffffffffffffffffff1673ffffffffffffffffffffffffffffffffffffffff16815260200190815260200160002060009054906101000a900460ff16905092915050565b60006200045b8383620004c160201b60201c565b620004b6578260000182908060018154018082558091505060019003906000526020600020016000909190919091505582600001805490508360010160008481526020019081526020016000208190555060019050620004bb565b600090505b92915050565b600080836001016000848152602001908152602001600020541415905092915050565b6000604051905090565b600080fd5b600080fd5b6000601f19601f8301169050919050565b7f4e487b7100000000000000000000000000000000000000000000000000000000600052604160045260246000fd5b6200054382620004f8565b810181811067ffffffffffffffff8211171562000565576200056462000509565b5b80604052505050565b60006200057a620004e4565b905062000588828262000538565b919050565b600073ffffffffffffffffffffffffffffffffffffffff82169050919050565b6000620005ba826200058d565b9050919050565b6000620005ce82620005ad565b9050919050565b620005e081620005c1565b8114620005ec57600080fd5b50565b6000815190506200060081620005d5565b92915050565b6000819050919050565b6200061b8162000606565b81146200062757600080fd5b50565b6000815190506200063b8162000610565b92915050565b600060e082840312156200065a5762000659620004f3565b5b6200066660e06200056e565b905060006200067884828501620005ef565b60008301525060206200068e848285016200062a565b6020830152506040620006a4848285016200062a565b6040830152506060620006ba848285016200062a565b6060830152506080620006d0848285016200062a565b60808301525060a0620006e6848285016200062a565b60a08301525060c0620006fc848285016200062a565b60c08301525092915050565b600060408284031215620007215762000720620004f3565b5b6200072d60406200056e565b905060006200073f84828501620005ef565b600083015250602062000755848285016200062a565b60208301525092915050565b60008061012083850312156200077c576200077b620004ee565b5b60006200078c8582860162000641565b92505060e06200079f8582860162000708565b9150509250929050565b6140ce80620007b96000396000f3fe6080604052600436106101ee5760003560e01c80635feb61911161010d57806391d14854116100a0578063b2ea088d1161006f578063b2ea088d1461067d578063ca15c87314610694578063d547741f146106d1578063d7bb99ba146106fa578063f2fde38b14610704576101ee565b806391d14854146105ad578063a217fddf146105ea578063a5ea11da14610615578063b22163e314610640576101ee565b80638903ab9d116100dc5780638903ab9d146104f15780638da5cb5b1461052e5780638f705903146105595780639010d07c14610570576101ee565b80635feb61911461046d5780636b4169c314610498578063715018a6146104c35780638456cb59146104da576101ee565b806336568abe116101855780634e71d92d116101545780634e71d92d146103e95780635018830114610400578063590e1ae31461042b5780635c975abb14610442576101ee565b806336568abe146103675780633ccfd60b146103905780633f4ba83a146103a75780634da56a6f146103be576101ee565b8063248a9ca3116101c1578063248a9ca3146102ad5780632bf9935d146102ea5780632e0bcb43146103135780632f2ff15d1461033e576101ee565b806301ffc9a7146101f35780630fcc56f7146102305780631ae755ee146102595780632098b7ff14610296575b600080fd5b3480156101ff57600080fd5b5061021a60048036038101906102159190612db1565b61072d565b6040516102279190612df9565b60405180910390f35b34801561023c57600080fd5b5061025760048036038101906102529190612e4a565b6107a7565b005b34801561026557600080fd5b50610280600480360381019061027b9190612ed5565b61089d565b60405161028d9190612f53565b60405180910390f35b3480156102a257600080fd5b506102ab610914565b005b3480156102b957600080fd5b506102d460048036038101906102cf9190612fa4565b610aeb565b6040516102e19190612fe0565b60405180910390f35b3480156102f657600080fd5b50610311600480360381019061030c9190612e4a565b610b0b565b005b34801561031f57600080fd5b50610328610bda565b6040516103359190613089565b60405180910390f35b34801561034a57600080fd5b50610365600480360381019061036091906130a4565b610c54565b005b34801561037357600080fd5b5061038e600480360381019061038991906130a4565b610c7d565b005b34801561039c57600080fd5b506103a5610d00565b005b3480156103b357600080fd5b506103bc610e9f565b005b3480156103ca57600080fd5b506103d3610f25565b6040516103e091906130f3565b60405180910390f35b3480156103f557600080fd5b506103fe610f9d565b005b34801561040c57600080fd5b50610415611141565b60405161042291906130f3565b60405180910390f35b34801561043757600080fd5b5061044061119f565b005b34801561044e57600080fd5b50610457611395565b6040516104649190612df9565b60405180910390f35b34801561047957600080fd5b506104826113ab565b60405161048f9190612fe0565b60405180910390f35b3480156104a457600080fd5b506104ad6113b1565b6040516104ba9190613163565b60405180910390f35b3480156104cf57600080fd5b506104d86113f3565b005b3480156104e657600080fd5b506104ef61147b565b005b3480156104fd57600080fd5b5061051860048036038101906105139190612ed5565b611501565b60405161052591906130f3565b60405180910390f35b34801561053a57600080fd5b50610543611551565b604051610550919061318d565b60405180910390f35b34801561056557600080fd5b5061056e61157a565b005b34801561057c57600080fd5b50610597600480360381019061059291906131a8565b611753565b6040516105a4919061318d565b60405180910390f35b3480156105b957600080fd5b506105d460048036038101906105cf91906130a4565b611782565b6040516105e19190612df9565b60405180910390f35b3480156105f657600080fd5b506105ff6117ed565b60405161060c9190612fe0565b60405180910390f35b34801561062157600080fd5b5061062a6117f4565b6040516106379190613276565b60405180910390f35b34801561064c57600080fd5b5061066760048036038101906106629190612ed5565b6118a0565b60405161067491906130f3565b60405180910390f35b34801561068957600080fd5b506106926118f0565b005b3480156106a057600080fd5b506106bb60048036038101906106b69190612fa4565b611a68565b6040516106c891906130f3565b60405180910390f35b3480156106dd57600080fd5b506106f860048036038101906106f391906130a4565b611a8c565b005b610702611ab5565b005b34801561071057600080fd5b5061072b60048036038101906107269190612ed5565b611c46565b005b60007f5a05180f000000000000000000000000000000000000000000000000000000007bffffffffffffffffffffffffffffffffffffffffffffffffffffffff1916827bffffffffffffffffffffffffffffffffffffffffffffffffffffffff191614806107a0575061079f82611e4f565b5b9050919050565b6107af611ec9565b73ffffffffffffffffffffffffffffffffffffffff166107cd611551565b73ffffffffffffffffffffffffffffffffffffffff1614610823576040517f08c379a000000000000000000000000000000000000000000000000000000000815260040161081a906132ee565b60405180910390fd5b60003373ffffffffffffffffffffffffffffffffffffffff16826040516108499061333f565b60006040518083038185875af1925050503d8060008114610886576040519150601f19603f3d011682016040523d82523d6000602084013e61088b565b606091505b505090508061089957600080fd5b5050565b6108a5612c88565b600c60008373ffffffffffffffffffffffffffffffffffffffff1673ffffffffffffffffffffffffffffffffffffffff16815260200190815260200160002060405180606001604052908160008201548152602001600182015481526020016002820154815250509050919050565b6002600f54141561095a576040517f08c379a0000000000000000000000000000000000000000000000000000000008152600401610951906133a0565b60405180910390fd5b6002600f819055506001600401544210156109aa576040517f08c379a00000000000000000000000000000000000000000000000000000000081526004016109a19061340c565b60405180910390fd5b6109b660105433611782565b6109f5576040517f08c379a00000000000000000000000000000000000000000000000000000000081526004016109ec90613478565b60405180910390fd5b601160000160009054906101000a900473ffffffffffffffffffffffffffffffffffffffff1673ffffffffffffffffffffffffffffffffffffffff1663a9059cbb336011600101546040518363ffffffff1660e01b8152600401610a5a929190613498565b6020604051808303816000875af1158015610a79573d6000803e3d6000fd5b505050506040513d601f19601f82011682018060405250810190610a9d91906134ed565b50610aaa60105433611ed1565b7fac1020c5e021e2c2aefe4cf6c0f77fab9c73174ad863b68f51e1abe8b7de0fa233604051610ad9919061318d565b60405180910390a16001600f81905550565b6000600d6000838152602001908152602001600020600101549050919050565b610b13611ec9565b73ffffffffffffffffffffffffffffffffffffffff16610b31611551565b73ffffffffffffffffffffffffffffffffffffffff1614610b87576040517f08c379a0000000000000000000000000000000000000000000000000000000008152600401610b7e906132ee565b60405180910390fd5b610bd73382600160000160009054906101000a900473ffffffffffffffffffffffffffffffffffffffff1673ffffffffffffffffffffffffffffffffffffffff16611f059092919063ffffffff16565b50565b610be2612ca9565b60116040518060400160405290816000820160009054906101000a900473ffffffffffffffffffffffffffffffffffffffff1673ffffffffffffffffffffffffffffffffffffffff1673ffffffffffffffffffffffffffffffffffffffff168152602001600182015481525050905090565b610c5d82610aeb565b610c6e81610c69611ec9565b611f8b565b610c788383612028565b505050565b610c85611ec9565b73ffffffffffffffffffffffffffffffffffffffff168173ffffffffffffffffffffffffffffffffffffffff1614610cf2576040517f08c379a0000000000000000000000000000000000000000000000000000000008152600401610ce99061358c565b60405180910390fd5b610cfc8282611ed1565b5050565b610d08611ec9565b73ffffffffffffffffffffffffffffffffffffffff16610d26611551565b73ffffffffffffffffffffffffffffffffffffffff1614610d7c576040517f08c379a0000000000000000000000000000000000000000000000000000000008152600401610d73906132ee565b60405180910390fd5b600160040154421015610dc4576040517f08c379a0000000000000000000000000000000000000000000000000000000008152600401610dbb9061340c565b60405180910390fd5b6000610dce611141565b90508060086002016000828254610de591906135db565b9250508190555060003373ffffffffffffffffffffffffffffffffffffffff1682604051610e129061333f565b60006040518083038185875af1925050503d8060008114610e4f576040519150601f19603f3d011682016040523d82523d6000602084013e610e54565b606091505b5050905080610e6257600080fd5b7f7084f5476618d8e60b11ef0d7d3f06914655adb8793e28ff7f018d4c76d505d53383604051610e93929190613498565b60405180910390a15050565b610ea7611ec9565b73ffffffffffffffffffffffffffffffffffffffff16610ec5611551565b73ffffffffffffffffffffffffffffffffffffffff1614610f1b576040517f08c379a0000000000000000000000000000000000000000000000000000000008152600401610f12906132ee565b60405180910390fd5b610f2361205c565b565b6000600160040154421015610f3d5760009050610f9a565b610f456120fd565b15610f535760009050610f9a565b6008600301546001600201546008600001546001800154610f749190613631565b610f7e91906136ba565b6001800154610f8d91906136eb565b610f9791906136eb565b90505b90565b610fa5611395565b15610fe5576040517f08c379a0000000000000000000000000000000000000000000000000000000008152600401610fdc9061376b565b60405180910390fd5b60016005015442101561102d576040517f08c379a0000000000000000000000000000000000000000000000000000000008152600401611024906137d7565b60405180910390fd5b6000600c60003373ffffffffffffffffffffffffffffffffffffffff1673ffffffffffffffffffffffffffffffffffffffff1681526020019081526020016000209050600061107b82612111565b90508082600101600082825461109191906135db565b9250508190555080600860010160008282546110ad91906135db565b925050819055506111043382600160000160009054906101000a900473ffffffffffffffffffffffffffffffffffffffff1673ffffffffffffffffffffffffffffffffffffffff16611f059092919063ffffffff16565b7fd8138f8a3f377c5259ca548e70e4c2de94f129f5a11036a15b69513cba2b426a3382604051611135929190613498565b60405180910390a15050565b6000600160040154421015611159576000905061119c565b6111616120fd565b156111835760086002015460016002015461117c91906136eb565b905061119c565b60086002015460086000015461119991906136eb565b90505b90565b6111a7611395565b156111e7576040517f08c379a00000000000000000000000000000000000000000000000000000000081526004016111de9061376b565b60405180910390fd5b60016004015442101561122f576040517f08c379a00000000000000000000000000000000000000000000000000000000081526004016112269061340c565b60405180910390fd5b6112376120fd565b611276576040517f08c379a000000000000000000000000000000000000000000000000000000000815260040161126d90613843565b60405180910390fd5b6000600c60003373ffffffffffffffffffffffffffffffffffffffff1673ffffffffffffffffffffffffffffffffffffffff168152602001908152602001600020905060006112c482612205565b9050808260020160008282546112da91906135db565b9250508190555060003373ffffffffffffffffffffffffffffffffffffffff16826040516113079061333f565b60006040518083038185875af1925050503d8060008114611344576040519150601f19603f3d011682016040523d82523d6000602084013e611349565b606091505b505090508061135757600080fd5b7fd7dee2702d63ad89917b6a4da9981c90c4d24f8c2bdfd64c604ecae57d8d06513383604051611388929190613498565b60405180910390a1505050565b60008060149054906101000a900460ff16905090565b60105481565b6113b9612cd9565b6008604051806080016040529081600082015481526020016001820154815260200160028201548152602001600382015481525050905090565b6113fb611ec9565b73ffffffffffffffffffffffffffffffffffffffff16611419611551565b73ffffffffffffffffffffffffffffffffffffffff161461146f576040517f08c379a0000000000000000000000000000000000000000000000000000000008152600401611466906132ee565b60405180910390fd5b611479600061227d565b565b611483611ec9565b73ffffffffffffffffffffffffffffffffffffffff166114a1611551565b73ffffffffffffffffffffffffffffffffffffffff16146114f7576040517f08c379a00000000000000000000000000000000000000000000000000000000081526004016114ee906132ee565b60405180910390fd5b6114ff612341565b565b600061154a600c60008473ffffffffffffffffffffffffffffffffffffffff1673ffffffffffffffffffffffffffffffffffffffff168152602001908152602001600020612111565b9050919050565b60008060009054906101000a900473ffffffffffffffffffffffffffffffffffffffff16905090565b6002600f5414156115c0576040517f08c379a00000000000000000000000000000000000000000000000000000000081526004016115b7906133a0565b60405180910390fd5b6002600f81905550600160030154421061160f576040517f08c379a0000000000000000000000000000000000000000000000000000000008152600401611606906138d5565b60405180910390fd5b61161b60105433611782565b1561165b576040517f08c379a000000000000000000000000000000000000000000000000000000000815260040161165290613941565b60405180910390fd5b601160000160009054906101000a900473ffffffffffffffffffffffffffffffffffffffff1673ffffffffffffffffffffffffffffffffffffffff166323b872dd33306011600101546040518463ffffffff1660e01b81526004016116c293929190613961565b6020604051808303816000875af11580156116e1573d6000803e3d6000fd5b505050506040513d601f19601f8201168201806040525081019061170591906134ed565b5061171260105433612028565b7fc0f50b8a17dd6fe159e4afcbffdf63a4ad6722c59a1aaa0697b9850953bd1a1b33604051611741919061318d565b60405180910390a16001600f81905550565b600061177a82600e60008681526020019081526020016000206123e490919063ffffffff16565b905092915050565b6000600d600084815260200190815260200160002060000160008373ffffffffffffffffffffffffffffffffffffffff1673ffffffffffffffffffffffffffffffffffffffff16815260200190815260200160002060009054906101000a900460ff16905092915050565b6000801b81565b6117fc612d01565b60016040518060e00160405290816000820160009054906101000a900473ffffffffffffffffffffffffffffffffffffffff1673ffffffffffffffffffffffffffffffffffffffff1673ffffffffffffffffffffffffffffffffffffffff1681526020016001820154815260200160028201548152602001600382015481526020016004820154815260200160058201548152602001600682015481525050905090565b60006118e9600c60008473ffffffffffffffffffffffffffffffffffffffff1673ffffffffffffffffffffffffffffffffffffffff168152602001908152602001600020612205565b9050919050565b6118f8611ec9565b73ffffffffffffffffffffffffffffffffffffffff16611916611551565b73ffffffffffffffffffffffffffffffffffffffff161461196c576040517f08c379a0000000000000000000000000000000000000000000000000000000008152600401611963906132ee565b60405180910390fd5b6001600401544210156119b4576040517f08c379a00000000000000000000000000000000000000000000000000000000081526004016119ab9061340c565b60405180910390fd5b60006119be610f25565b905080600860030160008282546119d591906135db565b92505081905550611a2c3382600160000160009054906101000a900473ffffffffffffffffffffffffffffffffffffffff1673ffffffffffffffffffffffffffffffffffffffff16611f059092919063ffffffff16565b7fdd81098bbc043431d4a440ca8823673fd1129893ab79f9838df4cf3d5e3812593382604051611a5d929190613498565b60405180910390a150565b6000611a85600e60008481526020019081526020016000206123fe565b9050919050565b611a9582610aeb565b611aa681611aa1611ec9565b611f8b565b611ab08383611ed1565b505050565b611abd611395565b15611afd576040517f08c379a0000000000000000000000000000000000000000000000000000000008152600401611af49061376b565b60405180910390fd5b600160030154421015611b45576040517f08c379a0000000000000000000000000000000000000000000000000000000008152600401611b3c906139e4565b60405180910390fd5b6001600401544210611b8c576040517f08c379a0000000000000000000000000000000000000000000000000000000008152600401611b8390613a50565b60405180910390fd5b611b963334612413565b34600c60003373ffffffffffffffffffffffffffffffffffffffff1673ffffffffffffffffffffffffffffffffffffffff1681526020019081526020016000206000016000828254611be891906135db565b925050819055503460086000016000828254611c0491906135db565b925050819055507f62722348256371b5147820d6cad90c40fd2da1ccee18c3ed52c0bca5a61dbbab3334604051611c3c929190613498565b60405180910390a1565b611c4e611ec9565b73ffffffffffffffffffffffffffffffffffffffff16611c6c611551565b73ffffffffffffffffffffffffffffffffffffffff1614611cc2576040517f08c379a0000000000000000000000000000000000000000000000000000000008152600401611cb9906132ee565b60405180910390fd5b600073ffffffffffffffffffffffffffffffffffffffff168173ffffffffffffffffffffffffffffffffffffffff161415611d32576040517f08c379a0000000000000000000000000000000000000000000000000000000008152600401611d2990613ae2565b60405180910390fd5b611d3b8161227d565b50565b611d488282611782565b611e1b576001600d600084815260200190815260200160002060000160008373ffffffffffffffffffffffffffffffffffffffff1673ffffffffffffffffffffffffffffffffffffffff16815260200190815260200160002060006101000a81548160ff021916908315150217905550611dc0611ec9565b73ffffffffffffffffffffffffffffffffffffffff168173ffffffffffffffffffffffffffffffffffffffff16837f2f8788117e7eff1d82e926ec794901d17c78024a50270940304540a733656f0d60405160405180910390a45b5050565b6000611e47836000018373ffffffffffffffffffffffffffffffffffffffff1660001b61246c565b905092915050565b60007f7965db0b000000000000000000000000000000000000000000000000000000007bffffffffffffffffffffffffffffffffffffffffffffffffffffffff1916827bffffffffffffffffffffffffffffffffffffffffffffffffffffffff19161480611ec25750611ec1826124dc565b5b9050919050565b600033905090565b611edb8282612546565b611f0081600e600085815260200190815260200160002061262890919063ffffffff16565b505050565b611f868363a9059cbb60e01b8484604051602401611f24929190613498565b604051602081830303815290604052907bffffffffffffffffffffffffffffffffffffffffffffffffffffffff19166020820180517bffffffffffffffffffffffffffffffffffffffffffffffffffffffff8381831617835250505050612658565b505050565b611f958282611782565b61202457611fba8173ffffffffffffffffffffffffffffffffffffffff16601461271f565b611fc88360001c602061271f565b604051602001611fd9929190613c14565b6040516020818303038152906040526040517f08c379a000000000000000000000000000000000000000000000000000000000815260040161201b9190613c98565b60405180910390fd5b5050565b6120328282611d3e565b61205781600e6000858152602001908152602001600020611e1f90919063ffffffff16565b505050565b612064611395565b6120a3576040517f08c379a000000000000000000000000000000000000000000000000000000000815260040161209a90613d06565b60405180910390fd5b60008060146101000a81548160ff0219169083151502179055507f5db9ee0a495bf2e6ff9c91a7834c1ba4fdd244a5e8aa4e537bd38aeae4b073aa6120e6611ec9565b6040516120f3919061318d565b60405180910390a1565b600060016002015460086000015411905090565b60006001600501544210156121295760009050612200565b60006001600501544261213c91906136eb565b9050600060016005015460016006015461215691906136eb565b9050600081831115612168578161216a565b825b905060006121766120fd565b156121a657600860000154600180015487600001546121959190613631565b61219f91906136ba565b90506121cd565b600180015460016002015487600001546121c09190613631565b6121ca91906136ba565b90505b60008383836121dc9190613631565b6121e691906136ba565b90508660010154816121f891906136eb565b955050505050505b919050565b600060016004015442101561221d5760009050612278565b6122256120fd565b6122325760009050612278565b816002015460086000015460016002015484600001546122529190613631565b61225c91906136ba565b836000015461226b91906136eb565b61227591906136eb565b90505b919050565b60008060009054906101000a900473ffffffffffffffffffffffffffffffffffffffff169050816000806101000a81548173ffffffffffffffffffffffffffffffffffffffff021916908373ffffffffffffffffffffffffffffffffffffffff1602179055508173ffffffffffffffffffffffffffffffffffffffff168173ffffffffffffffffffffffffffffffffffffffff167f8be0079c531659141344cd1fd0a4f28419497f9722a3daafe3b4186f6b6457e060405160405180910390a35050565b612349611395565b15612389576040517f08c379a00000000000000000000000000000000000000000000000000000000081526004016123809061376b565b60405180910390fd5b6001600060146101000a81548160ff0219169083151502179055507f62e78cea01bee320cd4e420270b5ea74000d11b0c9f74754ebdbfc544b05a2586123cd611ec9565b6040516123da919061318d565b60405180910390a1565b60006123f3836000018361295b565b60001c905092915050565b600061240c82600001612986565b9050919050565b61241f60105483611782565b61245e576040517f08c379a000000000000000000000000000000000000000000000000000000000815260040161245590613d72565b60405180910390fd5b6124688282612997565b5050565b6000612478838361299b565b6124d15782600001829080600181540180825580915050600190039060005260206000200160009091909190915055826000018054905083600101600084815260200190815260200160002081905550600190506124d6565b600090505b92915050565b60007f01ffc9a7000000000000000000000000000000000000000000000000000000007bffffffffffffffffffffffffffffffffffffffffffffffffffffffff1916827bffffffffffffffffffffffffffffffffffffffffffffffffffffffff1916149050919050565b6125508282611782565b15612624576000600d600084815260200190815260200160002060000160008373ffffffffffffffffffffffffffffffffffffffff1673ffffffffffffffffffffffffffffffffffffffff16815260200190815260200160002060006101000a81548160ff0219169083151502179055506125c9611ec9565b73ffffffffffffffffffffffffffffffffffffffff168173ffffffffffffffffffffffffffffffffffffffff16837ff6391f5c32d9c69d2a47ea670b442974b53935d1edc7fd64eb21e047a839171b60405160405180910390a45b5050565b6000612650836000018373ffffffffffffffffffffffffffffffffffffffff1660001b6129be565b905092915050565b60006126ba826040518060400160405280602081526020017f5361666545524332303a206c6f772d6c6576656c2063616c6c206661696c65648152508573ffffffffffffffffffffffffffffffffffffffff16612ad29092919063ffffffff16565b905060008151111561271a57808060200190518101906126da91906134ed565b612719576040517f08c379a000000000000000000000000000000000000000000000000000000000815260040161271090613e04565b60405180910390fd5b5b505050565b6060600060028360026127329190613631565b61273c91906135db565b67ffffffffffffffff81111561275557612754613e24565b5b6040519080825280601f01601f1916602001820160405280156127875781602001600182028036833780820191505090505b5090507f3000000000000000000000000000000000000000000000000000000000000000816000815181106127bf576127be613e53565b5b60200101907effffffffffffffffffffffffffffffffffffffffffffffffffffffffffffff1916908160001a9053507f78000000000000000000000000000000000000000000000000000000000000008160018151811061282357612822613e53565b5b60200101907effffffffffffffffffffffffffffffffffffffffffffffffffffffffffffff1916908160001a905350600060018460026128639190613631565b61286d91906135db565b90505b600181111561290d577f3031323334353637383961626364656600000000000000000000000000000000600f8616601081106128af576128ae613e53565b5b1a60f81b8282815181106128c6576128c5613e53565b5b60200101907effffffffffffffffffffffffffffffffffffffffffffffffffffffffffffff1916908160001a905350600485901c94508061290690613e82565b9050612870565b5060008414612951576040517f08c379a000000000000000000000000000000000000000000000000000000000815260040161294890613ef8565b60405180910390fd5b8091505092915050565b600082600001828154811061297357612972613e53565b5b9060005260206000200154905092915050565b600081600001805490509050919050565b5050565b600080836001016000848152602001908152602001600020541415905092915050565b60008083600101600084815260200190815260200160002054905060008114612ac65760006001826129f091906136eb565b9050600060018660000180549050612a0891906136eb565b9050818114612a77576000866000018281548110612a2957612a28613e53565b5b9060005260206000200154905080876000018481548110612a4d57612a4c613e53565b5b90600052602060002001819055508387600101600083815260200190815260200160002081905550505b85600001805480612a8b57612a8a613f18565b5b600190038181906000526020600020016000905590558560010160008681526020019081526020016000206000905560019350505050612acc565b60009150505b92915050565b6060612ae18484600085612aea565b90509392505050565b606082471015612b2f576040517f08c379a0000000000000000000000000000000000000000000000000000000008152600401612b2690613fb9565b60405180910390fd5b612b3885612bfe565b612b77576040517f08c379a0000000000000000000000000000000000000000000000000000000008152600401612b6e90614025565b60405180910390fd5b6000808673ffffffffffffffffffffffffffffffffffffffff168587604051612ba09190614081565b60006040518083038185875af1925050503d8060008114612bdd576040519150601f19603f3d011682016040523d82523d6000602084013e612be2565b606091505b5091509150612bf2828286612c21565b92505050949350505050565b6000808273ffffffffffffffffffffffffffffffffffffffff163b119050919050565b60608315612c3157829050612c81565b600083511115612c445782518084602001fd5b816040517f08c379a0000000000000000000000000000000000000000000000000000000008152600401612c789190613c98565b60405180910390fd5b9392505050565b60405180606001604052806000815260200160008152602001600081525090565b6040518060400160405280600073ffffffffffffffffffffffffffffffffffffffff168152602001600081525090565b6040518060800160405280600081526020016000815260200160008152602001600081525090565b6040518060e00160405280600073ffffffffffffffffffffffffffffffffffffffff1681526020016000815260200160008152602001600081526020016000815260200160008152602001600081525090565b600080fd5b60007fffffffff0000000000000000000000000000000000000000000000000000000082169050919050565b612d8e81612d59565b8114612d9957600080fd5b50565b600081359050612dab81612d85565b92915050565b600060208284031215612dc757612dc6612d54565b5b6000612dd584828501612d9c565b91505092915050565b60008115159050919050565b612df381612dde565b82525050565b6000602082019050612e0e6000830184612dea565b92915050565b6000819050919050565b612e2781612e14565b8114612e3257600080fd5b50565b600081359050612e4481612e1e565b92915050565b600060208284031215612e6057612e5f612d54565b5b6000612e6e84828501612e35565b91505092915050565b600073ffffffffffffffffffffffffffffffffffffffff82169050919050565b6000612ea282612e77565b9050919050565b612eb281612e97565b8114612ebd57600080fd5b50565b600081359050612ecf81612ea9565b92915050565b600060208284031215612eeb57612eea612d54565b5b6000612ef984828501612ec0565b91505092915050565b612f0b81612e14565b82525050565b606082016000820151612f276000850182612f02565b506020820151612f3a6020850182612f02565b506040820151612f4d6040850182612f02565b50505050565b6000606082019050612f686000830184612f11565b92915050565b6000819050919050565b612f8181612f6e565b8114612f8c57600080fd5b50565b600081359050612f9e81612f78565b92915050565b600060208284031215612fba57612fb9612d54565b5b6000612fc884828501612f8f565b91505092915050565b612fda81612f6e565b82525050565b6000602082019050612ff56000830184612fd1565b92915050565b6000819050919050565b600061302061301b61301684612e77565b612ffb565b612e77565b9050919050565b600061303282613005565b9050919050565b600061304482613027565b9050919050565b61305481613039565b82525050565b604082016000820151613070600085018261304b565b5060208201516130836020850182612f02565b50505050565b600060408201905061309e600083018461305a565b92915050565b600080604083850312156130bb576130ba612d54565b5b60006130c985828601612f8f565b92505060206130da85828601612ec0565b9150509250929050565b6130ed81612e14565b82525050565b600060208201905061310860008301846130e4565b92915050565b6080820160008201516131246000850182612f02565b5060208201516131376020850182612f02565b50604082015161314a6040850182612f02565b50606082015161315d6060850182612f02565b50505050565b6000608082019050613178600083018461310e565b92915050565b61318781612e97565b82525050565b60006020820190506131a2600083018461317e565b92915050565b600080604083850312156131bf576131be612d54565b5b60006131cd85828601612f8f565b92505060206131de85828601612e35565b9150509250929050565b60e0820160008201516131fe600085018261304b565b5060208201516132116020850182612f02565b5060408201516132246040850182612f02565b5060608201516132376060850182612f02565b50608082015161324a6080850182612f02565b5060a082015161325d60a0850182612f02565b5060c082015161327060c0850182612f02565b50505050565b600060e08201905061328b60008301846131e8565b92915050565b600082825260208201905092915050565b7f4f776e61626c653a2063616c6c6572206973206e6f7420746865206f776e6572600082015250565b60006132d8602083613291565b91506132e3826132a2565b602082019050919050565b60006020820190508181036000830152613307816132cb565b9050919050565b600081905092915050565b50565b600061332960008361330e565b915061333482613319565b600082019050919050565b600061334a8261331c565b9150819050919050565b7f5265656e7472616e637947756172643a207265656e7472616e742063616c6c00600082015250565b600061338a601f83613291565b915061339582613354565b602082019050919050565b600060208201905081810360008301526133b98161337d565b9050919050565b7f427579696e6720686173206e6f7420656e646564207965742e00000000000000600082015250565b60006133f6601983613291565b9150613401826133c0565b602082019050919050565b60006020820190508181036000830152613425816133e9565b9050919050565b7f4e6f7420636f6c6c61746572616c697365642e00000000000000000000000000600082015250565b6000613462601383613291565b915061346d8261342c565b602082019050919050565b6000602082019050818103600083015261349181613455565b9050919050565b60006040820190506134ad600083018561317e565b6134ba60208301846130e4565b9392505050565b6134ca81612dde565b81146134d557600080fd5b50565b6000815190506134e7816134c1565b92915050565b60006020828403121561350357613502612d54565b5b6000613511848285016134d8565b91505092915050565b7f416363657373436f6e74726f6c3a2063616e206f6e6c792072656e6f756e636560008201527f20726f6c657320666f722073656c660000000000000000000000000000000000602082015250565b6000613576602f83613291565b91506135818261351a565b604082019050919050565b600060208201905081810360008301526135a581613569565b9050919050565b7f4e487b7100000000000000000000000000000000000000000000000000000000600052601160045260246000fd5b60006135e682612e14565b91506135f183612e14565b9250827fffffffffffffffffffffffffffffffffffffffffffffffffffffffffffffffff03821115613626576136256135ac565b5b828201905092915050565b600061363c82612e14565b915061364783612e14565b9250817fffffffffffffffffffffffffffffffffffffffffffffffffffffffffffffffff04831182151516156136805761367f6135ac565b5b828202905092915050565b7f4e487b7100000000000000000000000000000000000000000000000000000000600052601260045260246000fd5b60006136c582612e14565b91506136d083612e14565b9250826136e0576136df61368b565b5b828204905092915050565b60006136f682612e14565b915061370183612e14565b925082821015613714576137136135ac565b5b828203905092915050565b7f5061757361626c653a2070617573656400000000000000000000000000000000600082015250565b6000613755601083613291565b91506137608261371f565b602082019050919050565b6000602082019050818103600083015261378481613748565b9050919050565b7f56657374696e6720686173206e6f7420626567756e207965742e000000000000600082015250565b60006137c1601a83613291565b91506137cc8261378b565b602082019050919050565b600060208201905081810360008301526137f0816137b4565b9050919050565b7f546865726520776173206e6f206f766572666c6f772e00000000000000000000600082015250565b600061382d601683613291565b9150613838826137f7565b602082019050919050565b6000602082019050818103600083015261385c81613820565b9050919050565b7f43616e6e6f7420636f6c6c61746572616c69736520616674657220627579696e60008201527f67207374617274732e0000000000000000000000000000000000000000000000602082015250565b60006138bf602983613291565b91506138ca82613863565b604082019050919050565b600060208201905081810360008301526138ee816138b2565b9050919050565b7f416c726561647920636f6c6c61746572616c697365642e000000000000000000600082015250565b600061392b601783613291565b9150613936826138f5565b602082019050919050565b6000602082019050818103600083015261395a8161391e565b9050919050565b6000606082019050613976600083018661317e565b613983602083018561317e565b61399060408301846130e4565b949350505050565b7f427579696e6720686173206e6f7420626567756e207965742e00000000000000600082015250565b60006139ce601983613291565b91506139d982613998565b602082019050919050565b600060208201905081810360008301526139fd816139c1565b9050919050565b7f427579696e672068617320656e6465642e000000000000000000000000000000600082015250565b6000613a3a601183613291565b9150613a4582613a04565b602082019050919050565b60006020820190508181036000830152613a6981613a2d565b9050919050565b7f4f776e61626c653a206e6577206f776e657220697320746865207a65726f206160008201527f6464726573730000000000000000000000000000000000000000000000000000602082015250565b6000613acc602683613291565b9150613ad782613a70565b604082019050919050565b60006020820190508181036000830152613afb81613abf565b9050919050565b600081905092915050565b7f416363657373436f6e74726f6c3a206163636f756e7420000000000000000000600082015250565b6000613b43601783613b02565b9150613b4e82613b0d565b601782019050919050565b600081519050919050565b60005b83811015613b82578082015181840152602081019050613b67565b83811115613b91576000848401525b50505050565b6000613ba282613b59565b613bac8185613b02565b9350613bbc818560208601613b64565b80840191505092915050565b7f206973206d697373696e6720726f6c6520000000000000000000000000000000600082015250565b6000613bfe601183613b02565b9150613c0982613bc8565b601182019050919050565b6000613c1f82613b36565b9150613c2b8285613b97565b9150613c3682613bf1565b9150613c428284613b97565b91508190509392505050565b6000601f19601f8301169050919050565b6000613c6a82613b59565b613c748185613291565b9350613c84818560208601613b64565b613c8d81613c4e565b840191505092915050565b60006020820190508181036000830152613cb28184613c5f565b905092915050565b7f5061757361626c653a206e6f7420706175736564000000000000000000000000600082015250565b6000613cf0601483613291565b9150613cfb82613cba565b602082019050919050565b60006020820190508181036000830152613d1f81613ce3565b9050919050565b7f5573657220686173206e6f7420636f6c6c61746572616c697365642e00000000600082015250565b6000613d5c601c83613291565b9150613d6782613d26565b602082019050919050565b60006020820190508181036000830152613d8b81613d4f565b9050919050565b7f5361666545524332303a204552433230206f7065726174696f6e20646964206e60008201527f6f74207375636365656400000000000000000000000000000000000000000000602082015250565b6000613dee602a83613291565b9150613df982613d92565b604082019050919050565b60006020820190508181036000830152613e1d81613de1565b9050919050565b7f4e487b7100000000000000000000000000000000000000000000000000000000600052604160045260246000fd5b7f4e487b7100000000000000000000000000000000000000000000000000000000600052603260045260246000fd5b6000613e8d82612e14565b91506000821415613ea157613ea06135ac565b5b600182039050919050565b7f537472696e67733a20686578206c656e67746820696e73756666696369656e74600082015250565b6000613ee2602083613291565b9150613eed82613eac565b602082019050919050565b60006020820190508181036000830152613f1181613ed5565b9050919050565b7f4e487b7100000000000000000000000000000000000000000000000000000000600052603160045260246000fd5b7f416464726573733a20696e73756666696369656e742062616c616e636520666f60008201527f722063616c6c0000000000000000000000000000000000000000000000000000602082015250565b6000613fa3602683613291565b9150613fae82613f47565b604082019050919050565b60006020820190508181036000830152613fd281613f96565b9050919050565b7f416464726573733a2063616c6c20746f206e6f6e2d636f6e7472616374000000600082015250565b600061400f601d83613291565b915061401a82613fd9565b602082019050919050565b6000602082019050818103600083015261403e81614002565b9050919050565b600081519050919050565b600061405b82614045565b614065818561330e565b9350614075818560208601613b64565b80840191505092915050565b600061408d8284614050565b91508190509291505056fea26469706673582212202be8453a3a09993b9764e1eda6c7cd1b4a2bc932fc2e2a84aa2519be851bbd6b64736f6c634300080c0033",
  "linkReferences": {},
  "deployedLinkReferences": {}
}