{
  "_format": "hh-sol-artifact-1",
  "contractName": "IDOWithJustCollateral",
  "sourceName": "contracts/IDO/IDOWithJustCollateral.sol",
  "abi": [
    {
      "inputs": [
        {
          "components": [
            {
              "internalType": "contract IERC20",
              "name": "token",
              "type": "address"
            },
            {
              "internalType": "uint256",
              "name": "forSale",
              "type": "uint256"
            },
            {
              "internalType": "uint256",
              "name": "asking",
              "type": "uint256"
            },
            {
              "internalType": "uint256",
              "name": "buyingStartsAt",
              "type": "uint256"
            },
            {
              "internalType": "uint256",
              "name": "buyingEndsAt",
              "type": "uint256"
            },
            {
              "internalType": "uint256",
              "name": "vestingStartsAt",
              "type": "uint256"
            },
            {
              "internalType": "uint256",
              "name": "vestingEndsAt",
              "type": "uint256"
            }
          ],
          "internalType": "struct Parameters",
          "name": "parameters",
          "type": "tuple"
        },
        {
          "components": [
            {
              "internalType": "contract IERC20",
              "name": "token",
              "type": "address"
            },
            {
              "internalType": "uint256",
              "name": "amount",
              "type": "uint256"
            }
          ],
          "internalType": "struct CollateralInfo",
          "name": "collateralInfo",
          "type": "tuple"
        }
      ],
      "stateMutability": "nonpayable",
      "type": "constructor"
    },
    {
      "anonymous": false,
      "inputs": [
        {
          "indexed": false,
          "internalType": "address",
          "name": "addr",
          "type": "address"
        },
        {
          "indexed": false,
          "internalType": "uint256",
          "name": "amount",
          "type": "uint256"
        }
      ],
      "name": "Claimed",
      "type": "event"
    },
    {
      "anonymous": false,
      "inputs": [
        {
          "indexed": false,
          "internalType": "address",
          "name": "addr",
          "type": "address"
        }
      ],
      "name": "CollateralRefunded",
      "type": "event"
    },
    {
      "anonymous": false,
      "inputs": [
        {
          "indexed": false,
          "internalType": "address",
          "name": "addr",
          "type": "address"
        }
      ],
      "name": "Collateralised",
      "type": "event"
    },
    {
      "anonymous": false,
      "inputs": [
        {
          "indexed": false,
          "internalType": "address",
          "name": "addr",
          "type": "address"
        },
        {
          "indexed": false,
          "internalType": "uint256",
          "name": "amount",
          "type": "uint256"
        }
      ],
      "name": "Contributed",
      "type": "event"
    },
    {
      "anonymous": false,
      "inputs": [
        {
          "indexed": true,
          "internalType": "address",
          "name": "previousOwner",
          "type": "address"
        },
        {
          "indexed": true,
          "internalType": "address",
          "name": "newOwner",
          "type": "address"
        }
      ],
      "name": "OwnershipTransferred",
      "type": "event"
    },
    {
      "anonymous": false,
      "inputs": [
        {
          "indexed": false,
          "internalType": "address",
          "name": "account",
          "type": "address"
        }
      ],
      "name": "Paused",
      "type": "event"
    },
    {
      "anonymous": false,
      "inputs": [
        {
          "indexed": false,
          "internalType": "address",
          "name": "addr",
          "type": "address"
        },
        {
          "indexed": false,
          "internalType": "uint256",
          "name": "amount",
          "type": "uint256"
        }
      ],
      "name": "Refunded",
      "type": "event"
    },
    {
      "anonymous": false,
      "inputs": [
        {
          "indexed": false,
          "internalType": "address",
          "name": "addr",
          "type": "address"
        },
        {
          "indexed": false,
          "internalType": "uint256",
          "name": "amount",
          "type": "uint256"
        }
      ],
      "name": "Returned",
      "type": "event"
    },
    {
      "anonymous": false,
      "inputs": [
        {
          "indexed": true,
          "internalType": "bytes32",
          "name": "role",
          "type": "bytes32"
        },
        {
          "indexed": true,
          "internalType": "bytes32",
          "name": "previousAdminRole",
          "type": "bytes32"
        },
        {
          "indexed": true,
          "internalType": "bytes32",
          "name": "newAdminRole",
          "type": "bytes32"
        }
      ],
      "name": "RoleAdminChanged",
      "type": "event"
    },
    {
      "anonymous": false,
      "inputs": [
        {
          "indexed": true,
          "internalType": "bytes32",
          "name": "role",
          "type": "bytes32"
        },
        {
          "indexed": true,
          "internalType": "address",
          "name": "account",
          "type": "address"
        },
        {
          "indexed": true,
          "internalType": "address",
          "name": "sender",
          "type": "address"
        }
      ],
      "name": "RoleGranted",
      "type": "event"
    },
    {
      "anonymous": false,
      "inputs": [
        {
          "indexed": true,
          "internalType": "bytes32",
          "name": "role",
          "type": "bytes32"
        },
        {
          "indexed": true,
          "internalType": "address",
          "name": "account",
          "type": "address"
        },
        {
          "indexed": true,
          "internalType": "address",
          "name": "sender",
          "type": "address"
        }
      ],
      "name": "RoleRevoked",
      "type": "event"
    },
    {
      "anonymous": false,
      "inputs": [
        {
          "indexed": false,
          "internalType": "address",
          "name": "account",
          "type": "address"
        }
      ],
      "name": "Unpaused",
      "type": "event"
    },
    {
      "anonymous": false,
      "inputs": [
        {
          "indexed": false,
          "internalType": "address",
          "name": "addr",
          "type": "address"
        },
        {
          "indexed": false,
          "internalType": "uint256",
          "name": "amount",
          "type": "uint256"
        }
      ],
      "name": "Withdrawn",
      "type": "event"
    },
    {
      "inputs": [],
      "name": "COLLATERALISED_ROLE",
      "outputs": [
        {
          "internalType": "bytes32",
          "name": "",
          "type": "bytes32"
        }
      ],
      "stateMutability": "view",
      "type": "function"
    },
    {
      "inputs": [],
      "name": "DEFAULT_ADMIN_ROLE",
      "outputs": [
        {
          "internalType": "bytes32",
          "name": "",
          "type": "bytes32"
        }
      ],
      "stateMutability": "view",
      "type": "function"
    },
    {
      "inputs": [],
      "name": "claim",
      "outputs": [],
      "stateMutability": "nonpayable",
      "type": "function"
    },
    {
      "inputs": [
        {
          "internalType": "address",
          "name": "addr",
          "type": "address"
        }
      ],
      "name": "claimableOf",
      "outputs": [
        {
          "internalType": "uint256",
          "name": "claimable",
          "type": "uint256"
        }
      ],
      "stateMutability": "view",
      "type": "function"
    },
    {
      "inputs": [],
      "name": "collateralise",
      "outputs": [],
      "stateMutability": "nonpayable",
      "type": "function"
    },
    {
      "inputs": [],
      "name": "contribute",
      "outputs": [],
      "stateMutability": "payable",
      "type": "function"
    },
    {
      "inputs": [
        {
          "internalType": "uint256",
          "name": "amount",
          "type": "uint256"
        }
      ],
      "name": "forceReturn",
      "outputs": [],
      "stateMutability": "nonpayable",
      "type": "function"
    },
    {
      "inputs": [
        {
          "internalType": "uint256",
          "name": "amount",
          "type": "uint256"
        }
      ],
      "name": "forceWithdraw",
      "outputs": [],
      "stateMutability": "nonpayable",
      "type": "function"
    },
    {
      "inputs": [],
      "name": "getCollateralInfo",
      "outputs": [
        {
          "components": [
            {
              "internalType": "contract IERC20",
              "name": "token",
              "type": "address"
            },
            {
              "internalType": "uint256",
              "name": "amount",
              "type": "uint256"
            }
          ],
          "internalType": "struct CollateralInfo",
          "name": "",
          "type": "tuple"
        }
      ],
      "stateMutability": "view",
      "type": "function"
    },
    {
      "inputs": [],
      "name": "getGlobalStats",
      "outputs": [
        {
          "components": [
            {
              "internalType": "uint256",
              "name": "contributed",
              "type": "uint256"
            },
            {
              "internalType": "uint256",
              "name": "claimed",
              "type": "uint256"
            },
            {
              "internalType": "uint256",
              "name": "withdrawn",
              "type": "uint256"
            },
            {
              "internalType": "uint256",
              "name": "returned",
              "type": "uint256"
            }
          ],
          "internalType": "struct GlobalStats",
          "name": "",
          "type": "tuple"
        }
      ],
      "stateMutability": "view",
      "type": "function"
    },
    {
      "inputs": [],
      "name": "getParameters",
      "outputs": [
        {
          "components": [
            {
              "internalType": "contract IERC20",
              "name": "token",
              "type": "address"
            },
            {
              "internalType": "uint256",
              "name": "forSale",
              "type": "uint256"
            },
            {
              "internalType": "uint256",
              "name": "asking",
              "type": "uint256"
            },
            {
              "internalType": "uint256",
              "name": "buyingStartsAt",
              "type": "uint256"
            },
            {
              "internalType": "uint256",
              "name": "buyingEndsAt",
              "type": "uint256"
            },
            {
              "internalType": "uint256",
              "name": "vestingStartsAt",
              "type": "uint256"
            },
            {
              "internalType": "uint256",
              "name": "vestingEndsAt",
              "type": "uint256"
            }
          ],
          "internalType": "struct Parameters",
          "name": "",
          "type": "tuple"
        }
      ],
      "stateMutability": "view",
      "type": "function"
    },
    {
      "inputs": [
        {
          "internalType": "bytes32",
          "name": "role",
          "type": "bytes32"
        }
      ],
      "name": "getRoleAdmin",
      "outputs": [
        {
          "internalType": "bytes32",
          "name": "",
          "type": "bytes32"
        }
      ],
      "stateMutability": "view",
      "type": "function"
    },
    {
      "inputs": [
        {
          "internalType": "bytes32",
          "name": "role",
          "type": "bytes32"
        },
        {
          "internalType": "uint256",
          "name": "index",
          "type": "uint256"
        }
      ],
      "name": "getRoleMember",
      "outputs": [
        {
          "internalType": "address",
          "name": "",
          "type": "address"
        }
      ],
      "stateMutability": "view",
      "type": "function"
    },
    {
      "inputs": [
        {
          "internalType": "bytes32",
          "name": "role",
          "type": "bytes32"
        }
      ],
      "name": "getRoleMemberCount",
      "outputs": [
        {
          "internalType": "uint256",
          "name": "",
          "type": "uint256"
        }
      ],
      "stateMutability": "view",
      "type": "function"
    },
    {
      "inputs": [
        {
          "internalType": "address",
          "name": "addr",
          "type": "address"
        }
      ],
      "name": "getUserStatsOf",
      "outputs": [
        {
          "components": [
            {
              "internalType": "uint256",
              "name": "contributed",
              "type": "uint256"
            },
            {
              "internalType": "uint256",
              "name": "claimed",
              "type": "uint256"
            },
            {
              "internalType": "uint256",
              "name": "refunded",
              "type": "uint256"
            }
          ],
          "internalType": "struct UserStats",
          "name": "",
          "type": "tuple"
        }
      ],
      "stateMutability": "view",
      "type": "function"
    },
    {
      "inputs": [
        {
          "internalType": "bytes32",
          "name": "role",
          "type": "bytes32"
        },
        {
          "internalType": "address",
          "name": "account",
          "type": "address"
        }
      ],
      "name": "grantRole",
      "outputs": [],
      "stateMutability": "nonpayable",
      "type": "function"
    },
    {
      "inputs": [
        {
          "internalType": "bytes32",
          "name": "role",
          "type": "bytes32"
        },
        {
          "internalType": "address",
          "name": "account",
          "type": "address"
        }
      ],
      "name": "hasRole",
      "outputs": [
        {
          "internalType": "bool",
          "name": "",
          "type": "bool"
        }
      ],
      "stateMutability": "view",
      "type": "function"
    },
    {
      "inputs": [],
      "name": "owner",
      "outputs": [
        {
          "internalType": "address",
          "name": "",
          "type": "address"
        }
      ],
      "stateMutability": "view",
      "type": "function"
    },
    {
      "inputs": [],
      "name": "pause",
      "outputs": [],
      "stateMutability": "nonpayable",
      "type": "function"
    },
    {
      "inputs": [],
      "name": "paused",
      "outputs": [
        {
          "internalType": "bool",
          "name": "",
          "type": "bool"
        }
      ],
      "stateMutability": "view",
      "type": "function"
    },
    {
      "inputs": [],
      "name": "refund",
      "outputs": [],
      "stateMutability": "nonpayable",
      "type": "function"
    },
    {
      "inputs": [],
      "name": "refundCollateral",
      "outputs": [],
      "stateMutability": "nonpayable",
      "type": "function"
    },
    {
      "inputs": [
        {
          "internalType": "address",
          "name": "addr",
          "type": "address"
        }
      ],
      "name": "refundableOf",
      "outputs": [
        {
          "internalType": "uint256",
          "name": "refundable",
          "type": "uint256"
        }
      ],
      "stateMutability": "view",
      "type": "function"
    },
    {
      "inputs": [],
      "name": "renounceOwnership",
      "outputs": [],
      "stateMutability": "nonpayable",
      "type": "function"
    },
    {
      "inputs": [
        {
          "internalType": "bytes32",
          "name": "role",
          "type": "bytes32"
        },
        {
          "internalType": "address",
          "name": "account",
          "type": "address"
        }
      ],
      "name": "renounceRole",
      "outputs": [],
      "stateMutability": "nonpayable",
      "type": "function"
    },
    {
      "inputs": [],
      "name": "returnUnsold",
      "outputs": [],
      "stateMutability": "nonpayable",
      "type": "function"
    },
    {
      "inputs": [],
      "name": "returnable",
      "outputs": [
        {
          "internalType": "uint256",
          "name": "",
          "type": "uint256"
        }
      ],
      "stateMutability": "view",
      "type": "function"
    },
    {
      "inputs": [
        {
          "internalType": "bytes32",
          "name": "role",
          "type": "bytes32"
        },
        {
          "internalType": "address",
          "name": "account",
          "type": "address"
        }
      ],
      "name": "revokeRole",
      "outputs": [],
      "stateMutability": "nonpayable",
      "type": "function"
    },
    {
      "inputs": [
        {
          "internalType": "bytes4",
          "name": "interfaceId",
          "type": "bytes4"
        }
      ],
      "name": "supportsInterface",
      "outputs": [
        {
          "internalType": "bool",
          "name": "",
          "type": "bool"
        }
      ],
      "stateMutability": "view",
      "type": "function"
    },
    {
      "inputs": [
        {
          "internalType": "address",
          "name": "newOwner",
          "type": "address"
        }
      ],
      "name": "transferOwnership",
      "outputs": [],
      "stateMutability": "nonpayable",
      "type": "function"
    },
    {
      "inputs": [],
      "name": "unpause",
      "outputs": [],
      "stateMutability": "nonpayable",
      "type": "function"
    },
    {
      "inputs": [],
      "name": "withdraw",
      "outputs": [],
      "stateMutability": "nonpayable",
      "type": "function"
    },
    {
      "inputs": [],
      "name": "withdrawable",
      "outputs": [
        {
          "internalType": "uint256",
          "name": "",
          "type": "uint256"
        }
      ],
      "stateMutability": "view",
      "type": "function"
    }
  ],
  "bytecode": "0x60806040527f54b0854ed6979a3aeff7348aa2e79dc669787b689f50f6d4142c6ab13f8adff26010553480156200003557600080fd5b50604051620049083803806200490883398181016040528101906200005b919062000760565b80826200007d620000716200019d60201b60201c565b620001a560201b60201c565b60008060146101000a81548160ff0219169083151502179055506001808190555080600260008201518160000160006101000a81548173ffffffffffffffffffffffffffffffffffffffff021916908373ffffffffffffffffffffffffffffffffffffffff1602179055506020820151816001015560408201518160020155606082015181600301556080820151816004015560a0820151816005015560c082015181600601559050505080601160008201518160000160006101000a81548173ffffffffffffffffffffffffffffffffffffffff021916908373ffffffffffffffffffffffffffffffffffffffff1602179055506020820151816001015590505050620001956000801b336200026960201b60201c565b5050620007a8565b600033905090565b60008060009054906101000a900473ffffffffffffffffffffffffffffffffffffffff169050816000806101000a81548173ffffffffffffffffffffffffffffffffffffffff021916908373ffffffffffffffffffffffffffffffffffffffff1602179055508173ffffffffffffffffffffffffffffffffffffffff168173ffffffffffffffffffffffffffffffffffffffff167f8be0079c531659141344cd1fd0a4f28419497f9722a3daafe3b4186f6b6457e060405160405180910390a35050565b620002808282620002b160201b62001d391760201c565b620002ac81600f6000858152602001908152602001600020620003a360201b62001e1a1790919060201c565b505050565b620002c38282620003db60201b60201c565b6200039f576001600e600084815260200190815260200160002060000160008373ffffffffffffffffffffffffffffffffffffffff1673ffffffffffffffffffffffffffffffffffffffff16815260200190815260200160002060006101000a81548160ff021916908315150217905550620003446200019d60201b60201c565b73ffffffffffffffffffffffffffffffffffffffff168173ffffffffffffffffffffffffffffffffffffffff16837f2f8788117e7eff1d82e926ec794901d17c78024a50270940304540a733656f0d60405160405180910390a45b5050565b6000620003d3836000018373ffffffffffffffffffffffffffffffffffffffff1660001b6200044660201b60201c565b905092915050565b6000600e600084815260200190815260200160002060000160008373ffffffffffffffffffffffffffffffffffffffff1673ffffffffffffffffffffffffffffffffffffffff16815260200190815260200160002060009054906101000a900460ff16905092915050565b60006200045a8383620004c060201b60201c565b620004b5578260000182908060018154018082558091505060019003906000526020600020016000909190919091505582600001805490508360010160008481526020019081526020016000208190555060019050620004ba565b600090505b92915050565b600080836001016000848152602001908152602001600020541415905092915050565b6000604051905090565b600080fd5b600080fd5b6000601f19601f8301169050919050565b7f4e487b7100000000000000000000000000000000000000000000000000000000600052604160045260246000fd5b6200054282620004f7565b810181811067ffffffffffffffff8211171562000564576200056362000508565b5b80604052505050565b600062000579620004e3565b905062000587828262000537565b919050565b600073ffffffffffffffffffffffffffffffffffffffff82169050919050565b6000620005b9826200058c565b9050919050565b6000620005cd82620005ac565b9050919050565b620005df81620005c0565b8114620005eb57600080fd5b50565b600081519050620005ff81620005d4565b92915050565b6000819050919050565b6200061a8162000605565b81146200062657600080fd5b50565b6000815190506200063a816200060f565b92915050565b600060e08284031215620006595762000658620004f2565b5b6200066560e06200056d565b905060006200067784828501620005ee565b60008301525060206200068d8482850162000629565b6020830152506040620006a38482850162000629565b6040830152506060620006b98482850162000629565b6060830152506080620006cf8482850162000629565b60808301525060a0620006e58482850162000629565b60a08301525060c0620006fb8482850162000629565b60c08301525092915050565b60006040828403121562000720576200071f620004f2565b5b6200072c60406200056d565b905060006200073e84828501620005ee565b6000830152506020620007548482850162000629565b60208301525092915050565b60008061012083850312156200077b576200077a620004ed565b5b60006200078b8582860162000640565b92505060e06200079e8582860162000707565b9150509250929050565b61415080620007b86000396000f3fe6080604052600436106101ee5760003560e01c80635feb61911161010d57806391d14854116100a0578063b2ea088d1161006f578063b2ea088d1461067d578063ca15c87314610694578063d547741f146106d1578063d7bb99ba146106fa578063f2fde38b14610704576101ee565b806391d14854146105ad578063a217fddf146105ea578063a5ea11da14610615578063b22163e314610640576101ee565b80638903ab9d116100dc5780638903ab9d146104f15780638da5cb5b1461052e5780638f705903146105595780639010d07c14610570576101ee565b80635feb61911461046d5780636b4169c314610498578063715018a6146104c35780638456cb59146104da576101ee565b806336568abe116101855780634e71d92d116101545780634e71d92d146103e95780635018830114610400578063590e1ae31461042b5780635c975abb14610442576101ee565b806336568abe146103675780633ccfd60b146103905780633f4ba83a146103a75780634da56a6f146103be576101ee565b8063248a9ca3116101c1578063248a9ca3146102ad5780632bf9935d146102ea5780632e0bcb43146103135780632f2ff15d1461033e576101ee565b806301ffc9a7146101f35780630fcc56f7146102305780631ae755ee146102595780632098b7ff14610296575b600080fd5b3480156101ff57600080fd5b5061021a60048036038101906102159190612e34565b61072d565b6040516102279190612e7c565b60405180910390f35b34801561023c57600080fd5b5061025760048036038101906102529190612ecd565b6107a7565b005b34801561026557600080fd5b50610280600480360381019061027b9190612f58565b61089d565b60405161028d9190612fd6565b60405180910390f35b3480156102a257600080fd5b506102ab610914565b005b3480156102b957600080fd5b506102d460048036038101906102cf9190613027565b610a95565b6040516102e19190613063565b60405180910390f35b3480156102f657600080fd5b50610311600480360381019061030c9190612ecd565b610ab5565b005b34801561031f57600080fd5b50610328610b84565b604051610335919061310c565b60405180910390f35b34801561034a57600080fd5b5061036560048036038101906103609190613127565b610bfe565b005b34801561037357600080fd5b5061038e60048036038101906103899190613127565b610c27565b005b34801561039c57600080fd5b506103a5610caa565b005b3480156103b357600080fd5b506103bc610e49565b005b3480156103ca57600080fd5b506103d3610ecf565b6040516103e09190613176565b60405180910390f35b3480156103f557600080fd5b506103fe610f48565b005b34801561040c57600080fd5b50610415611140565b6040516104229190613176565b60405180910390f35b34801561043757600080fd5b5061044061119d565b005b34801561044e57600080fd5b506104576113e7565b6040516104649190612e7c565b60405180910390f35b34801561047957600080fd5b506104826113fd565b60405161048f9190613063565b60405180910390f35b3480156104a457600080fd5b506104ad611403565b6040516104ba91906131e6565b60405180910390f35b3480156104cf57600080fd5b506104d8611445565b005b3480156104e657600080fd5b506104ef6114cd565b005b3480156104fd57600080fd5b5061051860048036038101906105139190612f58565b611553565b6040516105259190613176565b60405180910390f35b34801561053a57600080fd5b506105436115a3565b6040516105509190613210565b60405180910390f35b34801561056557600080fd5b5061056e6115cc565b005b34801561057c57600080fd5b506105976004803603810190610592919061322b565b61174f565b6040516105a49190613210565b60405180910390f35b3480156105b957600080fd5b506105d460048036038101906105cf9190613127565b61177e565b6040516105e19190612e7c565b60405180910390f35b3480156105f657600080fd5b506105ff6117e9565b60405161060c9190613063565b60405180910390f35b34801561062157600080fd5b5061062a6117f0565b60405161063791906132f9565b60405180910390f35b34801561064c57600080fd5b5061066760048036038101906106629190612f58565b61189c565b6040516106749190613176565b60405180910390f35b34801561068957600080fd5b506106926118ec565b005b3480156106a057600080fd5b506106bb60048036038101906106b69190613027565b611a64565b6040516106c89190613176565b60405180910390f35b3480156106dd57600080fd5b506106f860048036038101906106f39190613127565b611a88565b005b610702611ab1565b005b34801561071057600080fd5b5061072b60048036038101906107269190612f58565b611c42565b005b60007f5a05180f000000000000000000000000000000000000000000000000000000007bffffffffffffffffffffffffffffffffffffffffffffffffffffffff1916827bffffffffffffffffffffffffffffffffffffffffffffffffffffffff191614806107a0575061079f82611e4a565b5b9050919050565b6107af611ec4565b73ffffffffffffffffffffffffffffffffffffffff166107cd6115a3565b73ffffffffffffffffffffffffffffffffffffffff1614610823576040517f08c379a000000000000000000000000000000000000000000000000000000000815260040161081a90613371565b60405180910390fd5b60003373ffffffffffffffffffffffffffffffffffffffff1682604051610849906133c2565b60006040518083038185875af1925050503d8060008114610886576040519150601f19603f3d011682016040523d82523d6000602084013e61088b565b606091505b505090508061089957600080fd5b5050565b6108a5612d0b565b600d60008373ffffffffffffffffffffffffffffffffffffffff1673ffffffffffffffffffffffffffffffffffffffff16815260200190815260200160002060405180606001604052908160008201548152602001600182015481526020016002820154815250509050919050565b600260015403610959576040517f08c379a000000000000000000000000000000000000000000000000000000000815260040161095090613423565b60405180910390fd5b60026001819055506002600401544210156109a9576040517f08c379a00000000000000000000000000000000000000000000000000000000081526004016109a09061348f565b60405180910390fd5b6109b56010543361177e565b6109f4576040517f08c379a00000000000000000000000000000000000000000000000000000000081526004016109eb906134fb565b60405180910390fd5b610a4933601160010154601160000160009054906101000a900473ffffffffffffffffffffffffffffffffffffffff1673ffffffffffffffffffffffffffffffffffffffff16611ecc9092919063ffffffff16565b610a5560105433611f52565b7fac1020c5e021e2c2aefe4cf6c0f77fab9c73174ad863b68f51e1abe8b7de0fa233604051610a849190613210565b60405180910390a160018081905550565b6000600e6000838152602001908152602001600020600101549050919050565b610abd611ec4565b73ffffffffffffffffffffffffffffffffffffffff16610adb6115a3565b73ffffffffffffffffffffffffffffffffffffffff1614610b31576040517f08c379a0000000000000000000000000000000000000000000000000000000008152600401610b2890613371565b60405180910390fd5b610b813382600260000160009054906101000a900473ffffffffffffffffffffffffffffffffffffffff1673ffffffffffffffffffffffffffffffffffffffff16611ecc9092919063ffffffff16565b50565b610b8c612d2c565b60116040518060400160405290816000820160009054906101000a900473ffffffffffffffffffffffffffffffffffffffff1673ffffffffffffffffffffffffffffffffffffffff1673ffffffffffffffffffffffffffffffffffffffff168152602001600182015481525050905090565b610c0782610a95565b610c1881610c13611ec4565b611f86565b610c228383612023565b505050565b610c2f611ec4565b73ffffffffffffffffffffffffffffffffffffffff168173ffffffffffffffffffffffffffffffffffffffff1614610c9c576040517f08c379a0000000000000000000000000000000000000000000000000000000008152600401610c939061358d565b60405180910390fd5b610ca68282611f52565b5050565b610cb2611ec4565b73ffffffffffffffffffffffffffffffffffffffff16610cd06115a3565b73ffffffffffffffffffffffffffffffffffffffff1614610d26576040517f08c379a0000000000000000000000000000000000000000000000000000000008152600401610d1d90613371565b60405180910390fd5b600260040154421015610d6e576040517f08c379a0000000000000000000000000000000000000000000000000000000008152600401610d659061348f565b60405180910390fd5b6000610d78611140565b90508060096002016000828254610d8f91906135dc565b9250508190555060003373ffffffffffffffffffffffffffffffffffffffff1682604051610dbc906133c2565b60006040518083038185875af1925050503d8060008114610df9576040519150601f19603f3d011682016040523d82523d6000602084013e610dfe565b606091505b5050905080610e0c57600080fd5b7f7084f5476618d8e60b11ef0d7d3f06914655adb8793e28ff7f018d4c76d505d53383604051610e3d929190613632565b60405180910390a15050565b610e51611ec4565b73ffffffffffffffffffffffffffffffffffffffff16610e6f6115a3565b73ffffffffffffffffffffffffffffffffffffffff1614610ec5576040517f08c379a0000000000000000000000000000000000000000000000000000000008152600401610ebc90613371565b60405180910390fd5b610ecd612057565b565b6000600260040154421015610ee75760009050610f45565b610eef6120f8565b15610efd5760009050610f45565b6009600301546002800154600960000154600260010154610f1e919061365b565b610f2891906136e4565b600260010154610f389190613715565b610f429190613715565b90505b90565b600260015403610f8d576040517f08c379a0000000000000000000000000000000000000000000000000000000008152600401610f8490613423565b60405180910390fd5b6002600181905550610f9d6113e7565b15610fdd576040517f08c379a0000000000000000000000000000000000000000000000000000000008152600401610fd490613795565b60405180910390fd5b600260050154421015611025576040517f08c379a000000000000000000000000000000000000000000000000000000000815260040161101c90613801565b60405180910390fd5b6000600d60003373ffffffffffffffffffffffffffffffffffffffff1673ffffffffffffffffffffffffffffffffffffffff168152602001908152602001600020905060006110738261210b565b90508082600101600082825461108991906135dc565b9250508190555080600960010160008282546110a591906135dc565b925050819055506110fc3382600260000160009054906101000a900473ffffffffffffffffffffffffffffffffffffffff1673ffffffffffffffffffffffffffffffffffffffff16611ecc9092919063ffffffff16565b7fd8138f8a3f377c5259ca548e70e4c2de94f129f5a11036a15b69513cba2b426a338260405161112d929190613632565b60405180910390a1505060018081905550565b6000600260040154421015611158576000905061119a565b6111606120f8565b1561118157600960020154600280015461117a9190613715565b905061119a565b6009600201546009600001546111979190613715565b90505b90565b6002600154036111e2576040517f08c379a00000000000000000000000000000000000000000000000000000000081526004016111d990613423565b60405180910390fd5b60026001819055506111f26113e7565b15611232576040517f08c379a000000000000000000000000000000000000000000000000000000000815260040161122990613795565b60405180910390fd5b60026004015442101561127a576040517f08c379a00000000000000000000000000000000000000000000000000000000081526004016112719061348f565b60405180910390fd5b6112826120f8565b6112c1576040517f08c379a00000000000000000000000000000000000000000000000000000000081526004016112b89061386d565b60405180910390fd5b6000600d60003373ffffffffffffffffffffffffffffffffffffffff1673ffffffffffffffffffffffffffffffffffffffff1681526020019081526020016000209050600061130f82612200565b90508082600201600082825461132591906135dc565b9250508190555060003373ffffffffffffffffffffffffffffffffffffffff1682604051611352906133c2565b60006040518083038185875af1925050503d806000811461138f576040519150601f19603f3d011682016040523d82523d6000602084013e611394565b606091505b50509050806113a257600080fd5b7fd7dee2702d63ad89917b6a4da9981c90c4d24f8c2bdfd64c604ecae57d8d065133836040516113d3929190613632565b60405180910390a150505060018081905550565b60008060149054906101000a900460ff16905090565b60105481565b61140b612d5c565b6009604051806080016040529081600082015481526020016001820154815260200160028201548152602001600382015481525050905090565b61144d611ec4565b73ffffffffffffffffffffffffffffffffffffffff1661146b6115a3565b73ffffffffffffffffffffffffffffffffffffffff16146114c1576040517f08c379a00000000000000000000000000000000000000000000000000000000081526004016114b890613371565b60405180910390fd5b6114cb6000612277565b565b6114d5611ec4565b73ffffffffffffffffffffffffffffffffffffffff166114f36115a3565b73ffffffffffffffffffffffffffffffffffffffff1614611549576040517f08c379a000000000000000000000000000000000000000000000000000000000815260040161154090613371565b60405180910390fd5b61155161233b565b565b600061159c600d60008473ffffffffffffffffffffffffffffffffffffffff1673ffffffffffffffffffffffffffffffffffffffff16815260200190815260200160002061210b565b9050919050565b60008060009054906101000a900473ffffffffffffffffffffffffffffffffffffffff16905090565b600260015403611611576040517f08c379a000000000000000000000000000000000000000000000000000000000815260040161160890613423565b60405180910390fd5b60026001819055506002600301544210611660576040517f08c379a0000000000000000000000000000000000000000000000000000000008152600401611657906138ff565b60405180910390fd5b61166c6010543361177e565b156116ac576040517f08c379a00000000000000000000000000000000000000000000000000000000081526004016116a39061396b565b60405180910390fd5b6117033330601160010154601160000160009054906101000a900473ffffffffffffffffffffffffffffffffffffffff1673ffffffffffffffffffffffffffffffffffffffff166123de909392919063ffffffff16565b61170f60105433612023565b7fc0f50b8a17dd6fe159e4afcbffdf63a4ad6722c59a1aaa0697b9850953bd1a1b3360405161173e9190613210565b60405180910390a160018081905550565b600061177682600f600086815260200190815260200160002061246790919063ffffffff16565b905092915050565b6000600e600084815260200190815260200160002060000160008373ffffffffffffffffffffffffffffffffffffffff1673ffffffffffffffffffffffffffffffffffffffff16815260200190815260200160002060009054906101000a900460ff16905092915050565b6000801b81565b6117f8612d84565b60026040518060e00160405290816000820160009054906101000a900473ffffffffffffffffffffffffffffffffffffffff1673ffffffffffffffffffffffffffffffffffffffff1673ffffffffffffffffffffffffffffffffffffffff1681526020016001820154815260200160028201548152602001600382015481526020016004820154815260200160058201548152602001600682015481525050905090565b60006118e5600d60008473ffffffffffffffffffffffffffffffffffffffff1673ffffffffffffffffffffffffffffffffffffffff168152602001908152602001600020612200565b9050919050565b6118f4611ec4565b73ffffffffffffffffffffffffffffffffffffffff166119126115a3565b73ffffffffffffffffffffffffffffffffffffffff1614611968576040517f08c379a000000000000000000000000000000000000000000000000000000000815260040161195f90613371565b60405180910390fd5b6002600401544210156119b0576040517f08c379a00000000000000000000000000000000000000000000000000000000081526004016119a79061348f565b60405180910390fd5b60006119ba610ecf565b905080600960030160008282546119d191906135dc565b92505081905550611a283382600260000160009054906101000a900473ffffffffffffffffffffffffffffffffffffffff1673ffffffffffffffffffffffffffffffffffffffff16611ecc9092919063ffffffff16565b7fdd81098bbc043431d4a440ca8823673fd1129893ab79f9838df4cf3d5e3812593382604051611a59929190613632565b60405180910390a150565b6000611a81600f6000848152602001908152602001600020612481565b9050919050565b611a9182610a95565b611aa281611a9d611ec4565b611f86565b611aac8383611f52565b505050565b611ab96113e7565b15611af9576040517f08c379a0000000000000000000000000000000000000000000000000000000008152600401611af090613795565b60405180910390fd5b600260030154421015611b41576040517f08c379a0000000000000000000000000000000000000000000000000000000008152600401611b38906139d7565b60405180910390fd5b6002600401544210611b88576040517f08c379a0000000000000000000000000000000000000000000000000000000008152600401611b7f90613a43565b60405180910390fd5b611b923334612496565b34600d60003373ffffffffffffffffffffffffffffffffffffffff1673ffffffffffffffffffffffffffffffffffffffff1681526020019081526020016000206000016000828254611be491906135dc565b925050819055503460096000016000828254611c0091906135dc565b925050819055507f62722348256371b5147820d6cad90c40fd2da1ccee18c3ed52c0bca5a61dbbab3334604051611c38929190613632565b60405180910390a1565b611c4a611ec4565b73ffffffffffffffffffffffffffffffffffffffff16611c686115a3565b73ffffffffffffffffffffffffffffffffffffffff1614611cbe576040517f08c379a0000000000000000000000000000000000000000000000000000000008152600401611cb590613371565b60405180910390fd5b600073ffffffffffffffffffffffffffffffffffffffff168173ffffffffffffffffffffffffffffffffffffffff1603611d2d576040517f08c379a0000000000000000000000000000000000000000000000000000000008152600401611d2490613ad5565b60405180910390fd5b611d3681612277565b50565b611d43828261177e565b611e16576001600e600084815260200190815260200160002060000160008373ffffffffffffffffffffffffffffffffffffffff1673ffffffffffffffffffffffffffffffffffffffff16815260200190815260200160002060006101000a81548160ff021916908315150217905550611dbb611ec4565b73ffffffffffffffffffffffffffffffffffffffff168173ffffffffffffffffffffffffffffffffffffffff16837f2f8788117e7eff1d82e926ec794901d17c78024a50270940304540a733656f0d60405160405180910390a45b5050565b6000611e42836000018373ffffffffffffffffffffffffffffffffffffffff1660001b6124ef565b905092915050565b60007f7965db0b000000000000000000000000000000000000000000000000000000007bffffffffffffffffffffffffffffffffffffffffffffffffffffffff1916827bffffffffffffffffffffffffffffffffffffffffffffffffffffffff19161480611ebd5750611ebc8261255f565b5b9050919050565b600033905090565b611f4d8363a9059cbb60e01b8484604051602401611eeb929190613632565b604051602081830303815290604052907bffffffffffffffffffffffffffffffffffffffffffffffffffffffff19166020820180517bffffffffffffffffffffffffffffffffffffffffffffffffffffffff83818316178352505050506125c9565b505050565b611f5c8282612690565b611f8181600f600085815260200190815260200160002061277290919063ffffffff16565b505050565b611f90828261177e565b61201f57611fb58173ffffffffffffffffffffffffffffffffffffffff1660146127a2565b611fc38360001c60206127a2565b604051602001611fd4929190613c07565b6040516020818303038152906040526040517f08c379a00000000000000000000000000000000000000000000000000000000081526004016120169190613c8b565b60405180910390fd5b5050565b61202d8282611d39565b61205281600f6000858152602001908152602001600020611e1a90919063ffffffff16565b505050565b61205f6113e7565b61209e576040517f08c379a000000000000000000000000000000000000000000000000000000000815260040161209590613cf9565b60405180910390fd5b60008060146101000a81548160ff0219169083151502179055507f5db9ee0a495bf2e6ff9c91a7834c1ba4fdd244a5e8aa4e537bd38aeae4b073aa6120e1611ec4565b6040516120ee9190613210565b60405180910390a1565b6000600280015460096000015411905090565b600060026005015442101561212357600090506121fb565b6000600260050154426121369190613715565b905060006002600501546002600601546121509190613715565b90506000818311156121625781612164565b825b905060006121706120f8565b156121a1576009600001546002600101548760000154612190919061365b565b61219a91906136e4565b90506121c8565b600260010154600280015487600001546121bb919061365b565b6121c591906136e4565b90505b60008383836121d7919061365b565b6121e191906136e4565b90508660010154816121f39190613715565b955050505050505b919050565b60006002600401544210156122185760009050612272565b6122206120f8565b61222d5760009050612272565b81600201546009600001546002800154846000015461224c919061365b565b61225691906136e4565b83600001546122659190613715565b61226f9190613715565b90505b919050565b60008060009054906101000a900473ffffffffffffffffffffffffffffffffffffffff169050816000806101000a81548173ffffffffffffffffffffffffffffffffffffffff021916908373ffffffffffffffffffffffffffffffffffffffff1602179055508173ffffffffffffffffffffffffffffffffffffffff168173ffffffffffffffffffffffffffffffffffffffff167f8be0079c531659141344cd1fd0a4f28419497f9722a3daafe3b4186f6b6457e060405160405180910390a35050565b6123436113e7565b15612383576040517f08c379a000000000000000000000000000000000000000000000000000000000815260040161237a90613795565b60405180910390fd5b6001600060146101000a81548160ff0219169083151502179055507f62e78cea01bee320cd4e420270b5ea74000d11b0c9f74754ebdbfc544b05a2586123c7611ec4565b6040516123d49190613210565b60405180910390a1565b612461846323b872dd60e01b8585856040516024016123ff93929190613d19565b604051602081830303815290604052907bffffffffffffffffffffffffffffffffffffffffffffffffffffffff19166020820180517bffffffffffffffffffffffffffffffffffffffffffffffffffffffff83818316178352505050506125c9565b50505050565b600061247683600001836129de565b60001c905092915050565b600061248f82600001612a09565b9050919050565b6124a26010548361177e565b6124e1576040517f08c379a00000000000000000000000000000000000000000000000000000000081526004016124d890613d9c565b60405180910390fd5b6124eb8282612a1a565b5050565b60006124fb8383612a1e565b612554578260000182908060018154018082558091505060019003906000526020600020016000909190919091505582600001805490508360010160008481526020019081526020016000208190555060019050612559565b600090505b92915050565b60007f01ffc9a7000000000000000000000000000000000000000000000000000000007bffffffffffffffffffffffffffffffffffffffffffffffffffffffff1916827bffffffffffffffffffffffffffffffffffffffffffffffffffffffff1916149050919050565b600061262b826040518060400160405280602081526020017f5361666545524332303a206c6f772d6c6576656c2063616c6c206661696c65648152508573ffffffffffffffffffffffffffffffffffffffff16612a419092919063ffffffff16565b905060008151111561268b578080602001905181019061264b9190613de8565b61268a576040517f08c379a000000000000000000000000000000000000000000000000000000000815260040161268190613e87565b60405180910390fd5b5b505050565b61269a828261177e565b1561276e576000600e600084815260200190815260200160002060000160008373ffffffffffffffffffffffffffffffffffffffff1673ffffffffffffffffffffffffffffffffffffffff16815260200190815260200160002060006101000a81548160ff021916908315150217905550612713611ec4565b73ffffffffffffffffffffffffffffffffffffffff168173ffffffffffffffffffffffffffffffffffffffff16837ff6391f5c32d9c69d2a47ea670b442974b53935d1edc7fd64eb21e047a839171b60405160405180910390a45b5050565b600061279a836000018373ffffffffffffffffffffffffffffffffffffffff1660001b612a59565b905092915050565b6060600060028360026127b5919061365b565b6127bf91906135dc565b67ffffffffffffffff8111156127d8576127d7613ea7565b5b6040519080825280601f01601f19166020018201604052801561280a5781602001600182028036833780820191505090505b5090507f30000000000000000000000000000000000000000000000000000000000000008160008151811061284257612841613ed6565b5b60200101907effffffffffffffffffffffffffffffffffffffffffffffffffffffffffffff1916908160001a9053507f7800000000000000000000000000000000000000000000000000000000000000816001815181106128a6576128a5613ed6565b5b60200101907effffffffffffffffffffffffffffffffffffffffffffffffffffffffffffff1916908160001a905350600060018460026128e6919061365b565b6128f091906135dc565b90505b6001811115612990577f3031323334353637383961626364656600000000000000000000000000000000600f86166010811061293257612931613ed6565b5b1a60f81b82828151811061294957612948613ed6565b5b60200101907effffffffffffffffffffffffffffffffffffffffffffffffffffffffffffff1916908160001a905350600485901c94508061298990613f05565b90506128f3565b50600084146129d4576040517f08c379a00000000000000000000000000000000000000000000000000000000081526004016129cb90613f7a565b60405180910390fd5b8091505092915050565b60008260000182815481106129f6576129f5613ed6565b5b9060005260206000200154905092915050565b600081600001805490509050919050565b5050565b600080836001016000848152602001908152602001600020541415905092915050565b6060612a508484600085612b6d565b90509392505050565b60008083600101600084815260200190815260200160002054905060008114612b61576000600182612a8b9190613715565b9050600060018660000180549050612aa39190613715565b9050818114612b12576000866000018281548110612ac457612ac3613ed6565b5b9060005260206000200154905080876000018481548110612ae857612ae7613ed6565b5b90600052602060002001819055508387600101600083815260200190815260200160002081905550505b85600001805480612b2657612b25613f9a565b5b600190038181906000526020600020016000905590558560010160008681526020019081526020016000206000905560019350505050612b67565b60009150505b92915050565b606082471015612bb2576040517f08c379a0000000000000000000000000000000000000000000000000000000008152600401612ba99061403b565b60405180910390fd5b612bbb85612c81565b612bfa576040517f08c379a0000000000000000000000000000000000000000000000000000000008152600401612bf1906140a7565b60405180910390fd5b6000808673ffffffffffffffffffffffffffffffffffffffff168587604051612c239190614103565b60006040518083038185875af1925050503d8060008114612c60576040519150601f19603f3d011682016040523d82523d6000602084013e612c65565b606091505b5091509150612c75828286612ca4565b92505050949350505050565b6000808273ffffffffffffffffffffffffffffffffffffffff163b119050919050565b60608315612cb457829050612d04565b600083511115612cc75782518084602001fd5b816040517f08c379a0000000000000000000000000000000000000000000000000000000008152600401612cfb9190613c8b565b60405180910390fd5b9392505050565b60405180606001604052806000815260200160008152602001600081525090565b6040518060400160405280600073ffffffffffffffffffffffffffffffffffffffff168152602001600081525090565b6040518060800160405280600081526020016000815260200160008152602001600081525090565b6040518060e00160405280600073ffffffffffffffffffffffffffffffffffffffff1681526020016000815260200160008152602001600081526020016000815260200160008152602001600081525090565b600080fd5b60007fffffffff0000000000000000000000000000000000000000000000000000000082169050919050565b612e1181612ddc565b8114612e1c57600080fd5b50565b600081359050612e2e81612e08565b92915050565b600060208284031215612e4a57612e49612dd7565b5b6000612e5884828501612e1f565b91505092915050565b60008115159050919050565b612e7681612e61565b82525050565b6000602082019050612e916000830184612e6d565b92915050565b6000819050919050565b612eaa81612e97565b8114612eb557600080fd5b50565b600081359050612ec781612ea1565b92915050565b600060208284031215612ee357612ee2612dd7565b5b6000612ef184828501612eb8565b91505092915050565b600073ffffffffffffffffffffffffffffffffffffffff82169050919050565b6000612f2582612efa565b9050919050565b612f3581612f1a565b8114612f4057600080fd5b50565b600081359050612f5281612f2c565b92915050565b600060208284031215612f6e57612f6d612dd7565b5b6000612f7c84828501612f43565b91505092915050565b612f8e81612e97565b82525050565b606082016000820151612faa6000850182612f85565b506020820151612fbd6020850182612f85565b506040820151612fd06040850182612f85565b50505050565b6000606082019050612feb6000830184612f94565b92915050565b6000819050919050565b61300481612ff1565b811461300f57600080fd5b50565b60008135905061302181612ffb565b92915050565b60006020828403121561303d5761303c612dd7565b5b600061304b84828501613012565b91505092915050565b61305d81612ff1565b82525050565b60006020820190506130786000830184613054565b92915050565b6000819050919050565b60006130a361309e61309984612efa565b61307e565b612efa565b9050919050565b60006130b582613088565b9050919050565b60006130c7826130aa565b9050919050565b6130d7816130bc565b82525050565b6040820160008201516130f360008501826130ce565b5060208201516131066020850182612f85565b50505050565b600060408201905061312160008301846130dd565b92915050565b6000806040838503121561313e5761313d612dd7565b5b600061314c85828601613012565b925050602061315d85828601612f43565b9150509250929050565b61317081612e97565b82525050565b600060208201905061318b6000830184613167565b92915050565b6080820160008201516131a76000850182612f85565b5060208201516131ba6020850182612f85565b5060408201516131cd6040850182612f85565b5060608201516131e06060850182612f85565b50505050565b60006080820190506131fb6000830184613191565b92915050565b61320a81612f1a565b82525050565b60006020820190506132256000830184613201565b92915050565b6000806040838503121561324257613241612dd7565b5b600061325085828601613012565b925050602061326185828601612eb8565b9150509250929050565b60e08201600082015161328160008501826130ce565b5060208201516132946020850182612f85565b5060408201516132a76040850182612f85565b5060608201516132ba6060850182612f85565b5060808201516132cd6080850182612f85565b5060a08201516132e060a0850182612f85565b5060c08201516132f360c0850182612f85565b50505050565b600060e08201905061330e600083018461326b565b92915050565b600082825260208201905092915050565b7f4f776e61626c653a2063616c6c6572206973206e6f7420746865206f776e6572600082015250565b600061335b602083613314565b915061336682613325565b602082019050919050565b6000602082019050818103600083015261338a8161334e565b9050919050565b600081905092915050565b50565b60006133ac600083613391565b91506133b78261339c565b600082019050919050565b60006133cd8261339f565b9150819050919050565b7f5265656e7472616e637947756172643a207265656e7472616e742063616c6c00600082015250565b600061340d601f83613314565b9150613418826133d7565b602082019050919050565b6000602082019050818103600083015261343c81613400565b9050919050565b7f427579696e6720686173206e6f7420656e646564207965742e00000000000000600082015250565b6000613479601983613314565b915061348482613443565b602082019050919050565b600060208201905081810360008301526134a88161346c565b9050919050565b7f4e6f7420636f6c6c61746572616c697365642e00000000000000000000000000600082015250565b60006134e5601383613314565b91506134f0826134af565b602082019050919050565b60006020820190508181036000830152613514816134d8565b9050919050565b7f416363657373436f6e74726f6c3a2063616e206f6e6c792072656e6f756e636560008201527f20726f6c657320666f722073656c660000000000000000000000000000000000602082015250565b6000613577602f83613314565b91506135828261351b565b604082019050919050565b600060208201905081810360008301526135a68161356a565b9050919050565b7f4e487b7100000000000000000000000000000000000000000000000000000000600052601160045260246000fd5b60006135e782612e97565b91506135f283612e97565b9250827fffffffffffffffffffffffffffffffffffffffffffffffffffffffffffffffff03821115613627576136266135ad565b5b828201905092915050565b60006040820190506136476000830185613201565b6136546020830184613167565b9392505050565b600061366682612e97565b915061367183612e97565b9250817fffffffffffffffffffffffffffffffffffffffffffffffffffffffffffffffff04831182151516156136aa576136a96135ad565b5b828202905092915050565b7f4e487b7100000000000000000000000000000000000000000000000000000000600052601260045260246000fd5b60006136ef82612e97565b91506136fa83612e97565b92508261370a576137096136b5565b5b828204905092915050565b600061372082612e97565b915061372b83612e97565b92508282101561373e5761373d6135ad565b5b828203905092915050565b7f5061757361626c653a2070617573656400000000000000000000000000000000600082015250565b600061377f601083613314565b915061378a82613749565b602082019050919050565b600060208201905081810360008301526137ae81613772565b9050919050565b7f56657374696e6720686173206e6f7420626567756e207965742e000000000000600082015250565b60006137eb601a83613314565b91506137f6826137b5565b602082019050919050565b6000602082019050818103600083015261381a816137de565b9050919050565b7f546865726520776173206e6f206f766572666c6f772e00000000000000000000600082015250565b6000613857601683613314565b915061386282613821565b602082019050919050565b600060208201905081810360008301526138868161384a565b9050919050565b7f43616e6e6f7420636f6c6c61746572616c69736520616674657220627579696e60008201527f67207374617274732e0000000000000000000000000000000000000000000000602082015250565b60006138e9602983613314565b91506138f48261388d565b604082019050919050565b60006020820190508181036000830152613918816138dc565b9050919050565b7f416c726561647920636f6c6c61746572616c697365642e000000000000000000600082015250565b6000613955601783613314565b91506139608261391f565b602082019050919050565b6000602082019050818103600083015261398481613948565b9050919050565b7f427579696e6720686173206e6f7420626567756e207965742e00000000000000600082015250565b60006139c1601983613314565b91506139cc8261398b565b602082019050919050565b600060208201905081810360008301526139f0816139b4565b9050919050565b7f427579696e672068617320656e6465642e000000000000000000000000000000600082015250565b6000613a2d601183613314565b9150613a38826139f7565b602082019050919050565b60006020820190508181036000830152613a5c81613a20565b9050919050565b7f4f776e61626c653a206e6577206f776e657220697320746865207a65726f206160008201527f6464726573730000000000000000000000000000000000000000000000000000602082015250565b6000613abf602683613314565b9150613aca82613a63565b604082019050919050565b60006020820190508181036000830152613aee81613ab2565b9050919050565b600081905092915050565b7f416363657373436f6e74726f6c3a206163636f756e7420000000000000000000600082015250565b6000613b36601783613af5565b9150613b4182613b00565b601782019050919050565b600081519050919050565b60005b83811015613b75578082015181840152602081019050613b5a565b83811115613b84576000848401525b50505050565b6000613b9582613b4c565b613b9f8185613af5565b9350613baf818560208601613b57565b80840191505092915050565b7f206973206d697373696e6720726f6c6520000000000000000000000000000000600082015250565b6000613bf1601183613af5565b9150613bfc82613bbb565b601182019050919050565b6000613c1282613b29565b9150613c1e8285613b8a565b9150613c2982613be4565b9150613c358284613b8a565b91508190509392505050565b6000601f19601f8301169050919050565b6000613c5d82613b4c565b613c678185613314565b9350613c77818560208601613b57565b613c8081613c41565b840191505092915050565b60006020820190508181036000830152613ca58184613c52565b905092915050565b7f5061757361626c653a206e6f7420706175736564000000000000000000000000600082015250565b6000613ce3601483613314565b9150613cee82613cad565b602082019050919050565b60006020820190508181036000830152613d1281613cd6565b9050919050565b6000606082019050613d2e6000830186613201565b613d3b6020830185613201565b613d486040830184613167565b949350505050565b7f5573657220686173206e6f7420636f6c6c61746572616c697365642e00000000600082015250565b6000613d86601c83613314565b9150613d9182613d50565b602082019050919050565b60006020820190508181036000830152613db581613d79565b9050919050565b613dc581612e61565b8114613dd057600080fd5b50565b600081519050613de281613dbc565b92915050565b600060208284031215613dfe57613dfd612dd7565b5b6000613e0c84828501613dd3565b91505092915050565b7f5361666545524332303a204552433230206f7065726174696f6e20646964206e60008201527f6f74207375636365656400000000000000000000000000000000000000000000602082015250565b6000613e71602a83613314565b9150613e7c82613e15565b604082019050919050565b60006020820190508181036000830152613ea081613e64565b9050919050565b7f4e487b7100000000000000000000000000000000000000000000000000000000600052604160045260246000fd5b7f4e487b7100000000000000000000000000000000000000000000000000000000600052603260045260246000fd5b6000613f1082612e97565b915060008203613f2357613f226135ad565b5b600182039050919050565b7f537472696e67733a20686578206c656e67746820696e73756666696369656e74600082015250565b6000613f64602083613314565b9150613f6f82613f2e565b602082019050919050565b60006020820190508181036000830152613f9381613f57565b9050919050565b7f4e487b7100000000000000000000000000000000000000000000000000000000600052603160045260246000fd5b7f416464726573733a20696e73756666696369656e742062616c616e636520666f60008201527f722063616c6c0000000000000000000000000000000000000000000000000000602082015250565b6000614025602683613314565b915061403082613fc9565b604082019050919050565b6000602082019050818103600083015261405481614018565b9050919050565b7f416464726573733a2063616c6c20746f206e6f6e2d636f6e7472616374000000600082015250565b6000614091601d83613314565b915061409c8261405b565b602082019050919050565b600060208201905081810360008301526140c081614084565b9050919050565b600081519050919050565b60006140dd826140c7565b6140e78185613391565b93506140f7818560208601613b57565b80840191505092915050565b600061410f82846140d2565b91508190509291505056fea2646970667358221220f9256ed6df2050ef1126697e99b57ee28b661887e6420129ca35e759a776260564736f6c634300080d0033",
  "linkReferences": {},
  "deployedLinkReferences": {}
}