{
  "_format": "hh-sol-artifact-1",
  "contractName": "IDOWithCollateralAndWhitelist",
  "sourceName": "contracts/IDOWithCollateralAndWhitelist.sol",
  "abi": [
    {
      "inputs": [
        {
          "components": [
            {
              "internalType": "contract IERC20",
              "name": "token",
              "type": "address"
            },
            {
              "internalType": "uint256",
              "name": "forSale",
              "type": "uint256"
            },
            {
              "internalType": "uint256",
              "name": "asking",
              "type": "uint256"
            },
            {
              "internalType": "uint256",
              "name": "buyingStartsAt",
              "type": "uint256"
            },
            {
              "internalType": "uint256",
              "name": "buyingEndsAt",
              "type": "uint256"
            },
            {
              "internalType": "uint256",
              "name": "vestingStartsAt",
              "type": "uint256"
            },
            {
              "internalType": "uint256",
              "name": "vestingEndsAt",
              "type": "uint256"
            }
          ],
          "internalType": "struct Parameters",
          "name": "parameters",
          "type": "tuple"
        },
        {
          "components": [
            {
              "internalType": "contract IERC20",
              "name": "token",
              "type": "address"
            },
            {
              "internalType": "uint256",
              "name": "amount",
              "type": "uint256"
            }
          ],
          "internalType": "struct CollateralInfo",
          "name": "collateralInfo",
          "type": "tuple"
        }
      ],
      "stateMutability": "nonpayable",
      "type": "constructor"
    },
    {
      "anonymous": false,
      "inputs": [
        {
          "indexed": false,
          "internalType": "address",
          "name": "addr",
          "type": "address"
        },
        {
          "indexed": false,
          "internalType": "uint256",
          "name": "amount",
          "type": "uint256"
        }
      ],
      "name": "Claimed",
      "type": "event"
    },
    {
      "anonymous": false,
      "inputs": [
        {
          "indexed": false,
          "internalType": "address",
          "name": "addr",
          "type": "address"
        }
      ],
      "name": "CollateralRefunded",
      "type": "event"
    },
    {
      "anonymous": false,
      "inputs": [
        {
          "indexed": false,
          "internalType": "address",
          "name": "addr",
          "type": "address"
        }
      ],
      "name": "Collateralised",
      "type": "event"
    },
    {
      "anonymous": false,
      "inputs": [
        {
          "indexed": false,
          "internalType": "address",
          "name": "addr",
          "type": "address"
        },
        {
          "indexed": false,
          "internalType": "uint256",
          "name": "amount",
          "type": "uint256"
        }
      ],
      "name": "Contributed",
      "type": "event"
    },
    {
      "anonymous": false,
      "inputs": [
        {
          "indexed": true,
          "internalType": "address",
          "name": "previousOwner",
          "type": "address"
        },
        {
          "indexed": true,
          "internalType": "address",
          "name": "newOwner",
          "type": "address"
        }
      ],
      "name": "OwnershipTransferred",
      "type": "event"
    },
    {
      "anonymous": false,
      "inputs": [
        {
          "indexed": false,
          "internalType": "address",
          "name": "account",
          "type": "address"
        }
      ],
      "name": "Paused",
      "type": "event"
    },
    {
      "anonymous": false,
      "inputs": [
        {
          "indexed": false,
          "internalType": "address",
          "name": "addr",
          "type": "address"
        },
        {
          "indexed": false,
          "internalType": "uint256",
          "name": "amount",
          "type": "uint256"
        }
      ],
      "name": "Refunded",
      "type": "event"
    },
    {
      "anonymous": false,
      "inputs": [
        {
          "indexed": false,
          "internalType": "address",
          "name": "addr",
          "type": "address"
        },
        {
          "indexed": false,
          "internalType": "uint256",
          "name": "amount",
          "type": "uint256"
        }
      ],
      "name": "Returned",
      "type": "event"
    },
    {
      "anonymous": false,
      "inputs": [
        {
          "indexed": true,
          "internalType": "bytes32",
          "name": "role",
          "type": "bytes32"
        },
        {
          "indexed": true,
          "internalType": "bytes32",
          "name": "previousAdminRole",
          "type": "bytes32"
        },
        {
          "indexed": true,
          "internalType": "bytes32",
          "name": "newAdminRole",
          "type": "bytes32"
        }
      ],
      "name": "RoleAdminChanged",
      "type": "event"
    },
    {
      "anonymous": false,
      "inputs": [
        {
          "indexed": true,
          "internalType": "bytes32",
          "name": "role",
          "type": "bytes32"
        },
        {
          "indexed": true,
          "internalType": "address",
          "name": "account",
          "type": "address"
        },
        {
          "indexed": true,
          "internalType": "address",
          "name": "sender",
          "type": "address"
        }
      ],
      "name": "RoleGranted",
      "type": "event"
    },
    {
      "anonymous": false,
      "inputs": [
        {
          "indexed": true,
          "internalType": "bytes32",
          "name": "role",
          "type": "bytes32"
        },
        {
          "indexed": true,
          "internalType": "address",
          "name": "account",
          "type": "address"
        },
        {
          "indexed": true,
          "internalType": "address",
          "name": "sender",
          "type": "address"
        }
      ],
      "name": "RoleRevoked",
      "type": "event"
    },
    {
      "anonymous": false,
      "inputs": [
        {
          "indexed": false,
          "internalType": "address",
          "name": "account",
          "type": "address"
        }
      ],
      "name": "Unpaused",
      "type": "event"
    },
    {
      "anonymous": false,
      "inputs": [
        {
          "indexed": false,
          "internalType": "address",
          "name": "addr",
          "type": "address"
        },
        {
          "indexed": false,
          "internalType": "uint256",
          "name": "amount",
          "type": "uint256"
        }
      ],
      "name": "Withdrawn",
      "type": "event"
    },
    {
      "inputs": [],
      "name": "COLLATERALISED_ROLE",
      "outputs": [
        {
          "internalType": "bytes32",
          "name": "",
          "type": "bytes32"
        }
      ],
      "stateMutability": "view",
      "type": "function"
    },
    {
      "inputs": [],
      "name": "DEFAULT_ADMIN_ROLE",
      "outputs": [
        {
          "internalType": "bytes32",
          "name": "",
          "type": "bytes32"
        }
      ],
      "stateMutability": "view",
      "type": "function"
    },
    {
      "inputs": [],
      "name": "WHITELISTED_ROLE",
      "outputs": [
        {
          "internalType": "bytes32",
          "name": "",
          "type": "bytes32"
        }
      ],
      "stateMutability": "view",
      "type": "function"
    },
    {
      "inputs": [],
      "name": "WHITELISTER_ROLE",
      "outputs": [
        {
          "internalType": "bytes32",
          "name": "",
          "type": "bytes32"
        }
      ],
      "stateMutability": "view",
      "type": "function"
    },
    {
      "inputs": [],
      "name": "claim",
      "outputs": [],
      "stateMutability": "nonpayable",
      "type": "function"
    },
    {
      "inputs": [
        {
          "internalType": "address",
          "name": "addr",
          "type": "address"
        }
      ],
      "name": "claimableOf",
      "outputs": [
        {
          "internalType": "uint256",
          "name": "claimable",
          "type": "uint256"
        }
      ],
      "stateMutability": "view",
      "type": "function"
    },
    {
      "inputs": [],
      "name": "collateralise",
      "outputs": [],
      "stateMutability": "nonpayable",
      "type": "function"
    },
    {
      "inputs": [],
      "name": "contribute",
      "outputs": [],
      "stateMutability": "payable",
      "type": "function"
    },
    {
      "inputs": [
        {
          "internalType": "uint256",
          "name": "amount",
          "type": "uint256"
        }
      ],
      "name": "forceReturn",
      "outputs": [],
      "stateMutability": "nonpayable",
      "type": "function"
    },
    {
      "inputs": [
        {
          "internalType": "uint256",
          "name": "amount",
          "type": "uint256"
        }
      ],
      "name": "forceWithdraw",
      "outputs": [],
      "stateMutability": "nonpayable",
      "type": "function"
    },
    {
      "inputs": [],
      "name": "getCollateralInfo",
      "outputs": [
        {
          "components": [
            {
              "internalType": "contract IERC20",
              "name": "token",
              "type": "address"
            },
            {
              "internalType": "uint256",
              "name": "amount",
              "type": "uint256"
            }
          ],
          "internalType": "struct CollateralInfo",
          "name": "",
          "type": "tuple"
        }
      ],
      "stateMutability": "view",
      "type": "function"
    },
    {
      "inputs": [],
      "name": "getGlobalStats",
      "outputs": [
        {
          "components": [
            {
              "internalType": "uint256",
              "name": "contributed",
              "type": "uint256"
            },
            {
              "internalType": "uint256",
              "name": "claimed",
              "type": "uint256"
            },
            {
              "internalType": "uint256",
              "name": "withdrawn",
              "type": "uint256"
            },
            {
              "internalType": "uint256",
              "name": "returned",
              "type": "uint256"
            }
          ],
          "internalType": "struct GlobalStats",
          "name": "",
          "type": "tuple"
        }
      ],
      "stateMutability": "view",
      "type": "function"
    },
    {
      "inputs": [],
      "name": "getParameters",
      "outputs": [
        {
          "components": [
            {
              "internalType": "contract IERC20",
              "name": "token",
              "type": "address"
            },
            {
              "internalType": "uint256",
              "name": "forSale",
              "type": "uint256"
            },
            {
              "internalType": "uint256",
              "name": "asking",
              "type": "uint256"
            },
            {
              "internalType": "uint256",
              "name": "buyingStartsAt",
              "type": "uint256"
            },
            {
              "internalType": "uint256",
              "name": "buyingEndsAt",
              "type": "uint256"
            },
            {
              "internalType": "uint256",
              "name": "vestingStartsAt",
              "type": "uint256"
            },
            {
              "internalType": "uint256",
              "name": "vestingEndsAt",
              "type": "uint256"
            }
          ],
          "internalType": "struct Parameters",
          "name": "",
          "type": "tuple"
        }
      ],
      "stateMutability": "view",
      "type": "function"
    },
    {
      "inputs": [
        {
          "internalType": "bytes32",
          "name": "role",
          "type": "bytes32"
        }
      ],
      "name": "getRoleAdmin",
      "outputs": [
        {
          "internalType": "bytes32",
          "name": "",
          "type": "bytes32"
        }
      ],
      "stateMutability": "view",
      "type": "function"
    },
    {
      "inputs": [
        {
          "internalType": "bytes32",
          "name": "role",
          "type": "bytes32"
        },
        {
          "internalType": "uint256",
          "name": "index",
          "type": "uint256"
        }
      ],
      "name": "getRoleMember",
      "outputs": [
        {
          "internalType": "address",
          "name": "",
          "type": "address"
        }
      ],
      "stateMutability": "view",
      "type": "function"
    },
    {
      "inputs": [
        {
          "internalType": "bytes32",
          "name": "role",
          "type": "bytes32"
        }
      ],
      "name": "getRoleMemberCount",
      "outputs": [
        {
          "internalType": "uint256",
          "name": "",
          "type": "uint256"
        }
      ],
      "stateMutability": "view",
      "type": "function"
    },
    {
      "inputs": [
        {
          "internalType": "address",
          "name": "addr",
          "type": "address"
        }
      ],
      "name": "getUserStatsOf",
      "outputs": [
        {
          "components": [
            {
              "internalType": "uint256",
              "name": "contributed",
              "type": "uint256"
            },
            {
              "internalType": "uint256",
              "name": "claimed",
              "type": "uint256"
            },
            {
              "internalType": "uint256",
              "name": "refunded",
              "type": "uint256"
            }
          ],
          "internalType": "struct UserStats",
          "name": "",
          "type": "tuple"
        }
      ],
      "stateMutability": "view",
      "type": "function"
    },
    {
      "inputs": [
        {
          "internalType": "bytes32",
          "name": "role",
          "type": "bytes32"
        },
        {
          "internalType": "address",
          "name": "account",
          "type": "address"
        }
      ],
      "name": "grantRole",
      "outputs": [],
      "stateMutability": "nonpayable",
      "type": "function"
    },
    {
      "inputs": [
        {
          "internalType": "bytes32",
          "name": "role",
          "type": "bytes32"
        },
        {
          "internalType": "address",
          "name": "account",
          "type": "address"
        }
      ],
      "name": "hasRole",
      "outputs": [
        {
          "internalType": "bool",
          "name": "",
          "type": "bool"
        }
      ],
      "stateMutability": "view",
      "type": "function"
    },
    {
      "inputs": [],
      "name": "owner",
      "outputs": [
        {
          "internalType": "address",
          "name": "",
          "type": "address"
        }
      ],
      "stateMutability": "view",
      "type": "function"
    },
    {
      "inputs": [],
      "name": "pause",
      "outputs": [],
      "stateMutability": "nonpayable",
      "type": "function"
    },
    {
      "inputs": [],
      "name": "paused",
      "outputs": [
        {
          "internalType": "bool",
          "name": "",
          "type": "bool"
        }
      ],
      "stateMutability": "view",
      "type": "function"
    },
    {
      "inputs": [],
      "name": "refund",
      "outputs": [],
      "stateMutability": "nonpayable",
      "type": "function"
    },
    {
      "inputs": [],
      "name": "refundCollateral",
      "outputs": [],
      "stateMutability": "nonpayable",
      "type": "function"
    },
    {
      "inputs": [
        {
          "internalType": "address",
          "name": "addr",
          "type": "address"
        }
      ],
      "name": "refundableOf",
      "outputs": [
        {
          "internalType": "uint256",
          "name": "refundable",
          "type": "uint256"
        }
      ],
      "stateMutability": "view",
      "type": "function"
    },
    {
      "inputs": [],
      "name": "renounceOwnership",
      "outputs": [],
      "stateMutability": "nonpayable",
      "type": "function"
    },
    {
      "inputs": [
        {
          "internalType": "bytes32",
          "name": "role",
          "type": "bytes32"
        },
        {
          "internalType": "address",
          "name": "account",
          "type": "address"
        }
      ],
      "name": "renounceRole",
      "outputs": [],
      "stateMutability": "nonpayable",
      "type": "function"
    },
    {
      "inputs": [],
      "name": "returnUnsold",
      "outputs": [],
      "stateMutability": "nonpayable",
      "type": "function"
    },
    {
      "inputs": [],
      "name": "returnable",
      "outputs": [
        {
          "internalType": "uint256",
          "name": "",
          "type": "uint256"
        }
      ],
      "stateMutability": "view",
      "type": "function"
    },
    {
      "inputs": [
        {
          "internalType": "bytes32",
          "name": "role",
          "type": "bytes32"
        },
        {
          "internalType": "address",
          "name": "account",
          "type": "address"
        }
      ],
      "name": "revokeRole",
      "outputs": [],
      "stateMutability": "nonpayable",
      "type": "function"
    },
    {
      "inputs": [
        {
          "internalType": "bytes4",
          "name": "interfaceId",
          "type": "bytes4"
        }
      ],
      "name": "supportsInterface",
      "outputs": [
        {
          "internalType": "bool",
          "name": "",
          "type": "bool"
        }
      ],
      "stateMutability": "view",
      "type": "function"
    },
    {
      "inputs": [
        {
          "internalType": "address",
          "name": "newOwner",
          "type": "address"
        }
      ],
      "name": "transferOwnership",
      "outputs": [],
      "stateMutability": "nonpayable",
      "type": "function"
    },
    {
      "inputs": [],
      "name": "unpause",
      "outputs": [],
      "stateMutability": "nonpayable",
      "type": "function"
    },
    {
      "inputs": [],
      "name": "withdraw",
      "outputs": [],
      "stateMutability": "nonpayable",
      "type": "function"
    },
    {
      "inputs": [],
      "name": "withdrawable",
      "outputs": [
        {
          "internalType": "uint256",
          "name": "",
          "type": "uint256"
        }
      ],
      "stateMutability": "view",
      "type": "function"
    }
  ],
  "bytecode": "0x60806040527f54b0854ed6979a3aeff7348aa2e79dc669787b689f50f6d4142c6ab13f8adff2600f557f8619cecd8b9e095ab43867f5b69d492180450fe862e6b50bfbfb24b75dd84c8a6012557f8429d542926e6695b59ac6fbdcd9b37e8b1aeb757afab06ab60b1bb5878c3b496013553480156200007d57600080fd5b50604051620046e0380380620046e08339818101604052810190620000a39190620008c9565b8082620000c5620000b96200028260201b60201c565b6200028a60201b60201c565b60008060146101000a81548160ff021916908315150217905550806000015173ffffffffffffffffffffffffffffffffffffffff166323b872dd333084602001516040518463ffffffff1660e01b8152600401620001269392919062000933565b6020604051808303816000875af115801562000146573d6000803e3d6000fd5b505050506040513d601f19601f820116820180604052508101906200016c9190620009ad565b5080600160008201518160000160006101000a81548173ffffffffffffffffffffffffffffffffffffffff021916908373ffffffffffffffffffffffffffffffffffffffff1602179055506020820151816001015560408201518160020155606082015181600301556080820151816004015560a0820151816005015560c082015181600601559050505080601060008201518160000160006101000a81548173ffffffffffffffffffffffffffffffffffffffff021916908373ffffffffffffffffffffffffffffffffffffffff1602179055506020820151816001015590505050620002656013546012546200034e60201b60201c565b6200027a6000801b33620003b260201b60201c565b5050620009df565b600033905090565b60008060009054906101000a900473ffffffffffffffffffffffffffffffffffffffff169050816000806101000a81548173ffffffffffffffffffffffffffffffffffffffff021916908373ffffffffffffffffffffffffffffffffffffffff1602179055508173ffffffffffffffffffffffffffffffffffffffff168173ffffffffffffffffffffffffffffffffffffffff167f8be0079c531659141344cd1fd0a4f28419497f9722a3daafe3b4186f6b6457e060405160405180910390a35050565b60006200036183620003fa60201b60201c565b905081600d6000858152602001908152602001600020600101819055508181847fbd79b86ffe0ab8e8776151514217cd7cacd52c909f66475c3af44e129f0b00ff60405160405180910390a4505050565b620003c982826200041a60201b62001e061760201c565b620003f581600e60008581526020019081526020016000206200050c60201b62001ee71790919060201c565b505050565b6000600d6000838152602001908152602001600020600101549050919050565b6200042c82826200054460201b60201c565b62000508576001600d600084815260200190815260200160002060000160008373ffffffffffffffffffffffffffffffffffffffff1673ffffffffffffffffffffffffffffffffffffffff16815260200190815260200160002060006101000a81548160ff021916908315150217905550620004ad6200028260201b60201c565b73ffffffffffffffffffffffffffffffffffffffff168173ffffffffffffffffffffffffffffffffffffffff16837f2f8788117e7eff1d82e926ec794901d17c78024a50270940304540a733656f0d60405160405180910390a45b5050565b60006200053c836000018373ffffffffffffffffffffffffffffffffffffffff1660001b620005af60201b60201c565b905092915050565b6000600d600084815260200190815260200160002060000160008373ffffffffffffffffffffffffffffffffffffffff1673ffffffffffffffffffffffffffffffffffffffff16815260200190815260200160002060009054906101000a900460ff16905092915050565b6000620005c383836200062960201b60201c565b6200061e57826000018290806001815401808255809150506001900390600052602060002001600090919091909150558260000180549050836001016000848152602001908152602001600020819055506001905062000623565b600090505b92915050565b600080836001016000848152602001908152602001600020541415905092915050565b6000604051905090565b600080fd5b600080fd5b6000601f19601f8301169050919050565b7f4e487b7100000000000000000000000000000000000000000000000000000000600052604160045260246000fd5b620006ab8262000660565b810181811067ffffffffffffffff82111715620006cd57620006cc62000671565b5b80604052505050565b6000620006e26200064c565b9050620006f08282620006a0565b919050565b600073ffffffffffffffffffffffffffffffffffffffff82169050919050565b60006200072282620006f5565b9050919050565b6000620007368262000715565b9050919050565b620007488162000729565b81146200075457600080fd5b50565b60008151905062000768816200073d565b92915050565b6000819050919050565b62000783816200076e565b81146200078f57600080fd5b50565b600081519050620007a38162000778565b92915050565b600060e08284031215620007c257620007c16200065b565b5b620007ce60e0620006d6565b90506000620007e08482850162000757565b6000830152506020620007f68482850162000792565b60208301525060406200080c8482850162000792565b6040830152506060620008228482850162000792565b6060830152506080620008388482850162000792565b60808301525060a06200084e8482850162000792565b60a08301525060c0620008648482850162000792565b60c08301525092915050565b6000604082840312156200088957620008886200065b565b5b620008956040620006d6565b90506000620008a78482850162000757565b6000830152506020620008bd8482850162000792565b60208301525092915050565b6000806101208385031215620008e457620008e362000656565b5b6000620008f485828601620007a9565b92505060e0620009078582860162000870565b9150509250929050565b6200091c8162000715565b82525050565b6200092d816200076e565b82525050565b60006060820190506200094a600083018662000911565b62000959602083018562000911565b62000968604083018462000922565b949350505050565b60008115159050919050565b620009878162000970565b81146200099357600080fd5b50565b600081519050620009a7816200097c565b92915050565b600060208284031215620009c657620009c562000656565b5b6000620009d68482850162000996565b91505092915050565b613cf180620009ef6000396000f3fe6080604052600436106102045760003560e01c80635feb61911161011857806391d14854116100a0578063b2ea088d1161006f578063b2ea088d146106e9578063ca15c87314610700578063d547741f1461073d578063d7bb99ba14610766578063f2fde38b1461077057610204565b806391d1485414610619578063a217fddf14610656578063a5ea11da14610681578063b22163e3146106ac57610204565b80638456cb59116100e75780638456cb59146105465780638903ab9d1461055d5780638da5cb5b1461059a5780638f705903146105c55780639010d07c146105dc57610204565b80635feb6191146104ae5780636b4169c3146104d9578063715018a6146105045780637a3226ec1461051b57610204565b806336568abe1161019b5780634e71d92d1161016a5780634e71d92d146103ff5780635018830114610416578063570618e114610441578063590e1ae31461046c5780635c975abb1461048357610204565b806336568abe1461037d5780633ccfd60b146103a65780633f4ba83a146103bd5780634da56a6f146103d457610204565b8063248a9ca3116101d7578063248a9ca3146102c35780632bf9935d146103005780632e0bcb43146103295780632f2ff15d1461035457610204565b806301ffc9a7146102095780630fcc56f7146102465780631ae755ee1461026f5780632098b7ff146102ac575b600080fd5b34801561021557600080fd5b50610230600480360381019061022b9190612bdd565b610799565b60405161023d9190612c25565b60405180910390f35b34801561025257600080fd5b5061026d60048036038101906102689190612c76565b610813565b005b34801561027b57600080fd5b5061029660048036038101906102919190612d01565b610909565b6040516102a39190612d7f565b60405180910390f35b3480156102b857600080fd5b506102c1610980565b005b3480156102cf57600080fd5b506102ea60048036038101906102e59190612dd0565b610b01565b6040516102f79190612e0c565b60405180910390f35b34801561030c57600080fd5b5061032760048036038101906103229190612c76565b610b21565b005b34801561033557600080fd5b5061033e610c44565b60405161034b9190612eb5565b60405180910390f35b34801561036057600080fd5b5061037b60048036038101906103769190612ed0565b610cbe565b005b34801561038957600080fd5b506103a4600480360381019061039f9190612ed0565b610ce7565b005b3480156103b257600080fd5b506103bb610d6a565b005b3480156103c957600080fd5b506103d2610f09565b005b3480156103e057600080fd5b506103e9610f8f565b6040516103f69190612f1f565b60405180910390f35b34801561040b57600080fd5b50610414611007565b005b34801561042257600080fd5b5061042b6111ff565b6040516104389190612f1f565b60405180910390f35b34801561044d57600080fd5b5061045661125d565b6040516104639190612e0c565b60405180910390f35b34801561047857600080fd5b50610481611263565b005b34801561048f57600080fd5b50610498611459565b6040516104a59190612c25565b60405180910390f35b3480156104ba57600080fd5b506104c361146f565b6040516104d09190612e0c565b60405180910390f35b3480156104e557600080fd5b506104ee611475565b6040516104fb9190612f8f565b60405180910390f35b34801561051057600080fd5b506105196114b7565b005b34801561052757600080fd5b5061053061153f565b60405161053d9190612e0c565b60405180910390f35b34801561055257600080fd5b5061055b611545565b005b34801561056957600080fd5b50610584600480360381019061057f9190612d01565b6115cb565b6040516105919190612f1f565b60405180910390f35b3480156105a657600080fd5b506105af61161b565b6040516105bc9190612fb9565b60405180910390f35b3480156105d157600080fd5b506105da611644565b005b3480156105e857600080fd5b5061060360048036038101906105fe9190612fd4565b6117c7565b6040516106109190612fb9565b60405180910390f35b34801561062557600080fd5b50610640600480360381019061063b9190612ed0565b6117f6565b60405161064d9190612c25565b60405180910390f35b34801561066257600080fd5b5061066b611861565b6040516106789190612e0c565b60405180910390f35b34801561068d57600080fd5b50610696611868565b6040516106a391906130a2565b60405180910390f35b3480156106b857600080fd5b506106d360048036038101906106ce9190612d01565b611914565b6040516106e09190612f1f565b60405180910390f35b3480156106f557600080fd5b506106fe611964565b005b34801561070c57600080fd5b5061072760048036038101906107229190612dd0565b611b30565b6040516107349190612f1f565b60405180910390f35b34801561074957600080fd5b50610764600480360381019061075f9190612ed0565b611b54565b005b61076e611b7d565b005b34801561077c57600080fd5b5061079760048036038101906107929190612d01565b611d0e565b005b60007f5a05180f000000000000000000000000000000000000000000000000000000007bffffffffffffffffffffffffffffffffffffffffffffffffffffffff1916827bffffffffffffffffffffffffffffffffffffffffffffffffffffffff1916148061080c575061080b82611f17565b5b9050919050565b61081b611f91565b73ffffffffffffffffffffffffffffffffffffffff1661083961161b565b73ffffffffffffffffffffffffffffffffffffffff161461088f576040517f08c379a00000000000000000000000000000000000000000000000000000000081526004016108869061311a565b60405180910390fd5b60003373ffffffffffffffffffffffffffffffffffffffff16826040516108b59061316b565b60006040518083038185875af1925050503d80600081146108f2576040519150601f19603f3d011682016040523d82523d6000602084013e6108f7565b606091505b505090508061090557600080fd5b5050565b610911612ab4565b600c60008373ffffffffffffffffffffffffffffffffffffffff1673ffffffffffffffffffffffffffffffffffffffff16815260200190815260200160002060405180606001604052908160008201548152602001600182015481526020016002820154815250509050919050565b6001600401544210156109c8576040517f08c379a00000000000000000000000000000000000000000000000000000000081526004016109bf906131cc565b60405180910390fd5b6109d4600f54336117f6565b610a13576040517f08c379a0000000000000000000000000000000000000000000000000000000008152600401610a0a90613238565b60405180910390fd5b601060000160009054906101000a900473ffffffffffffffffffffffffffffffffffffffff1673ffffffffffffffffffffffffffffffffffffffff1663a9059cbb336010600101546040518363ffffffff1660e01b8152600401610a78929190613258565b6020604051808303816000875af1158015610a97573d6000803e3d6000fd5b505050506040513d601f19601f82011682018060405250810190610abb91906132ad565b50610ac8600f5433611f99565b7fac1020c5e021e2c2aefe4cf6c0f77fab9c73174ad863b68f51e1abe8b7de0fa233604051610af79190612fb9565b60405180910390a1565b6000600d6000838152602001908152602001600020600101549050919050565b610b29611f91565b73ffffffffffffffffffffffffffffffffffffffff16610b4761161b565b73ffffffffffffffffffffffffffffffffffffffff1614610b9d576040517f08c379a0000000000000000000000000000000000000000000000000000000008152600401610b949061311a565b60405180910390fd5b600160000160009054906101000a900473ffffffffffffffffffffffffffffffffffffffff1673ffffffffffffffffffffffffffffffffffffffff1663a9059cbb33836040518363ffffffff1660e01b8152600401610bfd929190613258565b6020604051808303816000875af1158015610c1c573d6000803e3d6000fd5b505050506040513d601f19601f82011682018060405250810190610c4091906132ad565b5050565b610c4c612ad5565b60106040518060400160405290816000820160009054906101000a900473ffffffffffffffffffffffffffffffffffffffff1673ffffffffffffffffffffffffffffffffffffffff1673ffffffffffffffffffffffffffffffffffffffff168152602001600182015481525050905090565b610cc782610b01565b610cd881610cd3611f91565b611fcd565b610ce2838361206a565b505050565b610cef611f91565b73ffffffffffffffffffffffffffffffffffffffff168173ffffffffffffffffffffffffffffffffffffffff1614610d5c576040517f08c379a0000000000000000000000000000000000000000000000000000000008152600401610d539061334c565b60405180910390fd5b610d668282611f99565b5050565b610d72611f91565b73ffffffffffffffffffffffffffffffffffffffff16610d9061161b565b73ffffffffffffffffffffffffffffffffffffffff1614610de6576040517f08c379a0000000000000000000000000000000000000000000000000000000008152600401610ddd9061311a565b60405180910390fd5b600160040154421015610e2e576040517f08c379a0000000000000000000000000000000000000000000000000000000008152600401610e25906131cc565b60405180910390fd5b6000610e386111ff565b90508060086002016000828254610e4f919061339b565b9250508190555060003373ffffffffffffffffffffffffffffffffffffffff1682604051610e7c9061316b565b60006040518083038185875af1925050503d8060008114610eb9576040519150601f19603f3d011682016040523d82523d6000602084013e610ebe565b606091505b5050905080610ecc57600080fd5b7f7084f5476618d8e60b11ef0d7d3f06914655adb8793e28ff7f018d4c76d505d53383604051610efd929190613258565b60405180910390a15050565b610f11611f91565b73ffffffffffffffffffffffffffffffffffffffff16610f2f61161b565b73ffffffffffffffffffffffffffffffffffffffff1614610f85576040517f08c379a0000000000000000000000000000000000000000000000000000000008152600401610f7c9061311a565b60405180910390fd5b610f8d61209e565b565b6000600160040154421015610fa75760009050611004565b610faf61213f565b15610fbd5760009050611004565b6008600301546001600201546008600001546001800154610fde91906133f1565b610fe8919061347a565b6001800154610ff791906134ab565b61100191906134ab565b90505b90565b61100f611459565b1561104f576040517f08c379a00000000000000000000000000000000000000000000000000000000081526004016110469061352b565b60405180910390fd5b600160050154421015611097576040517f08c379a000000000000000000000000000000000000000000000000000000000815260040161108e90613597565b60405180910390fd5b6000600c60003373ffffffffffffffffffffffffffffffffffffffff1673ffffffffffffffffffffffffffffffffffffffff168152602001908152602001600020905060006110e582612153565b9050808260010160008282546110fb919061339b565b925050819055508060086001016000828254611117919061339b565b92505081905550600160000160009054906101000a900473ffffffffffffffffffffffffffffffffffffffff1673ffffffffffffffffffffffffffffffffffffffff1663a9059cbb33836040518363ffffffff1660e01b815260040161117e929190613258565b6020604051808303816000875af115801561119d573d6000803e3d6000fd5b505050506040513d601f19601f820116820180604052508101906111c191906132ad565b507fd8138f8a3f377c5259ca548e70e4c2de94f129f5a11036a15b69513cba2b426a33826040516111f3929190613258565b60405180910390a15050565b6000600160040154421015611217576000905061125a565b61121f61213f565b156112415760086002015460016002015461123a91906134ab565b905061125a565b60086002015460086000015461125791906134ab565b90505b90565b60125481565b61126b611459565b156112ab576040517f08c379a00000000000000000000000000000000000000000000000000000000081526004016112a29061352b565b60405180910390fd5b6001600401544210156112f3576040517f08c379a00000000000000000000000000000000000000000000000000000000081526004016112ea906131cc565b60405180910390fd5b6112fb61213f565b61133a576040517f08c379a000000000000000000000000000000000000000000000000000000000815260040161133190613603565b60405180910390fd5b6000600c60003373ffffffffffffffffffffffffffffffffffffffff1673ffffffffffffffffffffffffffffffffffffffff1681526020019081526020016000209050600061138882612247565b90508082600201600082825461139e919061339b565b9250508190555060003373ffffffffffffffffffffffffffffffffffffffff16826040516113cb9061316b565b60006040518083038185875af1925050503d8060008114611408576040519150601f19603f3d011682016040523d82523d6000602084013e61140d565b606091505b505090508061141b57600080fd5b7fd7dee2702d63ad89917b6a4da9981c90c4d24f8c2bdfd64c604ecae57d8d0651338360405161144c929190613258565b60405180910390a1505050565b60008060149054906101000a900460ff16905090565b600f5481565b61147d612b05565b6008604051806080016040529081600082015481526020016001820154815260200160028201548152602001600382015481525050905090565b6114bf611f91565b73ffffffffffffffffffffffffffffffffffffffff166114dd61161b565b73ffffffffffffffffffffffffffffffffffffffff1614611533576040517f08c379a000000000000000000000000000000000000000000000000000000000815260040161152a9061311a565b60405180910390fd5b61153d60006122bf565b565b60135481565b61154d611f91565b73ffffffffffffffffffffffffffffffffffffffff1661156b61161b565b73ffffffffffffffffffffffffffffffffffffffff16146115c1576040517f08c379a00000000000000000000000000000000000000000000000000000000081526004016115b89061311a565b60405180910390fd5b6115c9612383565b565b6000611614600c60008473ffffffffffffffffffffffffffffffffffffffff1673ffffffffffffffffffffffffffffffffffffffff168152602001908152602001600020612153565b9050919050565b60008060009054906101000a900473ffffffffffffffffffffffffffffffffffffffff16905090565b600160030154421061168b576040517f08c379a00000000000000000000000000000000000000000000000000000000081526004016116829061366f565b60405180910390fd5b611697600f54336117f6565b156116d7576040517f08c379a00000000000000000000000000000000000000000000000000000000081526004016116ce906136db565b60405180910390fd5b601060000160009054906101000a900473ffffffffffffffffffffffffffffffffffffffff1673ffffffffffffffffffffffffffffffffffffffff166323b872dd33306010600101546040518463ffffffff1660e01b815260040161173e939291906136fb565b6020604051808303816000875af115801561175d573d6000803e3d6000fd5b505050506040513d601f19601f8201168201806040525081019061178191906132ad565b5061178e600f543361206a565b7fc0f50b8a17dd6fe159e4afcbffdf63a4ad6722c59a1aaa0697b9850953bd1a1b336040516117bd9190612fb9565b60405180910390a1565b60006117ee82600e600086815260200190815260200160002061242690919063ffffffff16565b905092915050565b6000600d600084815260200190815260200160002060000160008373ffffffffffffffffffffffffffffffffffffffff1673ffffffffffffffffffffffffffffffffffffffff16815260200190815260200160002060009054906101000a900460ff16905092915050565b6000801b81565b611870612b2d565b60016040518060e00160405290816000820160009054906101000a900473ffffffffffffffffffffffffffffffffffffffff1673ffffffffffffffffffffffffffffffffffffffff1673ffffffffffffffffffffffffffffffffffffffff1681526020016001820154815260200160028201548152602001600382015481526020016004820154815260200160058201548152602001600682015481525050905090565b600061195d600c60008473ffffffffffffffffffffffffffffffffffffffff1673ffffffffffffffffffffffffffffffffffffffff168152602001908152602001600020612247565b9050919050565b61196c611f91565b73ffffffffffffffffffffffffffffffffffffffff1661198a61161b565b73ffffffffffffffffffffffffffffffffffffffff16146119e0576040517f08c379a00000000000000000000000000000000000000000000000000000000081526004016119d79061311a565b60405180910390fd5b600160040154421015611a28576040517f08c379a0000000000000000000000000000000000000000000000000000000008152600401611a1f906131cc565b60405180910390fd5b6000611a32610f8f565b90508060086003016000828254611a49919061339b565b92505081905550600160000160009054906101000a900473ffffffffffffffffffffffffffffffffffffffff1673ffffffffffffffffffffffffffffffffffffffff1663a9059cbb33836040518363ffffffff1660e01b8152600401611ab0929190613258565b6020604051808303816000875af1158015611acf573d6000803e3d6000fd5b505050506040513d601f19601f82011682018060405250810190611af391906132ad565b507fdd81098bbc043431d4a440ca8823673fd1129893ab79f9838df4cf3d5e3812593382604051611b25929190613258565b60405180910390a150565b6000611b4d600e6000848152602001908152602001600020612440565b9050919050565b611b5d82610b01565b611b6e81611b69611f91565b611fcd565b611b788383611f99565b505050565b611b85611459565b15611bc5576040517f08c379a0000000000000000000000000000000000000000000000000000000008152600401611bbc9061352b565b60405180910390fd5b600160030154421015611c0d576040517f08c379a0000000000000000000000000000000000000000000000000000000008152600401611c049061377e565b60405180910390fd5b6001600401544210611c54576040517f08c379a0000000000000000000000000000000000000000000000000000000008152600401611c4b906137ea565b60405180910390fd5b611c5e3334612455565b34600c60003373ffffffffffffffffffffffffffffffffffffffff1673ffffffffffffffffffffffffffffffffffffffff1681526020019081526020016000206000016000828254611cb0919061339b565b925050819055503460086000016000828254611ccc919061339b565b925050819055507f62722348256371b5147820d6cad90c40fd2da1ccee18c3ed52c0bca5a61dbbab3334604051611d04929190613258565b60405180910390a1565b611d16611f91565b73ffffffffffffffffffffffffffffffffffffffff16611d3461161b565b73ffffffffffffffffffffffffffffffffffffffff1614611d8a576040517f08c379a0000000000000000000000000000000000000000000000000000000008152600401611d819061311a565b60405180910390fd5b600073ffffffffffffffffffffffffffffffffffffffff168173ffffffffffffffffffffffffffffffffffffffff161415611dfa576040517f08c379a0000000000000000000000000000000000000000000000000000000008152600401611df19061387c565b60405180910390fd5b611e03816122bf565b50565b611e1082826117f6565b611ee3576001600d600084815260200190815260200160002060000160008373ffffffffffffffffffffffffffffffffffffffff1673ffffffffffffffffffffffffffffffffffffffff16815260200190815260200160002060006101000a81548160ff021916908315150217905550611e88611f91565b73ffffffffffffffffffffffffffffffffffffffff168173ffffffffffffffffffffffffffffffffffffffff16837f2f8788117e7eff1d82e926ec794901d17c78024a50270940304540a733656f0d60405160405180910390a45b5050565b6000611f0f836000018373ffffffffffffffffffffffffffffffffffffffff1660001b612463565b905092915050565b60007f7965db0b000000000000000000000000000000000000000000000000000000007bffffffffffffffffffffffffffffffffffffffffffffffffffffffff1916827bffffffffffffffffffffffffffffffffffffffffffffffffffffffff19161480611f8a5750611f89826124d3565b5b9050919050565b600033905090565b611fa3828261253d565b611fc881600e600085815260200190815260200160002061261f90919063ffffffff16565b505050565b611fd782826117f6565b61206657611ffc8173ffffffffffffffffffffffffffffffffffffffff16601461264f565b61200a8360001c602061264f565b60405160200161201b9291906139ae565b6040516020818303038152906040526040517f08c379a000000000000000000000000000000000000000000000000000000000815260040161205d9190613a32565b60405180910390fd5b5050565b6120748282611e06565b61209981600e6000858152602001908152602001600020611ee790919063ffffffff16565b505050565b6120a6611459565b6120e5576040517f08c379a00000000000000000000000000000000000000000000000000000000081526004016120dc90613aa0565b60405180910390fd5b60008060146101000a81548160ff0219169083151502179055507f5db9ee0a495bf2e6ff9c91a7834c1ba4fdd244a5e8aa4e537bd38aeae4b073aa612128611f91565b6040516121359190612fb9565b60405180910390a1565b600060016002015460086000015411905090565b600060016005015442101561216b5760009050612242565b60006001600501544261217e91906134ab565b9050600060016005015460016006015461219891906134ab565b90506000818311156121aa57816121ac565b825b905060006121b861213f565b156121e857600860000154600180015487600001546121d791906133f1565b6121e1919061347a565b905061220f565b6001800154600160020154876000015461220291906133f1565b61220c919061347a565b90505b600083838361221e91906133f1565b612228919061347a565b905086600101548161223a91906134ab565b955050505050505b919050565b600060016004015442101561225f57600090506122ba565b61226761213f565b61227457600090506122ba565b8160020154600860000154600160020154846000015461229491906133f1565b61229e919061347a565b83600001546122ad91906134ab565b6122b791906134ab565b90505b919050565b60008060009054906101000a900473ffffffffffffffffffffffffffffffffffffffff169050816000806101000a81548173ffffffffffffffffffffffffffffffffffffffff021916908373ffffffffffffffffffffffffffffffffffffffff1602179055508173ffffffffffffffffffffffffffffffffffffffff168173ffffffffffffffffffffffffffffffffffffffff167f8be0079c531659141344cd1fd0a4f28419497f9722a3daafe3b4186f6b6457e060405160405180910390a35050565b61238b611459565b156123cb576040517f08c379a00000000000000000000000000000000000000000000000000000000081526004016123c29061352b565b60405180910390fd5b6001600060146101000a81548160ff0219169083151502179055507f62e78cea01bee320cd4e420270b5ea74000d11b0c9f74754ebdbfc544b05a25861240f611f91565b60405161241c9190612fb9565b60405180910390a1565b6000612435836000018361288b565b60001c905092915050565b600061244e826000016128b6565b9050919050565b61245f82826128c7565b5050565b600061246f8383612920565b6124c85782600001829080600181540180825580915050600190039060005260206000200160009091909190915055826000018054905083600101600084815260200190815260200160002081905550600190506124cd565b600090505b92915050565b60007f01ffc9a7000000000000000000000000000000000000000000000000000000007bffffffffffffffffffffffffffffffffffffffffffffffffffffffff1916827bffffffffffffffffffffffffffffffffffffffffffffffffffffffff1916149050919050565b61254782826117f6565b1561261b576000600d600084815260200190815260200160002060000160008373ffffffffffffffffffffffffffffffffffffffff1673ffffffffffffffffffffffffffffffffffffffff16815260200190815260200160002060006101000a81548160ff0219169083151502179055506125c0611f91565b73ffffffffffffffffffffffffffffffffffffffff168173ffffffffffffffffffffffffffffffffffffffff16837ff6391f5c32d9c69d2a47ea670b442974b53935d1edc7fd64eb21e047a839171b60405160405180910390a45b5050565b6000612647836000018373ffffffffffffffffffffffffffffffffffffffff1660001b612943565b905092915050565b60606000600283600261266291906133f1565b61266c919061339b565b67ffffffffffffffff81111561268557612684613ac0565b5b6040519080825280601f01601f1916602001820160405280156126b75781602001600182028036833780820191505090505b5090507f3000000000000000000000000000000000000000000000000000000000000000816000815181106126ef576126ee613aef565b5b60200101907effffffffffffffffffffffffffffffffffffffffffffffffffffffffffffff1916908160001a9053507f78000000000000000000000000000000000000000000000000000000000000008160018151811061275357612752613aef565b5b60200101907effffffffffffffffffffffffffffffffffffffffffffffffffffffffffffff1916908160001a9053506000600184600261279391906133f1565b61279d919061339b565b90505b600181111561283d577f3031323334353637383961626364656600000000000000000000000000000000600f8616601081106127df576127de613aef565b5b1a60f81b8282815181106127f6576127f5613aef565b5b60200101907effffffffffffffffffffffffffffffffffffffffffffffffffffffffffffff1916908160001a905350600485901c94508061283690613b1e565b90506127a0565b5060008414612881576040517f08c379a000000000000000000000000000000000000000000000000000000000815260040161287890613b94565b60405180910390fd5b8091505092915050565b60008260000182815481106128a3576128a2613aef565b5b9060005260206000200154905092915050565b600081600001805490509050919050565b6128d3601354836117f6565b612912576040517f08c379a000000000000000000000000000000000000000000000000000000000815260040161290990613c00565b60405180910390fd5b61291c8282612a57565b5050565b600080836001016000848152602001908152602001600020541415905092915050565b60008083600101600084815260200190815260200160002054905060008114612a4b57600060018261297591906134ab565b905060006001866000018054905061298d91906134ab565b90508181146129fc5760008660000182815481106129ae576129ad613aef565b5b90600052602060002001549050808760000184815481106129d2576129d1613aef565b5b90600052602060002001819055508387600101600083815260200190815260200160002081905550505b85600001805480612a1057612a0f613c20565b5b600190038181906000526020600020016000905590558560010160008681526020019081526020016000206000905560019350505050612a51565b60009150505b92915050565b612a63600f54836117f6565b612aa2576040517f08c379a0000000000000000000000000000000000000000000000000000000008152600401612a9990613c9b565b60405180910390fd5b612aac8282612ab0565b5050565b5050565b60405180606001604052806000815260200160008152602001600081525090565b6040518060400160405280600073ffffffffffffffffffffffffffffffffffffffff168152602001600081525090565b6040518060800160405280600081526020016000815260200160008152602001600081525090565b6040518060e00160405280600073ffffffffffffffffffffffffffffffffffffffff1681526020016000815260200160008152602001600081526020016000815260200160008152602001600081525090565b600080fd5b60007fffffffff0000000000000000000000000000000000000000000000000000000082169050919050565b612bba81612b85565b8114612bc557600080fd5b50565b600081359050612bd781612bb1565b92915050565b600060208284031215612bf357612bf2612b80565b5b6000612c0184828501612bc8565b91505092915050565b60008115159050919050565b612c1f81612c0a565b82525050565b6000602082019050612c3a6000830184612c16565b92915050565b6000819050919050565b612c5381612c40565b8114612c5e57600080fd5b50565b600081359050612c7081612c4a565b92915050565b600060208284031215612c8c57612c8b612b80565b5b6000612c9a84828501612c61565b91505092915050565b600073ffffffffffffffffffffffffffffffffffffffff82169050919050565b6000612cce82612ca3565b9050919050565b612cde81612cc3565b8114612ce957600080fd5b50565b600081359050612cfb81612cd5565b92915050565b600060208284031215612d1757612d16612b80565b5b6000612d2584828501612cec565b91505092915050565b612d3781612c40565b82525050565b606082016000820151612d536000850182612d2e565b506020820151612d666020850182612d2e565b506040820151612d796040850182612d2e565b50505050565b6000606082019050612d946000830184612d3d565b92915050565b6000819050919050565b612dad81612d9a565b8114612db857600080fd5b50565b600081359050612dca81612da4565b92915050565b600060208284031215612de657612de5612b80565b5b6000612df484828501612dbb565b91505092915050565b612e0681612d9a565b82525050565b6000602082019050612e216000830184612dfd565b92915050565b6000819050919050565b6000612e4c612e47612e4284612ca3565b612e27565b612ca3565b9050919050565b6000612e5e82612e31565b9050919050565b6000612e7082612e53565b9050919050565b612e8081612e65565b82525050565b604082016000820151612e9c6000850182612e77565b506020820151612eaf6020850182612d2e565b50505050565b6000604082019050612eca6000830184612e86565b92915050565b60008060408385031215612ee757612ee6612b80565b5b6000612ef585828601612dbb565b9250506020612f0685828601612cec565b9150509250929050565b612f1981612c40565b82525050565b6000602082019050612f346000830184612f10565b92915050565b608082016000820151612f506000850182612d2e565b506020820151612f636020850182612d2e565b506040820151612f766040850182612d2e565b506060820151612f896060850182612d2e565b50505050565b6000608082019050612fa46000830184612f3a565b92915050565b612fb381612cc3565b82525050565b6000602082019050612fce6000830184612faa565b92915050565b60008060408385031215612feb57612fea612b80565b5b6000612ff985828601612dbb565b925050602061300a85828601612c61565b9150509250929050565b60e08201600082015161302a6000850182612e77565b50602082015161303d6020850182612d2e565b5060408201516130506040850182612d2e565b5060608201516130636060850182612d2e565b5060808201516130766080850182612d2e565b5060a082015161308960a0850182612d2e565b5060c082015161309c60c0850182612d2e565b50505050565b600060e0820190506130b76000830184613014565b92915050565b600082825260208201905092915050565b7f4f776e61626c653a2063616c6c6572206973206e6f7420746865206f776e6572600082015250565b60006131046020836130bd565b915061310f826130ce565b602082019050919050565b60006020820190508181036000830152613133816130f7565b9050919050565b600081905092915050565b50565b600061315560008361313a565b915061316082613145565b600082019050919050565b600061317682613148565b9150819050919050565b7f427579696e6720686173206e6f7420656e646564207965742e00000000000000600082015250565b60006131b66019836130bd565b91506131c182613180565b602082019050919050565b600060208201905081810360008301526131e5816131a9565b9050919050565b7f4e6f7420636f6c6c61746572616c697365642e00000000000000000000000000600082015250565b60006132226013836130bd565b915061322d826131ec565b602082019050919050565b6000602082019050818103600083015261325181613215565b9050919050565b600060408201905061326d6000830185612faa565b61327a6020830184612f10565b9392505050565b61328a81612c0a565b811461329557600080fd5b50565b6000815190506132a781613281565b92915050565b6000602082840312156132c3576132c2612b80565b5b60006132d184828501613298565b91505092915050565b7f416363657373436f6e74726f6c3a2063616e206f6e6c792072656e6f756e636560008201527f20726f6c657320666f722073656c660000000000000000000000000000000000602082015250565b6000613336602f836130bd565b9150613341826132da565b604082019050919050565b6000602082019050818103600083015261336581613329565b9050919050565b7f4e487b7100000000000000000000000000000000000000000000000000000000600052601160045260246000fd5b60006133a682612c40565b91506133b183612c40565b9250827fffffffffffffffffffffffffffffffffffffffffffffffffffffffffffffffff038211156133e6576133e561336c565b5b828201905092915050565b60006133fc82612c40565b915061340783612c40565b9250817fffffffffffffffffffffffffffffffffffffffffffffffffffffffffffffffff04831182151516156134405761343f61336c565b5b828202905092915050565b7f4e487b7100000000000000000000000000000000000000000000000000000000600052601260045260246000fd5b600061348582612c40565b915061349083612c40565b9250826134a05761349f61344b565b5b828204905092915050565b60006134b682612c40565b91506134c183612c40565b9250828210156134d4576134d361336c565b5b828203905092915050565b7f5061757361626c653a2070617573656400000000000000000000000000000000600082015250565b60006135156010836130bd565b9150613520826134df565b602082019050919050565b6000602082019050818103600083015261354481613508565b9050919050565b7f56657374696e6720686173206e6f7420626567756e207965742e000000000000600082015250565b6000613581601a836130bd565b915061358c8261354b565b602082019050919050565b600060208201905081810360008301526135b081613574565b9050919050565b7f546865726520776173206e6f206f766572666c6f772e00000000000000000000600082015250565b60006135ed6016836130bd565b91506135f8826135b7565b602082019050919050565b6000602082019050818103600083015261361c816135e0565b9050919050565b7f427579696e6720686173206e6f7420616c726561647920737461727465642e00600082015250565b6000613659601f836130bd565b915061366482613623565b602082019050919050565b600060208201905081810360008301526136888161364c565b9050919050565b7f416c726561647920636f6c6c61746572616c697365642e000000000000000000600082015250565b60006136c56017836130bd565b91506136d08261368f565b602082019050919050565b600060208201905081810360008301526136f4816136b8565b9050919050565b60006060820190506137106000830186612faa565b61371d6020830185612faa565b61372a6040830184612f10565b949350505050565b7f427579696e6720686173206e6f7420626567756e207965742e00000000000000600082015250565b60006137686019836130bd565b915061377382613732565b602082019050919050565b600060208201905081810360008301526137978161375b565b9050919050565b7f427579696e672068617320656e6465642e000000000000000000000000000000600082015250565b60006137d46011836130bd565b91506137df8261379e565b602082019050919050565b60006020820190508181036000830152613803816137c7565b9050919050565b7f4f776e61626c653a206e6577206f776e657220697320746865207a65726f206160008201527f6464726573730000000000000000000000000000000000000000000000000000602082015250565b60006138666026836130bd565b91506138718261380a565b604082019050919050565b6000602082019050818103600083015261389581613859565b9050919050565b600081905092915050565b7f416363657373436f6e74726f6c3a206163636f756e7420000000000000000000600082015250565b60006138dd60178361389c565b91506138e8826138a7565b601782019050919050565b600081519050919050565b60005b8381101561391c578082015181840152602081019050613901565b8381111561392b576000848401525b50505050565b600061393c826138f3565b613946818561389c565b93506139568185602086016138fe565b80840191505092915050565b7f206973206d697373696e6720726f6c6520000000000000000000000000000000600082015250565b600061399860118361389c565b91506139a382613962565b601182019050919050565b60006139b9826138d0565b91506139c58285613931565b91506139d08261398b565b91506139dc8284613931565b91508190509392505050565b6000601f19601f8301169050919050565b6000613a04826138f3565b613a0e81856130bd565b9350613a1e8185602086016138fe565b613a27816139e8565b840191505092915050565b60006020820190508181036000830152613a4c81846139f9565b905092915050565b7f5061757361626c653a206e6f7420706175736564000000000000000000000000600082015250565b6000613a8a6014836130bd565b9150613a9582613a54565b602082019050919050565b60006020820190508181036000830152613ab981613a7d565b9050919050565b7f4e487b7100000000000000000000000000000000000000000000000000000000600052604160045260246000fd5b7f4e487b7100000000000000000000000000000000000000000000000000000000600052603260045260246000fd5b6000613b2982612c40565b91506000821415613b3d57613b3c61336c565b5b600182039050919050565b7f537472696e67733a20686578206c656e67746820696e73756666696369656e74600082015250565b6000613b7e6020836130bd565b9150613b8982613b48565b602082019050919050565b60006020820190508181036000830152613bad81613b71565b9050919050565b7f5573657220686173206e6f74206265656e2077686974656c69737465642e0000600082015250565b6000613bea601e836130bd565b9150613bf582613bb4565b602082019050919050565b60006020820190508181036000830152613c1981613bdd565b9050919050565b7f4e487b7100000000000000000000000000000000000000000000000000000000600052603160045260246000fd5b7f5573657220686173206e6f7420636f6c6c61746572616c697365642e00000000600082015250565b6000613c85601c836130bd565b9150613c9082613c4f565b602082019050919050565b60006020820190508181036000830152613cb481613c78565b905091905056fea264697066735822122068528a58a7a354a71c4a24768979fcbaf8508d93e38521c34b112dc9583cf0e864736f6c634300080c0033",
  "linkReferences": {},
  "deployedLinkReferences": {}
}