{
  "_format": "hh-sol-artifact-1",
  "contractName": "IDOWithCollateralAndWhitelist",
  "sourceName": "contracts/IDO/IDOWithCollateralAndWhitelist.sol",
  "abi": [
    {
      "inputs": [
        {
          "components": [
            {
              "internalType": "contract IERC20",
              "name": "token",
              "type": "address"
            },
            {
              "internalType": "uint256",
              "name": "forSale",
              "type": "uint256"
            },
            {
              "internalType": "uint256",
              "name": "asking",
              "type": "uint256"
            },
            {
              "internalType": "uint256",
              "name": "buyingStartsAt",
              "type": "uint256"
            },
            {
              "internalType": "uint256",
              "name": "buyingEndsAt",
              "type": "uint256"
            },
            {
              "internalType": "uint256",
              "name": "vestingStartsAt",
              "type": "uint256"
            },
            {
              "internalType": "uint256",
              "name": "vestingEndsAt",
              "type": "uint256"
            }
          ],
          "internalType": "struct Parameters",
          "name": "parameters",
          "type": "tuple"
        },
        {
          "components": [
            {
              "internalType": "contract IERC20",
              "name": "token",
              "type": "address"
            },
            {
              "internalType": "uint256",
              "name": "amount",
              "type": "uint256"
            }
          ],
          "internalType": "struct CollateralInfo",
          "name": "collateralInfo",
          "type": "tuple"
        }
      ],
      "stateMutability": "nonpayable",
      "type": "constructor"
    },
    {
      "anonymous": false,
      "inputs": [
        {
          "indexed": false,
          "internalType": "address",
          "name": "addr",
          "type": "address"
        },
        {
          "indexed": false,
          "internalType": "uint256",
          "name": "amount",
          "type": "uint256"
        }
      ],
      "name": "Claimed",
      "type": "event"
    },
    {
      "anonymous": false,
      "inputs": [
        {
          "indexed": false,
          "internalType": "address",
          "name": "addr",
          "type": "address"
        }
      ],
      "name": "CollateralRefunded",
      "type": "event"
    },
    {
      "anonymous": false,
      "inputs": [
        {
          "indexed": false,
          "internalType": "address",
          "name": "addr",
          "type": "address"
        }
      ],
      "name": "Collateralised",
      "type": "event"
    },
    {
      "anonymous": false,
      "inputs": [
        {
          "indexed": false,
          "internalType": "address",
          "name": "addr",
          "type": "address"
        },
        {
          "indexed": false,
          "internalType": "uint256",
          "name": "amount",
          "type": "uint256"
        }
      ],
      "name": "Contributed",
      "type": "event"
    },
    {
      "anonymous": false,
      "inputs": [
        {
          "indexed": true,
          "internalType": "address",
          "name": "previousOwner",
          "type": "address"
        },
        {
          "indexed": true,
          "internalType": "address",
          "name": "newOwner",
          "type": "address"
        }
      ],
      "name": "OwnershipTransferred",
      "type": "event"
    },
    {
      "anonymous": false,
      "inputs": [
        {
          "indexed": false,
          "internalType": "address",
          "name": "account",
          "type": "address"
        }
      ],
      "name": "Paused",
      "type": "event"
    },
    {
      "anonymous": false,
      "inputs": [
        {
          "indexed": false,
          "internalType": "address",
          "name": "addr",
          "type": "address"
        },
        {
          "indexed": false,
          "internalType": "uint256",
          "name": "amount",
          "type": "uint256"
        }
      ],
      "name": "Refunded",
      "type": "event"
    },
    {
      "anonymous": false,
      "inputs": [
        {
          "indexed": false,
          "internalType": "address",
          "name": "addr",
          "type": "address"
        },
        {
          "indexed": false,
          "internalType": "uint256",
          "name": "amount",
          "type": "uint256"
        }
      ],
      "name": "Returned",
      "type": "event"
    },
    {
      "anonymous": false,
      "inputs": [
        {
          "indexed": true,
          "internalType": "bytes32",
          "name": "role",
          "type": "bytes32"
        },
        {
          "indexed": true,
          "internalType": "bytes32",
          "name": "previousAdminRole",
          "type": "bytes32"
        },
        {
          "indexed": true,
          "internalType": "bytes32",
          "name": "newAdminRole",
          "type": "bytes32"
        }
      ],
      "name": "RoleAdminChanged",
      "type": "event"
    },
    {
      "anonymous": false,
      "inputs": [
        {
          "indexed": true,
          "internalType": "bytes32",
          "name": "role",
          "type": "bytes32"
        },
        {
          "indexed": true,
          "internalType": "address",
          "name": "account",
          "type": "address"
        },
        {
          "indexed": true,
          "internalType": "address",
          "name": "sender",
          "type": "address"
        }
      ],
      "name": "RoleGranted",
      "type": "event"
    },
    {
      "anonymous": false,
      "inputs": [
        {
          "indexed": true,
          "internalType": "bytes32",
          "name": "role",
          "type": "bytes32"
        },
        {
          "indexed": true,
          "internalType": "address",
          "name": "account",
          "type": "address"
        },
        {
          "indexed": true,
          "internalType": "address",
          "name": "sender",
          "type": "address"
        }
      ],
      "name": "RoleRevoked",
      "type": "event"
    },
    {
      "anonymous": false,
      "inputs": [
        {
          "indexed": false,
          "internalType": "address",
          "name": "account",
          "type": "address"
        }
      ],
      "name": "Unpaused",
      "type": "event"
    },
    {
      "anonymous": false,
      "inputs": [
        {
          "indexed": false,
          "internalType": "address",
          "name": "addr",
          "type": "address"
        },
        {
          "indexed": false,
          "internalType": "uint256",
          "name": "amount",
          "type": "uint256"
        }
      ],
      "name": "Withdrawn",
      "type": "event"
    },
    {
      "inputs": [],
      "name": "COLLATERALISED_ROLE",
      "outputs": [
        {
          "internalType": "bytes32",
          "name": "",
          "type": "bytes32"
        }
      ],
      "stateMutability": "view",
      "type": "function"
    },
    {
      "inputs": [],
      "name": "DEFAULT_ADMIN_ROLE",
      "outputs": [
        {
          "internalType": "bytes32",
          "name": "",
          "type": "bytes32"
        }
      ],
      "stateMutability": "view",
      "type": "function"
    },
    {
      "inputs": [],
      "name": "WHITELISTED_ROLE",
      "outputs": [
        {
          "internalType": "bytes32",
          "name": "",
          "type": "bytes32"
        }
      ],
      "stateMutability": "view",
      "type": "function"
    },
    {
      "inputs": [],
      "name": "WHITELISTER_ROLE",
      "outputs": [
        {
          "internalType": "bytes32",
          "name": "",
          "type": "bytes32"
        }
      ],
      "stateMutability": "view",
      "type": "function"
    },
    {
      "inputs": [],
      "name": "claim",
      "outputs": [],
      "stateMutability": "nonpayable",
      "type": "function"
    },
    {
      "inputs": [
        {
          "internalType": "address",
          "name": "addr",
          "type": "address"
        }
      ],
      "name": "claimableOf",
      "outputs": [
        {
          "internalType": "uint256",
          "name": "claimable",
          "type": "uint256"
        }
      ],
      "stateMutability": "view",
      "type": "function"
    },
    {
      "inputs": [],
      "name": "collateralise",
      "outputs": [],
      "stateMutability": "nonpayable",
      "type": "function"
    },
    {
      "inputs": [],
      "name": "contribute",
      "outputs": [],
      "stateMutability": "payable",
      "type": "function"
    },
    {
      "inputs": [
        {
          "internalType": "uint256",
          "name": "amount",
          "type": "uint256"
        }
      ],
      "name": "forceReturn",
      "outputs": [],
      "stateMutability": "nonpayable",
      "type": "function"
    },
    {
      "inputs": [
        {
          "internalType": "uint256",
          "name": "amount",
          "type": "uint256"
        }
      ],
      "name": "forceWithdraw",
      "outputs": [],
      "stateMutability": "nonpayable",
      "type": "function"
    },
    {
      "inputs": [],
      "name": "getCollateralInfo",
      "outputs": [
        {
          "components": [
            {
              "internalType": "contract IERC20",
              "name": "token",
              "type": "address"
            },
            {
              "internalType": "uint256",
              "name": "amount",
              "type": "uint256"
            }
          ],
          "internalType": "struct CollateralInfo",
          "name": "",
          "type": "tuple"
        }
      ],
      "stateMutability": "view",
      "type": "function"
    },
    {
      "inputs": [],
      "name": "getGlobalStats",
      "outputs": [
        {
          "components": [
            {
              "internalType": "uint256",
              "name": "contributed",
              "type": "uint256"
            },
            {
              "internalType": "uint256",
              "name": "claimed",
              "type": "uint256"
            },
            {
              "internalType": "uint256",
              "name": "withdrawn",
              "type": "uint256"
            },
            {
              "internalType": "uint256",
              "name": "returned",
              "type": "uint256"
            }
          ],
          "internalType": "struct GlobalStats",
          "name": "",
          "type": "tuple"
        }
      ],
      "stateMutability": "view",
      "type": "function"
    },
    {
      "inputs": [],
      "name": "getParameters",
      "outputs": [
        {
          "components": [
            {
              "internalType": "contract IERC20",
              "name": "token",
              "type": "address"
            },
            {
              "internalType": "uint256",
              "name": "forSale",
              "type": "uint256"
            },
            {
              "internalType": "uint256",
              "name": "asking",
              "type": "uint256"
            },
            {
              "internalType": "uint256",
              "name": "buyingStartsAt",
              "type": "uint256"
            },
            {
              "internalType": "uint256",
              "name": "buyingEndsAt",
              "type": "uint256"
            },
            {
              "internalType": "uint256",
              "name": "vestingStartsAt",
              "type": "uint256"
            },
            {
              "internalType": "uint256",
              "name": "vestingEndsAt",
              "type": "uint256"
            }
          ],
          "internalType": "struct Parameters",
          "name": "",
          "type": "tuple"
        }
      ],
      "stateMutability": "view",
      "type": "function"
    },
    {
      "inputs": [
        {
          "internalType": "bytes32",
          "name": "role",
          "type": "bytes32"
        }
      ],
      "name": "getRoleAdmin",
      "outputs": [
        {
          "internalType": "bytes32",
          "name": "",
          "type": "bytes32"
        }
      ],
      "stateMutability": "view",
      "type": "function"
    },
    {
      "inputs": [
        {
          "internalType": "bytes32",
          "name": "role",
          "type": "bytes32"
        },
        {
          "internalType": "uint256",
          "name": "index",
          "type": "uint256"
        }
      ],
      "name": "getRoleMember",
      "outputs": [
        {
          "internalType": "address",
          "name": "",
          "type": "address"
        }
      ],
      "stateMutability": "view",
      "type": "function"
    },
    {
      "inputs": [
        {
          "internalType": "bytes32",
          "name": "role",
          "type": "bytes32"
        }
      ],
      "name": "getRoleMemberCount",
      "outputs": [
        {
          "internalType": "uint256",
          "name": "",
          "type": "uint256"
        }
      ],
      "stateMutability": "view",
      "type": "function"
    },
    {
      "inputs": [
        {
          "internalType": "address",
          "name": "addr",
          "type": "address"
        }
      ],
      "name": "getUserStatsOf",
      "outputs": [
        {
          "components": [
            {
              "internalType": "uint256",
              "name": "contributed",
              "type": "uint256"
            },
            {
              "internalType": "uint256",
              "name": "claimed",
              "type": "uint256"
            },
            {
              "internalType": "uint256",
              "name": "refunded",
              "type": "uint256"
            }
          ],
          "internalType": "struct UserStats",
          "name": "",
          "type": "tuple"
        }
      ],
      "stateMutability": "view",
      "type": "function"
    },
    {
      "inputs": [
        {
          "internalType": "bytes32",
          "name": "role",
          "type": "bytes32"
        },
        {
          "internalType": "address",
          "name": "account",
          "type": "address"
        }
      ],
      "name": "grantRole",
      "outputs": [],
      "stateMutability": "nonpayable",
      "type": "function"
    },
    {
      "inputs": [
        {
          "internalType": "bytes32",
          "name": "role",
          "type": "bytes32"
        },
        {
          "internalType": "address",
          "name": "account",
          "type": "address"
        }
      ],
      "name": "hasRole",
      "outputs": [
        {
          "internalType": "bool",
          "name": "",
          "type": "bool"
        }
      ],
      "stateMutability": "view",
      "type": "function"
    },
    {
      "inputs": [],
      "name": "owner",
      "outputs": [
        {
          "internalType": "address",
          "name": "",
          "type": "address"
        }
      ],
      "stateMutability": "view",
      "type": "function"
    },
    {
      "inputs": [],
      "name": "pause",
      "outputs": [],
      "stateMutability": "nonpayable",
      "type": "function"
    },
    {
      "inputs": [],
      "name": "paused",
      "outputs": [
        {
          "internalType": "bool",
          "name": "",
          "type": "bool"
        }
      ],
      "stateMutability": "view",
      "type": "function"
    },
    {
      "inputs": [],
      "name": "refund",
      "outputs": [],
      "stateMutability": "nonpayable",
      "type": "function"
    },
    {
      "inputs": [],
      "name": "refundCollateral",
      "outputs": [],
      "stateMutability": "nonpayable",
      "type": "function"
    },
    {
      "inputs": [
        {
          "internalType": "address",
          "name": "addr",
          "type": "address"
        }
      ],
      "name": "refundableOf",
      "outputs": [
        {
          "internalType": "uint256",
          "name": "refundable",
          "type": "uint256"
        }
      ],
      "stateMutability": "view",
      "type": "function"
    },
    {
      "inputs": [],
      "name": "renounceOwnership",
      "outputs": [],
      "stateMutability": "nonpayable",
      "type": "function"
    },
    {
      "inputs": [
        {
          "internalType": "bytes32",
          "name": "role",
          "type": "bytes32"
        },
        {
          "internalType": "address",
          "name": "account",
          "type": "address"
        }
      ],
      "name": "renounceRole",
      "outputs": [],
      "stateMutability": "nonpayable",
      "type": "function"
    },
    {
      "inputs": [],
      "name": "returnUnsold",
      "outputs": [],
      "stateMutability": "nonpayable",
      "type": "function"
    },
    {
      "inputs": [],
      "name": "returnable",
      "outputs": [
        {
          "internalType": "uint256",
          "name": "",
          "type": "uint256"
        }
      ],
      "stateMutability": "view",
      "type": "function"
    },
    {
      "inputs": [
        {
          "internalType": "bytes32",
          "name": "role",
          "type": "bytes32"
        },
        {
          "internalType": "address",
          "name": "account",
          "type": "address"
        }
      ],
      "name": "revokeRole",
      "outputs": [],
      "stateMutability": "nonpayable",
      "type": "function"
    },
    {
      "inputs": [
        {
          "internalType": "bytes4",
          "name": "interfaceId",
          "type": "bytes4"
        }
      ],
      "name": "supportsInterface",
      "outputs": [
        {
          "internalType": "bool",
          "name": "",
          "type": "bool"
        }
      ],
      "stateMutability": "view",
      "type": "function"
    },
    {
      "inputs": [
        {
          "internalType": "address",
          "name": "newOwner",
          "type": "address"
        }
      ],
      "name": "transferOwnership",
      "outputs": [],
      "stateMutability": "nonpayable",
      "type": "function"
    },
    {
      "inputs": [],
      "name": "unpause",
      "outputs": [],
      "stateMutability": "nonpayable",
      "type": "function"
    },
    {
      "inputs": [],
      "name": "withdraw",
      "outputs": [],
      "stateMutability": "nonpayable",
      "type": "function"
    },
    {
      "inputs": [],
      "name": "withdrawable",
      "outputs": [
        {
          "internalType": "uint256",
          "name": "",
          "type": "uint256"
        }
      ],
      "stateMutability": "view",
      "type": "function"
    }
  ],
  "bytecode": "0x60806040527f54b0854ed6979a3aeff7348aa2e79dc669787b689f50f6d4142c6ab13f8adff26010557f8619cecd8b9e095ab43867f5b69d492180450fe862e6b50bfbfb24b75dd84c8a6013557f8429d542926e6695b59ac6fbdcd9b37e8b1aeb757afab06ab60b1bb5878c3b496014553480156200007d57600080fd5b5060405162004b3538038062004b358339818101604052810190620000a3919062000842565b8082620000c5620000b9620001fb60201b60201c565b6200020360201b60201c565b60008060146101000a81548160ff0219169083151502179055506001808190555080600260008201518160000160006101000a81548173ffffffffffffffffffffffffffffffffffffffff021916908373ffffffffffffffffffffffffffffffffffffffff1602179055506020820151816001015560408201518160020155606082015181600301556080820151816004015560a0820151816005015560c082015181600601559050505080601160008201518160000160006101000a81548173ffffffffffffffffffffffffffffffffffffffff021916908373ffffffffffffffffffffffffffffffffffffffff1602179055506020820151816001015590505050620001de601454601354620002c760201b60201c565b620001f36000801b336200032b60201b60201c565b50506200088a565b600033905090565b60008060009054906101000a900473ffffffffffffffffffffffffffffffffffffffff169050816000806101000a81548173ffffffffffffffffffffffffffffffffffffffff021916908373ffffffffffffffffffffffffffffffffffffffff1602179055508173ffffffffffffffffffffffffffffffffffffffff168173ffffffffffffffffffffffffffffffffffffffff167f8be0079c531659141344cd1fd0a4f28419497f9722a3daafe3b4186f6b6457e060405160405180910390a35050565b6000620002da836200037360201b60201c565b905081600e6000858152602001908152602001600020600101819055508181847fbd79b86ffe0ab8e8776151514217cd7cacd52c909f66475c3af44e129f0b00ff60405160405180910390a4505050565b6200034282826200039360201b62001db11760201c565b6200036e81600f60008581526020019081526020016000206200048560201b62001e921790919060201c565b505050565b6000600e6000838152602001908152602001600020600101549050919050565b620003a58282620004bd60201b60201c565b62000481576001600e600084815260200190815260200160002060000160008373ffffffffffffffffffffffffffffffffffffffff1673ffffffffffffffffffffffffffffffffffffffff16815260200190815260200160002060006101000a81548160ff02191690831515021790555062000426620001fb60201b60201c565b73ffffffffffffffffffffffffffffffffffffffff168173ffffffffffffffffffffffffffffffffffffffff16837f2f8788117e7eff1d82e926ec794901d17c78024a50270940304540a733656f0d60405160405180910390a45b5050565b6000620004b5836000018373ffffffffffffffffffffffffffffffffffffffff1660001b6200052860201b60201c565b905092915050565b6000600e600084815260200190815260200160002060000160008373ffffffffffffffffffffffffffffffffffffffff1673ffffffffffffffffffffffffffffffffffffffff16815260200190815260200160002060009054906101000a900460ff16905092915050565b60006200053c8383620005a260201b60201c565b620005975782600001829080600181540180825580915050600190039060005260206000200160009091909190915055826000018054905083600101600084815260200190815260200160002081905550600190506200059c565b600090505b92915050565b600080836001016000848152602001908152602001600020541415905092915050565b6000604051905090565b600080fd5b600080fd5b6000601f19601f8301169050919050565b7f4e487b7100000000000000000000000000000000000000000000000000000000600052604160045260246000fd5b6200062482620005d9565b810181811067ffffffffffffffff82111715620006465762000645620005ea565b5b80604052505050565b60006200065b620005c5565b905062000669828262000619565b919050565b600073ffffffffffffffffffffffffffffffffffffffff82169050919050565b60006200069b826200066e565b9050919050565b6000620006af826200068e565b9050919050565b620006c181620006a2565b8114620006cd57600080fd5b50565b600081519050620006e181620006b6565b92915050565b6000819050919050565b620006fc81620006e7565b81146200070857600080fd5b50565b6000815190506200071c81620006f1565b92915050565b600060e082840312156200073b576200073a620005d4565b5b6200074760e06200064f565b905060006200075984828501620006d0565b60008301525060206200076f848285016200070b565b602083015250604062000785848285016200070b565b60408301525060606200079b848285016200070b565b6060830152506080620007b1848285016200070b565b60808301525060a0620007c7848285016200070b565b60a08301525060c0620007dd848285016200070b565b60c08301525092915050565b600060408284031215620008025762000801620005d4565b5b6200080e60406200064f565b905060006200082084828501620006d0565b600083015250602062000836848285016200070b565b60208301525092915050565b60008061012083850312156200085d576200085c620005cf565b5b60006200086d8582860162000722565b92505060e06200088085828601620007e9565b9150509250929050565b61429b806200089a6000396000f3fe6080604052600436106102045760003560e01c80635feb61911161011857806391d14854116100a0578063b2ea088d1161006f578063b2ea088d146106e9578063ca15c87314610700578063d547741f1461073d578063d7bb99ba14610766578063f2fde38b1461077057610204565b806391d1485414610619578063a217fddf14610656578063a5ea11da14610681578063b22163e3146106ac57610204565b80638456cb59116100e75780638456cb59146105465780638903ab9d1461055d5780638da5cb5b1461059a5780638f705903146105c55780639010d07c146105dc57610204565b80635feb6191146104ae5780636b4169c3146104d9578063715018a6146105045780637a3226ec1461051b57610204565b806336568abe1161019b5780634e71d92d1161016a5780634e71d92d146103ff5780635018830114610416578063570618e114610441578063590e1ae31461046c5780635c975abb1461048357610204565b806336568abe1461037d5780633ccfd60b146103a65780633f4ba83a146103bd5780634da56a6f146103d457610204565b8063248a9ca3116101d7578063248a9ca3146102c35780632bf9935d146103005780632e0bcb43146103295780632f2ff15d1461035457610204565b806301ffc9a7146102095780630fcc56f7146102465780631ae755ee1461026f5780632098b7ff146102ac575b600080fd5b34801561021557600080fd5b50610230600480360381019061022b9190612f13565b610799565b60405161023d9190612f5b565b60405180910390f35b34801561025257600080fd5b5061026d60048036038101906102689190612fac565b610813565b005b34801561027b57600080fd5b5061029660048036038101906102919190613037565b610909565b6040516102a391906130b5565b60405180910390f35b3480156102b857600080fd5b506102c1610980565b005b3480156102cf57600080fd5b506102ea60048036038101906102e59190613106565b610b01565b6040516102f79190613142565b60405180910390f35b34801561030c57600080fd5b5061032760048036038101906103229190612fac565b610b21565b005b34801561033557600080fd5b5061033e610bf0565b60405161034b91906131eb565b60405180910390f35b34801561036057600080fd5b5061037b60048036038101906103769190613206565b610c6a565b005b34801561038957600080fd5b506103a4600480360381019061039f9190613206565b610c93565b005b3480156103b257600080fd5b506103bb610d16565b005b3480156103c957600080fd5b506103d2610eb5565b005b3480156103e057600080fd5b506103e9610f3b565b6040516103f69190613255565b60405180910390f35b34801561040b57600080fd5b50610414610fb4565b005b34801561042257600080fd5b5061042b6111ac565b6040516104389190613255565b60405180910390f35b34801561044d57600080fd5b50610456611209565b6040516104639190613142565b60405180910390f35b34801561047857600080fd5b5061048161120f565b005b34801561048f57600080fd5b50610498611459565b6040516104a59190612f5b565b60405180910390f35b3480156104ba57600080fd5b506104c361146f565b6040516104d09190613142565b60405180910390f35b3480156104e557600080fd5b506104ee611475565b6040516104fb91906132c5565b60405180910390f35b34801561051057600080fd5b506105196114b7565b005b34801561052757600080fd5b5061053061153f565b60405161053d9190613142565b60405180910390f35b34801561055257600080fd5b5061055b611545565b005b34801561056957600080fd5b50610584600480360381019061057f9190613037565b6115cb565b6040516105919190613255565b60405180910390f35b3480156105a657600080fd5b506105af61161b565b6040516105bc91906132ef565b60405180910390f35b3480156105d157600080fd5b506105da611644565b005b3480156105e857600080fd5b5061060360048036038101906105fe919061330a565b6117c7565b60405161061091906132ef565b60405180910390f35b34801561062557600080fd5b50610640600480360381019061063b9190613206565b6117f6565b60405161064d9190612f5b565b60405180910390f35b34801561066257600080fd5b5061066b611861565b6040516106789190613142565b60405180910390f35b34801561068d57600080fd5b50610696611868565b6040516106a391906133d8565b60405180910390f35b3480156106b857600080fd5b506106d360048036038101906106ce9190613037565b611914565b6040516106e09190613255565b60405180910390f35b3480156106f557600080fd5b506106fe611964565b005b34801561070c57600080fd5b5061072760048036038101906107229190613106565b611adc565b6040516107349190613255565b60405180910390f35b34801561074957600080fd5b50610764600480360381019061075f9190613206565b611b00565b005b61076e611b29565b005b34801561077c57600080fd5b5061079760048036038101906107929190613037565b611cba565b005b60007f5a05180f000000000000000000000000000000000000000000000000000000007bffffffffffffffffffffffffffffffffffffffffffffffffffffffff1916827bffffffffffffffffffffffffffffffffffffffffffffffffffffffff1916148061080c575061080b82611ec2565b5b9050919050565b61081b611f3c565b73ffffffffffffffffffffffffffffffffffffffff1661083961161b565b73ffffffffffffffffffffffffffffffffffffffff161461088f576040517f08c379a000000000000000000000000000000000000000000000000000000000815260040161088690613450565b60405180910390fd5b60003373ffffffffffffffffffffffffffffffffffffffff16826040516108b5906134a1565b60006040518083038185875af1925050503d80600081146108f2576040519150601f19603f3d011682016040523d82523d6000602084013e6108f7565b606091505b505090508061090557600080fd5b5050565b610911612dea565b600d60008373ffffffffffffffffffffffffffffffffffffffff1673ffffffffffffffffffffffffffffffffffffffff16815260200190815260200160002060405180606001604052908160008201548152602001600182015481526020016002820154815250509050919050565b6002600154036109c5576040517f08c379a00000000000000000000000000000000000000000000000000000000081526004016109bc90613502565b60405180910390fd5b6002600181905550600260040154421015610a15576040517f08c379a0000000000000000000000000000000000000000000000000000000008152600401610a0c9061356e565b60405180910390fd5b610a21601054336117f6565b610a60576040517f08c379a0000000000000000000000000000000000000000000000000000000008152600401610a57906135da565b60405180910390fd5b610ab533601160010154601160000160009054906101000a900473ffffffffffffffffffffffffffffffffffffffff1673ffffffffffffffffffffffffffffffffffffffff16611f449092919063ffffffff16565b610ac160105433611fca565b7fac1020c5e021e2c2aefe4cf6c0f77fab9c73174ad863b68f51e1abe8b7de0fa233604051610af091906132ef565b60405180910390a160018081905550565b6000600e6000838152602001908152602001600020600101549050919050565b610b29611f3c565b73ffffffffffffffffffffffffffffffffffffffff16610b4761161b565b73ffffffffffffffffffffffffffffffffffffffff1614610b9d576040517f08c379a0000000000000000000000000000000000000000000000000000000008152600401610b9490613450565b60405180910390fd5b610bed3382600260000160009054906101000a900473ffffffffffffffffffffffffffffffffffffffff1673ffffffffffffffffffffffffffffffffffffffff16611f449092919063ffffffff16565b50565b610bf8612e0b565b60116040518060400160405290816000820160009054906101000a900473ffffffffffffffffffffffffffffffffffffffff1673ffffffffffffffffffffffffffffffffffffffff1673ffffffffffffffffffffffffffffffffffffffff168152602001600182015481525050905090565b610c7382610b01565b610c8481610c7f611f3c565b611ffe565b610c8e838361209b565b505050565b610c9b611f3c565b73ffffffffffffffffffffffffffffffffffffffff168173ffffffffffffffffffffffffffffffffffffffff1614610d08576040517f08c379a0000000000000000000000000000000000000000000000000000000008152600401610cff9061366c565b60405180910390fd5b610d128282611fca565b5050565b610d1e611f3c565b73ffffffffffffffffffffffffffffffffffffffff16610d3c61161b565b73ffffffffffffffffffffffffffffffffffffffff1614610d92576040517f08c379a0000000000000000000000000000000000000000000000000000000008152600401610d8990613450565b60405180910390fd5b600260040154421015610dda576040517f08c379a0000000000000000000000000000000000000000000000000000000008152600401610dd19061356e565b60405180910390fd5b6000610de46111ac565b90508060096002016000828254610dfb91906136bb565b9250508190555060003373ffffffffffffffffffffffffffffffffffffffff1682604051610e28906134a1565b60006040518083038185875af1925050503d8060008114610e65576040519150601f19603f3d011682016040523d82523d6000602084013e610e6a565b606091505b5050905080610e7857600080fd5b7f7084f5476618d8e60b11ef0d7d3f06914655adb8793e28ff7f018d4c76d505d53383604051610ea9929190613711565b60405180910390a15050565b610ebd611f3c565b73ffffffffffffffffffffffffffffffffffffffff16610edb61161b565b73ffffffffffffffffffffffffffffffffffffffff1614610f31576040517f08c379a0000000000000000000000000000000000000000000000000000000008152600401610f2890613450565b60405180910390fd5b610f396120cf565b565b6000600260040154421015610f535760009050610fb1565b610f5b612170565b15610f695760009050610fb1565b6009600301546002800154600960000154600260010154610f8a919061373a565b610f9491906137c3565b600260010154610fa491906137f4565b610fae91906137f4565b90505b90565b600260015403610ff9576040517f08c379a0000000000000000000000000000000000000000000000000000000008152600401610ff090613502565b60405180910390fd5b6002600181905550611009611459565b15611049576040517f08c379a000000000000000000000000000000000000000000000000000000000815260040161104090613874565b60405180910390fd5b600260050154421015611091576040517f08c379a0000000000000000000000000000000000000000000000000000000008152600401611088906138e0565b60405180910390fd5b6000600d60003373ffffffffffffffffffffffffffffffffffffffff1673ffffffffffffffffffffffffffffffffffffffff168152602001908152602001600020905060006110df82612183565b9050808260010160008282546110f591906136bb565b92505081905550806009600101600082825461111191906136bb565b925050819055506111683382600260000160009054906101000a900473ffffffffffffffffffffffffffffffffffffffff1673ffffffffffffffffffffffffffffffffffffffff16611f449092919063ffffffff16565b7fd8138f8a3f377c5259ca548e70e4c2de94f129f5a11036a15b69513cba2b426a3382604051611199929190613711565b60405180910390a1505060018081905550565b60006002600401544210156111c45760009050611206565b6111cc612170565b156111ed5760096002015460028001546111e691906137f4565b9050611206565b60096002015460096000015461120391906137f4565b90505b90565b60135481565b600260015403611254576040517f08c379a000000000000000000000000000000000000000000000000000000000815260040161124b90613502565b60405180910390fd5b6002600181905550611264611459565b156112a4576040517f08c379a000000000000000000000000000000000000000000000000000000000815260040161129b90613874565b60405180910390fd5b6002600401544210156112ec576040517f08c379a00000000000000000000000000000000000000000000000000000000081526004016112e39061356e565b60405180910390fd5b6112f4612170565b611333576040517f08c379a000000000000000000000000000000000000000000000000000000000815260040161132a9061394c565b60405180910390fd5b6000600d60003373ffffffffffffffffffffffffffffffffffffffff1673ffffffffffffffffffffffffffffffffffffffff1681526020019081526020016000209050600061138182612278565b90508082600201600082825461139791906136bb565b9250508190555060003373ffffffffffffffffffffffffffffffffffffffff16826040516113c4906134a1565b60006040518083038185875af1925050503d8060008114611401576040519150601f19603f3d011682016040523d82523d6000602084013e611406565b606091505b505090508061141457600080fd5b7fd7dee2702d63ad89917b6a4da9981c90c4d24f8c2bdfd64c604ecae57d8d06513383604051611445929190613711565b60405180910390a150505060018081905550565b60008060149054906101000a900460ff16905090565b60105481565b61147d612e3b565b6009604051806080016040529081600082015481526020016001820154815260200160028201548152602001600382015481525050905090565b6114bf611f3c565b73ffffffffffffffffffffffffffffffffffffffff166114dd61161b565b73ffffffffffffffffffffffffffffffffffffffff1614611533576040517f08c379a000000000000000000000000000000000000000000000000000000000815260040161152a90613450565b60405180910390fd5b61153d60006122ef565b565b60145481565b61154d611f3c565b73ffffffffffffffffffffffffffffffffffffffff1661156b61161b565b73ffffffffffffffffffffffffffffffffffffffff16146115c1576040517f08c379a00000000000000000000000000000000000000000000000000000000081526004016115b890613450565b60405180910390fd5b6115c96123b3565b565b6000611614600d60008473ffffffffffffffffffffffffffffffffffffffff1673ffffffffffffffffffffffffffffffffffffffff168152602001908152602001600020612183565b9050919050565b60008060009054906101000a900473ffffffffffffffffffffffffffffffffffffffff16905090565b600260015403611689576040517f08c379a000000000000000000000000000000000000000000000000000000000815260040161168090613502565b60405180910390fd5b600260018190555060026003015442106116d8576040517f08c379a00000000000000000000000000000000000000000000000000000000081526004016116cf906139de565b60405180910390fd5b6116e4601054336117f6565b15611724576040517f08c379a000000000000000000000000000000000000000000000000000000000815260040161171b90613a4a565b60405180910390fd5b61177b3330601160010154601160000160009054906101000a900473ffffffffffffffffffffffffffffffffffffffff1673ffffffffffffffffffffffffffffffffffffffff16612456909392919063ffffffff16565b6117876010543361209b565b7fc0f50b8a17dd6fe159e4afcbffdf63a4ad6722c59a1aaa0697b9850953bd1a1b336040516117b691906132ef565b60405180910390a160018081905550565b60006117ee82600f60008681526020019081526020016000206124df90919063ffffffff16565b905092915050565b6000600e600084815260200190815260200160002060000160008373ffffffffffffffffffffffffffffffffffffffff1673ffffffffffffffffffffffffffffffffffffffff16815260200190815260200160002060009054906101000a900460ff16905092915050565b6000801b81565b611870612e63565b60026040518060e00160405290816000820160009054906101000a900473ffffffffffffffffffffffffffffffffffffffff1673ffffffffffffffffffffffffffffffffffffffff1673ffffffffffffffffffffffffffffffffffffffff1681526020016001820154815260200160028201548152602001600382015481526020016004820154815260200160058201548152602001600682015481525050905090565b600061195d600d60008473ffffffffffffffffffffffffffffffffffffffff1673ffffffffffffffffffffffffffffffffffffffff168152602001908152602001600020612278565b9050919050565b61196c611f3c565b73ffffffffffffffffffffffffffffffffffffffff1661198a61161b565b73ffffffffffffffffffffffffffffffffffffffff16146119e0576040517f08c379a00000000000000000000000000000000000000000000000000000000081526004016119d790613450565b60405180910390fd5b600260040154421015611a28576040517f08c379a0000000000000000000000000000000000000000000000000000000008152600401611a1f9061356e565b60405180910390fd5b6000611a32610f3b565b90508060096003016000828254611a4991906136bb565b92505081905550611aa03382600260000160009054906101000a900473ffffffffffffffffffffffffffffffffffffffff1673ffffffffffffffffffffffffffffffffffffffff16611f449092919063ffffffff16565b7fdd81098bbc043431d4a440ca8823673fd1129893ab79f9838df4cf3d5e3812593382604051611ad1929190613711565b60405180910390a150565b6000611af9600f60008481526020019081526020016000206124f9565b9050919050565b611b0982610b01565b611b1a81611b15611f3c565b611ffe565b611b248383611fca565b505050565b611b31611459565b15611b71576040517f08c379a0000000000000000000000000000000000000000000000000000000008152600401611b6890613874565b60405180910390fd5b600260030154421015611bb9576040517f08c379a0000000000000000000000000000000000000000000000000000000008152600401611bb090613ab6565b60405180910390fd5b6002600401544210611c00576040517f08c379a0000000000000000000000000000000000000000000000000000000008152600401611bf790613b22565b60405180910390fd5b611c0a333461250e565b34600d60003373ffffffffffffffffffffffffffffffffffffffff1673ffffffffffffffffffffffffffffffffffffffff1681526020019081526020016000206000016000828254611c5c91906136bb565b925050819055503460096000016000828254611c7891906136bb565b925050819055507f62722348256371b5147820d6cad90c40fd2da1ccee18c3ed52c0bca5a61dbbab3334604051611cb0929190613711565b60405180910390a1565b611cc2611f3c565b73ffffffffffffffffffffffffffffffffffffffff16611ce061161b565b73ffffffffffffffffffffffffffffffffffffffff1614611d36576040517f08c379a0000000000000000000000000000000000000000000000000000000008152600401611d2d90613450565b60405180910390fd5b600073ffffffffffffffffffffffffffffffffffffffff168173ffffffffffffffffffffffffffffffffffffffff1603611da5576040517f08c379a0000000000000000000000000000000000000000000000000000000008152600401611d9c90613bb4565b60405180910390fd5b611dae816122ef565b50565b611dbb82826117f6565b611e8e576001600e600084815260200190815260200160002060000160008373ffffffffffffffffffffffffffffffffffffffff1673ffffffffffffffffffffffffffffffffffffffff16815260200190815260200160002060006101000a81548160ff021916908315150217905550611e33611f3c565b73ffffffffffffffffffffffffffffffffffffffff168173ffffffffffffffffffffffffffffffffffffffff16837f2f8788117e7eff1d82e926ec794901d17c78024a50270940304540a733656f0d60405160405180910390a45b5050565b6000611eba836000018373ffffffffffffffffffffffffffffffffffffffff1660001b61251c565b905092915050565b60007f7965db0b000000000000000000000000000000000000000000000000000000007bffffffffffffffffffffffffffffffffffffffffffffffffffffffff1916827bffffffffffffffffffffffffffffffffffffffffffffffffffffffff19161480611f355750611f348261258c565b5b9050919050565b600033905090565b611fc58363a9059cbb60e01b8484604051602401611f63929190613711565b604051602081830303815290604052907bffffffffffffffffffffffffffffffffffffffffffffffffffffffff19166020820180517bffffffffffffffffffffffffffffffffffffffffffffffffffffffff83818316178352505050506125f6565b505050565b611fd482826126bd565b611ff981600f600085815260200190815260200160002061279f90919063ffffffff16565b505050565b61200882826117f6565b6120975761202d8173ffffffffffffffffffffffffffffffffffffffff1660146127cf565b61203b8360001c60206127cf565b60405160200161204c929190613ce6565b6040516020818303038152906040526040517f08c379a000000000000000000000000000000000000000000000000000000000815260040161208e9190613d6a565b60405180910390fd5b5050565b6120a58282611db1565b6120ca81600f6000858152602001908152602001600020611e9290919063ffffffff16565b505050565b6120d7611459565b612116576040517f08c379a000000000000000000000000000000000000000000000000000000000815260040161210d90613dd8565b60405180910390fd5b60008060146101000a81548160ff0219169083151502179055507f5db9ee0a495bf2e6ff9c91a7834c1ba4fdd244a5e8aa4e537bd38aeae4b073aa612159611f3c565b60405161216691906132ef565b60405180910390a1565b6000600280015460096000015411905090565b600060026005015442101561219b5760009050612273565b6000600260050154426121ae91906137f4565b905060006002600501546002600601546121c891906137f4565b90506000818311156121da57816121dc565b825b905060006121e8612170565b15612219576009600001546002600101548760000154612208919061373a565b61221291906137c3565b9050612240565b60026001015460028001548760000154612233919061373a565b61223d91906137c3565b90505b600083838361224f919061373a565b61225991906137c3565b905086600101548161226b91906137f4565b955050505050505b919050565b600060026004015442101561229057600090506122ea565b612298612170565b6122a557600090506122ea565b8160020154600960000154600280015484600001546122c4919061373a565b6122ce91906137c3565b83600001546122dd91906137f4565b6122e791906137f4565b90505b919050565b60008060009054906101000a900473ffffffffffffffffffffffffffffffffffffffff169050816000806101000a81548173ffffffffffffffffffffffffffffffffffffffff021916908373ffffffffffffffffffffffffffffffffffffffff1602179055508173ffffffffffffffffffffffffffffffffffffffff168173ffffffffffffffffffffffffffffffffffffffff167f8be0079c531659141344cd1fd0a4f28419497f9722a3daafe3b4186f6b6457e060405160405180910390a35050565b6123bb611459565b156123fb576040517f08c379a00000000000000000000000000000000000000000000000000000000081526004016123f290613874565b60405180910390fd5b6001600060146101000a81548160ff0219169083151502179055507f62e78cea01bee320cd4e420270b5ea74000d11b0c9f74754ebdbfc544b05a25861243f611f3c565b60405161244c91906132ef565b60405180910390a1565b6124d9846323b872dd60e01b85858560405160240161247793929190613df8565b604051602081830303815290604052907bffffffffffffffffffffffffffffffffffffffffffffffffffffffff19166020820180517bffffffffffffffffffffffffffffffffffffffffffffffffffffffff83818316178352505050506125f6565b50505050565b60006124ee8360000183612a0b565b60001c905092915050565b600061250782600001612a36565b9050919050565b6125188282612a47565b5050565b60006125288383612aa0565b612581578260000182908060018154018082558091505060019003906000526020600020016000909190919091505582600001805490508360010160008481526020019081526020016000208190555060019050612586565b600090505b92915050565b60007f01ffc9a7000000000000000000000000000000000000000000000000000000007bffffffffffffffffffffffffffffffffffffffffffffffffffffffff1916827bffffffffffffffffffffffffffffffffffffffffffffffffffffffff1916149050919050565b6000612658826040518060400160405280602081526020017f5361666545524332303a206c6f772d6c6576656c2063616c6c206661696c65648152508573ffffffffffffffffffffffffffffffffffffffff16612ac39092919063ffffffff16565b90506000815111156126b857808060200190518101906126789190613e5b565b6126b7576040517f08c379a00000000000000000000000000000000000000000000000000000000081526004016126ae90613efa565b60405180910390fd5b5b505050565b6126c782826117f6565b1561279b576000600e600084815260200190815260200160002060000160008373ffffffffffffffffffffffffffffffffffffffff1673ffffffffffffffffffffffffffffffffffffffff16815260200190815260200160002060006101000a81548160ff021916908315150217905550612740611f3c565b73ffffffffffffffffffffffffffffffffffffffff168173ffffffffffffffffffffffffffffffffffffffff16837ff6391f5c32d9c69d2a47ea670b442974b53935d1edc7fd64eb21e047a839171b60405160405180910390a45b5050565b60006127c7836000018373ffffffffffffffffffffffffffffffffffffffff1660001b612adb565b905092915050565b6060600060028360026127e2919061373a565b6127ec91906136bb565b67ffffffffffffffff81111561280557612804613f1a565b5b6040519080825280601f01601f1916602001820160405280156128375781602001600182028036833780820191505090505b5090507f30000000000000000000000000000000000000000000000000000000000000008160008151811061286f5761286e613f49565b5b60200101907effffffffffffffffffffffffffffffffffffffffffffffffffffffffffffff1916908160001a9053507f7800000000000000000000000000000000000000000000000000000000000000816001815181106128d3576128d2613f49565b5b60200101907effffffffffffffffffffffffffffffffffffffffffffffffffffffffffffff1916908160001a90535060006001846002612913919061373a565b61291d91906136bb565b90505b60018111156129bd577f3031323334353637383961626364656600000000000000000000000000000000600f86166010811061295f5761295e613f49565b5b1a60f81b82828151811061297657612975613f49565b5b60200101907effffffffffffffffffffffffffffffffffffffffffffffffffffffffffffff1916908160001a905350600485901c9450806129b690613f78565b9050612920565b5060008414612a01576040517f08c379a00000000000000000000000000000000000000000000000000000000081526004016129f890613fed565b60405180910390fd5b8091505092915050565b6000826000018281548110612a2357612a22613f49565b5b9060005260206000200154905092915050565b600081600001805490509050919050565b612a53601454836117f6565b612a92576040517f08c379a0000000000000000000000000000000000000000000000000000000008152600401612a8990614059565b60405180910390fd5b612a9c8282612bef565b5050565b600080836001016000848152602001908152602001600020541415905092915050565b6060612ad28484600085612c48565b90509392505050565b60008083600101600084815260200190815260200160002054905060008114612be3576000600182612b0d91906137f4565b9050600060018660000180549050612b2591906137f4565b9050818114612b94576000866000018281548110612b4657612b45613f49565b5b9060005260206000200154905080876000018481548110612b6a57612b69613f49565b5b90600052602060002001819055508387600101600083815260200190815260200160002081905550505b85600001805480612ba857612ba7614079565b5b600190038181906000526020600020016000905590558560010160008681526020019081526020016000206000905560019350505050612be9565b60009150505b92915050565b612bfb601054836117f6565b612c3a576040517f08c379a0000000000000000000000000000000000000000000000000000000008152600401612c31906140f4565b60405180910390fd5b612c448282612d5c565b5050565b606082471015612c8d576040517f08c379a0000000000000000000000000000000000000000000000000000000008152600401612c8490614186565b60405180910390fd5b612c9685612d60565b612cd5576040517f08c379a0000000000000000000000000000000000000000000000000000000008152600401612ccc906141f2565b60405180910390fd5b6000808673ffffffffffffffffffffffffffffffffffffffff168587604051612cfe919061424e565b60006040518083038185875af1925050503d8060008114612d3b576040519150601f19603f3d011682016040523d82523d6000602084013e612d40565b606091505b5091509150612d50828286612d83565b92505050949350505050565b5050565b6000808273ffffffffffffffffffffffffffffffffffffffff163b119050919050565b60608315612d9357829050612de3565b600083511115612da65782518084602001fd5b816040517f08c379a0000000000000000000000000000000000000000000000000000000008152600401612dda9190613d6a565b60405180910390fd5b9392505050565b60405180606001604052806000815260200160008152602001600081525090565b6040518060400160405280600073ffffffffffffffffffffffffffffffffffffffff168152602001600081525090565b6040518060800160405280600081526020016000815260200160008152602001600081525090565b6040518060e00160405280600073ffffffffffffffffffffffffffffffffffffffff1681526020016000815260200160008152602001600081526020016000815260200160008152602001600081525090565b600080fd5b60007fffffffff0000000000000000000000000000000000000000000000000000000082169050919050565b612ef081612ebb565b8114612efb57600080fd5b50565b600081359050612f0d81612ee7565b92915050565b600060208284031215612f2957612f28612eb6565b5b6000612f3784828501612efe565b91505092915050565b60008115159050919050565b612f5581612f40565b82525050565b6000602082019050612f706000830184612f4c565b92915050565b6000819050919050565b612f8981612f76565b8114612f9457600080fd5b50565b600081359050612fa681612f80565b92915050565b600060208284031215612fc257612fc1612eb6565b5b6000612fd084828501612f97565b91505092915050565b600073ffffffffffffffffffffffffffffffffffffffff82169050919050565b600061300482612fd9565b9050919050565b61301481612ff9565b811461301f57600080fd5b50565b6000813590506130318161300b565b92915050565b60006020828403121561304d5761304c612eb6565b5b600061305b84828501613022565b91505092915050565b61306d81612f76565b82525050565b6060820160008201516130896000850182613064565b50602082015161309c6020850182613064565b5060408201516130af6040850182613064565b50505050565b60006060820190506130ca6000830184613073565b92915050565b6000819050919050565b6130e3816130d0565b81146130ee57600080fd5b50565b600081359050613100816130da565b92915050565b60006020828403121561311c5761311b612eb6565b5b600061312a848285016130f1565b91505092915050565b61313c816130d0565b82525050565b60006020820190506131576000830184613133565b92915050565b6000819050919050565b600061318261317d61317884612fd9565b61315d565b612fd9565b9050919050565b600061319482613167565b9050919050565b60006131a682613189565b9050919050565b6131b68161319b565b82525050565b6040820160008201516131d260008501826131ad565b5060208201516131e56020850182613064565b50505050565b600060408201905061320060008301846131bc565b92915050565b6000806040838503121561321d5761321c612eb6565b5b600061322b858286016130f1565b925050602061323c85828601613022565b9150509250929050565b61324f81612f76565b82525050565b600060208201905061326a6000830184613246565b92915050565b6080820160008201516132866000850182613064565b5060208201516132996020850182613064565b5060408201516132ac6040850182613064565b5060608201516132bf6060850182613064565b50505050565b60006080820190506132da6000830184613270565b92915050565b6132e981612ff9565b82525050565b600060208201905061330460008301846132e0565b92915050565b6000806040838503121561332157613320612eb6565b5b600061332f858286016130f1565b925050602061334085828601612f97565b9150509250929050565b60e08201600082015161336060008501826131ad565b5060208201516133736020850182613064565b5060408201516133866040850182613064565b5060608201516133996060850182613064565b5060808201516133ac6080850182613064565b5060a08201516133bf60a0850182613064565b5060c08201516133d260c0850182613064565b50505050565b600060e0820190506133ed600083018461334a565b92915050565b600082825260208201905092915050565b7f4f776e61626c653a2063616c6c6572206973206e6f7420746865206f776e6572600082015250565b600061343a6020836133f3565b915061344582613404565b602082019050919050565b600060208201905081810360008301526134698161342d565b9050919050565b600081905092915050565b50565b600061348b600083613470565b91506134968261347b565b600082019050919050565b60006134ac8261347e565b9150819050919050565b7f5265656e7472616e637947756172643a207265656e7472616e742063616c6c00600082015250565b60006134ec601f836133f3565b91506134f7826134b6565b602082019050919050565b6000602082019050818103600083015261351b816134df565b9050919050565b7f427579696e6720686173206e6f7420656e646564207965742e00000000000000600082015250565b60006135586019836133f3565b915061356382613522565b602082019050919050565b600060208201905081810360008301526135878161354b565b9050919050565b7f4e6f7420636f6c6c61746572616c697365642e00000000000000000000000000600082015250565b60006135c46013836133f3565b91506135cf8261358e565b602082019050919050565b600060208201905081810360008301526135f3816135b7565b9050919050565b7f416363657373436f6e74726f6c3a2063616e206f6e6c792072656e6f756e636560008201527f20726f6c657320666f722073656c660000000000000000000000000000000000602082015250565b6000613656602f836133f3565b9150613661826135fa565b604082019050919050565b6000602082019050818103600083015261368581613649565b9050919050565b7f4e487b7100000000000000000000000000000000000000000000000000000000600052601160045260246000fd5b60006136c682612f76565b91506136d183612f76565b9250827fffffffffffffffffffffffffffffffffffffffffffffffffffffffffffffffff038211156137065761370561368c565b5b828201905092915050565b600060408201905061372660008301856132e0565b6137336020830184613246565b9392505050565b600061374582612f76565b915061375083612f76565b9250817fffffffffffffffffffffffffffffffffffffffffffffffffffffffffffffffff04831182151516156137895761378861368c565b5b828202905092915050565b7f4e487b7100000000000000000000000000000000000000000000000000000000600052601260045260246000fd5b60006137ce82612f76565b91506137d983612f76565b9250826137e9576137e8613794565b5b828204905092915050565b60006137ff82612f76565b915061380a83612f76565b92508282101561381d5761381c61368c565b5b828203905092915050565b7f5061757361626c653a2070617573656400000000000000000000000000000000600082015250565b600061385e6010836133f3565b915061386982613828565b602082019050919050565b6000602082019050818103600083015261388d81613851565b9050919050565b7f56657374696e6720686173206e6f7420626567756e207965742e000000000000600082015250565b60006138ca601a836133f3565b91506138d582613894565b602082019050919050565b600060208201905081810360008301526138f9816138bd565b9050919050565b7f546865726520776173206e6f206f766572666c6f772e00000000000000000000600082015250565b60006139366016836133f3565b915061394182613900565b602082019050919050565b6000602082019050818103600083015261396581613929565b9050919050565b7f43616e6e6f7420636f6c6c61746572616c69736520616674657220627579696e60008201527f67207374617274732e0000000000000000000000000000000000000000000000602082015250565b60006139c86029836133f3565b91506139d38261396c565b604082019050919050565b600060208201905081810360008301526139f7816139bb565b9050919050565b7f416c726561647920636f6c6c61746572616c697365642e000000000000000000600082015250565b6000613a346017836133f3565b9150613a3f826139fe565b602082019050919050565b60006020820190508181036000830152613a6381613a27565b9050919050565b7f427579696e6720686173206e6f7420626567756e207965742e00000000000000600082015250565b6000613aa06019836133f3565b9150613aab82613a6a565b602082019050919050565b60006020820190508181036000830152613acf81613a93565b9050919050565b7f427579696e672068617320656e6465642e000000000000000000000000000000600082015250565b6000613b0c6011836133f3565b9150613b1782613ad6565b602082019050919050565b60006020820190508181036000830152613b3b81613aff565b9050919050565b7f4f776e61626c653a206e6577206f776e657220697320746865207a65726f206160008201527f6464726573730000000000000000000000000000000000000000000000000000602082015250565b6000613b9e6026836133f3565b9150613ba982613b42565b604082019050919050565b60006020820190508181036000830152613bcd81613b91565b9050919050565b600081905092915050565b7f416363657373436f6e74726f6c3a206163636f756e7420000000000000000000600082015250565b6000613c15601783613bd4565b9150613c2082613bdf565b601782019050919050565b600081519050919050565b60005b83811015613c54578082015181840152602081019050613c39565b83811115613c63576000848401525b50505050565b6000613c7482613c2b565b613c7e8185613bd4565b9350613c8e818560208601613c36565b80840191505092915050565b7f206973206d697373696e6720726f6c6520000000000000000000000000000000600082015250565b6000613cd0601183613bd4565b9150613cdb82613c9a565b601182019050919050565b6000613cf182613c08565b9150613cfd8285613c69565b9150613d0882613cc3565b9150613d148284613c69565b91508190509392505050565b6000601f19601f8301169050919050565b6000613d3c82613c2b565b613d4681856133f3565b9350613d56818560208601613c36565b613d5f81613d20565b840191505092915050565b60006020820190508181036000830152613d848184613d31565b905092915050565b7f5061757361626c653a206e6f7420706175736564000000000000000000000000600082015250565b6000613dc26014836133f3565b9150613dcd82613d8c565b602082019050919050565b60006020820190508181036000830152613df181613db5565b9050919050565b6000606082019050613e0d60008301866132e0565b613e1a60208301856132e0565b613e276040830184613246565b949350505050565b613e3881612f40565b8114613e4357600080fd5b50565b600081519050613e5581613e2f565b92915050565b600060208284031215613e7157613e70612eb6565b5b6000613e7f84828501613e46565b91505092915050565b7f5361666545524332303a204552433230206f7065726174696f6e20646964206e60008201527f6f74207375636365656400000000000000000000000000000000000000000000602082015250565b6000613ee4602a836133f3565b9150613eef82613e88565b604082019050919050565b60006020820190508181036000830152613f1381613ed7565b9050919050565b7f4e487b7100000000000000000000000000000000000000000000000000000000600052604160045260246000fd5b7f4e487b7100000000000000000000000000000000000000000000000000000000600052603260045260246000fd5b6000613f8382612f76565b915060008203613f9657613f9561368c565b5b600182039050919050565b7f537472696e67733a20686578206c656e67746820696e73756666696369656e74600082015250565b6000613fd76020836133f3565b9150613fe282613fa1565b602082019050919050565b6000602082019050818103600083015261400681613fca565b9050919050565b7f5573657220686173206e6f74206265656e2077686974656c69737465642e0000600082015250565b6000614043601e836133f3565b915061404e8261400d565b602082019050919050565b6000602082019050818103600083015261407281614036565b9050919050565b7f4e487b7100000000000000000000000000000000000000000000000000000000600052603160045260246000fd5b7f5573657220686173206e6f7420636f6c6c61746572616c697365642e00000000600082015250565b60006140de601c836133f3565b91506140e9826140a8565b602082019050919050565b6000602082019050818103600083015261410d816140d1565b9050919050565b7f416464726573733a20696e73756666696369656e742062616c616e636520666f60008201527f722063616c6c0000000000000000000000000000000000000000000000000000602082015250565b60006141706026836133f3565b915061417b82614114565b604082019050919050565b6000602082019050818103600083015261419f81614163565b9050919050565b7f416464726573733a2063616c6c20746f206e6f6e2d636f6e7472616374000000600082015250565b60006141dc601d836133f3565b91506141e7826141a6565b602082019050919050565b6000602082019050818103600083015261420b816141cf565b9050919050565b600081519050919050565b600061422882614212565b6142328185613470565b9350614242818560208601613c36565b80840191505092915050565b600061425a828461421d565b91508190509291505056fea26469706673582212206e2b8ba32323578f7cb83ba408b128956201032ff6e1fedf531dca9b60fda7c464736f6c634300080d0033",
  "linkReferences": {},
  "deployedLinkReferences": {}
}