{
  "_format": "hh-sol-artifact-1",
  "contractName": "IDO",
  "sourceName": "contracts/IDO.sol",
  "abi": [
    {
      "inputs": [
        {
          "components": [
            {
              "internalType": "contract IERC20",
              "name": "token",
              "type": "address"
            },
            {
              "internalType": "uint256",
              "name": "forSale",
              "type": "uint256"
            },
            {
              "internalType": "uint256",
              "name": "asking",
              "type": "uint256"
            },
            {
              "internalType": "uint256",
              "name": "buyingStartsAt",
              "type": "uint256"
            },
            {
              "internalType": "uint256",
              "name": "buyingEndsAt",
              "type": "uint256"
            },
            {
              "internalType": "uint256",
              "name": "vestingStartsAt",
              "type": "uint256"
            },
            {
              "internalType": "uint256",
              "name": "vestingEndsAt",
              "type": "uint256"
            }
          ],
          "internalType": "struct Parameters",
          "name": "parameters",
          "type": "tuple"
        }
      ],
      "stateMutability": "nonpayable",
      "type": "constructor"
    },
    {
      "anonymous": false,
      "inputs": [
        {
          "indexed": false,
          "internalType": "address",
          "name": "addr",
          "type": "address"
        },
        {
          "indexed": false,
          "internalType": "uint256",
          "name": "amount",
          "type": "uint256"
        }
      ],
      "name": "Claimed",
      "type": "event"
    },
    {
      "anonymous": false,
      "inputs": [
        {
          "indexed": false,
          "internalType": "address",
          "name": "addr",
          "type": "address"
        },
        {
          "indexed": false,
          "internalType": "uint256",
          "name": "amount",
          "type": "uint256"
        }
      ],
      "name": "Contributed",
      "type": "event"
    },
    {
      "anonymous": false,
      "inputs": [
        {
          "indexed": true,
          "internalType": "address",
          "name": "previousOwner",
          "type": "address"
        },
        {
          "indexed": true,
          "internalType": "address",
          "name": "newOwner",
          "type": "address"
        }
      ],
      "name": "OwnershipTransferred",
      "type": "event"
    },
    {
      "anonymous": false,
      "inputs": [
        {
          "indexed": false,
          "internalType": "address",
          "name": "account",
          "type": "address"
        }
      ],
      "name": "Paused",
      "type": "event"
    },
    {
      "anonymous": false,
      "inputs": [
        {
          "indexed": false,
          "internalType": "address",
          "name": "addr",
          "type": "address"
        },
        {
          "indexed": false,
          "internalType": "uint256",
          "name": "amount",
          "type": "uint256"
        }
      ],
      "name": "Refunded",
      "type": "event"
    },
    {
      "anonymous": false,
      "inputs": [
        {
          "indexed": false,
          "internalType": "address",
          "name": "addr",
          "type": "address"
        },
        {
          "indexed": false,
          "internalType": "uint256",
          "name": "amount",
          "type": "uint256"
        }
      ],
      "name": "Returned",
      "type": "event"
    },
    {
      "anonymous": false,
      "inputs": [
        {
          "indexed": false,
          "internalType": "address",
          "name": "account",
          "type": "address"
        }
      ],
      "name": "Unpaused",
      "type": "event"
    },
    {
      "anonymous": false,
      "inputs": [
        {
          "indexed": false,
          "internalType": "address",
          "name": "addr",
          "type": "address"
        },
        {
          "indexed": false,
          "internalType": "uint256",
          "name": "amount",
          "type": "uint256"
        }
      ],
      "name": "Withdrawn",
      "type": "event"
    },
    {
      "inputs": [],
      "name": "claim",
      "outputs": [],
      "stateMutability": "nonpayable",
      "type": "function"
    },
    {
      "inputs": [
        {
          "internalType": "address",
          "name": "addr",
          "type": "address"
        }
      ],
      "name": "claimableOf",
      "outputs": [
        {
          "internalType": "uint256",
          "name": "claimable",
          "type": "uint256"
        }
      ],
      "stateMutability": "view",
      "type": "function"
    },
    {
      "inputs": [],
      "name": "contribute",
      "outputs": [],
      "stateMutability": "payable",
      "type": "function"
    },
    {
      "inputs": [
        {
          "internalType": "uint256",
          "name": "amount",
          "type": "uint256"
        }
      ],
      "name": "forceReturn",
      "outputs": [],
      "stateMutability": "nonpayable",
      "type": "function"
    },
    {
      "inputs": [
        {
          "internalType": "uint256",
          "name": "amount",
          "type": "uint256"
        }
      ],
      "name": "forceWithdraw",
      "outputs": [],
      "stateMutability": "nonpayable",
      "type": "function"
    },
    {
      "inputs": [],
      "name": "getGlobalStats",
      "outputs": [
        {
          "components": [
            {
              "internalType": "uint256",
              "name": "contributed",
              "type": "uint256"
            },
            {
              "internalType": "uint256",
              "name": "claimed",
              "type": "uint256"
            },
            {
              "internalType": "uint256",
              "name": "withdrawn",
              "type": "uint256"
            },
            {
              "internalType": "uint256",
              "name": "returned",
              "type": "uint256"
            }
          ],
          "internalType": "struct GlobalStats",
          "name": "",
          "type": "tuple"
        }
      ],
      "stateMutability": "view",
      "type": "function"
    },
    {
      "inputs": [],
      "name": "getParameters",
      "outputs": [
        {
          "components": [
            {
              "internalType": "contract IERC20",
              "name": "token",
              "type": "address"
            },
            {
              "internalType": "uint256",
              "name": "forSale",
              "type": "uint256"
            },
            {
              "internalType": "uint256",
              "name": "asking",
              "type": "uint256"
            },
            {
              "internalType": "uint256",
              "name": "buyingStartsAt",
              "type": "uint256"
            },
            {
              "internalType": "uint256",
              "name": "buyingEndsAt",
              "type": "uint256"
            },
            {
              "internalType": "uint256",
              "name": "vestingStartsAt",
              "type": "uint256"
            },
            {
              "internalType": "uint256",
              "name": "vestingEndsAt",
              "type": "uint256"
            }
          ],
          "internalType": "struct Parameters",
          "name": "",
          "type": "tuple"
        }
      ],
      "stateMutability": "view",
      "type": "function"
    },
    {
      "inputs": [
        {
          "internalType": "address",
          "name": "addr",
          "type": "address"
        }
      ],
      "name": "getUserStatsOf",
      "outputs": [
        {
          "components": [
            {
              "internalType": "uint256",
              "name": "contributed",
              "type": "uint256"
            },
            {
              "internalType": "uint256",
              "name": "claimed",
              "type": "uint256"
            },
            {
              "internalType": "uint256",
              "name": "refunded",
              "type": "uint256"
            }
          ],
          "internalType": "struct UserStats",
          "name": "",
          "type": "tuple"
        }
      ],
      "stateMutability": "view",
      "type": "function"
    },
    {
      "inputs": [],
      "name": "owner",
      "outputs": [
        {
          "internalType": "address",
          "name": "",
          "type": "address"
        }
      ],
      "stateMutability": "view",
      "type": "function"
    },
    {
      "inputs": [],
      "name": "pause",
      "outputs": [],
      "stateMutability": "nonpayable",
      "type": "function"
    },
    {
      "inputs": [],
      "name": "paused",
      "outputs": [
        {
          "internalType": "bool",
          "name": "",
          "type": "bool"
        }
      ],
      "stateMutability": "view",
      "type": "function"
    },
    {
      "inputs": [],
      "name": "refund",
      "outputs": [],
      "stateMutability": "nonpayable",
      "type": "function"
    },
    {
      "inputs": [
        {
          "internalType": "address",
          "name": "addr",
          "type": "address"
        }
      ],
      "name": "refundableOf",
      "outputs": [
        {
          "internalType": "uint256",
          "name": "refundable",
          "type": "uint256"
        }
      ],
      "stateMutability": "view",
      "type": "function"
    },
    {
      "inputs": [],
      "name": "renounceOwnership",
      "outputs": [],
      "stateMutability": "nonpayable",
      "type": "function"
    },
    {
      "inputs": [],
      "name": "returnUnsold",
      "outputs": [],
      "stateMutability": "nonpayable",
      "type": "function"
    },
    {
      "inputs": [],
      "name": "returnable",
      "outputs": [
        {
          "internalType": "uint256",
          "name": "",
          "type": "uint256"
        }
      ],
      "stateMutability": "view",
      "type": "function"
    },
    {
      "inputs": [
        {
          "internalType": "address",
          "name": "newOwner",
          "type": "address"
        }
      ],
      "name": "transferOwnership",
      "outputs": [],
      "stateMutability": "nonpayable",
      "type": "function"
    },
    {
      "inputs": [],
      "name": "unpause",
      "outputs": [],
      "stateMutability": "nonpayable",
      "type": "function"
    },
    {
      "inputs": [],
      "name": "withdraw",
      "outputs": [],
      "stateMutability": "nonpayable",
      "type": "function"
    },
    {
      "inputs": [],
      "name": "withdrawable",
      "outputs": [
        {
          "internalType": "uint256",
          "name": "",
          "type": "uint256"
        }
      ],
      "stateMutability": "view",
      "type": "function"
    }
  ],
  "bytecode": "0x60806040523480156200001157600080fd5b50604051620026e4380380620026e48339818101604052810190620000379190620003f1565b620000576200004b6200010160201b60201c565b6200010960201b60201c565b60008060146101000a81548160ff02191690831515021790555080600160008201518160000160006101000a81548173ffffffffffffffffffffffffffffffffffffffff021916908373ffffffffffffffffffffffffffffffffffffffff1602179055506020820151816001015560408201518160020155606082015181600301556080820151816004015560a0820151816005015560c082015181600601559050505062000423565b600033905090565b60008060009054906101000a900473ffffffffffffffffffffffffffffffffffffffff169050816000806101000a81548173ffffffffffffffffffffffffffffffffffffffff021916908373ffffffffffffffffffffffffffffffffffffffff1602179055508173ffffffffffffffffffffffffffffffffffffffff168173ffffffffffffffffffffffffffffffffffffffff167f8be0079c531659141344cd1fd0a4f28419497f9722a3daafe3b4186f6b6457e060405160405180910390a35050565b6000604051905090565b600080fd5b600080fd5b6000601f19601f8301169050919050565b7f4e487b7100000000000000000000000000000000000000000000000000000000600052604160045260246000fd5b6200022c82620001e1565b810181811067ffffffffffffffff821117156200024e576200024d620001f2565b5b80604052505050565b600062000263620001cd565b905062000271828262000221565b919050565b600073ffffffffffffffffffffffffffffffffffffffff82169050919050565b6000620002a38262000276565b9050919050565b6000620002b78262000296565b9050919050565b620002c981620002aa565b8114620002d557600080fd5b50565b600081519050620002e981620002be565b92915050565b6000819050919050565b6200030481620002ef565b81146200031057600080fd5b50565b6000815190506200032481620002f9565b92915050565b600060e08284031215620003435762000342620001dc565b5b6200034f60e062000257565b905060006200036184828501620002d8565b6000830152506020620003778482850162000313565b60208301525060406200038d8482850162000313565b6040830152506060620003a38482850162000313565b6060830152506080620003b98482850162000313565b60808301525060a0620003cf8482850162000313565b60a08301525060c0620003e58482850162000313565b60c08301525092915050565b600060e082840312156200040a5762000409620001d7565b5b60006200041a848285016200032a565b91505092915050565b6122b180620004336000396000f3fe60806040526004361061011f5760003560e01c80636b4169c3116100a0578063a5ea11da11610064578063a5ea11da14610351578063b22163e31461037c578063b2ea088d146103b9578063d7bb99ba146103d0578063f2fde38b146103da5761011f565b80636b4169c314610290578063715018a6146102bb5780638456cb59146102d25780638903ab9d146102e95780638da5cb5b146103265761011f565b80634da56a6f116100e75780634da56a6f146101e15780634e71d92d1461020c5780635018830114610223578063590e1ae31461024e5780635c975abb146102655761011f565b80630fcc56f7146101245780631ae755ee1461014d5780632bf9935d1461018a5780633ccfd60b146101b35780633f4ba83a146101ca575b600080fd5b34801561013057600080fd5b5061014b60048036038101906101469190611917565b610403565b005b34801561015957600080fd5b50610174600480360381019061016f91906119a2565b6104f9565b6040516101819190611a20565b60405180910390f35b34801561019657600080fd5b506101b160048036038101906101ac9190611917565b610570565b005b3480156101bf57600080fd5b506101c8610693565b005b3480156101d657600080fd5b506101df610832565b005b3480156101ed57600080fd5b506101f66108b8565b6040516102039190611a4a565b60405180910390f35b34801561021857600080fd5b50610221610930565b005b34801561022f57600080fd5b50610238610b28565b6040516102459190611a4a565b60405180910390f35b34801561025a57600080fd5b50610263610b86565b005b34801561027157600080fd5b5061027a610d7c565b6040516102879190611a80565b60405180910390f35b34801561029c57600080fd5b506102a5610d92565b6040516102b29190611af0565b60405180910390f35b3480156102c757600080fd5b506102d0610dd4565b005b3480156102de57600080fd5b506102e7610e5c565b005b3480156102f557600080fd5b50610310600480360381019061030b91906119a2565b610ee2565b60405161031d9190611a4a565b60405180910390f35b34801561033257600080fd5b5061033b610f32565b6040516103489190611b1a565b60405180910390f35b34801561035d57600080fd5b50610366610f5b565b6040516103739190611c22565b60405180910390f35b34801561038857600080fd5b506103a3600480360381019061039e91906119a2565b611007565b6040516103b09190611a4a565b60405180910390f35b3480156103c557600080fd5b506103ce611057565b005b6103d8611223565b005b3480156103e657600080fd5b5061040160048036038101906103fc91906119a2565b6113b4565b005b61040b6114ac565b73ffffffffffffffffffffffffffffffffffffffff16610429610f32565b73ffffffffffffffffffffffffffffffffffffffff161461047f576040517f08c379a000000000000000000000000000000000000000000000000000000000815260040161047690611c9a565b60405180910390fd5b60003373ffffffffffffffffffffffffffffffffffffffff16826040516104a590611ceb565b60006040518083038185875af1925050503d80600081146104e2576040519150601f19603f3d011682016040523d82523d6000602084013e6104e7565b606091505b50509050806104f557600080fd5b5050565b610501611840565b600c60008373ffffffffffffffffffffffffffffffffffffffff1673ffffffffffffffffffffffffffffffffffffffff16815260200190815260200160002060405180606001604052908160008201548152602001600182015481526020016002820154815250509050919050565b6105786114ac565b73ffffffffffffffffffffffffffffffffffffffff16610596610f32565b73ffffffffffffffffffffffffffffffffffffffff16146105ec576040517f08c379a00000000000000000000000000000000000000000000000000000000081526004016105e390611c9a565b60405180910390fd5b600160000160009054906101000a900473ffffffffffffffffffffffffffffffffffffffff1673ffffffffffffffffffffffffffffffffffffffff1663a9059cbb33836040518363ffffffff1660e01b815260040161064c929190611d00565b6020604051808303816000875af115801561066b573d6000803e3d6000fd5b505050506040513d601f19601f8201168201806040525081019061068f9190611d55565b5050565b61069b6114ac565b73ffffffffffffffffffffffffffffffffffffffff166106b9610f32565b73ffffffffffffffffffffffffffffffffffffffff161461070f576040517f08c379a000000000000000000000000000000000000000000000000000000000815260040161070690611c9a565b60405180910390fd5b600160040154421015610757576040517f08c379a000000000000000000000000000000000000000000000000000000000815260040161074e90611dce565b60405180910390fd5b6000610761610b28565b905080600860020160008282546107789190611e1d565b9250508190555060003373ffffffffffffffffffffffffffffffffffffffff16826040516107a590611ceb565b60006040518083038185875af1925050503d80600081146107e2576040519150601f19603f3d011682016040523d82523d6000602084013e6107e7565b606091505b50509050806107f557600080fd5b7f7084f5476618d8e60b11ef0d7d3f06914655adb8793e28ff7f018d4c76d505d53383604051610826929190611d00565b60405180910390a15050565b61083a6114ac565b73ffffffffffffffffffffffffffffffffffffffff16610858610f32565b73ffffffffffffffffffffffffffffffffffffffff16146108ae576040517f08c379a00000000000000000000000000000000000000000000000000000000081526004016108a590611c9a565b60405180910390fd5b6108b66114b4565b565b60006001600401544210156108d0576000905061092d565b6108d8611555565b156108e6576000905061092d565b60086003015460016002015460086000015460018001546109079190611e73565b6109119190611efc565b60018001546109209190611f2d565b61092a9190611f2d565b90505b90565b610938610d7c565b15610978576040517f08c379a000000000000000000000000000000000000000000000000000000000815260040161096f90611fad565b60405180910390fd5b6001600501544210156109c0576040517f08c379a00000000000000000000000000000000000000000000000000000000081526004016109b790612019565b60405180910390fd5b6000600c60003373ffffffffffffffffffffffffffffffffffffffff1673ffffffffffffffffffffffffffffffffffffffff16815260200190815260200160002090506000610a0e82611569565b905080826001016000828254610a249190611e1d565b925050819055508060086001016000828254610a409190611e1d565b92505081905550600160000160009054906101000a900473ffffffffffffffffffffffffffffffffffffffff1673ffffffffffffffffffffffffffffffffffffffff1663a9059cbb33836040518363ffffffff1660e01b8152600401610aa7929190611d00565b6020604051808303816000875af1158015610ac6573d6000803e3d6000fd5b505050506040513d601f19601f82011682018060405250810190610aea9190611d55565b507fd8138f8a3f377c5259ca548e70e4c2de94f129f5a11036a15b69513cba2b426a3382604051610b1c929190611d00565b60405180910390a15050565b6000600160040154421015610b405760009050610b83565b610b48611555565b15610b6a57600860020154600160020154610b639190611f2d565b9050610b83565b600860020154600860000154610b809190611f2d565b90505b90565b610b8e610d7c565b15610bce576040517f08c379a0000000000000000000000000000000000000000000000000000000008152600401610bc590611fad565b60405180910390fd5b600160040154421015610c16576040517f08c379a0000000000000000000000000000000000000000000000000000000008152600401610c0d90611dce565b60405180910390fd5b610c1e611555565b610c5d576040517f08c379a0000000000000000000000000000000000000000000000000000000008152600401610c5490612085565b60405180910390fd5b6000600c60003373ffffffffffffffffffffffffffffffffffffffff1673ffffffffffffffffffffffffffffffffffffffff16815260200190815260200160002090506000610cab8261165d565b905080826002016000828254610cc19190611e1d565b9250508190555060003373ffffffffffffffffffffffffffffffffffffffff1682604051610cee90611ceb565b60006040518083038185875af1925050503d8060008114610d2b576040519150601f19603f3d011682016040523d82523d6000602084013e610d30565b606091505b5050905080610d3e57600080fd5b7fd7dee2702d63ad89917b6a4da9981c90c4d24f8c2bdfd64c604ecae57d8d06513383604051610d6f929190611d00565b60405180910390a1505050565b60008060149054906101000a900460ff16905090565b610d9a611861565b6008604051806080016040529081600082015481526020016001820154815260200160028201548152602001600382015481525050905090565b610ddc6114ac565b73ffffffffffffffffffffffffffffffffffffffff16610dfa610f32565b73ffffffffffffffffffffffffffffffffffffffff1614610e50576040517f08c379a0000000000000000000000000000000000000000000000000000000008152600401610e4790611c9a565b60405180910390fd5b610e5a60006116d5565b565b610e646114ac565b73ffffffffffffffffffffffffffffffffffffffff16610e82610f32565b73ffffffffffffffffffffffffffffffffffffffff1614610ed8576040517f08c379a0000000000000000000000000000000000000000000000000000000008152600401610ecf90611c9a565b60405180910390fd5b610ee0611799565b565b6000610f2b600c60008473ffffffffffffffffffffffffffffffffffffffff1673ffffffffffffffffffffffffffffffffffffffff168152602001908152602001600020611569565b9050919050565b60008060009054906101000a900473ffffffffffffffffffffffffffffffffffffffff16905090565b610f63611889565b60016040518060e00160405290816000820160009054906101000a900473ffffffffffffffffffffffffffffffffffffffff1673ffffffffffffffffffffffffffffffffffffffff1673ffffffffffffffffffffffffffffffffffffffff1681526020016001820154815260200160028201548152602001600382015481526020016004820154815260200160058201548152602001600682015481525050905090565b6000611050600c60008473ffffffffffffffffffffffffffffffffffffffff1673ffffffffffffffffffffffffffffffffffffffff16815260200190815260200160002061165d565b9050919050565b61105f6114ac565b73ffffffffffffffffffffffffffffffffffffffff1661107d610f32565b73ffffffffffffffffffffffffffffffffffffffff16146110d3576040517f08c379a00000000000000000000000000000000000000000000000000000000081526004016110ca90611c9a565b60405180910390fd5b60016004015442101561111b576040517f08c379a000000000000000000000000000000000000000000000000000000000815260040161111290611dce565b60405180910390fd5b60006111256108b8565b9050806008600301600082825461113c9190611e1d565b92505081905550600160000160009054906101000a900473ffffffffffffffffffffffffffffffffffffffff1673ffffffffffffffffffffffffffffffffffffffff1663a9059cbb33836040518363ffffffff1660e01b81526004016111a3929190611d00565b6020604051808303816000875af11580156111c2573d6000803e3d6000fd5b505050506040513d601f19601f820116820180604052508101906111e69190611d55565b507fdd81098bbc043431d4a440ca8823673fd1129893ab79f9838df4cf3d5e3812593382604051611218929190611d00565b60405180910390a150565b61122b610d7c565b1561126b576040517f08c379a000000000000000000000000000000000000000000000000000000000815260040161126290611fad565b60405180910390fd5b6001600301544210156112b3576040517f08c379a00000000000000000000000000000000000000000000000000000000081526004016112aa906120f1565b60405180910390fd5b60016004015442106112fa576040517f08c379a00000000000000000000000000000000000000000000000000000000081526004016112f19061215d565b60405180910390fd5b611304333461183c565b34600c60003373ffffffffffffffffffffffffffffffffffffffff1673ffffffffffffffffffffffffffffffffffffffff16815260200190815260200160002060000160008282546113569190611e1d565b9250508190555034600860000160008282546113729190611e1d565b925050819055507f62722348256371b5147820d6cad90c40fd2da1ccee18c3ed52c0bca5a61dbbab33346040516113aa929190611d00565b60405180910390a1565b6113bc6114ac565b73ffffffffffffffffffffffffffffffffffffffff166113da610f32565b73ffffffffffffffffffffffffffffffffffffffff1614611430576040517f08c379a000000000000000000000000000000000000000000000000000000000815260040161142790611c9a565b60405180910390fd5b600073ffffffffffffffffffffffffffffffffffffffff168173ffffffffffffffffffffffffffffffffffffffff1614156114a0576040517f08c379a0000000000000000000000000000000000000000000000000000000008152600401611497906121ef565b60405180910390fd5b6114a9816116d5565b50565b600033905090565b6114bc610d7c565b6114fb576040517f08c379a00000000000000000000000000000000000000000000000000000000081526004016114f29061225b565b60405180910390fd5b60008060146101000a81548160ff0219169083151502179055507f5db9ee0a495bf2e6ff9c91a7834c1ba4fdd244a5e8aa4e537bd38aeae4b073aa61153e6114ac565b60405161154b9190611b1a565b60405180910390a1565b600060016002015460086000015411905090565b60006001600501544210156115815760009050611658565b6000600160050154426115949190611f2d565b905060006001600501546001600601546115ae9190611f2d565b90506000818311156115c057816115c2565b825b905060006115ce611555565b156115fe57600860000154600180015487600001546115ed9190611e73565b6115f79190611efc565b9050611625565b600180015460016002015487600001546116189190611e73565b6116229190611efc565b90505b60008383836116349190611e73565b61163e9190611efc565b90508660010154816116509190611f2d565b955050505050505b919050565b600060016004015442101561167557600090506116d0565b61167d611555565b61168a57600090506116d0565b816002015460086000015460016002015484600001546116aa9190611e73565b6116b49190611efc565b83600001546116c39190611f2d565b6116cd9190611f2d565b90505b919050565b60008060009054906101000a900473ffffffffffffffffffffffffffffffffffffffff169050816000806101000a81548173ffffffffffffffffffffffffffffffffffffffff021916908373ffffffffffffffffffffffffffffffffffffffff1602179055508173ffffffffffffffffffffffffffffffffffffffff168173ffffffffffffffffffffffffffffffffffffffff167f8be0079c531659141344cd1fd0a4f28419497f9722a3daafe3b4186f6b6457e060405160405180910390a35050565b6117a1610d7c565b156117e1576040517f08c379a00000000000000000000000000000000000000000000000000000000081526004016117d890611fad565b60405180910390fd5b6001600060146101000a81548160ff0219169083151502179055507f62e78cea01bee320cd4e420270b5ea74000d11b0c9f74754ebdbfc544b05a2586118256114ac565b6040516118329190611b1a565b60405180910390a1565b5050565b60405180606001604052806000815260200160008152602001600081525090565b6040518060800160405280600081526020016000815260200160008152602001600081525090565b6040518060e00160405280600073ffffffffffffffffffffffffffffffffffffffff1681526020016000815260200160008152602001600081526020016000815260200160008152602001600081525090565b600080fd5b6000819050919050565b6118f4816118e1565b81146118ff57600080fd5b50565b600081359050611911816118eb565b92915050565b60006020828403121561192d5761192c6118dc565b5b600061193b84828501611902565b91505092915050565b600073ffffffffffffffffffffffffffffffffffffffff82169050919050565b600061196f82611944565b9050919050565b61197f81611964565b811461198a57600080fd5b50565b60008135905061199c81611976565b92915050565b6000602082840312156119b8576119b76118dc565b5b60006119c68482850161198d565b91505092915050565b6119d8816118e1565b82525050565b6060820160008201516119f460008501826119cf565b506020820151611a0760208501826119cf565b506040820151611a1a60408501826119cf565b50505050565b6000606082019050611a3560008301846119de565b92915050565b611a44816118e1565b82525050565b6000602082019050611a5f6000830184611a3b565b92915050565b60008115159050919050565b611a7a81611a65565b82525050565b6000602082019050611a956000830184611a71565b92915050565b608082016000820151611ab160008501826119cf565b506020820151611ac460208501826119cf565b506040820151611ad760408501826119cf565b506060820151611aea60608501826119cf565b50505050565b6000608082019050611b056000830184611a9b565b92915050565b611b1481611964565b82525050565b6000602082019050611b2f6000830184611b0b565b92915050565b6000819050919050565b6000611b5a611b55611b5084611944565b611b35565b611944565b9050919050565b6000611b6c82611b3f565b9050919050565b6000611b7e82611b61565b9050919050565b611b8e81611b73565b82525050565b60e082016000820151611baa6000850182611b85565b506020820151611bbd60208501826119cf565b506040820151611bd060408501826119cf565b506060820151611be360608501826119cf565b506080820151611bf660808501826119cf565b5060a0820151611c0960a08501826119cf565b5060c0820151611c1c60c08501826119cf565b50505050565b600060e082019050611c376000830184611b94565b92915050565b600082825260208201905092915050565b7f4f776e61626c653a2063616c6c6572206973206e6f7420746865206f776e6572600082015250565b6000611c84602083611c3d565b9150611c8f82611c4e565b602082019050919050565b60006020820190508181036000830152611cb381611c77565b9050919050565b600081905092915050565b50565b6000611cd5600083611cba565b9150611ce082611cc5565b600082019050919050565b6000611cf682611cc8565b9150819050919050565b6000604082019050611d156000830185611b0b565b611d226020830184611a3b565b9392505050565b611d3281611a65565b8114611d3d57600080fd5b50565b600081519050611d4f81611d29565b92915050565b600060208284031215611d6b57611d6a6118dc565b5b6000611d7984828501611d40565b91505092915050565b7f427579696e6720686173206e6f7420656e646564207965742e00000000000000600082015250565b6000611db8601983611c3d565b9150611dc382611d82565b602082019050919050565b60006020820190508181036000830152611de781611dab565b9050919050565b7f4e487b7100000000000000000000000000000000000000000000000000000000600052601160045260246000fd5b6000611e28826118e1565b9150611e33836118e1565b9250827fffffffffffffffffffffffffffffffffffffffffffffffffffffffffffffffff03821115611e6857611e67611dee565b5b828201905092915050565b6000611e7e826118e1565b9150611e89836118e1565b9250817fffffffffffffffffffffffffffffffffffffffffffffffffffffffffffffffff0483118215151615611ec257611ec1611dee565b5b828202905092915050565b7f4e487b7100000000000000000000000000000000000000000000000000000000600052601260045260246000fd5b6000611f07826118e1565b9150611f12836118e1565b925082611f2257611f21611ecd565b5b828204905092915050565b6000611f38826118e1565b9150611f43836118e1565b925082821015611f5657611f55611dee565b5b828203905092915050565b7f5061757361626c653a2070617573656400000000000000000000000000000000600082015250565b6000611f97601083611c3d565b9150611fa282611f61565b602082019050919050565b60006020820190508181036000830152611fc681611f8a565b9050919050565b7f56657374696e6720686173206e6f7420626567756e207965742e000000000000600082015250565b6000612003601a83611c3d565b915061200e82611fcd565b602082019050919050565b6000602082019050818103600083015261203281611ff6565b9050919050565b7f546865726520776173206e6f206f766572666c6f772e00000000000000000000600082015250565b600061206f601683611c3d565b915061207a82612039565b602082019050919050565b6000602082019050818103600083015261209e81612062565b9050919050565b7f427579696e6720686173206e6f7420626567756e207965742e00000000000000600082015250565b60006120db601983611c3d565b91506120e6826120a5565b602082019050919050565b6000602082019050818103600083015261210a816120ce565b9050919050565b7f427579696e672068617320656e6465642e000000000000000000000000000000600082015250565b6000612147601183611c3d565b915061215282612111565b602082019050919050565b600060208201905081810360008301526121768161213a565b9050919050565b7f4f776e61626c653a206e6577206f776e657220697320746865207a65726f206160008201527f6464726573730000000000000000000000000000000000000000000000000000602082015250565b60006121d9602683611c3d565b91506121e48261217d565b604082019050919050565b60006020820190508181036000830152612208816121cc565b9050919050565b7f5061757361626c653a206e6f7420706175736564000000000000000000000000600082015250565b6000612245601483611c3d565b91506122508261220f565b602082019050919050565b6000602082019050818103600083015261227481612238565b905091905056fea2646970667358221220847c4509aabf38da3c0539cf6cd607046b35db3df908a1b40a7420008ec6288d64736f6c634300080c0033",
  "linkReferences": {},
  "deployedLinkReferences": {}
}