{
  "_format": "hh-sol-artifact-1",
  "contractName": "IDOWithJustWhitelist",
  "sourceName": "contracts/IDOWithJustWhitelist.sol",
  "abi": [
    {
      "inputs": [
        {
          "components": [
            {
              "internalType": "contract IERC20",
              "name": "token",
              "type": "address"
            },
            {
              "internalType": "uint256",
              "name": "forSale",
              "type": "uint256"
            },
            {
              "internalType": "uint256",
              "name": "asking",
              "type": "uint256"
            },
            {
              "internalType": "uint256",
              "name": "buyingStartsAt",
              "type": "uint256"
            },
            {
              "internalType": "uint256",
              "name": "buyingEndsAt",
              "type": "uint256"
            },
            {
              "internalType": "uint256",
              "name": "vestingStartsAt",
              "type": "uint256"
            },
            {
              "internalType": "uint256",
              "name": "vestingEndsAt",
              "type": "uint256"
            }
          ],
          "internalType": "struct Parameters",
          "name": "parameters",
          "type": "tuple"
        }
      ],
      "stateMutability": "nonpayable",
      "type": "constructor"
    },
    {
      "anonymous": false,
      "inputs": [
        {
          "indexed": false,
          "internalType": "address",
          "name": "addr",
          "type": "address"
        },
        {
          "indexed": false,
          "internalType": "uint256",
          "name": "amount",
          "type": "uint256"
        }
      ],
      "name": "Claimed",
      "type": "event"
    },
    {
      "anonymous": false,
      "inputs": [
        {
          "indexed": false,
          "internalType": "address",
          "name": "addr",
          "type": "address"
        },
        {
          "indexed": false,
          "internalType": "uint256",
          "name": "amount",
          "type": "uint256"
        }
      ],
      "name": "Contributed",
      "type": "event"
    },
    {
      "anonymous": false,
      "inputs": [
        {
          "indexed": true,
          "internalType": "address",
          "name": "previousOwner",
          "type": "address"
        },
        {
          "indexed": true,
          "internalType": "address",
          "name": "newOwner",
          "type": "address"
        }
      ],
      "name": "OwnershipTransferred",
      "type": "event"
    },
    {
      "anonymous": false,
      "inputs": [
        {
          "indexed": false,
          "internalType": "address",
          "name": "account",
          "type": "address"
        }
      ],
      "name": "Paused",
      "type": "event"
    },
    {
      "anonymous": false,
      "inputs": [
        {
          "indexed": false,
          "internalType": "address",
          "name": "addr",
          "type": "address"
        },
        {
          "indexed": false,
          "internalType": "uint256",
          "name": "amount",
          "type": "uint256"
        }
      ],
      "name": "Refunded",
      "type": "event"
    },
    {
      "anonymous": false,
      "inputs": [
        {
          "indexed": false,
          "internalType": "address",
          "name": "addr",
          "type": "address"
        },
        {
          "indexed": false,
          "internalType": "uint256",
          "name": "amount",
          "type": "uint256"
        }
      ],
      "name": "Returned",
      "type": "event"
    },
    {
      "anonymous": false,
      "inputs": [
        {
          "indexed": true,
          "internalType": "bytes32",
          "name": "role",
          "type": "bytes32"
        },
        {
          "indexed": true,
          "internalType": "bytes32",
          "name": "previousAdminRole",
          "type": "bytes32"
        },
        {
          "indexed": true,
          "internalType": "bytes32",
          "name": "newAdminRole",
          "type": "bytes32"
        }
      ],
      "name": "RoleAdminChanged",
      "type": "event"
    },
    {
      "anonymous": false,
      "inputs": [
        {
          "indexed": true,
          "internalType": "bytes32",
          "name": "role",
          "type": "bytes32"
        },
        {
          "indexed": true,
          "internalType": "address",
          "name": "account",
          "type": "address"
        },
        {
          "indexed": true,
          "internalType": "address",
          "name": "sender",
          "type": "address"
        }
      ],
      "name": "RoleGranted",
      "type": "event"
    },
    {
      "anonymous": false,
      "inputs": [
        {
          "indexed": true,
          "internalType": "bytes32",
          "name": "role",
          "type": "bytes32"
        },
        {
          "indexed": true,
          "internalType": "address",
          "name": "account",
          "type": "address"
        },
        {
          "indexed": true,
          "internalType": "address",
          "name": "sender",
          "type": "address"
        }
      ],
      "name": "RoleRevoked",
      "type": "event"
    },
    {
      "anonymous": false,
      "inputs": [
        {
          "indexed": false,
          "internalType": "address",
          "name": "account",
          "type": "address"
        }
      ],
      "name": "Unpaused",
      "type": "event"
    },
    {
      "anonymous": false,
      "inputs": [
        {
          "indexed": false,
          "internalType": "address",
          "name": "addr",
          "type": "address"
        },
        {
          "indexed": false,
          "internalType": "uint256",
          "name": "amount",
          "type": "uint256"
        }
      ],
      "name": "Withdrawn",
      "type": "event"
    },
    {
      "inputs": [],
      "name": "DEFAULT_ADMIN_ROLE",
      "outputs": [
        {
          "internalType": "bytes32",
          "name": "",
          "type": "bytes32"
        }
      ],
      "stateMutability": "view",
      "type": "function"
    },
    {
      "inputs": [],
      "name": "WHITELISTED_ROLE",
      "outputs": [
        {
          "internalType": "bytes32",
          "name": "",
          "type": "bytes32"
        }
      ],
      "stateMutability": "view",
      "type": "function"
    },
    {
      "inputs": [],
      "name": "WHITELISTER_ROLE",
      "outputs": [
        {
          "internalType": "bytes32",
          "name": "",
          "type": "bytes32"
        }
      ],
      "stateMutability": "view",
      "type": "function"
    },
    {
      "inputs": [],
      "name": "claim",
      "outputs": [],
      "stateMutability": "nonpayable",
      "type": "function"
    },
    {
      "inputs": [
        {
          "internalType": "address",
          "name": "addr",
          "type": "address"
        }
      ],
      "name": "claimableOf",
      "outputs": [
        {
          "internalType": "uint256",
          "name": "claimable",
          "type": "uint256"
        }
      ],
      "stateMutability": "view",
      "type": "function"
    },
    {
      "inputs": [],
      "name": "contribute",
      "outputs": [],
      "stateMutability": "payable",
      "type": "function"
    },
    {
      "inputs": [
        {
          "internalType": "uint256",
          "name": "amount",
          "type": "uint256"
        }
      ],
      "name": "forceReturn",
      "outputs": [],
      "stateMutability": "nonpayable",
      "type": "function"
    },
    {
      "inputs": [
        {
          "internalType": "uint256",
          "name": "amount",
          "type": "uint256"
        }
      ],
      "name": "forceWithdraw",
      "outputs": [],
      "stateMutability": "nonpayable",
      "type": "function"
    },
    {
      "inputs": [],
      "name": "getGlobalStats",
      "outputs": [
        {
          "components": [
            {
              "internalType": "uint256",
              "name": "contributed",
              "type": "uint256"
            },
            {
              "internalType": "uint256",
              "name": "claimed",
              "type": "uint256"
            },
            {
              "internalType": "uint256",
              "name": "withdrawn",
              "type": "uint256"
            },
            {
              "internalType": "uint256",
              "name": "returned",
              "type": "uint256"
            }
          ],
          "internalType": "struct GlobalStats",
          "name": "",
          "type": "tuple"
        }
      ],
      "stateMutability": "view",
      "type": "function"
    },
    {
      "inputs": [],
      "name": "getParameters",
      "outputs": [
        {
          "components": [
            {
              "internalType": "contract IERC20",
              "name": "token",
              "type": "address"
            },
            {
              "internalType": "uint256",
              "name": "forSale",
              "type": "uint256"
            },
            {
              "internalType": "uint256",
              "name": "asking",
              "type": "uint256"
            },
            {
              "internalType": "uint256",
              "name": "buyingStartsAt",
              "type": "uint256"
            },
            {
              "internalType": "uint256",
              "name": "buyingEndsAt",
              "type": "uint256"
            },
            {
              "internalType": "uint256",
              "name": "vestingStartsAt",
              "type": "uint256"
            },
            {
              "internalType": "uint256",
              "name": "vestingEndsAt",
              "type": "uint256"
            }
          ],
          "internalType": "struct Parameters",
          "name": "",
          "type": "tuple"
        }
      ],
      "stateMutability": "view",
      "type": "function"
    },
    {
      "inputs": [
        {
          "internalType": "bytes32",
          "name": "role",
          "type": "bytes32"
        }
      ],
      "name": "getRoleAdmin",
      "outputs": [
        {
          "internalType": "bytes32",
          "name": "",
          "type": "bytes32"
        }
      ],
      "stateMutability": "view",
      "type": "function"
    },
    {
      "inputs": [
        {
          "internalType": "bytes32",
          "name": "role",
          "type": "bytes32"
        },
        {
          "internalType": "uint256",
          "name": "index",
          "type": "uint256"
        }
      ],
      "name": "getRoleMember",
      "outputs": [
        {
          "internalType": "address",
          "name": "",
          "type": "address"
        }
      ],
      "stateMutability": "view",
      "type": "function"
    },
    {
      "inputs": [
        {
          "internalType": "bytes32",
          "name": "role",
          "type": "bytes32"
        }
      ],
      "name": "getRoleMemberCount",
      "outputs": [
        {
          "internalType": "uint256",
          "name": "",
          "type": "uint256"
        }
      ],
      "stateMutability": "view",
      "type": "function"
    },
    {
      "inputs": [
        {
          "internalType": "address",
          "name": "addr",
          "type": "address"
        }
      ],
      "name": "getUserStatsOf",
      "outputs": [
        {
          "components": [
            {
              "internalType": "uint256",
              "name": "contributed",
              "type": "uint256"
            },
            {
              "internalType": "uint256",
              "name": "claimed",
              "type": "uint256"
            },
            {
              "internalType": "uint256",
              "name": "refunded",
              "type": "uint256"
            }
          ],
          "internalType": "struct UserStats",
          "name": "",
          "type": "tuple"
        }
      ],
      "stateMutability": "view",
      "type": "function"
    },
    {
      "inputs": [
        {
          "internalType": "bytes32",
          "name": "role",
          "type": "bytes32"
        },
        {
          "internalType": "address",
          "name": "account",
          "type": "address"
        }
      ],
      "name": "grantRole",
      "outputs": [],
      "stateMutability": "nonpayable",
      "type": "function"
    },
    {
      "inputs": [
        {
          "internalType": "bytes32",
          "name": "role",
          "type": "bytes32"
        },
        {
          "internalType": "address",
          "name": "account",
          "type": "address"
        }
      ],
      "name": "hasRole",
      "outputs": [
        {
          "internalType": "bool",
          "name": "",
          "type": "bool"
        }
      ],
      "stateMutability": "view",
      "type": "function"
    },
    {
      "inputs": [],
      "name": "owner",
      "outputs": [
        {
          "internalType": "address",
          "name": "",
          "type": "address"
        }
      ],
      "stateMutability": "view",
      "type": "function"
    },
    {
      "inputs": [],
      "name": "pause",
      "outputs": [],
      "stateMutability": "nonpayable",
      "type": "function"
    },
    {
      "inputs": [],
      "name": "paused",
      "outputs": [
        {
          "internalType": "bool",
          "name": "",
          "type": "bool"
        }
      ],
      "stateMutability": "view",
      "type": "function"
    },
    {
      "inputs": [],
      "name": "refund",
      "outputs": [],
      "stateMutability": "nonpayable",
      "type": "function"
    },
    {
      "inputs": [
        {
          "internalType": "address",
          "name": "addr",
          "type": "address"
        }
      ],
      "name": "refundableOf",
      "outputs": [
        {
          "internalType": "uint256",
          "name": "refundable",
          "type": "uint256"
        }
      ],
      "stateMutability": "view",
      "type": "function"
    },
    {
      "inputs": [],
      "name": "renounceOwnership",
      "outputs": [],
      "stateMutability": "nonpayable",
      "type": "function"
    },
    {
      "inputs": [
        {
          "internalType": "bytes32",
          "name": "role",
          "type": "bytes32"
        },
        {
          "internalType": "address",
          "name": "account",
          "type": "address"
        }
      ],
      "name": "renounceRole",
      "outputs": [],
      "stateMutability": "nonpayable",
      "type": "function"
    },
    {
      "inputs": [],
      "name": "returnUnsold",
      "outputs": [],
      "stateMutability": "nonpayable",
      "type": "function"
    },
    {
      "inputs": [],
      "name": "returnable",
      "outputs": [
        {
          "internalType": "uint256",
          "name": "",
          "type": "uint256"
        }
      ],
      "stateMutability": "view",
      "type": "function"
    },
    {
      "inputs": [
        {
          "internalType": "bytes32",
          "name": "role",
          "type": "bytes32"
        },
        {
          "internalType": "address",
          "name": "account",
          "type": "address"
        }
      ],
      "name": "revokeRole",
      "outputs": [],
      "stateMutability": "nonpayable",
      "type": "function"
    },
    {
      "inputs": [
        {
          "internalType": "bytes4",
          "name": "interfaceId",
          "type": "bytes4"
        }
      ],
      "name": "supportsInterface",
      "outputs": [
        {
          "internalType": "bool",
          "name": "",
          "type": "bool"
        }
      ],
      "stateMutability": "view",
      "type": "function"
    },
    {
      "inputs": [
        {
          "internalType": "address",
          "name": "newOwner",
          "type": "address"
        }
      ],
      "name": "transferOwnership",
      "outputs": [],
      "stateMutability": "nonpayable",
      "type": "function"
    },
    {
      "inputs": [],
      "name": "unpause",
      "outputs": [],
      "stateMutability": "nonpayable",
      "type": "function"
    },
    {
      "inputs": [],
      "name": "withdraw",
      "outputs": [],
      "stateMutability": "nonpayable",
      "type": "function"
    },
    {
      "inputs": [],
      "name": "withdrawable",
      "outputs": [
        {
          "internalType": "uint256",
          "name": "",
          "type": "uint256"
        }
      ],
      "stateMutability": "view",
      "type": "function"
    }
  ],
  "bytecode": "0x60806040527f8619cecd8b9e095ab43867f5b69d492180450fe862e6b50bfbfb24b75dd84c8a600f557f8429d542926e6695b59ac6fbdcd9b37e8b1aeb757afab06ab60b1bb5878c3b496010553480156200005957600080fd5b5060405162003d9b38038062003d9b83398181016040528101906200007f919062000764565b80620000a0620000946200017660201b60201c565b6200017e60201b60201c565b60008060146101000a81548160ff02191690831515021790555080600160008201518160000160006101000a81548173ffffffffffffffffffffffffffffffffffffffff021916908373ffffffffffffffffffffffffffffffffffffffff1602179055506020820151816001015560408201518160020155606082015181600301556080820151816004015560a0820151816005015560c08201518160060155905050506200015a601054600f546200024260201b60201c565b6200016f6000801b33620002a660201b60201c565b5062000796565b600033905090565b60008060009054906101000a900473ffffffffffffffffffffffffffffffffffffffff169050816000806101000a81548173ffffffffffffffffffffffffffffffffffffffff021916908373ffffffffffffffffffffffffffffffffffffffff1602179055508173ffffffffffffffffffffffffffffffffffffffff168173ffffffffffffffffffffffffffffffffffffffff167f8be0079c531659141344cd1fd0a4f28419497f9722a3daafe3b4186f6b6457e060405160405180910390a35050565b60006200025583620002ee60201b60201c565b905081600d6000858152602001908152602001600020600101819055508181847fbd79b86ffe0ab8e8776151514217cd7cacd52c909f66475c3af44e129f0b00ff60405160405180910390a4505050565b620002bd82826200030e60201b620019d21760201c565b620002e981600e60008581526020019081526020016000206200040060201b62001ab31790919060201c565b505050565b6000600d6000838152602001908152602001600020600101549050919050565b6200032082826200043860201b60201c565b620003fc576001600d600084815260200190815260200160002060000160008373ffffffffffffffffffffffffffffffffffffffff1673ffffffffffffffffffffffffffffffffffffffff16815260200190815260200160002060006101000a81548160ff021916908315150217905550620003a16200017660201b60201c565b73ffffffffffffffffffffffffffffffffffffffff168173ffffffffffffffffffffffffffffffffffffffff16837f2f8788117e7eff1d82e926ec794901d17c78024a50270940304540a733656f0d60405160405180910390a45b5050565b600062000430836000018373ffffffffffffffffffffffffffffffffffffffff1660001b620004a360201b60201c565b905092915050565b6000600d600084815260200190815260200160002060000160008373ffffffffffffffffffffffffffffffffffffffff1673ffffffffffffffffffffffffffffffffffffffff16815260200190815260200160002060009054906101000a900460ff16905092915050565b6000620004b783836200051d60201b60201c565b6200051257826000018290806001815401808255809150506001900390600052602060002001600090919091909150558260000180549050836001016000848152602001908152602001600020819055506001905062000517565b600090505b92915050565b600080836001016000848152602001908152602001600020541415905092915050565b6000604051905090565b600080fd5b600080fd5b6000601f19601f8301169050919050565b7f4e487b7100000000000000000000000000000000000000000000000000000000600052604160045260246000fd5b6200059f8262000554565b810181811067ffffffffffffffff82111715620005c157620005c062000565565b5b80604052505050565b6000620005d662000540565b9050620005e4828262000594565b919050565b600073ffffffffffffffffffffffffffffffffffffffff82169050919050565b60006200061682620005e9565b9050919050565b60006200062a8262000609565b9050919050565b6200063c816200061d565b81146200064857600080fd5b50565b6000815190506200065c8162000631565b92915050565b6000819050919050565b620006778162000662565b81146200068357600080fd5b50565b60008151905062000697816200066c565b92915050565b600060e08284031215620006b657620006b56200054f565b5b620006c260e0620005ca565b90506000620006d4848285016200064b565b6000830152506020620006ea8482850162000686565b6020830152506040620007008482850162000686565b6040830152506060620007168482850162000686565b60608301525060806200072c8482850162000686565b60808301525060a0620007428482850162000686565b60a08301525060c0620007588482850162000686565b60c08301525092915050565b600060e082840312156200077d576200077c6200054a565b5b60006200078d848285016200069d565b91505092915050565b6135f580620007a66000396000f3fe6080604052600436106101d85760003560e01c80636b4169c311610102578063a217fddf11610095578063ca15c87311610064578063ca15c87314610650578063d547741f1461068d578063d7bb99ba146106b6578063f2fde38b146106c0576101d8565b8063a217fddf146105a6578063a5ea11da146105d1578063b22163e3146105fc578063b2ea088d14610639576101d8565b80638903ab9d116100d15780638903ab9d146104c45780638da5cb5b146105015780639010d07c1461052c57806391d1485414610569576101d8565b80636b4169c314610440578063715018a61461046b5780637a3226ec146104825780638456cb59146104ad576101d8565b80633ccfd60b1161017a578063501883011161014957806350188301146103a8578063570618e1146103d3578063590e1ae3146103fe5780635c975abb14610415576101d8565b80633ccfd60b146103385780633f4ba83a1461034f5780634da56a6f146103665780634e71d92d14610391576101d8565b8063248a9ca3116101b6578063248a9ca3146102805780632bf9935d146102bd5780632f2ff15d146102e657806336568abe1461030f576101d8565b806301ffc9a7146101dd5780630fcc56f71461021a5780631ae755ee14610243575b600080fd5b3480156101e957600080fd5b5061020460048036038101906101ff9190612712565b6106e9565b604051610211919061275a565b60405180910390f35b34801561022657600080fd5b50610241600480360381019061023c91906127ab565b610763565b005b34801561024f57600080fd5b5061026a60048036038101906102659190612836565b610859565b60405161027791906128b4565b60405180910390f35b34801561028c57600080fd5b506102a760048036038101906102a29190612905565b6108d0565b6040516102b49190612941565b60405180910390f35b3480156102c957600080fd5b506102e460048036038101906102df91906127ab565b6108f0565b005b3480156102f257600080fd5b5061030d6004803603810190610308919061295c565b610a13565b005b34801561031b57600080fd5b506103366004803603810190610331919061295c565b610a3c565b005b34801561034457600080fd5b5061034d610abf565b005b34801561035b57600080fd5b50610364610c5e565b005b34801561037257600080fd5b5061037b610ce4565b60405161038891906129ab565b60405180910390f35b34801561039d57600080fd5b506103a6610d5c565b005b3480156103b457600080fd5b506103bd610f54565b6040516103ca91906129ab565b60405180910390f35b3480156103df57600080fd5b506103e8610fb2565b6040516103f59190612941565b60405180910390f35b34801561040a57600080fd5b50610413610fb8565b005b34801561042157600080fd5b5061042a6111ae565b604051610437919061275a565b60405180910390f35b34801561044c57600080fd5b506104556111c4565b6040516104629190612a1b565b60405180910390f35b34801561047757600080fd5b50610480611206565b005b34801561048e57600080fd5b5061049761128e565b6040516104a49190612941565b60405180910390f35b3480156104b957600080fd5b506104c2611294565b005b3480156104d057600080fd5b506104eb60048036038101906104e69190612836565b61131a565b6040516104f891906129ab565b60405180910390f35b34801561050d57600080fd5b5061051661136a565b6040516105239190612a45565b60405180910390f35b34801561053857600080fd5b50610553600480360381019061054e9190612a60565b611393565b6040516105609190612a45565b60405180910390f35b34801561057557600080fd5b50610590600480360381019061058b919061295c565b6113c2565b60405161059d919061275a565b60405180910390f35b3480156105b257600080fd5b506105bb61142d565b6040516105c89190612941565b60405180910390f35b3480156105dd57600080fd5b506105e6611434565b6040516105f39190612b8d565b60405180910390f35b34801561060857600080fd5b50610623600480360381019061061e9190612836565b6114e0565b60405161063091906129ab565b60405180910390f35b34801561064557600080fd5b5061064e611530565b005b34801561065c57600080fd5b5061067760048036038101906106729190612905565b6116fc565b60405161068491906129ab565b60405180910390f35b34801561069957600080fd5b506106b460048036038101906106af919061295c565b611720565b005b6106be611749565b005b3480156106cc57600080fd5b506106e760048036038101906106e29190612836565b6118da565b005b60007f5a05180f000000000000000000000000000000000000000000000000000000007bffffffffffffffffffffffffffffffffffffffffffffffffffffffff1916827bffffffffffffffffffffffffffffffffffffffffffffffffffffffff1916148061075c575061075b82611ae3565b5b9050919050565b61076b611b5d565b73ffffffffffffffffffffffffffffffffffffffff1661078961136a565b73ffffffffffffffffffffffffffffffffffffffff16146107df576040517f08c379a00000000000000000000000000000000000000000000000000000000081526004016107d690612c05565b60405180910390fd5b60003373ffffffffffffffffffffffffffffffffffffffff168260405161080590612c56565b60006040518083038185875af1925050503d8060008114610842576040519150601f19603f3d011682016040523d82523d6000602084013e610847565b606091505b505090508061085557600080fd5b5050565b610861612619565b600c60008373ffffffffffffffffffffffffffffffffffffffff1673ffffffffffffffffffffffffffffffffffffffff16815260200190815260200160002060405180606001604052908160008201548152602001600182015481526020016002820154815250509050919050565b6000600d6000838152602001908152602001600020600101549050919050565b6108f8611b5d565b73ffffffffffffffffffffffffffffffffffffffff1661091661136a565b73ffffffffffffffffffffffffffffffffffffffff161461096c576040517f08c379a000000000000000000000000000000000000000000000000000000000815260040161096390612c05565b60405180910390fd5b600160000160009054906101000a900473ffffffffffffffffffffffffffffffffffffffff1673ffffffffffffffffffffffffffffffffffffffff1663a9059cbb33836040518363ffffffff1660e01b81526004016109cc929190612c6b565b6020604051808303816000875af11580156109eb573d6000803e3d6000fd5b505050506040513d601f19601f82011682018060405250810190610a0f9190612cc0565b5050565b610a1c826108d0565b610a2d81610a28611b5d565b611b65565b610a378383611c02565b505050565b610a44611b5d565b73ffffffffffffffffffffffffffffffffffffffff168173ffffffffffffffffffffffffffffffffffffffff1614610ab1576040517f08c379a0000000000000000000000000000000000000000000000000000000008152600401610aa890612d5f565b60405180910390fd5b610abb8282611c36565b5050565b610ac7611b5d565b73ffffffffffffffffffffffffffffffffffffffff16610ae561136a565b73ffffffffffffffffffffffffffffffffffffffff1614610b3b576040517f08c379a0000000000000000000000000000000000000000000000000000000008152600401610b3290612c05565b60405180910390fd5b600160040154421015610b83576040517f08c379a0000000000000000000000000000000000000000000000000000000008152600401610b7a90612dcb565b60405180910390fd5b6000610b8d610f54565b90508060086002016000828254610ba49190612e1a565b9250508190555060003373ffffffffffffffffffffffffffffffffffffffff1682604051610bd190612c56565b60006040518083038185875af1925050503d8060008114610c0e576040519150601f19603f3d011682016040523d82523d6000602084013e610c13565b606091505b5050905080610c2157600080fd5b7f7084f5476618d8e60b11ef0d7d3f06914655adb8793e28ff7f018d4c76d505d53383604051610c52929190612c6b565b60405180910390a15050565b610c66611b5d565b73ffffffffffffffffffffffffffffffffffffffff16610c8461136a565b73ffffffffffffffffffffffffffffffffffffffff1614610cda576040517f08c379a0000000000000000000000000000000000000000000000000000000008152600401610cd190612c05565b60405180910390fd5b610ce2611c6a565b565b6000600160040154421015610cfc5760009050610d59565b610d04611d0b565b15610d125760009050610d59565b6008600301546001600201546008600001546001800154610d339190612e70565b610d3d9190612ef9565b6001800154610d4c9190612f2a565b610d569190612f2a565b90505b90565b610d646111ae565b15610da4576040517f08c379a0000000000000000000000000000000000000000000000000000000008152600401610d9b90612faa565b60405180910390fd5b600160050154421015610dec576040517f08c379a0000000000000000000000000000000000000000000000000000000008152600401610de390613016565b60405180910390fd5b6000600c60003373ffffffffffffffffffffffffffffffffffffffff1673ffffffffffffffffffffffffffffffffffffffff16815260200190815260200160002090506000610e3a82611d1f565b905080826001016000828254610e509190612e1a565b925050819055508060086001016000828254610e6c9190612e1a565b92505081905550600160000160009054906101000a900473ffffffffffffffffffffffffffffffffffffffff1673ffffffffffffffffffffffffffffffffffffffff1663a9059cbb33836040518363ffffffff1660e01b8152600401610ed3929190612c6b565b6020604051808303816000875af1158015610ef2573d6000803e3d6000fd5b505050506040513d601f19601f82011682018060405250810190610f169190612cc0565b507fd8138f8a3f377c5259ca548e70e4c2de94f129f5a11036a15b69513cba2b426a3382604051610f48929190612c6b565b60405180910390a15050565b6000600160040154421015610f6c5760009050610faf565b610f74611d0b565b15610f9657600860020154600160020154610f8f9190612f2a565b9050610faf565b600860020154600860000154610fac9190612f2a565b90505b90565b600f5481565b610fc06111ae565b15611000576040517f08c379a0000000000000000000000000000000000000000000000000000000008152600401610ff790612faa565b60405180910390fd5b600160040154421015611048576040517f08c379a000000000000000000000000000000000000000000000000000000000815260040161103f90612dcb565b60405180910390fd5b611050611d0b565b61108f576040517f08c379a000000000000000000000000000000000000000000000000000000000815260040161108690613082565b60405180910390fd5b6000600c60003373ffffffffffffffffffffffffffffffffffffffff1673ffffffffffffffffffffffffffffffffffffffff168152602001908152602001600020905060006110dd82611e13565b9050808260020160008282546110f39190612e1a565b9250508190555060003373ffffffffffffffffffffffffffffffffffffffff168260405161112090612c56565b60006040518083038185875af1925050503d806000811461115d576040519150601f19603f3d011682016040523d82523d6000602084013e611162565b606091505b505090508061117057600080fd5b7fd7dee2702d63ad89917b6a4da9981c90c4d24f8c2bdfd64c604ecae57d8d065133836040516111a1929190612c6b565b60405180910390a1505050565b60008060149054906101000a900460ff16905090565b6111cc61263a565b6008604051806080016040529081600082015481526020016001820154815260200160028201548152602001600382015481525050905090565b61120e611b5d565b73ffffffffffffffffffffffffffffffffffffffff1661122c61136a565b73ffffffffffffffffffffffffffffffffffffffff1614611282576040517f08c379a000000000000000000000000000000000000000000000000000000000815260040161127990612c05565b60405180910390fd5b61128c6000611e8b565b565b60105481565b61129c611b5d565b73ffffffffffffffffffffffffffffffffffffffff166112ba61136a565b73ffffffffffffffffffffffffffffffffffffffff1614611310576040517f08c379a000000000000000000000000000000000000000000000000000000000815260040161130790612c05565b60405180910390fd5b611318611f4f565b565b6000611363600c60008473ffffffffffffffffffffffffffffffffffffffff1673ffffffffffffffffffffffffffffffffffffffff168152602001908152602001600020611d1f565b9050919050565b60008060009054906101000a900473ffffffffffffffffffffffffffffffffffffffff16905090565b60006113ba82600e6000868152602001908152602001600020611ff290919063ffffffff16565b905092915050565b6000600d600084815260200190815260200160002060000160008373ffffffffffffffffffffffffffffffffffffffff1673ffffffffffffffffffffffffffffffffffffffff16815260200190815260200160002060009054906101000a900460ff16905092915050565b6000801b81565b61143c612662565b60016040518060e00160405290816000820160009054906101000a900473ffffffffffffffffffffffffffffffffffffffff1673ffffffffffffffffffffffffffffffffffffffff1673ffffffffffffffffffffffffffffffffffffffff1681526020016001820154815260200160028201548152602001600382015481526020016004820154815260200160058201548152602001600682015481525050905090565b6000611529600c60008473ffffffffffffffffffffffffffffffffffffffff1673ffffffffffffffffffffffffffffffffffffffff168152602001908152602001600020611e13565b9050919050565b611538611b5d565b73ffffffffffffffffffffffffffffffffffffffff1661155661136a565b73ffffffffffffffffffffffffffffffffffffffff16146115ac576040517f08c379a00000000000000000000000000000000000000000000000000000000081526004016115a390612c05565b60405180910390fd5b6001600401544210156115f4576040517f08c379a00000000000000000000000000000000000000000000000000000000081526004016115eb90612dcb565b60405180910390fd5b60006115fe610ce4565b905080600860030160008282546116159190612e1a565b92505081905550600160000160009054906101000a900473ffffffffffffffffffffffffffffffffffffffff1673ffffffffffffffffffffffffffffffffffffffff1663a9059cbb33836040518363ffffffff1660e01b815260040161167c929190612c6b565b6020604051808303816000875af115801561169b573d6000803e3d6000fd5b505050506040513d601f19601f820116820180604052508101906116bf9190612cc0565b507fdd81098bbc043431d4a440ca8823673fd1129893ab79f9838df4cf3d5e38125933826040516116f1929190612c6b565b60405180910390a150565b6000611719600e600084815260200190815260200160002061200c565b9050919050565b611729826108d0565b61173a81611735611b5d565b611b65565b6117448383611c36565b505050565b6117516111ae565b15611791576040517f08c379a000000000000000000000000000000000000000000000000000000000815260040161178890612faa565b60405180910390fd5b6001600301544210156117d9576040517f08c379a00000000000000000000000000000000000000000000000000000000081526004016117d0906130ee565b60405180910390fd5b6001600401544210611820576040517f08c379a00000000000000000000000000000000000000000000000000000000081526004016118179061315a565b60405180910390fd5b61182a3334612021565b34600c60003373ffffffffffffffffffffffffffffffffffffffff1673ffffffffffffffffffffffffffffffffffffffff168152602001908152602001600020600001600082825461187c9190612e1a565b9250508190555034600860000160008282546118989190612e1a565b925050819055507f62722348256371b5147820d6cad90c40fd2da1ccee18c3ed52c0bca5a61dbbab33346040516118d0929190612c6b565b60405180910390a1565b6118e2611b5d565b73ffffffffffffffffffffffffffffffffffffffff1661190061136a565b73ffffffffffffffffffffffffffffffffffffffff1614611956576040517f08c379a000000000000000000000000000000000000000000000000000000000815260040161194d90612c05565b60405180910390fd5b600073ffffffffffffffffffffffffffffffffffffffff168173ffffffffffffffffffffffffffffffffffffffff1614156119c6576040517f08c379a00000000000000000000000000000000000000000000000000000000081526004016119bd906131ec565b60405180910390fd5b6119cf81611e8b565b50565b6119dc82826113c2565b611aaf576001600d600084815260200190815260200160002060000160008373ffffffffffffffffffffffffffffffffffffffff1673ffffffffffffffffffffffffffffffffffffffff16815260200190815260200160002060006101000a81548160ff021916908315150217905550611a54611b5d565b73ffffffffffffffffffffffffffffffffffffffff168173ffffffffffffffffffffffffffffffffffffffff16837f2f8788117e7eff1d82e926ec794901d17c78024a50270940304540a733656f0d60405160405180910390a45b5050565b6000611adb836000018373ffffffffffffffffffffffffffffffffffffffff1660001b61207a565b905092915050565b60007f7965db0b000000000000000000000000000000000000000000000000000000007bffffffffffffffffffffffffffffffffffffffffffffffffffffffff1916827bffffffffffffffffffffffffffffffffffffffffffffffffffffffff19161480611b565750611b55826120ea565b5b9050919050565b600033905090565b611b6f82826113c2565b611bfe57611b948173ffffffffffffffffffffffffffffffffffffffff166014612154565b611ba28360001c6020612154565b604051602001611bb392919061331e565b6040516020818303038152906040526040517f08c379a0000000000000000000000000000000000000000000000000000000008152600401611bf591906133a2565b60405180910390fd5b5050565b611c0c82826119d2565b611c3181600e6000858152602001908152602001600020611ab390919063ffffffff16565b505050565b611c408282612390565b611c6581600e600085815260200190815260200160002061247290919063ffffffff16565b505050565b611c726111ae565b611cb1576040517f08c379a0000000000000000000000000000000000000000000000000000000008152600401611ca890613410565b60405180910390fd5b60008060146101000a81548160ff0219169083151502179055507f5db9ee0a495bf2e6ff9c91a7834c1ba4fdd244a5e8aa4e537bd38aeae4b073aa611cf4611b5d565b604051611d019190612a45565b60405180910390a1565b600060016002015460086000015411905090565b6000600160050154421015611d375760009050611e0e565b600060016005015442611d4a9190612f2a565b90506000600160050154600160060154611d649190612f2a565b9050600081831115611d765781611d78565b825b90506000611d84611d0b565b15611db45760086000015460018001548760000154611da39190612e70565b611dad9190612ef9565b9050611ddb565b60018001546001600201548760000154611dce9190612e70565b611dd89190612ef9565b90505b6000838383611dea9190612e70565b611df49190612ef9565b9050866001015481611e069190612f2a565b955050505050505b919050565b6000600160040154421015611e2b5760009050611e86565b611e33611d0b565b611e405760009050611e86565b81600201546008600001546001600201548460000154611e609190612e70565b611e6a9190612ef9565b8360000154611e799190612f2a565b611e839190612f2a565b90505b919050565b60008060009054906101000a900473ffffffffffffffffffffffffffffffffffffffff169050816000806101000a81548173ffffffffffffffffffffffffffffffffffffffff021916908373ffffffffffffffffffffffffffffffffffffffff1602179055508173ffffffffffffffffffffffffffffffffffffffff168173ffffffffffffffffffffffffffffffffffffffff167f8be0079c531659141344cd1fd0a4f28419497f9722a3daafe3b4186f6b6457e060405160405180910390a35050565b611f576111ae565b15611f97576040517f08c379a0000000000000000000000000000000000000000000000000000000008152600401611f8e90612faa565b60405180910390fd5b6001600060146101000a81548160ff0219169083151502179055507f62e78cea01bee320cd4e420270b5ea74000d11b0c9f74754ebdbfc544b05a258611fdb611b5d565b604051611fe89190612a45565b60405180910390a1565b600061200183600001836124a2565b60001c905092915050565b600061201a826000016124cd565b9050919050565b61202d601054836113c2565b61206c576040517f08c379a00000000000000000000000000000000000000000000000000000000081526004016120639061347c565b60405180910390fd5b61207682826124de565b5050565b600061208683836124e2565b6120df5782600001829080600181540180825580915050600190039060005260206000200160009091909190915055826000018054905083600101600084815260200190815260200160002081905550600190506120e4565b600090505b92915050565b60007f01ffc9a7000000000000000000000000000000000000000000000000000000007bffffffffffffffffffffffffffffffffffffffffffffffffffffffff1916827bffffffffffffffffffffffffffffffffffffffffffffffffffffffff1916149050919050565b6060600060028360026121679190612e70565b6121719190612e1a565b67ffffffffffffffff81111561218a5761218961349c565b5b6040519080825280601f01601f1916602001820160405280156121bc5781602001600182028036833780820191505090505b5090507f3000000000000000000000000000000000000000000000000000000000000000816000815181106121f4576121f36134cb565b5b60200101907effffffffffffffffffffffffffffffffffffffffffffffffffffffffffffff1916908160001a9053507f780000000000000000000000000000000000000000000000000000000000000081600181518110612258576122576134cb565b5b60200101907effffffffffffffffffffffffffffffffffffffffffffffffffffffffffffff1916908160001a905350600060018460026122989190612e70565b6122a29190612e1a565b90505b6001811115612342577f3031323334353637383961626364656600000000000000000000000000000000600f8616601081106122e4576122e36134cb565b5b1a60f81b8282815181106122fb576122fa6134cb565b5b60200101907effffffffffffffffffffffffffffffffffffffffffffffffffffffffffffff1916908160001a905350600485901c94508061233b906134fa565b90506122a5565b5060008414612386576040517f08c379a000000000000000000000000000000000000000000000000000000000815260040161237d90613570565b60405180910390fd5b8091505092915050565b61239a82826113c2565b1561246e576000600d600084815260200190815260200160002060000160008373ffffffffffffffffffffffffffffffffffffffff1673ffffffffffffffffffffffffffffffffffffffff16815260200190815260200160002060006101000a81548160ff021916908315150217905550612413611b5d565b73ffffffffffffffffffffffffffffffffffffffff168173ffffffffffffffffffffffffffffffffffffffff16837ff6391f5c32d9c69d2a47ea670b442974b53935d1edc7fd64eb21e047a839171b60405160405180910390a45b5050565b600061249a836000018373ffffffffffffffffffffffffffffffffffffffff1660001b612505565b905092915050565b60008260000182815481106124ba576124b96134cb565b5b9060005260206000200154905092915050565b600081600001805490509050919050565b5050565b600080836001016000848152602001908152602001600020541415905092915050565b6000808360010160008481526020019081526020016000205490506000811461260d5760006001826125379190612f2a565b905060006001866000018054905061254f9190612f2a565b90508181146125be5760008660000182815481106125705761256f6134cb565b5b9060005260206000200154905080876000018481548110612594576125936134cb565b5b90600052602060002001819055508387600101600083815260200190815260200160002081905550505b856000018054806125d2576125d1613590565b5b600190038181906000526020600020016000905590558560010160008681526020019081526020016000206000905560019350505050612613565b60009150505b92915050565b60405180606001604052806000815260200160008152602001600081525090565b6040518060800160405280600081526020016000815260200160008152602001600081525090565b6040518060e00160405280600073ffffffffffffffffffffffffffffffffffffffff1681526020016000815260200160008152602001600081526020016000815260200160008152602001600081525090565b600080fd5b60007fffffffff0000000000000000000000000000000000000000000000000000000082169050919050565b6126ef816126ba565b81146126fa57600080fd5b50565b60008135905061270c816126e6565b92915050565b600060208284031215612728576127276126b5565b5b6000612736848285016126fd565b91505092915050565b60008115159050919050565b6127548161273f565b82525050565b600060208201905061276f600083018461274b565b92915050565b6000819050919050565b61278881612775565b811461279357600080fd5b50565b6000813590506127a58161277f565b92915050565b6000602082840312156127c1576127c06126b5565b5b60006127cf84828501612796565b91505092915050565b600073ffffffffffffffffffffffffffffffffffffffff82169050919050565b6000612803826127d8565b9050919050565b612813816127f8565b811461281e57600080fd5b50565b6000813590506128308161280a565b92915050565b60006020828403121561284c5761284b6126b5565b5b600061285a84828501612821565b91505092915050565b61286c81612775565b82525050565b6060820160008201516128886000850182612863565b50602082015161289b6020850182612863565b5060408201516128ae6040850182612863565b50505050565b60006060820190506128c96000830184612872565b92915050565b6000819050919050565b6128e2816128cf565b81146128ed57600080fd5b50565b6000813590506128ff816128d9565b92915050565b60006020828403121561291b5761291a6126b5565b5b6000612929848285016128f0565b91505092915050565b61293b816128cf565b82525050565b60006020820190506129566000830184612932565b92915050565b60008060408385031215612973576129726126b5565b5b6000612981858286016128f0565b925050602061299285828601612821565b9150509250929050565b6129a581612775565b82525050565b60006020820190506129c0600083018461299c565b92915050565b6080820160008201516129dc6000850182612863565b5060208201516129ef6020850182612863565b506040820151612a026040850182612863565b506060820151612a156060850182612863565b50505050565b6000608082019050612a3060008301846129c6565b92915050565b612a3f816127f8565b82525050565b6000602082019050612a5a6000830184612a36565b92915050565b60008060408385031215612a7757612a766126b5565b5b6000612a85858286016128f0565b9250506020612a9685828601612796565b9150509250929050565b6000819050919050565b6000612ac5612ac0612abb846127d8565b612aa0565b6127d8565b9050919050565b6000612ad782612aaa565b9050919050565b6000612ae982612acc565b9050919050565b612af981612ade565b82525050565b60e082016000820151612b156000850182612af0565b506020820151612b286020850182612863565b506040820151612b3b6040850182612863565b506060820151612b4e6060850182612863565b506080820151612b616080850182612863565b5060a0820151612b7460a0850182612863565b5060c0820151612b8760c0850182612863565b50505050565b600060e082019050612ba26000830184612aff565b92915050565b600082825260208201905092915050565b7f4f776e61626c653a2063616c6c6572206973206e6f7420746865206f776e6572600082015250565b6000612bef602083612ba8565b9150612bfa82612bb9565b602082019050919050565b60006020820190508181036000830152612c1e81612be2565b9050919050565b600081905092915050565b50565b6000612c40600083612c25565b9150612c4b82612c30565b600082019050919050565b6000612c6182612c33565b9150819050919050565b6000604082019050612c806000830185612a36565b612c8d602083018461299c565b9392505050565b612c9d8161273f565b8114612ca857600080fd5b50565b600081519050612cba81612c94565b92915050565b600060208284031215612cd657612cd56126b5565b5b6000612ce484828501612cab565b91505092915050565b7f416363657373436f6e74726f6c3a2063616e206f6e6c792072656e6f756e636560008201527f20726f6c657320666f722073656c660000000000000000000000000000000000602082015250565b6000612d49602f83612ba8565b9150612d5482612ced565b604082019050919050565b60006020820190508181036000830152612d7881612d3c565b9050919050565b7f427579696e6720686173206e6f7420656e646564207965742e00000000000000600082015250565b6000612db5601983612ba8565b9150612dc082612d7f565b602082019050919050565b60006020820190508181036000830152612de481612da8565b9050919050565b7f4e487b7100000000000000000000000000000000000000000000000000000000600052601160045260246000fd5b6000612e2582612775565b9150612e3083612775565b9250827fffffffffffffffffffffffffffffffffffffffffffffffffffffffffffffffff03821115612e6557612e64612deb565b5b828201905092915050565b6000612e7b82612775565b9150612e8683612775565b9250817fffffffffffffffffffffffffffffffffffffffffffffffffffffffffffffffff0483118215151615612ebf57612ebe612deb565b5b828202905092915050565b7f4e487b7100000000000000000000000000000000000000000000000000000000600052601260045260246000fd5b6000612f0482612775565b9150612f0f83612775565b925082612f1f57612f1e612eca565b5b828204905092915050565b6000612f3582612775565b9150612f4083612775565b925082821015612f5357612f52612deb565b5b828203905092915050565b7f5061757361626c653a2070617573656400000000000000000000000000000000600082015250565b6000612f94601083612ba8565b9150612f9f82612f5e565b602082019050919050565b60006020820190508181036000830152612fc381612f87565b9050919050565b7f56657374696e6720686173206e6f7420626567756e207965742e000000000000600082015250565b6000613000601a83612ba8565b915061300b82612fca565b602082019050919050565b6000602082019050818103600083015261302f81612ff3565b9050919050565b7f546865726520776173206e6f206f766572666c6f772e00000000000000000000600082015250565b600061306c601683612ba8565b915061307782613036565b602082019050919050565b6000602082019050818103600083015261309b8161305f565b9050919050565b7f427579696e6720686173206e6f7420626567756e207965742e00000000000000600082015250565b60006130d8601983612ba8565b91506130e3826130a2565b602082019050919050565b60006020820190508181036000830152613107816130cb565b9050919050565b7f427579696e672068617320656e6465642e000000000000000000000000000000600082015250565b6000613144601183612ba8565b915061314f8261310e565b602082019050919050565b6000602082019050818103600083015261317381613137565b9050919050565b7f4f776e61626c653a206e6577206f776e657220697320746865207a65726f206160008201527f6464726573730000000000000000000000000000000000000000000000000000602082015250565b60006131d6602683612ba8565b91506131e18261317a565b604082019050919050565b60006020820190508181036000830152613205816131c9565b9050919050565b600081905092915050565b7f416363657373436f6e74726f6c3a206163636f756e7420000000000000000000600082015250565b600061324d60178361320c565b915061325882613217565b601782019050919050565b600081519050919050565b60005b8381101561328c578082015181840152602081019050613271565b8381111561329b576000848401525b50505050565b60006132ac82613263565b6132b6818561320c565b93506132c681856020860161326e565b80840191505092915050565b7f206973206d697373696e6720726f6c6520000000000000000000000000000000600082015250565b600061330860118361320c565b9150613313826132d2565b601182019050919050565b600061332982613240565b915061333582856132a1565b9150613340826132fb565b915061334c82846132a1565b91508190509392505050565b6000601f19601f8301169050919050565b600061337482613263565b61337e8185612ba8565b935061338e81856020860161326e565b61339781613358565b840191505092915050565b600060208201905081810360008301526133bc8184613369565b905092915050565b7f5061757361626c653a206e6f7420706175736564000000000000000000000000600082015250565b60006133fa601483612ba8565b9150613405826133c4565b602082019050919050565b60006020820190508181036000830152613429816133ed565b9050919050565b7f5573657220686173206e6f74206265656e2077686974656c69737465642e0000600082015250565b6000613466601e83612ba8565b915061347182613430565b602082019050919050565b6000602082019050818103600083015261349581613459565b9050919050565b7f4e487b7100000000000000000000000000000000000000000000000000000000600052604160045260246000fd5b7f4e487b7100000000000000000000000000000000000000000000000000000000600052603260045260246000fd5b600061350582612775565b9150600082141561351957613518612deb565b5b600182039050919050565b7f537472696e67733a20686578206c656e67746820696e73756666696369656e74600082015250565b600061355a602083612ba8565b915061356582613524565b602082019050919050565b600060208201905081810360008301526135898161354d565b9050919050565b7f4e487b7100000000000000000000000000000000000000000000000000000000600052603160045260246000fdfea2646970667358221220cd91daed3935296c6ced11607cdf1e2e626b087c8473cfdaf235bb3fcb6644cc64736f6c634300080c0033",
  "linkReferences": {},
  "deployedLinkReferences": {}
}