{
  "_format": "hh-sol-artifact-1",
  "contractName": "IDOWithJustWhitelist",
  "sourceName": "contracts/IDO/IDOWithJustWhitelist.sol",
  "abi": [
    {
      "inputs": [
        {
          "components": [
            {
              "internalType": "contract IERC20",
              "name": "token",
              "type": "address"
            },
            {
              "internalType": "uint256",
              "name": "forSale",
              "type": "uint256"
            },
            {
              "internalType": "uint256",
              "name": "asking",
              "type": "uint256"
            },
            {
              "internalType": "uint256",
              "name": "buyingStartsAt",
              "type": "uint256"
            },
            {
              "internalType": "uint256",
              "name": "buyingEndsAt",
              "type": "uint256"
            },
            {
              "internalType": "uint256",
              "name": "vestingStartsAt",
              "type": "uint256"
            },
            {
              "internalType": "uint256",
              "name": "vestingEndsAt",
              "type": "uint256"
            }
          ],
          "internalType": "struct Parameters",
          "name": "parameters",
          "type": "tuple"
        }
      ],
      "stateMutability": "nonpayable",
      "type": "constructor"
    },
    {
      "anonymous": false,
      "inputs": [
        {
          "indexed": false,
          "internalType": "address",
          "name": "addr",
          "type": "address"
        },
        {
          "indexed": false,
          "internalType": "uint256",
          "name": "amount",
          "type": "uint256"
        }
      ],
      "name": "Claimed",
      "type": "event"
    },
    {
      "anonymous": false,
      "inputs": [
        {
          "indexed": false,
          "internalType": "address",
          "name": "addr",
          "type": "address"
        },
        {
          "indexed": false,
          "internalType": "uint256",
          "name": "amount",
          "type": "uint256"
        }
      ],
      "name": "Contributed",
      "type": "event"
    },
    {
      "anonymous": false,
      "inputs": [
        {
          "indexed": true,
          "internalType": "address",
          "name": "previousOwner",
          "type": "address"
        },
        {
          "indexed": true,
          "internalType": "address",
          "name": "newOwner",
          "type": "address"
        }
      ],
      "name": "OwnershipTransferred",
      "type": "event"
    },
    {
      "anonymous": false,
      "inputs": [
        {
          "indexed": false,
          "internalType": "address",
          "name": "account",
          "type": "address"
        }
      ],
      "name": "Paused",
      "type": "event"
    },
    {
      "anonymous": false,
      "inputs": [
        {
          "indexed": false,
          "internalType": "address",
          "name": "addr",
          "type": "address"
        },
        {
          "indexed": false,
          "internalType": "uint256",
          "name": "amount",
          "type": "uint256"
        }
      ],
      "name": "Refunded",
      "type": "event"
    },
    {
      "anonymous": false,
      "inputs": [
        {
          "indexed": false,
          "internalType": "address",
          "name": "addr",
          "type": "address"
        },
        {
          "indexed": false,
          "internalType": "uint256",
          "name": "amount",
          "type": "uint256"
        }
      ],
      "name": "Returned",
      "type": "event"
    },
    {
      "anonymous": false,
      "inputs": [
        {
          "indexed": true,
          "internalType": "bytes32",
          "name": "role",
          "type": "bytes32"
        },
        {
          "indexed": true,
          "internalType": "bytes32",
          "name": "previousAdminRole",
          "type": "bytes32"
        },
        {
          "indexed": true,
          "internalType": "bytes32",
          "name": "newAdminRole",
          "type": "bytes32"
        }
      ],
      "name": "RoleAdminChanged",
      "type": "event"
    },
    {
      "anonymous": false,
      "inputs": [
        {
          "indexed": true,
          "internalType": "bytes32",
          "name": "role",
          "type": "bytes32"
        },
        {
          "indexed": true,
          "internalType": "address",
          "name": "account",
          "type": "address"
        },
        {
          "indexed": true,
          "internalType": "address",
          "name": "sender",
          "type": "address"
        }
      ],
      "name": "RoleGranted",
      "type": "event"
    },
    {
      "anonymous": false,
      "inputs": [
        {
          "indexed": true,
          "internalType": "bytes32",
          "name": "role",
          "type": "bytes32"
        },
        {
          "indexed": true,
          "internalType": "address",
          "name": "account",
          "type": "address"
        },
        {
          "indexed": true,
          "internalType": "address",
          "name": "sender",
          "type": "address"
        }
      ],
      "name": "RoleRevoked",
      "type": "event"
    },
    {
      "anonymous": false,
      "inputs": [
        {
          "indexed": false,
          "internalType": "address",
          "name": "account",
          "type": "address"
        }
      ],
      "name": "Unpaused",
      "type": "event"
    },
    {
      "anonymous": false,
      "inputs": [
        {
          "indexed": false,
          "internalType": "address",
          "name": "addr",
          "type": "address"
        },
        {
          "indexed": false,
          "internalType": "uint256",
          "name": "amount",
          "type": "uint256"
        }
      ],
      "name": "Withdrawn",
      "type": "event"
    },
    {
      "inputs": [],
      "name": "DEFAULT_ADMIN_ROLE",
      "outputs": [
        {
          "internalType": "bytes32",
          "name": "",
          "type": "bytes32"
        }
      ],
      "stateMutability": "view",
      "type": "function"
    },
    {
      "inputs": [],
      "name": "WHITELISTED_ROLE",
      "outputs": [
        {
          "internalType": "bytes32",
          "name": "",
          "type": "bytes32"
        }
      ],
      "stateMutability": "view",
      "type": "function"
    },
    {
      "inputs": [],
      "name": "WHITELISTER_ROLE",
      "outputs": [
        {
          "internalType": "bytes32",
          "name": "",
          "type": "bytes32"
        }
      ],
      "stateMutability": "view",
      "type": "function"
    },
    {
      "inputs": [],
      "name": "claim",
      "outputs": [],
      "stateMutability": "nonpayable",
      "type": "function"
    },
    {
      "inputs": [
        {
          "internalType": "address",
          "name": "addr",
          "type": "address"
        }
      ],
      "name": "claimableOf",
      "outputs": [
        {
          "internalType": "uint256",
          "name": "claimable",
          "type": "uint256"
        }
      ],
      "stateMutability": "view",
      "type": "function"
    },
    {
      "inputs": [],
      "name": "contribute",
      "outputs": [],
      "stateMutability": "payable",
      "type": "function"
    },
    {
      "inputs": [
        {
          "internalType": "uint256",
          "name": "amount",
          "type": "uint256"
        }
      ],
      "name": "forceReturn",
      "outputs": [],
      "stateMutability": "nonpayable",
      "type": "function"
    },
    {
      "inputs": [
        {
          "internalType": "uint256",
          "name": "amount",
          "type": "uint256"
        }
      ],
      "name": "forceWithdraw",
      "outputs": [],
      "stateMutability": "nonpayable",
      "type": "function"
    },
    {
      "inputs": [],
      "name": "getGlobalStats",
      "outputs": [
        {
          "components": [
            {
              "internalType": "uint256",
              "name": "contributed",
              "type": "uint256"
            },
            {
              "internalType": "uint256",
              "name": "claimed",
              "type": "uint256"
            },
            {
              "internalType": "uint256",
              "name": "withdrawn",
              "type": "uint256"
            },
            {
              "internalType": "uint256",
              "name": "returned",
              "type": "uint256"
            }
          ],
          "internalType": "struct GlobalStats",
          "name": "",
          "type": "tuple"
        }
      ],
      "stateMutability": "view",
      "type": "function"
    },
    {
      "inputs": [],
      "name": "getParameters",
      "outputs": [
        {
          "components": [
            {
              "internalType": "contract IERC20",
              "name": "token",
              "type": "address"
            },
            {
              "internalType": "uint256",
              "name": "forSale",
              "type": "uint256"
            },
            {
              "internalType": "uint256",
              "name": "asking",
              "type": "uint256"
            },
            {
              "internalType": "uint256",
              "name": "buyingStartsAt",
              "type": "uint256"
            },
            {
              "internalType": "uint256",
              "name": "buyingEndsAt",
              "type": "uint256"
            },
            {
              "internalType": "uint256",
              "name": "vestingStartsAt",
              "type": "uint256"
            },
            {
              "internalType": "uint256",
              "name": "vestingEndsAt",
              "type": "uint256"
            }
          ],
          "internalType": "struct Parameters",
          "name": "",
          "type": "tuple"
        }
      ],
      "stateMutability": "view",
      "type": "function"
    },
    {
      "inputs": [
        {
          "internalType": "bytes32",
          "name": "role",
          "type": "bytes32"
        }
      ],
      "name": "getRoleAdmin",
      "outputs": [
        {
          "internalType": "bytes32",
          "name": "",
          "type": "bytes32"
        }
      ],
      "stateMutability": "view",
      "type": "function"
    },
    {
      "inputs": [
        {
          "internalType": "bytes32",
          "name": "role",
          "type": "bytes32"
        },
        {
          "internalType": "uint256",
          "name": "index",
          "type": "uint256"
        }
      ],
      "name": "getRoleMember",
      "outputs": [
        {
          "internalType": "address",
          "name": "",
          "type": "address"
        }
      ],
      "stateMutability": "view",
      "type": "function"
    },
    {
      "inputs": [
        {
          "internalType": "bytes32",
          "name": "role",
          "type": "bytes32"
        }
      ],
      "name": "getRoleMemberCount",
      "outputs": [
        {
          "internalType": "uint256",
          "name": "",
          "type": "uint256"
        }
      ],
      "stateMutability": "view",
      "type": "function"
    },
    {
      "inputs": [
        {
          "internalType": "address",
          "name": "addr",
          "type": "address"
        }
      ],
      "name": "getUserStatsOf",
      "outputs": [
        {
          "components": [
            {
              "internalType": "uint256",
              "name": "contributed",
              "type": "uint256"
            },
            {
              "internalType": "uint256",
              "name": "claimed",
              "type": "uint256"
            },
            {
              "internalType": "uint256",
              "name": "refunded",
              "type": "uint256"
            }
          ],
          "internalType": "struct UserStats",
          "name": "",
          "type": "tuple"
        }
      ],
      "stateMutability": "view",
      "type": "function"
    },
    {
      "inputs": [
        {
          "internalType": "bytes32",
          "name": "role",
          "type": "bytes32"
        },
        {
          "internalType": "address",
          "name": "account",
          "type": "address"
        }
      ],
      "name": "grantRole",
      "outputs": [],
      "stateMutability": "nonpayable",
      "type": "function"
    },
    {
      "inputs": [
        {
          "internalType": "bytes32",
          "name": "role",
          "type": "bytes32"
        },
        {
          "internalType": "address",
          "name": "account",
          "type": "address"
        }
      ],
      "name": "hasRole",
      "outputs": [
        {
          "internalType": "bool",
          "name": "",
          "type": "bool"
        }
      ],
      "stateMutability": "view",
      "type": "function"
    },
    {
      "inputs": [],
      "name": "owner",
      "outputs": [
        {
          "internalType": "address",
          "name": "",
          "type": "address"
        }
      ],
      "stateMutability": "view",
      "type": "function"
    },
    {
      "inputs": [],
      "name": "pause",
      "outputs": [],
      "stateMutability": "nonpayable",
      "type": "function"
    },
    {
      "inputs": [],
      "name": "paused",
      "outputs": [
        {
          "internalType": "bool",
          "name": "",
          "type": "bool"
        }
      ],
      "stateMutability": "view",
      "type": "function"
    },
    {
      "inputs": [],
      "name": "refund",
      "outputs": [],
      "stateMutability": "nonpayable",
      "type": "function"
    },
    {
      "inputs": [
        {
          "internalType": "address",
          "name": "addr",
          "type": "address"
        }
      ],
      "name": "refundableOf",
      "outputs": [
        {
          "internalType": "uint256",
          "name": "refundable",
          "type": "uint256"
        }
      ],
      "stateMutability": "view",
      "type": "function"
    },
    {
      "inputs": [],
      "name": "renounceOwnership",
      "outputs": [],
      "stateMutability": "nonpayable",
      "type": "function"
    },
    {
      "inputs": [
        {
          "internalType": "bytes32",
          "name": "role",
          "type": "bytes32"
        },
        {
          "internalType": "address",
          "name": "account",
          "type": "address"
        }
      ],
      "name": "renounceRole",
      "outputs": [],
      "stateMutability": "nonpayable",
      "type": "function"
    },
    {
      "inputs": [],
      "name": "returnUnsold",
      "outputs": [],
      "stateMutability": "nonpayable",
      "type": "function"
    },
    {
      "inputs": [],
      "name": "returnable",
      "outputs": [
        {
          "internalType": "uint256",
          "name": "",
          "type": "uint256"
        }
      ],
      "stateMutability": "view",
      "type": "function"
    },
    {
      "inputs": [
        {
          "internalType": "bytes32",
          "name": "role",
          "type": "bytes32"
        },
        {
          "internalType": "address",
          "name": "account",
          "type": "address"
        }
      ],
      "name": "revokeRole",
      "outputs": [],
      "stateMutability": "nonpayable",
      "type": "function"
    },
    {
      "inputs": [
        {
          "internalType": "bytes4",
          "name": "interfaceId",
          "type": "bytes4"
        }
      ],
      "name": "supportsInterface",
      "outputs": [
        {
          "internalType": "bool",
          "name": "",
          "type": "bool"
        }
      ],
      "stateMutability": "view",
      "type": "function"
    },
    {
      "inputs": [
        {
          "internalType": "address",
          "name": "newOwner",
          "type": "address"
        }
      ],
      "name": "transferOwnership",
      "outputs": [],
      "stateMutability": "nonpayable",
      "type": "function"
    },
    {
      "inputs": [],
      "name": "unpause",
      "outputs": [],
      "stateMutability": "nonpayable",
      "type": "function"
    },
    {
      "inputs": [],
      "name": "withdraw",
      "outputs": [],
      "stateMutability": "nonpayable",
      "type": "function"
    },
    {
      "inputs": [],
      "name": "withdrawable",
      "outputs": [
        {
          "internalType": "uint256",
          "name": "",
          "type": "uint256"
        }
      ],
      "stateMutability": "view",
      "type": "function"
    }
  ],
  "bytecode": "0x60806040527f8619cecd8b9e095ab43867f5b69d492180450fe862e6b50bfbfb24b75dd84c8a6010557f8429d542926e6695b59ac6fbdcd9b37e8b1aeb757afab06ab60b1bb5878c3b496011553480156200005957600080fd5b506040516200429d3803806200429d83398181016040528101906200007f91906200076b565b80620000a0620000946200017d60201b60201c565b6200018560201b60201c565b60008060146101000a81548160ff0219169083151502179055506001808190555080600260008201518160000160006101000a81548173ffffffffffffffffffffffffffffffffffffffff021916908373ffffffffffffffffffffffffffffffffffffffff1602179055506020820151816001015560408201518160020155606082015181600301556080820151816004015560a0820151816005015560c0820151816006015590505050620001616011546010546200024960201b60201c565b620001766000801b33620002ad60201b60201c565b506200079d565b600033905090565b60008060009054906101000a900473ffffffffffffffffffffffffffffffffffffffff169050816000806101000a81548173ffffffffffffffffffffffffffffffffffffffff021916908373ffffffffffffffffffffffffffffffffffffffff1602179055508173ffffffffffffffffffffffffffffffffffffffff168173ffffffffffffffffffffffffffffffffffffffff167f8be0079c531659141344cd1fd0a4f28419497f9722a3daafe3b4186f6b6457e060405160405180910390a35050565b60006200025c83620002f560201b60201c565b905081600e6000858152602001908152602001600020600101819055508181847fbd79b86ffe0ab8e8776151514217cd7cacd52c909f66475c3af44e129f0b00ff60405160405180910390a4505050565b620002c482826200031560201b6200197d1760201c565b620002f081600f60008581526020019081526020016000206200040760201b62001a5e1790919060201c565b505050565b6000600e6000838152602001908152602001600020600101549050919050565b6200032782826200043f60201b60201c565b62000403576001600e600084815260200190815260200160002060000160008373ffffffffffffffffffffffffffffffffffffffff1673ffffffffffffffffffffffffffffffffffffffff16815260200190815260200160002060006101000a81548160ff021916908315150217905550620003a86200017d60201b60201c565b73ffffffffffffffffffffffffffffffffffffffff168173ffffffffffffffffffffffffffffffffffffffff16837f2f8788117e7eff1d82e926ec794901d17c78024a50270940304540a733656f0d60405160405180910390a45b5050565b600062000437836000018373ffffffffffffffffffffffffffffffffffffffff1660001b620004aa60201b60201c565b905092915050565b6000600e600084815260200190815260200160002060000160008373ffffffffffffffffffffffffffffffffffffffff1673ffffffffffffffffffffffffffffffffffffffff16815260200190815260200160002060009054906101000a900460ff16905092915050565b6000620004be83836200052460201b60201c565b620005195782600001829080600181540180825580915050600190039060005260206000200160009091909190915055826000018054905083600101600084815260200190815260200160002081905550600190506200051e565b600090505b92915050565b600080836001016000848152602001908152602001600020541415905092915050565b6000604051905090565b600080fd5b600080fd5b6000601f19601f8301169050919050565b7f4e487b7100000000000000000000000000000000000000000000000000000000600052604160045260246000fd5b620005a6826200055b565b810181811067ffffffffffffffff82111715620005c857620005c76200056c565b5b80604052505050565b6000620005dd62000547565b9050620005eb82826200059b565b919050565b600073ffffffffffffffffffffffffffffffffffffffff82169050919050565b60006200061d82620005f0565b9050919050565b6000620006318262000610565b9050919050565b620006438162000624565b81146200064f57600080fd5b50565b600081519050620006638162000638565b92915050565b6000819050919050565b6200067e8162000669565b81146200068a57600080fd5b50565b6000815190506200069e8162000673565b92915050565b600060e08284031215620006bd57620006bc62000556565b5b620006c960e0620005d1565b90506000620006db8482850162000652565b6000830152506020620006f1848285016200068d565b602083015250604062000707848285016200068d565b60408301525060606200071d848285016200068d565b606083015250608062000733848285016200068d565b60808301525060a062000749848285016200068d565b60a08301525060c06200075f848285016200068d565b60c08301525092915050565b600060e0828403121562000784576200078362000551565b5b60006200079484828501620006a4565b91505092915050565b613af080620007ad6000396000f3fe6080604052600436106101d85760003560e01c80636b4169c311610102578063a217fddf11610095578063ca15c87311610064578063ca15c87314610650578063d547741f1461068d578063d7bb99ba146106b6578063f2fde38b146106c0576101d8565b8063a217fddf146105a6578063a5ea11da146105d1578063b22163e3146105fc578063b2ea088d14610639576101d8565b80638903ab9d116100d15780638903ab9d146104c45780638da5cb5b146105015780639010d07c1461052c57806391d1485414610569576101d8565b80636b4169c314610440578063715018a61461046b5780637a3226ec146104825780638456cb59146104ad576101d8565b80633ccfd60b1161017a578063501883011161014957806350188301146103a8578063570618e1146103d3578063590e1ae3146103fe5780635c975abb14610415576101d8565b80633ccfd60b146103385780633f4ba83a1461034f5780634da56a6f146103665780634e71d92d14610391576101d8565b8063248a9ca3116101b6578063248a9ca3146102805780632bf9935d146102bd5780632f2ff15d146102e657806336568abe1461030f576101d8565b806301ffc9a7146101dd5780630fcc56f71461021a5780631ae755ee14610243575b600080fd5b3480156101e957600080fd5b5061020460048036038101906101ff91906129bf565b6106e9565b6040516102119190612a07565b60405180910390f35b34801561022657600080fd5b50610241600480360381019061023c9190612a58565b610763565b005b34801561024f57600080fd5b5061026a60048036038101906102659190612ae3565b610859565b6040516102779190612b61565b60405180910390f35b34801561028c57600080fd5b506102a760048036038101906102a29190612bb2565b6108d0565b6040516102b49190612bee565b60405180910390f35b3480156102c957600080fd5b506102e460048036038101906102df9190612a58565b6108f0565b005b3480156102f257600080fd5b5061030d60048036038101906103089190612c09565b6109bf565b005b34801561031b57600080fd5b5061033660048036038101906103319190612c09565b6109e8565b005b34801561034457600080fd5b5061034d610a6b565b005b34801561035b57600080fd5b50610364610c0a565b005b34801561037257600080fd5b5061037b610c90565b6040516103889190612c58565b60405180910390f35b34801561039d57600080fd5b506103a6610d09565b005b3480156103b457600080fd5b506103bd610f01565b6040516103ca9190612c58565b60405180910390f35b3480156103df57600080fd5b506103e8610f5e565b6040516103f59190612bee565b60405180910390f35b34801561040a57600080fd5b50610413610f64565b005b34801561042157600080fd5b5061042a6111ae565b6040516104379190612a07565b60405180910390f35b34801561044c57600080fd5b506104556111c4565b6040516104629190612cc8565b60405180910390f35b34801561047757600080fd5b50610480611206565b005b34801561048e57600080fd5b5061049761128e565b6040516104a49190612bee565b60405180910390f35b3480156104b957600080fd5b506104c2611294565b005b3480156104d057600080fd5b506104eb60048036038101906104e69190612ae3565b61131a565b6040516104f89190612c58565b60405180910390f35b34801561050d57600080fd5b5061051661136a565b6040516105239190612cf2565b60405180910390f35b34801561053857600080fd5b50610553600480360381019061054e9190612d0d565b611393565b6040516105609190612cf2565b60405180910390f35b34801561057557600080fd5b50610590600480360381019061058b9190612c09565b6113c2565b60405161059d9190612a07565b60405180910390f35b3480156105b257600080fd5b506105bb61142d565b6040516105c89190612bee565b60405180910390f35b3480156105dd57600080fd5b506105e6611434565b6040516105f39190612e3a565b60405180910390f35b34801561060857600080fd5b50610623600480360381019061061e9190612ae3565b6114e0565b6040516106309190612c58565b60405180910390f35b34801561064557600080fd5b5061064e611530565b005b34801561065c57600080fd5b5061067760048036038101906106729190612bb2565b6116a8565b6040516106849190612c58565b60405180910390f35b34801561069957600080fd5b506106b460048036038101906106af9190612c09565b6116cc565b005b6106be6116f5565b005b3480156106cc57600080fd5b506106e760048036038101906106e29190612ae3565b611886565b005b60007f5a05180f000000000000000000000000000000000000000000000000000000007bffffffffffffffffffffffffffffffffffffffffffffffffffffffff1916827bffffffffffffffffffffffffffffffffffffffffffffffffffffffff1916148061075c575061075b82611a8e565b5b9050919050565b61076b611b08565b73ffffffffffffffffffffffffffffffffffffffff1661078961136a565b73ffffffffffffffffffffffffffffffffffffffff16146107df576040517f08c379a00000000000000000000000000000000000000000000000000000000081526004016107d690612eb2565b60405180910390fd5b60003373ffffffffffffffffffffffffffffffffffffffff168260405161080590612f03565b60006040518083038185875af1925050503d8060008114610842576040519150601f19603f3d011682016040523d82523d6000602084013e610847565b606091505b505090508061085557600080fd5b5050565b6108616128c6565b600d60008373ffffffffffffffffffffffffffffffffffffffff1673ffffffffffffffffffffffffffffffffffffffff16815260200190815260200160002060405180606001604052908160008201548152602001600182015481526020016002820154815250509050919050565b6000600e6000838152602001908152602001600020600101549050919050565b6108f8611b08565b73ffffffffffffffffffffffffffffffffffffffff1661091661136a565b73ffffffffffffffffffffffffffffffffffffffff161461096c576040517f08c379a000000000000000000000000000000000000000000000000000000000815260040161096390612eb2565b60405180910390fd5b6109bc3382600260000160009054906101000a900473ffffffffffffffffffffffffffffffffffffffff1673ffffffffffffffffffffffffffffffffffffffff16611b109092919063ffffffff16565b50565b6109c8826108d0565b6109d9816109d4611b08565b611b96565b6109e38383611c33565b505050565b6109f0611b08565b73ffffffffffffffffffffffffffffffffffffffff168173ffffffffffffffffffffffffffffffffffffffff1614610a5d576040517f08c379a0000000000000000000000000000000000000000000000000000000008152600401610a5490612f8a565b60405180910390fd5b610a678282611c67565b5050565b610a73611b08565b73ffffffffffffffffffffffffffffffffffffffff16610a9161136a565b73ffffffffffffffffffffffffffffffffffffffff1614610ae7576040517f08c379a0000000000000000000000000000000000000000000000000000000008152600401610ade90612eb2565b60405180910390fd5b600260040154421015610b2f576040517f08c379a0000000000000000000000000000000000000000000000000000000008152600401610b2690612ff6565b60405180910390fd5b6000610b39610f01565b90508060096002016000828254610b509190613045565b9250508190555060003373ffffffffffffffffffffffffffffffffffffffff1682604051610b7d90612f03565b60006040518083038185875af1925050503d8060008114610bba576040519150601f19603f3d011682016040523d82523d6000602084013e610bbf565b606091505b5050905080610bcd57600080fd5b7f7084f5476618d8e60b11ef0d7d3f06914655adb8793e28ff7f018d4c76d505d53383604051610bfe92919061309b565b60405180910390a15050565b610c12611b08565b73ffffffffffffffffffffffffffffffffffffffff16610c3061136a565b73ffffffffffffffffffffffffffffffffffffffff1614610c86576040517f08c379a0000000000000000000000000000000000000000000000000000000008152600401610c7d90612eb2565b60405180910390fd5b610c8e611c9b565b565b6000600260040154421015610ca85760009050610d06565b610cb0611d3c565b15610cbe5760009050610d06565b6009600301546002800154600960000154600260010154610cdf91906130c4565b610ce9919061314d565b600260010154610cf9919061317e565b610d03919061317e565b90505b90565b600260015403610d4e576040517f08c379a0000000000000000000000000000000000000000000000000000000008152600401610d45906131fe565b60405180910390fd5b6002600181905550610d5e6111ae565b15610d9e576040517f08c379a0000000000000000000000000000000000000000000000000000000008152600401610d959061326a565b60405180910390fd5b600260050154421015610de6576040517f08c379a0000000000000000000000000000000000000000000000000000000008152600401610ddd906132d6565b60405180910390fd5b6000600d60003373ffffffffffffffffffffffffffffffffffffffff1673ffffffffffffffffffffffffffffffffffffffff16815260200190815260200160002090506000610e3482611d4f565b905080826001016000828254610e4a9190613045565b925050819055508060096001016000828254610e669190613045565b92505081905550610ebd3382600260000160009054906101000a900473ffffffffffffffffffffffffffffffffffffffff1673ffffffffffffffffffffffffffffffffffffffff16611b109092919063ffffffff16565b7fd8138f8a3f377c5259ca548e70e4c2de94f129f5a11036a15b69513cba2b426a3382604051610eee92919061309b565b60405180910390a1505060018081905550565b6000600260040154421015610f195760009050610f5b565b610f21611d3c565b15610f42576009600201546002800154610f3b919061317e565b9050610f5b565b600960020154600960000154610f58919061317e565b90505b90565b60105481565b600260015403610fa9576040517f08c379a0000000000000000000000000000000000000000000000000000000008152600401610fa0906131fe565b60405180910390fd5b6002600181905550610fb96111ae565b15610ff9576040517f08c379a0000000000000000000000000000000000000000000000000000000008152600401610ff09061326a565b60405180910390fd5b600260040154421015611041576040517f08c379a000000000000000000000000000000000000000000000000000000000815260040161103890612ff6565b60405180910390fd5b611049611d3c565b611088576040517f08c379a000000000000000000000000000000000000000000000000000000000815260040161107f90613342565b60405180910390fd5b6000600d60003373ffffffffffffffffffffffffffffffffffffffff1673ffffffffffffffffffffffffffffffffffffffff168152602001908152602001600020905060006110d682611e44565b9050808260020160008282546110ec9190613045565b9250508190555060003373ffffffffffffffffffffffffffffffffffffffff168260405161111990612f03565b60006040518083038185875af1925050503d8060008114611156576040519150601f19603f3d011682016040523d82523d6000602084013e61115b565b606091505b505090508061116957600080fd5b7fd7dee2702d63ad89917b6a4da9981c90c4d24f8c2bdfd64c604ecae57d8d0651338360405161119a92919061309b565b60405180910390a150505060018081905550565b60008060149054906101000a900460ff16905090565b6111cc6128e7565b6009604051806080016040529081600082015481526020016001820154815260200160028201548152602001600382015481525050905090565b61120e611b08565b73ffffffffffffffffffffffffffffffffffffffff1661122c61136a565b73ffffffffffffffffffffffffffffffffffffffff1614611282576040517f08c379a000000000000000000000000000000000000000000000000000000000815260040161127990612eb2565b60405180910390fd5b61128c6000611ebb565b565b60115481565b61129c611b08565b73ffffffffffffffffffffffffffffffffffffffff166112ba61136a565b73ffffffffffffffffffffffffffffffffffffffff1614611310576040517f08c379a000000000000000000000000000000000000000000000000000000000815260040161130790612eb2565b60405180910390fd5b611318611f7f565b565b6000611363600d60008473ffffffffffffffffffffffffffffffffffffffff1673ffffffffffffffffffffffffffffffffffffffff168152602001908152602001600020611d4f565b9050919050565b60008060009054906101000a900473ffffffffffffffffffffffffffffffffffffffff16905090565b60006113ba82600f600086815260200190815260200160002061202290919063ffffffff16565b905092915050565b6000600e600084815260200190815260200160002060000160008373ffffffffffffffffffffffffffffffffffffffff1673ffffffffffffffffffffffffffffffffffffffff16815260200190815260200160002060009054906101000a900460ff16905092915050565b6000801b81565b61143c61290f565b60026040518060e00160405290816000820160009054906101000a900473ffffffffffffffffffffffffffffffffffffffff1673ffffffffffffffffffffffffffffffffffffffff1673ffffffffffffffffffffffffffffffffffffffff1681526020016001820154815260200160028201548152602001600382015481526020016004820154815260200160058201548152602001600682015481525050905090565b6000611529600d60008473ffffffffffffffffffffffffffffffffffffffff1673ffffffffffffffffffffffffffffffffffffffff168152602001908152602001600020611e44565b9050919050565b611538611b08565b73ffffffffffffffffffffffffffffffffffffffff1661155661136a565b73ffffffffffffffffffffffffffffffffffffffff16146115ac576040517f08c379a00000000000000000000000000000000000000000000000000000000081526004016115a390612eb2565b60405180910390fd5b6002600401544210156115f4576040517f08c379a00000000000000000000000000000000000000000000000000000000081526004016115eb90612ff6565b60405180910390fd5b60006115fe610c90565b905080600960030160008282546116159190613045565b9250508190555061166c3382600260000160009054906101000a900473ffffffffffffffffffffffffffffffffffffffff1673ffffffffffffffffffffffffffffffffffffffff16611b109092919063ffffffff16565b7fdd81098bbc043431d4a440ca8823673fd1129893ab79f9838df4cf3d5e381259338260405161169d92919061309b565b60405180910390a150565b60006116c5600f600084815260200190815260200160002061203c565b9050919050565b6116d5826108d0565b6116e6816116e1611b08565b611b96565b6116f08383611c67565b505050565b6116fd6111ae565b1561173d576040517f08c379a00000000000000000000000000000000000000000000000000000000081526004016117349061326a565b60405180910390fd5b600260030154421015611785576040517f08c379a000000000000000000000000000000000000000000000000000000000815260040161177c906133ae565b60405180910390fd5b60026004015442106117cc576040517f08c379a00000000000000000000000000000000000000000000000000000000081526004016117c39061341a565b60405180910390fd5b6117d63334612051565b34600d60003373ffffffffffffffffffffffffffffffffffffffff1673ffffffffffffffffffffffffffffffffffffffff16815260200190815260200160002060000160008282546118289190613045565b9250508190555034600960000160008282546118449190613045565b925050819055507f62722348256371b5147820d6cad90c40fd2da1ccee18c3ed52c0bca5a61dbbab333460405161187c92919061309b565b60405180910390a1565b61188e611b08565b73ffffffffffffffffffffffffffffffffffffffff166118ac61136a565b73ffffffffffffffffffffffffffffffffffffffff1614611902576040517f08c379a00000000000000000000000000000000000000000000000000000000081526004016118f990612eb2565b60405180910390fd5b600073ffffffffffffffffffffffffffffffffffffffff168173ffffffffffffffffffffffffffffffffffffffff1603611971576040517f08c379a0000000000000000000000000000000000000000000000000000000008152600401611968906134ac565b60405180910390fd5b61197a81611ebb565b50565b61198782826113c2565b611a5a576001600e600084815260200190815260200160002060000160008373ffffffffffffffffffffffffffffffffffffffff1673ffffffffffffffffffffffffffffffffffffffff16815260200190815260200160002060006101000a81548160ff0219169083151502179055506119ff611b08565b73ffffffffffffffffffffffffffffffffffffffff168173ffffffffffffffffffffffffffffffffffffffff16837f2f8788117e7eff1d82e926ec794901d17c78024a50270940304540a733656f0d60405160405180910390a45b5050565b6000611a86836000018373ffffffffffffffffffffffffffffffffffffffff1660001b6120aa565b905092915050565b60007f7965db0b000000000000000000000000000000000000000000000000000000007bffffffffffffffffffffffffffffffffffffffffffffffffffffffff1916827bffffffffffffffffffffffffffffffffffffffffffffffffffffffff19161480611b015750611b008261211a565b5b9050919050565b600033905090565b611b918363a9059cbb60e01b8484604051602401611b2f92919061309b565b604051602081830303815290604052907bffffffffffffffffffffffffffffffffffffffffffffffffffffffff19166020820180517bffffffffffffffffffffffffffffffffffffffffffffffffffffffff8381831617835250505050612184565b505050565b611ba082826113c2565b611c2f57611bc58173ffffffffffffffffffffffffffffffffffffffff16601461224b565b611bd38360001c602061224b565b604051602001611be49291906135de565b6040516020818303038152906040526040517f08c379a0000000000000000000000000000000000000000000000000000000008152600401611c269190613662565b60405180910390fd5b5050565b611c3d828261197d565b611c6281600f6000858152602001908152602001600020611a5e90919063ffffffff16565b505050565b611c718282612487565b611c9681600f600085815260200190815260200160002061256990919063ffffffff16565b505050565b611ca36111ae565b611ce2576040517f08c379a0000000000000000000000000000000000000000000000000000000008152600401611cd9906136d0565b60405180910390fd5b60008060146101000a81548160ff0219169083151502179055507f5db9ee0a495bf2e6ff9c91a7834c1ba4fdd244a5e8aa4e537bd38aeae4b073aa611d25611b08565b604051611d329190612cf2565b60405180910390a1565b6000600280015460096000015411905090565b6000600260050154421015611d675760009050611e3f565b600060026005015442611d7a919061317e565b90506000600260050154600260060154611d94919061317e565b9050600081831115611da65781611da8565b825b90506000611db4611d3c565b15611de5576009600001546002600101548760000154611dd491906130c4565b611dde919061314d565b9050611e0c565b60026001015460028001548760000154611dff91906130c4565b611e09919061314d565b90505b6000838383611e1b91906130c4565b611e25919061314d565b9050866001015481611e37919061317e565b955050505050505b919050565b6000600260040154421015611e5c5760009050611eb6565b611e64611d3c565b611e715760009050611eb6565b816002015460096000015460028001548460000154611e9091906130c4565b611e9a919061314d565b8360000154611ea9919061317e565b611eb3919061317e565b90505b919050565b60008060009054906101000a900473ffffffffffffffffffffffffffffffffffffffff169050816000806101000a81548173ffffffffffffffffffffffffffffffffffffffff021916908373ffffffffffffffffffffffffffffffffffffffff1602179055508173ffffffffffffffffffffffffffffffffffffffff168173ffffffffffffffffffffffffffffffffffffffff167f8be0079c531659141344cd1fd0a4f28419497f9722a3daafe3b4186f6b6457e060405160405180910390a35050565b611f876111ae565b15611fc7576040517f08c379a0000000000000000000000000000000000000000000000000000000008152600401611fbe9061326a565b60405180910390fd5b6001600060146101000a81548160ff0219169083151502179055507f62e78cea01bee320cd4e420270b5ea74000d11b0c9f74754ebdbfc544b05a25861200b611b08565b6040516120189190612cf2565b60405180910390a1565b60006120318360000183612599565b60001c905092915050565b600061204a826000016125c4565b9050919050565b61205d601154836113c2565b61209c576040517f08c379a00000000000000000000000000000000000000000000000000000000081526004016120939061373c565b60405180910390fd5b6120a682826125d5565b5050565b60006120b683836125d9565b61210f578260000182908060018154018082558091505060019003906000526020600020016000909190919091505582600001805490508360010160008481526020019081526020016000208190555060019050612114565b600090505b92915050565b60007f01ffc9a7000000000000000000000000000000000000000000000000000000007bffffffffffffffffffffffffffffffffffffffffffffffffffffffff1916827bffffffffffffffffffffffffffffffffffffffffffffffffffffffff1916149050919050565b60006121e6826040518060400160405280602081526020017f5361666545524332303a206c6f772d6c6576656c2063616c6c206661696c65648152508573ffffffffffffffffffffffffffffffffffffffff166125fc9092919063ffffffff16565b905060008151111561224657808060200190518101906122069190613788565b612245576040517f08c379a000000000000000000000000000000000000000000000000000000000815260040161223c90613827565b60405180910390fd5b5b505050565b60606000600283600261225e91906130c4565b6122689190613045565b67ffffffffffffffff81111561228157612280613847565b5b6040519080825280601f01601f1916602001820160405280156122b35781602001600182028036833780820191505090505b5090507f3000000000000000000000000000000000000000000000000000000000000000816000815181106122eb576122ea613876565b5b60200101907effffffffffffffffffffffffffffffffffffffffffffffffffffffffffffff1916908160001a9053507f78000000000000000000000000000000000000000000000000000000000000008160018151811061234f5761234e613876565b5b60200101907effffffffffffffffffffffffffffffffffffffffffffffffffffffffffffff1916908160001a9053506000600184600261238f91906130c4565b6123999190613045565b90505b6001811115612439577f3031323334353637383961626364656600000000000000000000000000000000600f8616601081106123db576123da613876565b5b1a60f81b8282815181106123f2576123f1613876565b5b60200101907effffffffffffffffffffffffffffffffffffffffffffffffffffffffffffff1916908160001a905350600485901c945080612432906138a5565b905061239c565b506000841461247d576040517f08c379a00000000000000000000000000000000000000000000000000000000081526004016124749061391a565b60405180910390fd5b8091505092915050565b61249182826113c2565b15612565576000600e600084815260200190815260200160002060000160008373ffffffffffffffffffffffffffffffffffffffff1673ffffffffffffffffffffffffffffffffffffffff16815260200190815260200160002060006101000a81548160ff02191690831515021790555061250a611b08565b73ffffffffffffffffffffffffffffffffffffffff168173ffffffffffffffffffffffffffffffffffffffff16837ff6391f5c32d9c69d2a47ea670b442974b53935d1edc7fd64eb21e047a839171b60405160405180910390a45b5050565b6000612591836000018373ffffffffffffffffffffffffffffffffffffffff1660001b612614565b905092915050565b60008260000182815481106125b1576125b0613876565b5b9060005260206000200154905092915050565b600081600001805490509050919050565b5050565b600080836001016000848152602001908152602001600020541415905092915050565b606061260b8484600085612728565b90509392505050565b6000808360010160008481526020019081526020016000205490506000811461271c576000600182612646919061317e565b905060006001866000018054905061265e919061317e565b90508181146126cd57600086600001828154811061267f5761267e613876565b5b90600052602060002001549050808760000184815481106126a3576126a2613876565b5b90600052602060002001819055508387600101600083815260200190815260200160002081905550505b856000018054806126e1576126e061393a565b5b600190038181906000526020600020016000905590558560010160008681526020019081526020016000206000905560019350505050612722565b60009150505b92915050565b60608247101561276d576040517f08c379a0000000000000000000000000000000000000000000000000000000008152600401612764906139db565b60405180910390fd5b6127768561283c565b6127b5576040517f08c379a00000000000000000000000000000000000000000000000000000000081526004016127ac90613a47565b60405180910390fd5b6000808673ffffffffffffffffffffffffffffffffffffffff1685876040516127de9190613aa3565b60006040518083038185875af1925050503d806000811461281b576040519150601f19603f3d011682016040523d82523d6000602084013e612820565b606091505b509150915061283082828661285f565b92505050949350505050565b6000808273ffffffffffffffffffffffffffffffffffffffff163b119050919050565b6060831561286f578290506128bf565b6000835111156128825782518084602001fd5b816040517f08c379a00000000000000000000000000000000000000000000000000000000081526004016128b69190613662565b60405180910390fd5b9392505050565b60405180606001604052806000815260200160008152602001600081525090565b6040518060800160405280600081526020016000815260200160008152602001600081525090565b6040518060e00160405280600073ffffffffffffffffffffffffffffffffffffffff1681526020016000815260200160008152602001600081526020016000815260200160008152602001600081525090565b600080fd5b60007fffffffff0000000000000000000000000000000000000000000000000000000082169050919050565b61299c81612967565b81146129a757600080fd5b50565b6000813590506129b981612993565b92915050565b6000602082840312156129d5576129d4612962565b5b60006129e3848285016129aa565b91505092915050565b60008115159050919050565b612a01816129ec565b82525050565b6000602082019050612a1c60008301846129f8565b92915050565b6000819050919050565b612a3581612a22565b8114612a4057600080fd5b50565b600081359050612a5281612a2c565b92915050565b600060208284031215612a6e57612a6d612962565b5b6000612a7c84828501612a43565b91505092915050565b600073ffffffffffffffffffffffffffffffffffffffff82169050919050565b6000612ab082612a85565b9050919050565b612ac081612aa5565b8114612acb57600080fd5b50565b600081359050612add81612ab7565b92915050565b600060208284031215612af957612af8612962565b5b6000612b0784828501612ace565b91505092915050565b612b1981612a22565b82525050565b606082016000820151612b356000850182612b10565b506020820151612b486020850182612b10565b506040820151612b5b6040850182612b10565b50505050565b6000606082019050612b766000830184612b1f565b92915050565b6000819050919050565b612b8f81612b7c565b8114612b9a57600080fd5b50565b600081359050612bac81612b86565b92915050565b600060208284031215612bc857612bc7612962565b5b6000612bd684828501612b9d565b91505092915050565b612be881612b7c565b82525050565b6000602082019050612c036000830184612bdf565b92915050565b60008060408385031215612c2057612c1f612962565b5b6000612c2e85828601612b9d565b9250506020612c3f85828601612ace565b9150509250929050565b612c5281612a22565b82525050565b6000602082019050612c6d6000830184612c49565b92915050565b608082016000820151612c896000850182612b10565b506020820151612c9c6020850182612b10565b506040820151612caf6040850182612b10565b506060820151612cc26060850182612b10565b50505050565b6000608082019050612cdd6000830184612c73565b92915050565b612cec81612aa5565b82525050565b6000602082019050612d076000830184612ce3565b92915050565b60008060408385031215612d2457612d23612962565b5b6000612d3285828601612b9d565b9250506020612d4385828601612a43565b9150509250929050565b6000819050919050565b6000612d72612d6d612d6884612a85565b612d4d565b612a85565b9050919050565b6000612d8482612d57565b9050919050565b6000612d9682612d79565b9050919050565b612da681612d8b565b82525050565b60e082016000820151612dc26000850182612d9d565b506020820151612dd56020850182612b10565b506040820151612de86040850182612b10565b506060820151612dfb6060850182612b10565b506080820151612e0e6080850182612b10565b5060a0820151612e2160a0850182612b10565b5060c0820151612e3460c0850182612b10565b50505050565b600060e082019050612e4f6000830184612dac565b92915050565b600082825260208201905092915050565b7f4f776e61626c653a2063616c6c6572206973206e6f7420746865206f776e6572600082015250565b6000612e9c602083612e55565b9150612ea782612e66565b602082019050919050565b60006020820190508181036000830152612ecb81612e8f565b9050919050565b600081905092915050565b50565b6000612eed600083612ed2565b9150612ef882612edd565b600082019050919050565b6000612f0e82612ee0565b9150819050919050565b7f416363657373436f6e74726f6c3a2063616e206f6e6c792072656e6f756e636560008201527f20726f6c657320666f722073656c660000000000000000000000000000000000602082015250565b6000612f74602f83612e55565b9150612f7f82612f18565b604082019050919050565b60006020820190508181036000830152612fa381612f67565b9050919050565b7f427579696e6720686173206e6f7420656e646564207965742e00000000000000600082015250565b6000612fe0601983612e55565b9150612feb82612faa565b602082019050919050565b6000602082019050818103600083015261300f81612fd3565b9050919050565b7f4e487b7100000000000000000000000000000000000000000000000000000000600052601160045260246000fd5b600061305082612a22565b915061305b83612a22565b9250827fffffffffffffffffffffffffffffffffffffffffffffffffffffffffffffffff038211156130905761308f613016565b5b828201905092915050565b60006040820190506130b06000830185612ce3565b6130bd6020830184612c49565b9392505050565b60006130cf82612a22565b91506130da83612a22565b9250817fffffffffffffffffffffffffffffffffffffffffffffffffffffffffffffffff048311821515161561311357613112613016565b5b828202905092915050565b7f4e487b7100000000000000000000000000000000000000000000000000000000600052601260045260246000fd5b600061315882612a22565b915061316383612a22565b9250826131735761317261311e565b5b828204905092915050565b600061318982612a22565b915061319483612a22565b9250828210156131a7576131a6613016565b5b828203905092915050565b7f5265656e7472616e637947756172643a207265656e7472616e742063616c6c00600082015250565b60006131e8601f83612e55565b91506131f3826131b2565b602082019050919050565b60006020820190508181036000830152613217816131db565b9050919050565b7f5061757361626c653a2070617573656400000000000000000000000000000000600082015250565b6000613254601083612e55565b915061325f8261321e565b602082019050919050565b6000602082019050818103600083015261328381613247565b9050919050565b7f56657374696e6720686173206e6f7420626567756e207965742e000000000000600082015250565b60006132c0601a83612e55565b91506132cb8261328a565b602082019050919050565b600060208201905081810360008301526132ef816132b3565b9050919050565b7f546865726520776173206e6f206f766572666c6f772e00000000000000000000600082015250565b600061332c601683612e55565b9150613337826132f6565b602082019050919050565b6000602082019050818103600083015261335b8161331f565b9050919050565b7f427579696e6720686173206e6f7420626567756e207965742e00000000000000600082015250565b6000613398601983612e55565b91506133a382613362565b602082019050919050565b600060208201905081810360008301526133c78161338b565b9050919050565b7f427579696e672068617320656e6465642e000000000000000000000000000000600082015250565b6000613404601183612e55565b915061340f826133ce565b602082019050919050565b60006020820190508181036000830152613433816133f7565b9050919050565b7f4f776e61626c653a206e6577206f776e657220697320746865207a65726f206160008201527f6464726573730000000000000000000000000000000000000000000000000000602082015250565b6000613496602683612e55565b91506134a18261343a565b604082019050919050565b600060208201905081810360008301526134c581613489565b9050919050565b600081905092915050565b7f416363657373436f6e74726f6c3a206163636f756e7420000000000000000000600082015250565b600061350d6017836134cc565b9150613518826134d7565b601782019050919050565b600081519050919050565b60005b8381101561354c578082015181840152602081019050613531565b8381111561355b576000848401525b50505050565b600061356c82613523565b61357681856134cc565b935061358681856020860161352e565b80840191505092915050565b7f206973206d697373696e6720726f6c6520000000000000000000000000000000600082015250565b60006135c86011836134cc565b91506135d382613592565b601182019050919050565b60006135e982613500565b91506135f58285613561565b9150613600826135bb565b915061360c8284613561565b91508190509392505050565b6000601f19601f8301169050919050565b600061363482613523565b61363e8185612e55565b935061364e81856020860161352e565b61365781613618565b840191505092915050565b6000602082019050818103600083015261367c8184613629565b905092915050565b7f5061757361626c653a206e6f7420706175736564000000000000000000000000600082015250565b60006136ba601483612e55565b91506136c582613684565b602082019050919050565b600060208201905081810360008301526136e9816136ad565b9050919050565b7f5573657220686173206e6f74206265656e2077686974656c69737465642e0000600082015250565b6000613726601e83612e55565b9150613731826136f0565b602082019050919050565b6000602082019050818103600083015261375581613719565b9050919050565b613765816129ec565b811461377057600080fd5b50565b6000815190506137828161375c565b92915050565b60006020828403121561379e5761379d612962565b5b60006137ac84828501613773565b91505092915050565b7f5361666545524332303a204552433230206f7065726174696f6e20646964206e60008201527f6f74207375636365656400000000000000000000000000000000000000000000602082015250565b6000613811602a83612e55565b915061381c826137b5565b604082019050919050565b6000602082019050818103600083015261384081613804565b9050919050565b7f4e487b7100000000000000000000000000000000000000000000000000000000600052604160045260246000fd5b7f4e487b7100000000000000000000000000000000000000000000000000000000600052603260045260246000fd5b60006138b082612a22565b9150600082036138c3576138c2613016565b5b600182039050919050565b7f537472696e67733a20686578206c656e67746820696e73756666696369656e74600082015250565b6000613904602083612e55565b915061390f826138ce565b602082019050919050565b60006020820190508181036000830152613933816138f7565b9050919050565b7f4e487b7100000000000000000000000000000000000000000000000000000000600052603160045260246000fd5b7f416464726573733a20696e73756666696369656e742062616c616e636520666f60008201527f722063616c6c0000000000000000000000000000000000000000000000000000602082015250565b60006139c5602683612e55565b91506139d082613969565b604082019050919050565b600060208201905081810360008301526139f4816139b8565b9050919050565b7f416464726573733a2063616c6c20746f206e6f6e2d636f6e7472616374000000600082015250565b6000613a31601d83612e55565b9150613a3c826139fb565b602082019050919050565b60006020820190508181036000830152613a6081613a24565b9050919050565b600081519050919050565b6000613a7d82613a67565b613a878185612ed2565b9350613a9781856020860161352e565b80840191505092915050565b6000613aaf8284613a72565b91508190509291505056fea26469706673582212209fd32192266cbfaa671bdd768a08e49e1ae889ee943c0aed6dcdb44578836bf564736f6c634300080d0033",
  "linkReferences": {},
  "deployedLinkReferences": {}
}